{
  "_format": "hh-sol-artifact-1",
  "contractName": "AD3",
  "sourceName": "contracts/AD3.sol",
  "abi": [
    {
      "inputs": [
        {
          "internalType": "uint256",
          "name": "totalSupply_",
          "type": "uint256"
        },
        {
          "internalType": "string",
          "name": "name_",
          "type": "string"
        },
        {
          "internalType": "string",
          "name": "symbol_",
          "type": "string"
        },
        {
          "internalType": "address",
          "name": "admin_",
          "type": "address"
        },
        {
          "internalType": "address",
          "name": "recoveryAdmin_",
          "type": "address"
        },
        {
          "internalType": "uint256",
          "name": "timelockPeriod_",
          "type": "uint256"
        },
        {
          "internalType": "address",
          "name": "lossless_",
          "type": "address"
        }
      ],
      "stateMutability": "nonpayable",
      "type": "constructor"
    },
    {
      "anonymous": false,
      "inputs": [
        {
          "indexed": true,
          "internalType": "address",
          "name": "_owner",
          "type": "address"
        },
        {
          "indexed": true,
          "internalType": "address",
          "name": "_spender",
          "type": "address"
        },
        {
          "indexed": false,
          "internalType": "uint256",
          "name": "_value",
          "type": "uint256"
        }
      ],
      "name": "Approval",
      "type": "event"
    },
    {
      "anonymous": false,
      "inputs": [],
      "name": "LosslessOff",
      "type": "event"
    },
    {
      "anonymous": false,
      "inputs": [],
      "name": "LosslessOn",
      "type": "event"
    },
    {
      "anonymous": false,
      "inputs": [
        {
          "indexed": false,
          "internalType": "uint256",
          "name": "_turnOffDate",
          "type": "uint256"
        }
      ],
      "name": "LosslessTurnOffProposal",
      "type": "event"
    },
    {
      "anonymous": false,
      "inputs": [
        {
          "indexed": true,
          "internalType": "address",
          "name": "_newAdmin",
          "type": "address"
        }
      ],
      "name": "NewAdmin",
      "type": "event"
    },
    {
      "anonymous": false,
      "inputs": [
        {
          "indexed": true,
          "internalType": "address",
          "name": "_newAdmin",
          "type": "address"
        }
      ],
      "name": "NewRecoveryAdmin",
      "type": "event"
    },
    {
      "anonymous": false,
      "inputs": [
        {
          "indexed": true,
          "internalType": "address",
          "name": "_candidate",
          "type": "address"
        }
      ],
      "name": "NewRecoveryAdminProposal",
      "type": "event"
    },
    {
      "anonymous": false,
      "inputs": [
        {
          "indexed": true,
          "internalType": "address",
          "name": "_from",
          "type": "address"
        },
        {
          "indexed": true,
          "internalType": "address",
          "name": "_to",
          "type": "address"
        },
        {
          "indexed": false,
          "internalType": "uint256",
          "name": "_value",
          "type": "uint256"
        }
      ],
      "name": "Transfer",
      "type": "event"
    },
    {
      "inputs": [
        {
          "internalType": "bytes",
          "name": "key",
          "type": "bytes"
        }
      ],
      "name": "acceptRecoveryAdminOwnership",
      "outputs": [],
      "stateMutability": "nonpayable",
      "type": "function"
    },
    {
      "inputs": [],
      "name": "admin",
      "outputs": [
        {
          "internalType": "address",
          "name": "",
          "type": "address"
        }
      ],
      "stateMutability": "view",
      "type": "function"
    },
    {
      "inputs": [
        {
          "internalType": "address",
          "name": "owner",
          "type": "address"
        },
        {
          "internalType": "address",
          "name": "spender",
          "type": "address"
        }
      ],
      "name": "allowance",
      "outputs": [
        {
          "internalType": "uint256",
          "name": "",
          "type": "uint256"
        }
      ],
      "stateMutability": "view",
      "type": "function"
    },
    {
      "inputs": [
        {
          "internalType": "address",
          "name": "spender",
          "type": "address"
        },
        {
          "internalType": "uint256",
          "name": "amount",
          "type": "uint256"
        }
      ],
      "name": "approve",
      "outputs": [
        {
          "internalType": "bool",
          "name": "",
          "type": "bool"
        }
      ],
      "stateMutability": "nonpayable",
      "type": "function"
    },
    {
      "inputs": [
        {
          "internalType": "address",
          "name": "account",
          "type": "address"
        }
      ],
      "name": "balanceOf",
      "outputs": [
        {
          "internalType": "uint256",
          "name": "",
          "type": "uint256"
        }
      ],
      "stateMutability": "view",
      "type": "function"
    },
    {
      "inputs": [],
      "name": "decimals",
      "outputs": [
        {
          "internalType": "uint8",
          "name": "",
          "type": "uint8"
        }
      ],
      "stateMutability": "view",
      "type": "function"
    },
    {
      "inputs": [
        {
          "internalType": "address",
          "name": "spender",
          "type": "address"
        },
        {
          "internalType": "uint256",
          "name": "subtractedValue",
          "type": "uint256"
        }
      ],
      "name": "decreaseAllowance",
      "outputs": [
        {
          "internalType": "bool",
          "name": "",
          "type": "bool"
        }
      ],
      "stateMutability": "nonpayable",
      "type": "function"
    },
    {
      "inputs": [],
      "name": "executeLosslessTurnOff",
      "outputs": [],
      "stateMutability": "nonpayable",
      "type": "function"
    },
    {
      "inputs": [],
      "name": "executeLosslessTurnOn",
      "outputs": [],
      "stateMutability": "nonpayable",
      "type": "function"
    },
    {
      "inputs": [],
      "name": "getAdmin",
      "outputs": [
        {
          "internalType": "address",
          "name": "",
          "type": "address"
        }
      ],
      "stateMutability": "view",
      "type": "function"
    },
    {
      "inputs": [
        {
          "internalType": "address",
          "name": "spender",
          "type": "address"
        },
        {
          "internalType": "uint256",
          "name": "addedValue",
          "type": "uint256"
        }
      ],
      "name": "increaseAllowance",
      "outputs": [
        {
          "internalType": "bool",
          "name": "",
          "type": "bool"
        }
      ],
      "stateMutability": "nonpayable",
      "type": "function"
    },
    {
      "inputs": [],
      "name": "isLosslessOn",
      "outputs": [
        {
          "internalType": "bool",
          "name": "",
          "type": "bool"
        }
      ],
      "stateMutability": "view",
      "type": "function"
    },
    {
      "inputs": [],
      "name": "lossless",
      "outputs": [
        {
          "internalType": "contract ILssController",
          "name": "",
          "type": "address"
        }
      ],
      "stateMutability": "view",
      "type": "function"
    },
    {
      "inputs": [],
      "name": "losslessTurnOffTimestamp",
      "outputs": [
        {
          "internalType": "uint256",
          "name": "",
          "type": "uint256"
        }
      ],
      "stateMutability": "view",
      "type": "function"
    },
    {
      "inputs": [],
      "name": "name",
      "outputs": [
        {
          "internalType": "string",
          "name": "",
          "type": "string"
        }
      ],
      "stateMutability": "view",
      "type": "function"
    },
    {
      "inputs": [],
      "name": "proposeLosslessTurnOff",
      "outputs": [],
      "stateMutability": "nonpayable",
      "type": "function"
    },
    {
      "inputs": [],
      "name": "recoveryAdmin",
      "outputs": [
        {
          "internalType": "address",
          "name": "",
          "type": "address"
        }
      ],
      "stateMutability": "view",
      "type": "function"
    },
    {
      "inputs": [
        {
          "internalType": "address",
          "name": "newAdmin",
          "type": "address"
        }
      ],
      "name": "setLosslessAdmin",
      "outputs": [],
      "stateMutability": "nonpayable",
      "type": "function"
    },
    {
      "inputs": [],
      "name": "symbol",
      "outputs": [
        {
          "internalType": "string",
          "name": "",
          "type": "string"
        }
      ],
      "stateMutability": "view",
      "type": "function"
    },
    {
      "inputs": [],
      "name": "timelockPeriod",
      "outputs": [
        {
          "internalType": "uint256",
          "name": "",
          "type": "uint256"
        }
      ],
      "stateMutability": "view",
      "type": "function"
    },
    {
      "inputs": [],
      "name": "totalSupply",
      "outputs": [
        {
          "internalType": "uint256",
          "name": "",
          "type": "uint256"
        }
      ],
      "stateMutability": "view",
      "type": "function"
    },
    {
      "inputs": [
        {
          "internalType": "address",
          "name": "recipient",
          "type": "address"
        },
        {
          "internalType": "uint256",
          "name": "amount",
          "type": "uint256"
        }
      ],
      "name": "transfer",
      "outputs": [
        {
          "internalType": "bool",
          "name": "",
          "type": "bool"
        }
      ],
      "stateMutability": "nonpayable",
      "type": "function"
    },
    {
      "inputs": [
        {
          "internalType": "address",
          "name": "sender",
          "type": "address"
        },
        {
          "internalType": "address",
          "name": "recipient",
          "type": "address"
        },
        {
          "internalType": "uint256",
          "name": "amount",
          "type": "uint256"
        }
      ],
      "name": "transferFrom",
      "outputs": [
        {
          "internalType": "bool",
          "name": "",
          "type": "bool"
        }
      ],
      "stateMutability": "nonpayable",
      "type": "function"
    },
    {
      "inputs": [
        {
          "internalType": "address[]",
          "name": "from",
          "type": "address[]"
        }
      ],
      "name": "transferOutBlacklistedFunds",
      "outputs": [],
      "stateMutability": "nonpayable",
      "type": "function"
    },
    {
      "inputs": [
        {
          "internalType": "address",
          "name": "candidate",
          "type": "address"
        },
        {
          "internalType": "bytes32",
          "name": "keyHash",
          "type": "bytes32"
        }
      ],
      "name": "transferRecoveryAdminOwnership",
      "outputs": [],
      "stateMutability": "nonpayable",
      "type": "function"
    }
  ],
  "bytecode": "0x60806040526001600b60006101000a81548160ff0219169083151502179055503480156200002c57600080fd5b50604051620033a6380380620033a6833981810160405281019062000052919062000478565b6200007362000066620001ce60201b60201c565b88620001d660201b60201c565b85600390805190602001906200008b9291906200031c565b508460049080519060200190620000a49291906200031c565b5083600860006101000a81548173ffffffffffffffffffffffffffffffffffffffff021916908373ffffffffffffffffffffffffffffffffffffffff16021790555082600560006101000a81548173ffffffffffffffffffffffffffffffffffffffff021916908373ffffffffffffffffffffffffffffffffffffffff1602179055506000600660006101000a81548173ffffffffffffffffffffffffffffffffffffffff021916908373ffffffffffffffffffffffffffffffffffffffff1602179055506000600781905550816009819055506000600a8190555080600b60016101000a81548173ffffffffffffffffffffffffffffffffffffffff021916908373ffffffffffffffffffffffffffffffffffffffff160217905550505050505050506200089c565b600033905090565b600073ffffffffffffffffffffffffffffffffffffffff168273ffffffffffffffffffffffffffffffffffffffff16141562000249576040517f08c379a00000000000000000000000000000000000000000000000000000000081526004016200024090620005a1565b60405180910390fd5b80600260008282546200025d919062000650565b92505081905550806000808473ffffffffffffffffffffffffffffffffffffffff1673ffffffffffffffffffffffffffffffffffffffff168152602001908152602001600020600082825401925050819055508173ffffffffffffffffffffffffffffffffffffffff16600073ffffffffffffffffffffffffffffffffffffffff167fddf252ad1be2c89b69c2b068fc378daa952ba7f163c4a11628f55a4df523b3ef83604051620003109190620005c3565b60405180910390a35050565b8280546200032a9062000721565b90600052602060002090601f0160209004810192826200034e57600085556200039a565b82601f106200036957805160ff19168380011785556200039a565b828001600101855582156200039a579182015b82811115620003995782518255916020019190600101906200037c565b5b509050620003a99190620003ad565b5090565b5b80821115620003c8576000816000905550600101620003ae565b5090565b6000620003e3620003dd8462000609565b620005e0565b9050828152602081018484840111156200040257620004016200081f565b5b6200040f848285620006eb565b509392505050565b600081519050620004288162000868565b92915050565b600082601f8301126200044657620004456200081a565b5b815162000458848260208601620003cc565b91505092915050565b600081519050620004728162000882565b92915050565b600080600080600080600060e0888a0312156200049a576200049962000829565b5b6000620004aa8a828b0162000461565b975050602088015167ffffffffffffffff811115620004ce57620004cd62000824565b5b620004dc8a828b016200042e565b965050604088015167ffffffffffffffff8111156200050057620004ff62000824565b5b6200050e8a828b016200042e565b9550506060620005218a828b0162000417565b9450506080620005348a828b0162000417565b93505060a0620005478a828b0162000461565b92505060c06200055a8a828b0162000417565b91505092959891949750929550565b6000620005786020836200063f565b915062000585826200083f565b602082019050919050565b6200059b81620006e1565b82525050565b60006020820190508181036000830152620005bc8162000569565b9050919050565b6000602082019050620005da600083018462000590565b92915050565b6000620005ec620005ff565b9050620005fa828262000757565b919050565b6000604051905090565b600067ffffffffffffffff821115620006275762000626620007eb565b5b62000632826200082e565b9050602081019050919050565b600082825260208201905092915050565b60006200065d82620006e1565b91506200066a83620006e1565b9250827fffffffffffffffffffffffffffffffffffffffffffffffffffffffffffffffff03821115620006a257620006a16200078d565b5b828201905092915050565b6000620006ba82620006c1565b9050919050565b600073ffffffffffffffffffffffffffffffffffffffff82169050919050565b6000819050919050565b60005b838110156200070b578082015181840152602081019050620006ee565b838111156200071b576000848401525b50505050565b600060028204905060018216806200073a57607f821691505b60208210811415620007515762000750620007bc565b5b50919050565b62000762826200082e565b810181811067ffffffffffffffff82111715620007845762000783620007eb565b5b80604052505050565b7f4e487b7100000000000000000000000000000000000000000000000000000000600052601160045260246000fd5b7f4e487b7100000000000000000000000000000000000000000000000000000000600052602260045260246000fd5b7f4e487b7100000000000000000000000000000000000000000000000000000000600052604160045260246000fd5b600080fd5b600080fd5b600080fd5b600080fd5b6000601f19601f8301169050919050565b7f4c45524332303a206d696e7420746f20746865207a65726f2061646472657373600082015250565b6200087381620006ad565b81146200087f57600080fd5b50565b6200088d81620006e1565b81146200089957600080fd5b50565b612afa80620008ac6000396000f3fe608060405234801561001057600080fd5b50600436106101735760003560e01c80636e9960c3116100de578063a9059cbb11610097578063ccfa214f11610071578063ccfa214f1461042a578063d6e242b814610448578063dd62ed3e14610452578063f851a4401461048257610173565b8063a9059cbb146103d4578063b38fe95714610404578063b5c228771461040e57610173565b80636e9960c31461030057806370a082311461031e57806393310ffe1461034e578063936af9111461036a57806395d89b4114610386578063a457c2d7146103a457610173565b8063313ce56711610130578063313ce5671461024e57806334f6ebf51461026c578063395093511461028a5780635b8a194a146102ba5780635f6529a3146102c457806361086b00146102e257610173565b806306fdde0314610178578063095ea7b31461019657806318160ddd146101c657806323b872dd146101e45780632baa3c9e146102145780632ecaf67514610230575b600080fd5b6101806104a0565b60405161018d9190612239565b60405180910390f35b6101b060048036038101906101ab9190611e28565b610532565b6040516101bd9190612203565b60405180910390f35b6101ce610602565b6040516101db919061241b565b60405180910390f35b6101fe60048036038101906101f99190611d95565b61060c565b60405161020b9190612203565b60405180910390f35b61022e60048036038101906102299190611d28565b6107c3565b005b610238610972565b604051610245919061241b565b60405180910390f35b610256610978565b6040516102639190612436565b60405180910390f35b610274610981565b604051610281919061221e565b60405180910390f35b6102a4600480360381019061029f9190611e28565b6109a7565b6040516102b19190612203565b60405180910390f35b6102c2610b05565b005b6102cc610c3d565b6040516102d9919061216c565b60405180910390f35b6102ea610c63565b6040516102f7919061241b565b60405180910390f35b610308610c69565b604051610315919061216c565b60405180910390f35b61033860048036038101906103339190611d28565b610c93565b604051610345919061241b565b60405180910390f35b61036860048036038101906103639190611de8565b610cdb565b005b610384600480360381019061037f9190611e68565b610e01565b005b61038e611087565b60405161039b9190612239565b60405180910390f35b6103be60048036038101906103b99190611e28565b611119565b6040516103cb9190612203565b60405180910390f35b6103ee60048036038101906103e99190611e28565b6112c0565b6040516103fb9190612203565b60405180910390f35b61040c611390565b005b61042860048036038101906104239190611eb5565b611503565b005b6104326116f2565b60405161043f9190612203565b60405180910390f35b610450611705565b005b61046c60048036038101906104679190611d55565b61187f565b604051610479919061241b565b60405180910390f35b61048a611906565b604051610497919061216c565b60405180910390f35b6060600380546104af90612612565b80601f01602080910402602001604051908101604052809291908181526020018280546104db90612612565b80156105285780601f106104fd57610100808354040283529160200191610528565b820191906000526020600020905b81548152906001019060200180831161050b57829003601f168201915b5050505050905090565b60008282600b60009054906101000a900460ff16156105e457600b60019054906101000a900473ffffffffffffffffffffffffffffffffffffffff1673ffffffffffffffffffffffffffffffffffffffff166347abf3be61059161192c565b84846040518463ffffffff1660e01b81526004016105b1939291906121cc565b600060405180830381600087803b1580156105cb57600080fd5b505af11580156105df573d6000803e3d6000fd5b505050505b6105f66105ef61192c565b8686611934565b60019250505092915050565b6000600254905090565b6000838383600b60009054906101000a900460ff16156106c157600b60019054906101000a900473ffffffffffffffffffffffffffffffffffffffff1673ffffffffffffffffffffffffffffffffffffffff1663379f5c6961066c61192c565b8585856040518563ffffffff1660e01b815260040161068e9493929190612187565b600060405180830381600087803b1580156106a857600080fd5b505af11580156106bc573d6000803e3d6000fd5b505050505b6000600160008973ffffffffffffffffffffffffffffffffffffffff1673ffffffffffffffffffffffffffffffffffffffff168152602001908152602001600020600061070c61192c565b73ffffffffffffffffffffffffffffffffffffffff1673ffffffffffffffffffffffffffffffffffffffff1681526020019081526020016000205490508581101561078c576040517f08c379a0000000000000000000000000000000000000000000000000000000008152600401610783906122bb565b60405180910390fd5b610797888888611a1f565b6107b4886107a361192c565b88846107af9190612519565b611934565b60019450505050509392505050565b600560009054906101000a900473ffffffffffffffffffffffffffffffffffffffff1673ffffffffffffffffffffffffffffffffffffffff1661080461192c565b73ffffffffffffffffffffffffffffffffffffffff161461085a576040517f08c379a00000000000000000000000000000000000000000000000000000000081526004016108519061237b565b60405180910390fd5b600860009054906101000a900473ffffffffffffffffffffffffffffffffffffffff1673ffffffffffffffffffffffffffffffffffffffff168173ffffffffffffffffffffffffffffffffffffffff1614156108eb576040517f08c379a00000000000000000000000000000000000000000000000000000000081526004016108e29061225b565b60405180910390fd5b8073ffffffffffffffffffffffffffffffffffffffff167f71614071b88dee5e0b2ae578a9dd7b2ebbe9ae832ba419dc0242cd065a290b6c60405160405180910390a280600860006101000a81548173ffffffffffffffffffffffffffffffffffffffff021916908373ffffffffffffffffffffffffffffffffffffffff16021790555050565b60095481565b60006012905090565b600b60019054906101000a900473ffffffffffffffffffffffffffffffffffffffff1681565b60008282600b60009054906101000a900460ff1615610a5957600b60019054906101000a900473ffffffffffffffffffffffffffffffffffffffff1673ffffffffffffffffffffffffffffffffffffffff1663cf5961bb610a0661192c565b84846040518463ffffffff1660e01b8152600401610a26939291906121cc565b600060405180830381600087803b158015610a4057600080fd5b505af1158015610a54573d6000803e3d6000fd5b505050505b610af9610a6461192c565b868660016000610a7261192c565b73ffffffffffffffffffffffffffffffffffffffff1673ffffffffffffffffffffffffffffffffffffffff16815260200190815260200160002060008a73ffffffffffffffffffffffffffffffffffffffff1673ffffffffffffffffffffffffffffffffffffffff16815260200190815260200160002054610af491906124c3565b611934565b60019250505092915050565b600560009054906101000a900473ffffffffffffffffffffffffffffffffffffffff1673ffffffffffffffffffffffffffffffffffffffff16610b4661192c565b73ffffffffffffffffffffffffffffffffffffffff1614610b9c576040517f08c379a0000000000000000000000000000000000000000000000000000000008152600401610b939061237b565b60405180910390fd5b600b60009054906101000a900460ff1615610bec576040517f08c379a0000000000000000000000000000000000000000000000000000000008152600401610be39061239b565b60405180910390fd5b6000600a819055506001600b60006101000a81548160ff0219169083151502179055507f1ba3b66404043da8297d0b876fa6464f2cb127edfc6626308046d4503028322b60405160405180910390a1565b600560009054906101000a900473ffffffffffffffffffffffffffffffffffffffff1681565b600a5481565b6000600860009054906101000a900473ffffffffffffffffffffffffffffffffffffffff16905090565b60008060008373ffffffffffffffffffffffffffffffffffffffff1673ffffffffffffffffffffffffffffffffffffffff168152602001908152602001600020549050919050565b600560009054906101000a900473ffffffffffffffffffffffffffffffffffffffff1673ffffffffffffffffffffffffffffffffffffffff16610d1c61192c565b73ffffffffffffffffffffffffffffffffffffffff1614610d72576040517f08c379a0000000000000000000000000000000000000000000000000000000008152600401610d699061237b565b60405180910390fd5b81600660006101000a81548173ffffffffffffffffffffffffffffffffffffffff021916908373ffffffffffffffffffffffffffffffffffffffff160217905550806007819055508173ffffffffffffffffffffffffffffffffffffffff167f6c591da8da2f6e69746d7d9ae61c27ee29fbe303798141b4942ae2aef54274b160405160405180910390a25050565b600b60019054906101000a900473ffffffffffffffffffffffffffffffffffffffff1673ffffffffffffffffffffffffffffffffffffffff16610e4261192c565b73ffffffffffffffffffffffffffffffffffffffff1614610e98576040517f08c379a0000000000000000000000000000000000000000000000000000000008152600401610e8f906123db565b60405180910390fd5b60008282905090506000805b82811015611009576000858583818110610ec157610ec061271c565b5b9050602002016020810190610ed69190611d28565b905060008060008373ffffffffffffffffffffffffffffffffffffffff1673ffffffffffffffffffffffffffffffffffffffff16815260200190815260200160002054905060008060008473ffffffffffffffffffffffffffffffffffffffff1673ffffffffffffffffffffffffffffffffffffffff168152602001908152602001600020819055508084610f6b91906124c3565b9350600b60019054906101000a900473ffffffffffffffffffffffffffffffffffffffff1673ffffffffffffffffffffffffffffffffffffffff168273ffffffffffffffffffffffffffffffffffffffff167fddf252ad1be2c89b69c2b068fc378daa952ba7f163c4a11628f55a4df523b3ef83604051610fec919061241b565b60405180910390a35050808061100190612675565b915050610ea4565b5080600080600b60019054906101000a900473ffffffffffffffffffffffffffffffffffffffff1673ffffffffffffffffffffffffffffffffffffffff1673ffffffffffffffffffffffffffffffffffffffff168152602001908152602001600020600082825461107a91906124c3565b9250508190555050505050565b60606004805461109690612612565b80601f01602080910402602001604051908101604052809291908181526020018280546110c290612612565b801561110f5780601f106110e45761010080835404028352916020019161110f565b820191906000526020600020905b8154815290600101906020018083116110f257829003601f168201915b5050505050905090565b60008282600b60009054906101000a900460ff16156111cb57600b60019054906101000a900473ffffffffffffffffffffffffffffffffffffffff1673ffffffffffffffffffffffffffffffffffffffff1663568c75a961117861192c565b84846040518463ffffffff1660e01b8152600401611198939291906121cc565b600060405180830381600087803b1580156111b257600080fd5b505af11580156111c6573d6000803e3d6000fd5b505050505b6000600160006111d961192c565b73ffffffffffffffffffffffffffffffffffffffff1673ffffffffffffffffffffffffffffffffffffffff16815260200190815260200160002060008773ffffffffffffffffffffffffffffffffffffffff1673ffffffffffffffffffffffffffffffffffffffff16815260200190815260200160002054905084811015611296576040517f08c379a000000000000000000000000000000000000000000000000000000000815260040161128d906123fb565b60405180910390fd5b6112b36112a161192c565b8787846112ae9190612519565b611934565b6001935050505092915050565b60008282600b60009054906101000a900460ff161561137257600b60019054906101000a900473ffffffffffffffffffffffffffffffffffffffff1673ffffffffffffffffffffffffffffffffffffffff16631ffb811f61131f61192c565b84846040518463ffffffff1660e01b815260040161133f939291906121cc565b600060405180830381600087803b15801561135957600080fd5b505af115801561136d573d6000803e3d6000fd5b505050505b61138461137d61192c565b8686611a1f565b60019250505092915050565b600560009054906101000a900473ffffffffffffffffffffffffffffffffffffffff1673ffffffffffffffffffffffffffffffffffffffff166113d161192c565b73ffffffffffffffffffffffffffffffffffffffff1614611427576040517f08c379a000000000000000000000000000000000000000000000000000000000815260040161141e9061237b565b60405180910390fd5b6000600a54141561146d576040517f08c379a0000000000000000000000000000000000000000000000000000000008152600401611464906122fb565b60405180910390fd5b42600a5411156114b2576040517f08c379a00000000000000000000000000000000000000000000000000000000081526004016114a99061227b565b60405180910390fd5b6000600b60006101000a81548160ff0219169083151502179055506000600a819055507f3eb72350c9c7928d31e9ab450bfff2c159434aa4b82658a7d8eae7f109cb4e7b60405160405180910390a1565b600660009054906101000a900473ffffffffffffffffffffffffffffffffffffffff1673ffffffffffffffffffffffffffffffffffffffff1661154461192c565b73ffffffffffffffffffffffffffffffffffffffff161461159a576040517f08c379a00000000000000000000000000000000000000000000000000000000081526004016115919061233b565b60405180910390fd5b6007548180519060200120146115e5576040517f08c379a00000000000000000000000000000000000000000000000000000000081526004016115dc906122db565b60405180910390fd5b600660009054906101000a900473ffffffffffffffffffffffffffffffffffffffff1673ffffffffffffffffffffffffffffffffffffffff167fb94bba6936ec7f75ee931dadf6e1a4d66b43d09b6fa0178fb13df9b77fb5841f60405160405180910390a2600660009054906101000a900473ffffffffffffffffffffffffffffffffffffffff16600560006101000a81548173ffffffffffffffffffffffffffffffffffffffff021916908373ffffffffffffffffffffffffffffffffffffffff1602179055506000600660006101000a81548173ffffffffffffffffffffffffffffffffffffffff021916908373ffffffffffffffffffffffffffffffffffffffff16021790555050565b600b60009054906101000a900460ff1681565b600560009054906101000a900473ffffffffffffffffffffffffffffffffffffffff1673ffffffffffffffffffffffffffffffffffffffff1661174661192c565b73ffffffffffffffffffffffffffffffffffffffff161461179c576040517f08c379a00000000000000000000000000000000000000000000000000000000081526004016117939061237b565b60405180910390fd5b6000600a54146117e1576040517f08c379a00000000000000000000000000000000000000000000000000000000081526004016117d89061235b565b60405180910390fd5b600b60009054906101000a900460ff16611830576040517f08c379a0000000000000000000000000000000000000000000000000000000008152600401611827906123bb565b60405180910390fd5b6009544261183e91906124c3565b600a819055507f6ca688e6e3ddd707280140b2bf0106afe883689b6c74e68cbd517576dd9c245a600a54604051611875919061241b565b60405180910390a1565b6000600160008473ffffffffffffffffffffffffffffffffffffffff1673ffffffffffffffffffffffffffffffffffffffff16815260200190815260200160002060008373ffffffffffffffffffffffffffffffffffffffff1673ffffffffffffffffffffffffffffffffffffffff16815260200190815260200160002054905092915050565b600860009054906101000a900473ffffffffffffffffffffffffffffffffffffffff1681565b600033905090565b80600160008573ffffffffffffffffffffffffffffffffffffffff1673ffffffffffffffffffffffffffffffffffffffff16815260200190815260200160002060008473ffffffffffffffffffffffffffffffffffffffff1673ffffffffffffffffffffffffffffffffffffffff168152602001908152602001600020819055508173ffffffffffffffffffffffffffffffffffffffff168373ffffffffffffffffffffffffffffffffffffffff167f8c5be1e5ebec7d5bd14f71427d1e84f3dd0314c0f7b2291e5b200ac8c7c3b92583604051611a12919061241b565b60405180910390a3505050565b600073ffffffffffffffffffffffffffffffffffffffff168373ffffffffffffffffffffffffffffffffffffffff161415611a8f576040517f08c379a0000000000000000000000000000000000000000000000000000000008152600401611a869061231b565b60405180910390fd5b60008060008573ffffffffffffffffffffffffffffffffffffffff1673ffffffffffffffffffffffffffffffffffffffff16815260200190815260200160002054905081811015611b15576040517f08c379a0000000000000000000000000000000000000000000000000000000008152600401611b0c9061229b565b60405180910390fd5b8181611b219190612519565b6000808673ffffffffffffffffffffffffffffffffffffffff1673ffffffffffffffffffffffffffffffffffffffff16815260200190815260200160002081905550816000808573ffffffffffffffffffffffffffffffffffffffff1673ffffffffffffffffffffffffffffffffffffffff1681526020019081526020016000206000828254611bb191906124c3565b925050819055508273ffffffffffffffffffffffffffffffffffffffff168473ffffffffffffffffffffffffffffffffffffffff167fddf252ad1be2c89b69c2b068fc378daa952ba7f163c4a11628f55a4df523b3ef84604051611c15919061241b565b60405180910390a350505050565b6000611c36611c3184612476565b612451565b905082815260208101848484011115611c5257611c51612789565b5b611c5d8482856125d0565b509392505050565b600081359050611c7481612a7f565b92915050565b60008083601f840112611c9057611c8f61277f565b5b8235905067ffffffffffffffff811115611cad57611cac61277a565b5b602083019150836020820283011115611cc957611cc8612784565b5b9250929050565b600081359050611cdf81612a96565b92915050565b600082601f830112611cfa57611cf961277f565b5b8135611d0a848260208601611c23565b91505092915050565b600081359050611d2281612aad565b92915050565b600060208284031215611d3e57611d3d612793565b5b6000611d4c84828501611c65565b91505092915050565b60008060408385031215611d6c57611d6b612793565b5b6000611d7a85828601611c65565b9250506020611d8b85828601611c65565b9150509250929050565b600080600060608486031215611dae57611dad612793565b5b6000611dbc86828701611c65565b9350506020611dcd86828701611c65565b9250506040611dde86828701611d13565b9150509250925092565b60008060408385031215611dff57611dfe612793565b5b6000611e0d85828601611c65565b9250506020611e1e85828601611cd0565b9150509250929050565b60008060408385031215611e3f57611e3e612793565b5b6000611e4d85828601611c65565b9250506020611e5e85828601611d13565b9150509250929050565b60008060208385031215611e7f57611e7e612793565b5b600083013567ffffffffffffffff811115611e9d57611e9c61278e565b5b611ea985828601611c7a565b92509250509250929050565b600060208284031215611ecb57611eca612793565b5b600082013567ffffffffffffffff811115611ee957611ee861278e565b5b611ef584828501611ce5565b91505092915050565b611f078161254d565b82525050565b611f168161255f565b82525050565b611f25816125ac565b82525050565b6000611f36826124a7565b611f4081856124b2565b9350611f508185602086016125df565b611f5981612798565b840191505092915050565b6000611f71601f836124b2565b9150611f7c826127a9565b602082019050919050565b6000611f94601d836124b2565b9150611f9f826127d2565b602082019050919050565b6000611fb76027836124b2565b9150611fc2826127fb565b604082019050919050565b6000611fda6029836124b2565b9150611fe58261284a565b604082019050919050565b6000611ffd6013836124b2565b915061200882612899565b602082019050919050565b6000612020601c836124b2565b915061202b826128c2565b602082019050919050565b60006120436026836124b2565b915061204e826128eb565b604082019050919050565b60006120666019836124b2565b91506120718261293a565b602082019050919050565b60006120896020836124b2565b915061209482612963565b602082019050919050565b60006120ac601e836124b2565b91506120b78261298c565b602082019050919050565b60006120cf601b836124b2565b91506120da826129b5565b602082019050919050565b60006120f2601c836124b2565b91506120fd826129de565b602082019050919050565b6000612115601e836124b2565b915061212082612a07565b602082019050919050565b60006121386026836124b2565b915061214382612a30565b604082019050919050565b61215781612595565b82525050565b6121668161259f565b82525050565b60006020820190506121816000830184611efe565b92915050565b600060808201905061219c6000830187611efe565b6121a96020830186611efe565b6121b66040830185611efe565b6121c3606083018461214e565b95945050505050565b60006060820190506121e16000830186611efe565b6121ee6020830185611efe565b6121fb604083018461214e565b949350505050565b60006020820190506122186000830184611f0d565b92915050565b60006020820190506122336000830184611f1c565b92915050565b600060208201905081810360008301526122538184611f2b565b905092915050565b6000602082019050818103600083015261227481611f64565b9050919050565b6000602082019050818103600083015261229481611f87565b9050919050565b600060208201905081810360008301526122b481611faa565b9050919050565b600060208201905081810360008301526122d481611fcd565b9050919050565b600060208201905081810360008301526122f481611ff0565b9050919050565b6000602082019050818103600083015261231481612013565b9050919050565b6000602082019050818103600083015261233481612036565b9050919050565b6000602082019050818103600083015261235481612059565b9050919050565b600060208201905081810360008301526123748161207c565b9050919050565b600060208201905081810360008301526123948161209f565b9050919050565b600060208201905081810360008301526123b4816120c2565b9050919050565b600060208201905081810360008301526123d4816120e5565b9050919050565b600060208201905081810360008301526123f481612108565b9050919050565b600060208201905081810360008301526124148161212b565b9050919050565b6000602082019050612430600083018461214e565b92915050565b600060208201905061244b600083018461215d565b92915050565b600061245b61246c565b90506124678282612644565b919050565b6000604051905090565b600067ffffffffffffffff8211156124915761249061274b565b5b61249a82612798565b9050602081019050919050565b600081519050919050565b600082825260208201905092915050565b60006124ce82612595565b91506124d983612595565b9250827fffffffffffffffffffffffffffffffffffffffffffffffffffffffffffffffff0382111561250e5761250d6126be565b5b828201905092915050565b600061252482612595565b915061252f83612595565b925082821015612542576125416126be565b5b828203905092915050565b600061255882612575565b9050919050565b60008115159050919050565b6000819050919050565b600073ffffffffffffffffffffffffffffffffffffffff82169050919050565b6000819050919050565b600060ff82169050919050565b60006125b7826125be565b9050919050565b60006125c982612575565b9050919050565b82818337600083830152505050565b60005b838110156125fd5780820151818401526020810190506125e2565b8381111561260c576000848401525b50505050565b6000600282049050600182168061262a57607f821691505b6020821081141561263e5761263d6126ed565b5b50919050565b61264d82612798565b810181811067ffffffffffffffff8211171561266c5761266b61274b565b5b80604052505050565b600061268082612595565b91507fffffffffffffffffffffffffffffffffffffffffffffffffffffffffffffffff8214156126b3576126b26126be565b5b600182019050919050565b7f4e487b7100000000000000000000000000000000000000000000000000000000600052601160045260246000fd5b7f4e487b7100000000000000000000000000000000000000000000000000000000600052602260045260246000fd5b7f4e487b7100000000000000000000000000000000000000000000000000000000600052603260045260246000fd5b7f4e487b7100000000000000000000000000000000000000000000000000000000600052604160045260246000fd5b600080fd5b600080fd5b600080fd5b600080fd5b600080fd5b600080fd5b6000601f19601f8301169050919050565b7f4c45524332303a2043616e6e6f74207365742073616d65206164647265737300600082015250565b7f4c45524332303a2054696d65206c6f636b20696e2070726f6772657373000000600082015250565b7f4c45524332303a207472616e7366657220616d6f756e7420657863656564732060008201527f62616c616e636500000000000000000000000000000000000000000000000000602082015250565b7f4c45524332303a207472616e7366657220616d6f756e7420657863656564732060008201527f616c6c6f77616e63650000000000000000000000000000000000000000000000602082015250565b7f4c45524332303a20496e76616c6964206b657900000000000000000000000000600082015250565b7f4c45524332303a205475726e4f6666206e6f742070726f706f73656400000000600082015250565b7f4c45524332303a207472616e736665722066726f6d20746865207a65726f206160008201527f6464726573730000000000000000000000000000000000000000000000000000602082015250565b7f4c45524332303a204d7573742062652063616e64697461746500000000000000600082015250565b7f4c45524332303a205475726e4f666620616c72656164792070726f706f736564600082015250565b7f4c45524332303a204d757374206265207265636f766572792061646d696e0000600082015250565b7f4c45524332303a204c6f73736c65737320616c7265616479206f6e0000000000600082015250565b7f4c45524332303a204c6f73736c65737320616c7265616479206f666600000000600082015250565b7f4c45524332303a204f6e6c79206c6f73736c65737320636f6e74726163740000600082015250565b7f4c45524332303a2064656372656173656420616c6c6f77616e63652062656c6f60008201527f77207a65726f0000000000000000000000000000000000000000000000000000602082015250565b612a888161254d565b8114612a9357600080fd5b50565b612a9f8161256b565b8114612aaa57600080fd5b50565b612ab681612595565b8114612ac157600080fd5b5056fea264697066735822122022dcd33b2ab1e1ff7fa1e02cbda46b3949556fe951020d45ddd589783f78d9a964736f6c63430008050033",
  "linkReferences": {},
  "deployedLinkReferences": {}
}