{
  "_format": "hh-sol-artifact-1",
  "contractName": "Auction",
  "sourceName": "contracts/Auction.sol",
  "abi": [
    {
      "anonymous": false,
      "inputs": [
        {
          "indexed": false,
          "internalType": "address",
          "name": "hNFTContractAddr",
          "type": "address"
        },
        {
          "indexed": true,
          "internalType": "uint256",
          "name": "curBidId",
          "type": "uint256"
        },
        {
          "indexed": true,
          "internalType": "uint256",
          "name": "preBidId",
          "type": "uint256"
        },
        {
          "indexed": false,
          "internalType": "address",
          "name": "bidder",
          "type": "address"
        }
      ],
      "name": "BidCommitted",
      "type": "event"
    },
    {
      "anonymous": false,
      "inputs": [
        {
          "indexed": false,
          "internalType": "address",
          "name": "hNFTContractAddr",
          "type": "address"
        },
        {
          "indexed": true,
          "internalType": "uint256",
          "name": "curBidId",
          "type": "uint256"
        },
        {
          "indexed": true,
          "internalType": "uint256",
          "name": "preBidId",
          "type": "uint256"
        },
        {
          "indexed": false,
          "internalType": "address",
          "name": "bidder",
          "type": "address"
        },
        {
          "indexed": false,
          "internalType": "address",
          "name": "goverAddr",
          "type": "address"
        }
      ],
      "name": "BidPrepared",
      "type": "event"
    },
    {
      "anonymous": false,
      "inputs": [
        {
          "indexed": false,
          "internalType": "uint256",
          "name": "bidId",
          "type": "uint256"
        },
        {
          "indexed": false,
          "internalType": "uint256",
          "name": "hNFTId",
          "type": "uint256"
        },
        {
          "indexed": false,
          "internalType": "address",
          "name": "to",
          "type": "address"
        },
        {
          "indexed": false,
          "internalType": "uint256",
          "name": "amount",
          "type": "uint256"
        }
      ],
      "name": "BidRefunded",
      "type": "event"
    },
    {
      "anonymous": false,
      "inputs": [
        {
          "indexed": false,
          "internalType": "uint8",
          "name": "version",
          "type": "uint8"
        }
      ],
      "name": "Initialized",
      "type": "event"
    },
    {
      "anonymous": false,
      "inputs": [
        {
          "indexed": true,
          "internalType": "address",
          "name": "previousOwner",
          "type": "address"
        },
        {
          "indexed": true,
          "internalType": "address",
          "name": "newOwner",
          "type": "address"
        }
      ],
      "name": "OwnershipTransferred",
      "type": "event"
    },
    {
      "inputs": [
        {
          "components": [
            {
              "internalType": "uint256",
              "name": "hNFTId",
              "type": "uint256"
            },
            {
              "internalType": "address",
              "name": "hNFTContractAddr",
              "type": "address"
            }
          ],
          "internalType": "struct Auction.HNFTInfo",
          "name": "hNFTInfo",
          "type": "tuple"
        },
        {
          "internalType": "uint256",
          "name": "governanceTokenAmount",
          "type": "uint256"
        },
        {
          "internalType": "string",
          "name": "slotUri",
          "type": "string"
        },
        {
          "internalType": "bytes",
          "name": "_signature",
          "type": "bytes"
        },
        {
          "internalType": "uint256",
          "name": "curBidId",
          "type": "uint256"
        },
        {
          "internalType": "uint256",
          "name": "preBidId",
          "type": "uint256"
        },
        {
          "internalType": "uint256",
          "name": "curBidRemain",
          "type": "uint256"
        }
      ],
      "name": "commitBid",
      "outputs": [],
      "stateMutability": "nonpayable",
      "type": "function"
    },
    {
      "inputs": [
        {
          "internalType": "address",
          "name": "",
          "type": "address"
        },
        {
          "internalType": "uint256",
          "name": "",
          "type": "uint256"
        }
      ],
      "name": "curBid",
      "outputs": [
        {
          "internalType": "uint256",
          "name": "bidId",
          "type": "uint256"
        },
        {
          "internalType": "uint256",
          "name": "amount",
          "type": "uint256"
        },
        {
          "internalType": "address",
          "name": "bidder",
          "type": "address"
        },
        {
          "internalType": "string",
          "name": "slotUri",
          "type": "string"
        },
        {
          "internalType": "address",
          "name": "governanceTokenAddr",
          "type": "address"
        }
      ],
      "stateMutability": "view",
      "type": "function"
    },
    {
      "inputs": [],
      "name": "getMinDepositForPreBid",
      "outputs": [
        {
          "internalType": "uint256",
          "name": "",
          "type": "uint256"
        }
      ],
      "stateMutability": "view",
      "type": "function"
    },
    {
      "inputs": [
        {
          "internalType": "address",
          "name": "hNFTAddr",
          "type": "address"
        },
        {
          "internalType": "uint256",
          "name": "hNFTId",
          "type": "uint256"
        }
      ],
      "name": "getPrepareBidInfo",
      "outputs": [
        {
          "components": [
            {
              "internalType": "uint256",
              "name": "bidId",
              "type": "uint256"
            },
            {
              "internalType": "uint256",
              "name": "amount",
              "type": "uint256"
            },
            {
              "internalType": "address",
              "name": "bidder",
              "type": "address"
            },
            {
              "internalType": "uint256",
              "name": "preBidTime",
              "type": "uint256"
            },
            {
              "internalType": "address",
              "name": "governanceTokenAddr",
              "type": "address"
            },
            {
              "internalType": "uint256",
              "name": "curBidId",
              "type": "uint256"
            }
          ],
          "internalType": "struct Auction.PrepareBidInfo",
          "name": "",
          "type": "tuple"
        }
      ],
      "stateMutability": "view",
      "type": "function"
    },
    {
      "inputs": [],
      "name": "getRelayerAddress",
      "outputs": [
        {
          "internalType": "address",
          "name": "",
          "type": "address"
        }
      ],
      "stateMutability": "view",
      "type": "function"
    },
    {
      "inputs": [
        {
          "internalType": "address",
          "name": "_relayerAddress",
          "type": "address"
        },
        {
          "internalType": "address",
          "name": "_ad3Address",
          "type": "address"
        },
        {
          "internalType": "address",
          "name": "_hnftGoverAddress",
          "type": "address"
        }
      ],
      "name": "initialize",
      "outputs": [],
      "stateMutability": "nonpayable",
      "type": "function"
    },
    {
      "inputs": [],
      "name": "owner",
      "outputs": [
        {
          "internalType": "address",
          "name": "",
          "type": "address"
        }
      ],
      "stateMutability": "view",
      "type": "function"
    },
    {
      "inputs": [
        {
          "internalType": "address",
          "name": "hNFTContractAddr",
          "type": "address"
        },
        {
          "internalType": "uint256",
          "name": "hNFTId",
          "type": "uint256"
        }
      ],
      "name": "preBid",
      "outputs": [],
      "stateMutability": "nonpayable",
      "type": "function"
    },
    {
      "inputs": [
        {
          "internalType": "address",
          "name": "",
          "type": "address"
        },
        {
          "internalType": "uint256",
          "name": "",
          "type": "uint256"
        }
      ],
      "name": "preBids",
      "outputs": [
        {
          "internalType": "uint256",
          "name": "bidId",
          "type": "uint256"
        },
        {
          "internalType": "uint256",
          "name": "amount",
          "type": "uint256"
        },
        {
          "internalType": "address",
          "name": "bidder",
          "type": "address"
        },
        {
          "internalType": "uint256",
          "name": "preBidTime",
          "type": "uint256"
        },
        {
          "internalType": "address",
          "name": "governanceTokenAddr",
          "type": "address"
        }
      ],
      "stateMutability": "view",
      "type": "function"
    },
    {
      "inputs": [
        {
          "internalType": "uint256",
          "name": "hnftId",
          "type": "uint256"
        },
        {
          "internalType": "address",
          "name": "hNFTContractAddr",
          "type": "address"
        },
        {
          "internalType": "address",
          "name": "governanceTokenAddress",
          "type": "address"
        },
        {
          "internalType": "uint256",
          "name": "governanceTokenAmount",
          "type": "uint256"
        },
        {
          "internalType": "uint256",
          "name": "curBidId",
          "type": "uint256"
        },
        {
          "internalType": "uint256",
          "name": "preBidId",
          "type": "uint256"
        },
        {
          "internalType": "bytes",
          "name": "_signature",
          "type": "bytes"
        }
      ],
      "name": "recover",
      "outputs": [
        {
          "internalType": "address",
          "name": "",
          "type": "address"
        }
      ],
      "stateMutability": "pure",
      "type": "function"
    },
    {
      "inputs": [],
      "name": "renounceOwnership",
      "outputs": [],
      "stateMutability": "nonpayable",
      "type": "function"
    },
    {
      "inputs": [
        {
          "internalType": "uint256",
          "name": "_MIN_DEPOIST_FOR_PRE_BID",
          "type": "uint256"
        }
      ],
      "name": "setMinDepositForPreBid",
      "outputs": [],
      "stateMutability": "nonpayable",
      "type": "function"
    },
    {
      "inputs": [
        {
          "internalType": "address",
          "name": "_relayerAddress",
          "type": "address"
        }
      ],
      "name": "setRelayerAddress",
      "outputs": [],
      "stateMutability": "nonpayable",
      "type": "function"
    },
    {
      "inputs": [
        {
          "internalType": "address",
          "name": "newOwner",
          "type": "address"
        }
      ],
      "name": "transferOwnership",
      "outputs": [],
      "stateMutability": "nonpayable",
      "type": "function"
    }
  ],
  "bytecode": "0x608060405234801561001057600080fd5b5061414d806100206000396000f3fe608060405234801561001057600080fd5b50600436106100ea5760003560e01c80639f757e9c1161008c578063d384a0d711610066578063d384a0d71461022b578063e61774bb14610247578063e9b83ac814610277578063f2fde38b146102a7576100ea565b80639f757e9c146101bd578063aeb84804146101f1578063c0c53b8b1461020f576100ea565b8063715018a6116100c8578063715018a61461015b57806372ca1921146101655780638da5cb5b146101815780639c2dadc91461019f576100ea565b80632d0d4dc3146100ef578063375473f21461010b5780636670be9f14610127575b600080fd5b61010960048036038101906101049190612b27565b6102c3565b005b61012560048036038101906101209190612b94565b610a69565b005b610141600480360381019061013c9190612b27565b6110de565b60405161015295949392919061379b565b60405180910390f35b610163611161565b005b61017f600480360381019061017a9190612c6f565b611175565b005b610189611187565b60405161019691906132b2565b60405180910390f35b6101a76111b1565b6040516101b491906132b2565b60405180910390f35b6101d760048036038101906101d29190612b27565b6111e3565b6040516101e89594939291906136fc565b60405180910390f35b6101f96112ee565b6040516102069190613688565b60405180910390f35b61022960048036038101906102249190612ad4565b611300565b005b61024560048036038101906102409190612a7a565b611515565b005b610261600480360381019061025c9190612cc9565b611561565b60405161026e91906132b2565b60405180910390f35b610291600480360381019061028c9190612b27565b611594565b60405161029e919061366d565b60405180910390f35b6102c160048036038101906102bc9190612a7a565b611794565b005b60008111610306576040517f08c379a00000000000000000000000000000000000000000000000000000000081526004016102fd9061350d565b60405180910390fd5b61036e606b54606960008573ffffffffffffffffffffffffffffffffffffffff1673ffffffffffffffffffffffffffffffffffffffff16815260200190815260200160002060008481526020019081526020016000206003015461181890919063ffffffff16565b4210156103b0576040517f08c379a00000000000000000000000000000000000000000000000000000000081526004016103a79061364d565b60405180910390fd5b60008290508073ffffffffffffffffffffffffffffffffffffffff166321d68f8283306040518363ffffffff1660e01b81526004016103f09291906136a3565b60206040518083038186803b15801561040857600080fd5b505afa15801561041c573d6000803e3d6000fd5b505050506040513d601f19601f820116820180604052508101906104409190612b67565b61047f576040517f08c379a0000000000000000000000000000000000000000000000000000000008152600401610476906134ed565b60405180910390fd5b6000606660009054906101000a900473ffffffffffffffffffffffffffffffffffffffff169050606a548173ffffffffffffffffffffffffffffffffffffffff166370a082316104cd61182e565b6040518263ffffffff1660e01b81526004016104e991906132b2565b60206040518083038186803b15801561050157600080fd5b505afa158015610515573d6000803e3d6000fd5b505050506040513d601f19601f820116820180604052508101906105399190612c9c565b101561057a576040517f08c379a00000000000000000000000000000000000000000000000000000000081526004016105719061362d565b60405180910390fd5b606a548173ffffffffffffffffffffffffffffffffffffffff1663dd62ed3e6105a161182e565b306040518363ffffffff1660e01b81526004016105bf9291906132cd565b60206040518083038186803b1580156105d757600080fd5b505afa1580156105eb573d6000803e3d6000fd5b505050506040513d601f19601f8201168201806040525081019061060f9190612c9c565b1015610650576040517f08c379a00000000000000000000000000000000000000000000000000000000081526004016106479061358d565b60405180910390fd5b8073ffffffffffffffffffffffffffffffffffffffff166323b872dd61067461182e565b30606a546040518463ffffffff1660e01b81526004016106969392919061332d565b602060405180830381600087803b1580156106b057600080fd5b505af11580156106c4573d6000803e3d6000fd5b505050506040513d601f19601f820116820180604052508101906106e89190612b67565b5060006106f3611836565b90506000606760009054906101000a900473ffffffffffffffffffffffffffffffffffffffff1673ffffffffffffffffffffffffffffffffffffffff1663ec4156f987876040518363ffffffff1660e01b8152600401610754929190613364565b60206040518083038186803b15801561076c57600080fd5b505afa158015610780573d6000803e3d6000fd5b505050506040513d601f19601f820116820180604052508101906107a49190612aa7565b9050600073ffffffffffffffffffffffffffffffffffffffff168173ffffffffffffffffffffffffffffffffffffffff16146107e05780610804565b606660009054906101000a900473ffffffffffffffffffffffffffffffffffffffff165b90506040518060a00160405280838152602001606a54815260200161082761182e565b73ffffffffffffffffffffffffffffffffffffffff1681526020014281526020018273ffffffffffffffffffffffffffffffffffffffff16815250606960008873ffffffffffffffffffffffffffffffffffffffff1673ffffffffffffffffffffffffffffffffffffffff1681526020019081526020016000206000878152602001908152602001600020600082015181600001556020820151816001015560408201518160020160006101000a81548173ffffffffffffffffffffffffffffffffffffffff021916908373ffffffffffffffffffffffffffffffffffffffff1602179055506060820151816003015560808201518160040160006101000a81548173ffffffffffffffffffffffffffffffffffffffff021916908373ffffffffffffffffffffffffffffffffffffffff160217905550905050600080606860008973ffffffffffffffffffffffffffffffffffffffff1673ffffffffffffffffffffffffffffffffffffffff16815260200190815260200160002060008881526020019081526020016000206000015414156109c5576000610a1a565b606860008873ffffffffffffffffffffffffffffffffffffffff1673ffffffffffffffffffffffffffffffffffffffff1681526020019081526020016000206000878152602001908152602001600020600001545b905082817fc399bb9aa0e229b2297769ecdb77954634f025283b2f5ff54a0a47026c021a3289610a4861182e565b86604051610a58939291906132f6565b60405180910390a350505050505050565b6000876000015111610ab0576040517f08c379a0000000000000000000000000000000000000000000000000000000008152600401610aa79061350d565b60405180910390fd5b60008611610af3576040517f08c379a0000000000000000000000000000000000000000000000000000000008152600401610aea9061340d565b60405180910390fd5b600073ffffffffffffffffffffffffffffffffffffffff16876020015173ffffffffffffffffffffffffffffffffffffffff161415610b67576040517f08c379a0000000000000000000000000000000000000000000000000000000008152600401610b5e906135ed565b60405180910390fd5b60686000886020015173ffffffffffffffffffffffffffffffffffffffff1673ffffffffffffffffffffffffffffffffffffffff168152602001908152602001600020600088600001518152602001908152602001600020600001548314610c04576040517f08c379a0000000000000000000000000000000000000000000000000000000008152600401610bfb9061356d565b60405180910390fd5b60696000886020015173ffffffffffffffffffffffffffffffffffffffff1673ffffffffffffffffffffffffffffffffffffffff168152602001908152602001600020600088600001518152602001908152602001600020600001548214610ca1576040517f08c379a0000000000000000000000000000000000000000000000000000000008152600401610c98906135cd565b60405180910390fd5b600060696000896020015173ffffffffffffffffffffffffffffffffffffffff1673ffffffffffffffffffffffffffffffffffffffff16815260200190815260200160002060008960000151815260200190815260200160002060040160009054906101000a900473ffffffffffffffffffffffffffffffffffffffff169050868173ffffffffffffffffffffffffffffffffffffffff166370a08231610d4661182e565b6040518263ffffffff1660e01b8152600401610d6291906132b2565b60206040518083038186803b158015610d7a57600080fd5b505afa158015610d8e573d6000803e3d6000fd5b505050506040513d601f19601f82011682018060405250810190610db29190612c9c565b1015610df3576040517f08c379a0000000000000000000000000000000000000000000000000000000008152600401610dea9061344d565b60405180910390fd5b868173ffffffffffffffffffffffffffffffffffffffff1663dd62ed3e610e1861182e565b306040518363ffffffff1660e01b8152600401610e369291906132cd565b60206040518083038186803b158015610e4e57600080fd5b505afa158015610e62573d6000803e3d6000fd5b505050506040513d601f19601f82011682018060405250810190610e869190612c9c565b1015610ec7576040517f08c379a0000000000000000000000000000000000000000000000000000000008152600401610ebe9061358d565b60405180910390fd5b6000610ee089600001518a60200151848b89898c611561565b9050610eeb8161187d565b610f2a576040517f08c379a0000000000000000000000000000000000000000000000000000000008152600401610f21906135ad565b60405180910390fd5b610f3483896118d7565b610f73576040517f08c379a0000000000000000000000000000000000000000000000000000000008152600401610f6a906134ad565b60405180910390fd5b606960008a6020015173ffffffffffffffffffffffffffffffffffffffff1673ffffffffffffffffffffffffffffffffffffffff16815260200190815260200160002060008a60000151815260200190815260200160002060020160009054906101000a900473ffffffffffffffffffffffffffffffffffffffff1673ffffffffffffffffffffffffffffffffffffffff1661100d61182e565b73ffffffffffffffffffffffffffffffffffffffff1614611063576040517f08c379a000000000000000000000000000000000000000000000000000000000815260040161105a9061342d565b60405180910390fd5b61107689602001518a6000015185611910565b61108d82898b602001518c600001518b888a611c72565b83857fc9e5510bc862c77b13a2965048f9060e72fccccc0951199db471ae34b03b0ca18b602001516110bd61182e565b6040516110cb9291906132cd565b60405180910390a3505050505050505050565b6069602052816000526040600020602052806000526040600020600091509150508060000154908060010154908060020160009054906101000a900473ffffffffffffffffffffffffffffffffffffffff16908060030154908060040160009054906101000a900473ffffffffffffffffffffffffffffffffffffffff16905085565b611169612240565b61117360006122be565b565b61117d612240565b80606a8190555050565b6000603360009054906101000a900473ffffffffffffffffffffffffffffffffffffffff16905090565b60006111bb612240565b606560009054906101000a900473ffffffffffffffffffffffffffffffffffffffff16905090565b6068602052816000526040600020602052806000526040600020600091509150508060000154908060010154908060020160009054906101000a900473ffffffffffffffffffffffffffffffffffffffff169080600301805461124590613a76565b80601f016020809104026020016040519081016040528092919081815260200182805461127190613a76565b80156112be5780601f10611293576101008083540402835291602001916112be565b820191906000526020600020905b8154815290600101906020018083116112a157829003601f168201915b5050505050908060040160009054906101000a900473ffffffffffffffffffffffffffffffffffffffff16905085565b60006112f8612240565b606a54905090565b60008060019054906101000a900460ff161590508080156113315750600160008054906101000a900460ff1660ff16105b8061135e575061134030612384565b15801561135d5750600160008054906101000a900460ff1660ff16145b5b61139d576040517f08c379a00000000000000000000000000000000000000000000000000000000081526004016113949061352d565b60405180910390fd5b60016000806101000a81548160ff021916908360ff16021790555080156113da576001600060016101000a81548160ff0219169083151502179055505b6113e26123a7565b83606560006101000a81548173ffffffffffffffffffffffffffffffffffffffff021916908373ffffffffffffffffffffffffffffffffffffffff16021790555082606660006101000a81548173ffffffffffffffffffffffffffffffffffffffff021916908373ffffffffffffffffffffffffffffffffffffffff16021790555081606760006101000a81548173ffffffffffffffffffffffffffffffffffffffff021916908373ffffffffffffffffffffffffffffffffffffffff160217905550600a606a81905550610258606b81905550801561150f5760008060016101000a81548160ff0219169083151502179055507f7f26b83ff96e1f2b6a682f133852f6798a09c465da95921460cefb3847402498600160405161150691906133d2565b60405180910390a15b50505050565b61151d612240565b80606560006101000a81548173ffffffffffffffffffffffffffffffffffffffff021916908373ffffffffffffffffffffffffffffffffffffffff16021790555050565b60008061157a6115758a8a8a8a8a8a612400565b61243f565b9050611586818461246f565b915050979650505050505050565b61159c6127dc565b6000606960008573ffffffffffffffffffffffffffffffffffffffff1673ffffffffffffffffffffffffffffffffffffffff16815260200190815260200160002060008481526020019081526020016000206040518060a001604052908160008201548152602001600182015481526020016002820160009054906101000a900473ffffffffffffffffffffffffffffffffffffffff1673ffffffffffffffffffffffffffffffffffffffff1673ffffffffffffffffffffffffffffffffffffffff168152602001600382015481526020016004820160009054906101000a900473ffffffffffffffffffffffffffffffffffffffff1673ffffffffffffffffffffffffffffffffffffffff1673ffffffffffffffffffffffffffffffffffffffff1681525050905060006040518060c001604052808360000151815260200183602001518152602001836040015173ffffffffffffffffffffffffffffffffffffffff16815260200183606001518152602001836080015173ffffffffffffffffffffffffffffffffffffffff168152602001606860008873ffffffffffffffffffffffffffffffffffffffff1673ffffffffffffffffffffffffffffffffffffffff1681526020019081526020016000206000878152602001908152602001600020600001548152509050809250505092915050565b61179c612240565b600073ffffffffffffffffffffffffffffffffffffffff168173ffffffffffffffffffffffffffffffffffffffff16141561180c576040517f08c379a00000000000000000000000000000000000000000000000000000000081526004016118039061348d565b60405180910390fd5b611815816122be565b50565b60008183611826919061389c565b905092915050565b600033905090565b600080434090506000814241604051602001611854939291906131df565b60405160208183030381529060405290506000818051906020012090508060001c935050505090565b6000606560009054906101000a900473ffffffffffffffffffffffffffffffffffffffff1673ffffffffffffffffffffffffffffffffffffffff168273ffffffffffffffffffffffffffffffffffffffff16149050919050565b600080611901600a6118f3600c8761249690919063ffffffff16565b6124ac90919063ffffffff16565b90508083101591505092915050565b6000606860008573ffffffffffffffffffffffffffffffffffffffff1673ffffffffffffffffffffffffffffffffffffffff1681526020019081526020016000206000848152602001908152602001600020600101541115611c6d576000606860008573ffffffffffffffffffffffffffffffffffffffff1673ffffffffffffffffffffffffffffffffffffffff16815260200190815260200160002060008481526020019081526020016000206040518060a001604052908160008201548152602001600182015481526020016002820160009054906101000a900473ffffffffffffffffffffffffffffffffffffffff1673ffffffffffffffffffffffffffffffffffffffff1673ffffffffffffffffffffffffffffffffffffffff168152602001600382018054611a4390613a76565b80601f0160208091040260200160405190810160405280929190818152602001828054611a6f90613a76565b8015611abc5780601f10611a9157610100808354040283529160200191611abc565b820191906000526020600020905b815481529060010190602001808311611a9f57829003601f168201915b505050505081526020016004820160009054906101000a900473ffffffffffffffffffffffffffffffffffffffff1673ffffffffffffffffffffffffffffffffffffffff1673ffffffffffffffffffffffffffffffffffffffff16815250509050606860008573ffffffffffffffffffffffffffffffffffffffff1673ffffffffffffffffffffffffffffffffffffffff168152602001908152602001600020600084815260200190815260200160002060040160009054906101000a900473ffffffffffffffffffffffffffffffffffffffff1673ffffffffffffffffffffffffffffffffffffffff1663a9059cbb8260400151846040518363ffffffff1660e01b8152600401611bcf929190613364565b602060405180830381600087803b158015611be957600080fd5b505af1158015611bfd573d6000803e3d6000fd5b505050506040513d601f19601f82011682018060405250810190611c219190612b67565b507f1482d6e51ee58f33a2f4cfa47ed508eb7fcc2889d5750d79c766f1fa394e74cd81600001518483604001518460200151604051611c639493929190613756565b60405180910390a1505b505050565b6000606660009054906101000a900473ffffffffffffffffffffffffffffffffffffffff1690506000606960008873ffffffffffffffffffffffffffffffffffffffff1673ffffffffffffffffffffffffffffffffffffffff1681526020019081526020016000206000878152602001908152602001600020600101549050606960008873ffffffffffffffffffffffffffffffffffffffff1673ffffffffffffffffffffffffffffffffffffffff168152602001908152602001600020600087815260200190815260200160002060008082016000905560018201600090556002820160006101000a81549073ffffffffffffffffffffffffffffffffffffffff021916905560038201600090556004820160006101000a81549073ffffffffffffffffffffffffffffffffffffffff021916905550508173ffffffffffffffffffffffffffffffffffffffff1663a9059cbb611dce61182e565b836040518363ffffffff1660e01b8152600401611dec929190613364565b602060405180830381600087803b158015611e0657600080fd5b505af1158015611e1a573d6000803e3d6000fd5b505050506040513d601f19601f82011682018060405250810190611e3e9190612b67565b508873ffffffffffffffffffffffffffffffffffffffff166323b872dd611e6361182e565b308b6040518463ffffffff1660e01b8152600401611e839392919061332d565b602060405180830381600087803b158015611e9d57600080fd5b505af1158015611eb1573d6000803e3d6000fd5b505050506040513d601f19601f82011682018060405250810190611ed59190612b67565b506000611eeb858a6124c290919063ffffffff16565b90508973ffffffffffffffffffffffffffffffffffffffff1663095ea7b3606560009054906101000a900473ffffffffffffffffffffffffffffffffffffffff16611feb8d73ffffffffffffffffffffffffffffffffffffffff1663dd62ed3e30606560009054906101000a900473ffffffffffffffffffffffffffffffffffffffff166040518363ffffffff1660e01b8152600401611f8c9291906132cd565b60206040518083038186803b158015611fa457600080fd5b505afa158015611fb8573d6000803e3d6000fd5b505050506040513d601f19601f82011682018060405250810190611fdc9190612c9c565b8561181890919063ffffffff16565b6040518363ffffffff1660e01b8152600401612008929190613364565b602060405180830381600087803b15801561202257600080fd5b505af1158015612036573d6000803e3d6000fd5b505050506040513d601f19601f8201168201806040525081019061205a9190612b67565b508773ffffffffffffffffffffffffffffffffffffffff1663d0ade91b88886040518363ffffffff1660e01b81526004016120969291906136cc565b600060405180830381600087803b1580156120b057600080fd5b505af11580156120c4573d6000803e3d6000fd5b505050506040518060a001604052808581526020018a81526020016120e761182e565b73ffffffffffffffffffffffffffffffffffffffff1681526020018781526020018b73ffffffffffffffffffffffffffffffffffffffff16815250606860008a73ffffffffffffffffffffffffffffffffffffffff1673ffffffffffffffffffffffffffffffffffffffff1681526020019081526020016000206000898152602001908152602001600020600082015181600001556020820151816001015560408201518160020160006101000a81548173ffffffffffffffffffffffffffffffffffffffff021916908373ffffffffffffffffffffffffffffffffffffffff16021790555060608201518160030190805190602001906121e992919061283e565b5060808201518160040160006101000a81548173ffffffffffffffffffffffffffffffffffffffff021916908373ffffffffffffffffffffffffffffffffffffffff16021790555090505050505050505050505050565b61224861182e565b73ffffffffffffffffffffffffffffffffffffffff16612266611187565b73ffffffffffffffffffffffffffffffffffffffff16146122bc576040517f08c379a00000000000000000000000000000000000000000000000000000000081526004016122b39061354d565b60405180910390fd5b565b6000603360009054906101000a900473ffffffffffffffffffffffffffffffffffffffff16905081603360006101000a81548173ffffffffffffffffffffffffffffffffffffffff021916908373ffffffffffffffffffffffffffffffffffffffff1602179055508173ffffffffffffffffffffffffffffffffffffffff168173ffffffffffffffffffffffffffffffffffffffff167f8be0079c531659141344cd1fd0a4f28419497f9722a3daafe3b4186f6b6457e060405160405180910390a35050565b6000808273ffffffffffffffffffffffffffffffffffffffff163b119050919050565b600060019054906101000a900460ff166123f6576040517f08c379a00000000000000000000000000000000000000000000000000000000081526004016123ed9061360d565b60405180910390fd5b6123fe6124d8565b565b600086868686868660405160200161241d96959493929190613242565b6040516020818303038152906040528051906020012090509695505050505050565b600081604051602001612452919061321c565b604051602081830303815290604052805190602001209050919050565b600080600061247e8585612539565b9150915061248b8161258b565b819250505092915050565b600081836124a49190613923565b905092915050565b600081836124ba91906138f2565b905092915050565b600081836124d0919061397d565b905092915050565b600060019054906101000a900460ff16612527576040517f08c379a000000000000000000000000000000000000000000000000000000000815260040161251e9061360d565b60405180910390fd5b61253761253261182e565b6122be565b565b60008060418351141561257b5760008060006020860151925060408601519150606086015160001a905061256f878285856126f9565b94509450505050612584565b60006002915091505b9250929050565b6000600481111561259f5761259e613b81565b5b8160048111156125b2576125b1613b81565b5b14156125bd576126f6565b600160048111156125d1576125d0613b81565b5b8160048111156125e4576125e3613b81565b5b1415612625576040517f08c379a000000000000000000000000000000000000000000000000000000000815260040161261c906133ed565b60405180910390fd5b6002600481111561263957612638613b81565b5b81600481111561264c5761264b613b81565b5b141561268d576040517f08c379a00000000000000000000000000000000000000000000000000000000081526004016126849061346d565b60405180910390fd5b600360048111156126a1576126a0613b81565b5b8160048111156126b4576126b3613b81565b5b14156126f5576040517f08c379a00000000000000000000000000000000000000000000000000000000081526004016126ec906134cd565b60405180910390fd5b5b50565b6000807f7fffffffffffffffffffffffffffffff5d576e7357a4501ddfe92f46681b20a08360001c11156127345760006003915091506127d3565b600060018787878760405160008152602001604052604051612759949392919061338d565b6020604051602081039080840390855afa15801561277b573d6000803e3d6000fd5b505050602060405103519050600073ffffffffffffffffffffffffffffffffffffffff168173ffffffffffffffffffffffffffffffffffffffff1614156127ca576000600192509250506127d3565b80600092509250505b94509492505050565b6040518060c001604052806000815260200160008152602001600073ffffffffffffffffffffffffffffffffffffffff16815260200160008152602001600073ffffffffffffffffffffffffffffffffffffffff168152602001600081525090565b82805461284a90613a76565b90600052602060002090601f01602090048101928261286c57600085556128b3565b82601f1061288557805160ff19168380011785556128b3565b828001600101855582156128b3579182015b828111156128b2578251825591602001919060010190612897565b5b5090506128c091906128c4565b5090565b5b808211156128dd5760008160009055506001016128c5565b5090565b60006128f46128ef84613813565b6137ee565b9050828152602081018484840111156129105761290f613c18565b5b61291b848285613a34565b509392505050565b600061293661293184613844565b6137ee565b90508281526020810184848401111561295257612951613c18565b5b61295d848285613a34565b509392505050565b600081359050612974816140d2565b92915050565b600081519050612989816140d2565b92915050565b60008151905061299e816140e9565b92915050565b600082601f8301126129b9576129b8613c0e565b5b81356129c98482602086016128e1565b91505092915050565b600082601f8301126129e7576129e6613c0e565b5b81356129f7848260208601612923565b91505092915050565b600060408284031215612a1657612a15613c13565b5b612a2060406137ee565b90506000612a3084828501612a50565b6000830152506020612a4484828501612965565b60208301525092915050565b600081359050612a5f81614100565b92915050565b600081519050612a7481614100565b92915050565b600060208284031215612a9057612a8f613c22565b5b6000612a9e84828501612965565b91505092915050565b600060208284031215612abd57612abc613c22565b5b6000612acb8482850161297a565b91505092915050565b600080600060608486031215612aed57612aec613c22565b5b6000612afb86828701612965565b9350506020612b0c86828701612965565b9250506040612b1d86828701612965565b9150509250925092565b60008060408385031215612b3e57612b3d613c22565b5b6000612b4c85828601612965565b9250506020612b5d85828601612a50565b9150509250929050565b600060208284031215612b7d57612b7c613c22565b5b6000612b8b8482850161298f565b91505092915050565b6000806000806000806000610100888a031215612bb457612bb3613c22565b5b6000612bc28a828b01612a00565b9750506040612bd38a828b01612a50565b965050606088013567ffffffffffffffff811115612bf457612bf3613c1d565b5b612c008a828b016129d2565b955050608088013567ffffffffffffffff811115612c2157612c20613c1d565b5b612c2d8a828b016129a4565b94505060a0612c3e8a828b01612a50565b93505060c0612c4f8a828b01612a50565b92505060e0612c608a828b01612a50565b91505092959891949750929550565b600060208284031215612c8557612c84613c22565b5b6000612c9384828501612a50565b91505092915050565b600060208284031215612cb257612cb1613c22565b5b6000612cc084828501612a65565b91505092915050565b600080600080600080600060e0888a031215612ce857612ce7613c22565b5b6000612cf68a828b01612a50565b9750506020612d078a828b01612965565b9650506040612d188a828b01612965565b9550506060612d298a828b01612a50565b9450506080612d3a8a828b01612a50565b93505060a0612d4b8a828b01612a50565b92505060c088013567ffffffffffffffff811115612d6c57612d6b613c1d565b5b612d788a828b016129a4565b91505092959891949750929550565b612d98612d93826139c3565b613aeb565b82525050565b612da7816139b1565b82525050565b612db6816139b1565b82525050565b612dcd612dc8826139b1565b613ad9565b82525050565b612ddc816139e1565b82525050565b612df3612dee826139e1565b613afd565b82525050565b612e0281613a22565b82525050565b6000612e1382613875565b612e1d8185613880565b9350612e2d818560208601613a43565b612e3681613c27565b840191505092915050565b6000612e4e601883613880565b9150612e5982613c45565b602082019050919050565b6000612e71602283613880565b9150612e7c82613c6e565b604082019050919050565b6000612e94601483613880565b9150612e9f82613cbd565b602082019050919050565b6000612eb7601283613880565b9150612ec282613ce6565b602082019050919050565b6000612eda601f83613880565b9150612ee582613d0f565b602082019050919050565b6000612efd601c83613891565b9150612f0882613d38565b601c82019050919050565b6000612f20602683613880565b9150612f2b82613d61565b604082019050919050565b6000612f43601983613880565b9150612f4e82613db0565b602082019050919050565b6000612f66602283613880565b9150612f7182613dd9565b604082019050919050565b6000612f89602383613880565b9150612f9482613e28565b604082019050919050565b6000612fac601e83613880565b9150612fb782613e77565b602082019050919050565b6000612fcf602e83613880565b9150612fda82613ea0565b604082019050919050565b6000612ff2602083613880565b9150612ffd82613eef565b602082019050919050565b6000613015601083613880565b915061302082613f18565b602082019050919050565b6000613038601483613880565b915061304382613f41565b602082019050919050565b600061305b600f83613880565b915061306682613f6a565b602082019050919050565b600061307e601083613880565b915061308982613f93565b602082019050919050565b60006130a1603783613880565b91506130ac82613fbc565b604082019050919050565b60006130c4602b83613880565b91506130cf8261400b565b604082019050919050565b60006130e7601683613880565b91506130f28261405a565b602082019050919050565b600061310a602783613880565b915061311582614083565b604082019050919050565b60c082016000820151613136600085018261319b565b506020820151613149602085018261319b565b50604082015161315c6040850182612d9e565b50606082015161316f606085018261319b565b5060808201516131826080850182612d9e565b5060a082015161319560a085018261319b565b50505050565b6131a481613a0b565b82525050565b6131b381613a0b565b82525050565b6131ca6131c582613a0b565b613b19565b82525050565b6131d981613a15565b82525050565b60006131eb8286612de2565b6020820191506131fb82856131b9565b60208201915061320b8284612d87565b601482019150819050949350505050565b600061322782612ef0565b91506132338284612de2565b60208201915081905092915050565b600061324e82896131b9565b60208201915061325e8288612dbc565b60148201915061326e8287612dbc565b60148201915061327e82866131b9565b60208201915061328e82856131b9565b60208201915061329e82846131b9565b602082019150819050979650505050505050565b60006020820190506132c76000830184612dad565b92915050565b60006040820190506132e26000830185612dad565b6132ef6020830184612dad565b9392505050565b600060608201905061330b6000830186612dad565b6133186020830185612dad565b6133256040830184612dad565b949350505050565b60006060820190506133426000830186612dad565b61334f6020830185612dad565b61335c60408301846131aa565b949350505050565b60006040820190506133796000830185612dad565b61338660208301846131aa565b9392505050565b60006080820190506133a26000830187612dd3565b6133af60208301866131d0565b6133bc6040830185612dd3565b6133c96060830184612dd3565b95945050505050565b60006020820190506133e76000830184612df9565b92915050565b6000602082019050818103600083015261340681612e41565b9050919050565b6000602082019050818103600083015261342681612e64565b9050919050565b6000602082019050818103600083015261344681612e87565b9050919050565b6000602082019050818103600083015261346681612eaa565b9050919050565b6000602082019050818103600083015261348681612ecd565b9050919050565b600060208201905081810360008301526134a681612f13565b9050919050565b600060208201905081810360008301526134c681612f36565b9050919050565b600060208201905081810360008301526134e681612f59565b9050919050565b6000602082019050818103600083015261350681612f7c565b9050919050565b6000602082019050818103600083015261352681612f9f565b9050919050565b6000602082019050818103600083015261354681612fc2565b9050919050565b6000602082019050818103600083015261356681612fe5565b9050919050565b6000602082019050818103600083015261358681613008565b9050919050565b600060208201905081810360008301526135a68161302b565b9050919050565b600060208201905081810360008301526135c68161304e565b9050919050565b600060208201905081810360008301526135e681613071565b9050919050565b6000602082019050818103600083015261360681613094565b9050919050565b60006020820190508181036000830152613626816130b7565b9050919050565b60006020820190508181036000830152613646816130da565b9050919050565b60006020820190508181036000830152613666816130fd565b9050919050565b600060c0820190506136826000830184613120565b92915050565b600060208201905061369d60008301846131aa565b92915050565b60006040820190506136b860008301856131aa565b6136c56020830184612dad565b9392505050565b60006040820190506136e160008301856131aa565b81810360208301526136f38184612e08565b90509392505050565b600060a08201905061371160008301886131aa565b61371e60208301876131aa565b61372b6040830186612dad565b818103606083015261373d8185612e08565b905061374c6080830184612dad565b9695505050505050565b600060808201905061376b60008301876131aa565b61377860208301866131aa565b6137856040830185612dad565b61379260608301846131aa565b95945050505050565b600060a0820190506137b060008301886131aa565b6137bd60208301876131aa565b6137ca6040830186612dad565b6137d760608301856131aa565b6137e46080830184612dad565b9695505050505050565b60006137f8613809565b90506138048282613aa8565b919050565b6000604051905090565b600067ffffffffffffffff82111561382e5761382d613bdf565b5b61383782613c27565b9050602081019050919050565b600067ffffffffffffffff82111561385f5761385e613bdf565b5b61386882613c27565b9050602081019050919050565b600081519050919050565b600082825260208201905092915050565b600081905092915050565b60006138a782613a0b565b91506138b283613a0b565b9250827fffffffffffffffffffffffffffffffffffffffffffffffffffffffffffffffff038211156138e7576138e6613b23565b5b828201905092915050565b60006138fd82613a0b565b915061390883613a0b565b92508261391857613917613b52565b5b828204905092915050565b600061392e82613a0b565b915061393983613a0b565b9250817fffffffffffffffffffffffffffffffffffffffffffffffffffffffffffffffff048311821515161561397257613971613b23565b5b828202905092915050565b600061398882613a0b565b915061399383613a0b565b9250828210156139a6576139a5613b23565b5b828203905092915050565b60006139bc826139eb565b9050919050565b60006139ce826139eb565b9050919050565b60008115159050919050565b6000819050919050565b600073ffffffffffffffffffffffffffffffffffffffff82169050919050565b6000819050919050565b600060ff82169050919050565b6000613a2d82613a15565b9050919050565b82818337600083830152505050565b60005b83811015613a61578082015181840152602081019050613a46565b83811115613a70576000848401525b50505050565b60006002820490506001821680613a8e57607f821691505b60208210811415613aa257613aa1613bb0565b5b50919050565b613ab182613c27565b810181811067ffffffffffffffff82111715613ad057613acf613bdf565b5b80604052505050565b6000613ae482613b07565b9050919050565b6000613af682613b07565b9050919050565b6000819050919050565b6000613b1282613c38565b9050919050565b6000819050919050565b7f4e487b7100000000000000000000000000000000000000000000000000000000600052601160045260246000fd5b7f4e487b7100000000000000000000000000000000000000000000000000000000600052601260045260246000fd5b7f4e487b7100000000000000000000000000000000000000000000000000000000600052602160045260246000fd5b7f4e487b7100000000000000000000000000000000000000000000000000000000600052602260045260246000fd5b7f4e487b7100000000000000000000000000000000000000000000000000000000600052604160045260246000fd5b600080fd5b600080fd5b600080fd5b600080fd5b600080fd5b6000601f19601f8301169050919050565b60008160601b9050919050565b7f45434453413a20696e76616c6964207369676e61747572650000000000000000600082015250565b7f42696420616d6f756e74206d7573742062652067726561746572207468616e2060008201527f302e000000000000000000000000000000000000000000000000000000000000602082015250565b7f4e6f742074686520707265426964206f776e6572000000000000000000000000600082015250565b7f62616c616e6365206e6f7420656e6f7567680000000000000000000000000000600082015250565b7f45434453413a20696e76616c6964207369676e6174757265206c656e67746800600082015250565b7f19457468657265756d205369676e6564204d6573736167653a0a333200000000600082015250565b7f4f776e61626c653a206e6577206f776e657220697320746865207a65726f206160008201527f6464726573730000000000000000000000000000000000000000000000000000602082015250565b7f54686520626964206973206c657373207468616e203132302500000000000000600082015250565b7f45434453413a20696e76616c6964207369676e6174757265202773272076616c60008201527f7565000000000000000000000000000000000000000000000000000000000000602082015250565b7f6e6f7420736c6f744d616e61676572206f7220686e66744964206e6f7420657860008201527f6973740000000000000000000000000000000000000000000000000000000000602082015250565b7f684e46544964206d7573742062652067726561746572207468616e20302e0000600082015250565b7f496e697469616c697a61626c653a20636f6e747261637420697320616c72656160008201527f647920696e697469616c697a6564000000000000000000000000000000000000602082015250565b7f4f776e61626c653a2063616c6c6572206973206e6f7420746865206f776e6572600082015250565b7f496e76616c696420637572426964496400000000000000000000000000000000600082015250565b7f616c6c6f77616e6365206e6f7420656e6f756768000000000000000000000000600082015250565b7f496e76616c6964205369676e6572210000000000000000000000000000000000600082015250565b7f496e76616c696420707265426964496400000000000000000000000000000000600082015250565b7f54686520684e465420616e6420676f7665726e616e636520636f6e747261637460008201527f2063616e206e6f7420626520616464726573732830292e000000000000000000602082015250565b7f496e697469616c697a61626c653a20636f6e7472616374206973206e6f74206960008201527f6e697469616c697a696e67000000000000000000000000000000000000000000602082015250565b7f4144332062616c616e6365206e6f7420656e6f75676800000000000000000000600082015250565b7f4c61737420707265426964207374696c6c2077697468696e207468652076616c60008201527f69642074696d6500000000000000000000000000000000000000000000000000602082015250565b6140db816139b1565b81146140e657600080fd5b50565b6140f2816139d5565b81146140fd57600080fd5b50565b61410981613a0b565b811461411457600080fd5b5056fea2646970667358221220b7af577da83f6ed8a86f87881531d12ac4e09c260ab4a33fbacf746964de427364736f6c63430008050033",
  "linkReferences": {},
  "deployedLinkReferences": {}
}