{
  "_format": "hh-sol-artifact-1",
  "contractName": "EIP5489ForInfluenceMining",
  "sourceName": "contracts/EIP5489ForInfluenceMining.sol",
  "abi": [
    {
      "anonymous": false,
      "inputs": [
        {
          "indexed": true,
          "internalType": "address",
          "name": "owner",
          "type": "address"
        },
        {
          "indexed": true,
          "internalType": "address",
          "name": "approved",
          "type": "address"
        },
        {
          "indexed": true,
          "internalType": "uint256",
          "name": "tokenId",
          "type": "uint256"
        }
      ],
      "name": "Approval",
      "type": "event"
    },
    {
      "anonymous": false,
      "inputs": [
        {
          "indexed": true,
          "internalType": "address",
          "name": "owner",
          "type": "address"
        },
        {
          "indexed": true,
          "internalType": "address",
          "name": "operator",
          "type": "address"
        },
        {
          "indexed": false,
          "internalType": "bool",
          "name": "approved",
          "type": "bool"
        }
      ],
      "name": "ApprovalForAll",
      "type": "event"
    },
    {
      "anonymous": false,
      "inputs": [
        {
          "indexed": false,
          "internalType": "uint8",
          "name": "version",
          "type": "uint8"
        }
      ],
      "name": "Initialized",
      "type": "event"
    },
    {
      "anonymous": false,
      "inputs": [
        {
          "indexed": true,
          "internalType": "address",
          "name": "previousOwner",
          "type": "address"
        },
        {
          "indexed": true,
          "internalType": "address",
          "name": "newOwner",
          "type": "address"
        }
      ],
      "name": "OwnershipTransferred",
      "type": "event"
    },
    {
      "anonymous": false,
      "inputs": [
        {
          "indexed": false,
          "internalType": "uint256",
          "name": "tokenId",
          "type": "uint256"
        },
        {
          "indexed": false,
          "internalType": "address",
          "name": "slotManagerAddr",
          "type": "address"
        }
      ],
      "name": "SlotAuthorizationCreated",
      "type": "event"
    },
    {
      "anonymous": false,
      "inputs": [
        {
          "indexed": false,
          "internalType": "uint256",
          "name": "tokenId",
          "type": "uint256"
        },
        {
          "indexed": false,
          "internalType": "address",
          "name": "slotManagerAddr",
          "type": "address"
        }
      ],
      "name": "SlotAuthorizationRevoked",
      "type": "event"
    },
    {
      "anonymous": false,
      "inputs": [
        {
          "indexed": false,
          "internalType": "uint256",
          "name": "tokenId",
          "type": "uint256"
        },
        {
          "indexed": false,
          "internalType": "address",
          "name": "slotManagerAddr",
          "type": "address"
        },
        {
          "indexed": false,
          "internalType": "string",
          "name": "uri",
          "type": "string"
        }
      ],
      "name": "SlotUriUpdated",
      "type": "event"
    },
    {
      "anonymous": false,
      "inputs": [
        {
          "indexed": true,
          "internalType": "address",
          "name": "from",
          "type": "address"
        },
        {
          "indexed": true,
          "internalType": "address",
          "name": "to",
          "type": "address"
        },
        {
          "indexed": true,
          "internalType": "uint256",
          "name": "tokenId",
          "type": "uint256"
        }
      ],
      "name": "Transfer",
      "type": "event"
    },
    {
      "inputs": [
        {
          "internalType": "address[]",
          "name": "kolAddrs",
          "type": "address[]"
        }
      ],
      "name": "addToKolWhiteList",
      "outputs": [],
      "stateMutability": "nonpayable",
      "type": "function"
    },
    {
      "inputs": [
        {
          "internalType": "address",
          "name": "to",
          "type": "address"
        },
        {
          "internalType": "uint256",
          "name": "tokenId",
          "type": "uint256"
        }
      ],
      "name": "approve",
      "outputs": [],
      "stateMutability": "nonpayable",
      "type": "function"
    },
    {
      "inputs": [
        {
          "internalType": "uint256",
          "name": "tokenId",
          "type": "uint256"
        },
        {
          "internalType": "address",
          "name": "slotManagerAddr",
          "type": "address"
        }
      ],
      "name": "authorizeSlotTo",
      "outputs": [],
      "stateMutability": "nonpayable",
      "type": "function"
    },
    {
      "inputs": [
        {
          "internalType": "address",
          "name": "owner",
          "type": "address"
        }
      ],
      "name": "balanceOf",
      "outputs": [
        {
          "internalType": "uint256",
          "name": "",
          "type": "uint256"
        }
      ],
      "stateMutability": "view",
      "type": "function"
    },
    {
      "inputs": [
        {
          "internalType": "uint256",
          "name": "tokenId",
          "type": "uint256"
        }
      ],
      "name": "getApproved",
      "outputs": [
        {
          "internalType": "address",
          "name": "",
          "type": "address"
        }
      ],
      "stateMutability": "view",
      "type": "function"
    },
    {
      "inputs": [
        {
          "internalType": "uint256",
          "name": "tokenId",
          "type": "uint256"
        },
        {
          "internalType": "address",
          "name": "slotManagerAddr",
          "type": "address"
        }
      ],
      "name": "getSlotUri",
      "outputs": [
        {
          "internalType": "string",
          "name": "",
          "type": "string"
        }
      ],
      "stateMutability": "view",
      "type": "function"
    },
    {
      "inputs": [
        {
          "internalType": "address",
          "name": "_ad3Address",
          "type": "address"
        }
      ],
      "name": "initialize",
      "outputs": [],
      "stateMutability": "nonpayable",
      "type": "function"
    },
    {
      "inputs": [
        {
          "internalType": "address",
          "name": "owner",
          "type": "address"
        },
        {
          "internalType": "address",
          "name": "operator",
          "type": "address"
        }
      ],
      "name": "isApprovedForAll",
      "outputs": [
        {
          "internalType": "bool",
          "name": "",
          "type": "bool"
        }
      ],
      "stateMutability": "view",
      "type": "function"
    },
    {
      "inputs": [
        {
          "internalType": "uint256",
          "name": "tokenId",
          "type": "uint256"
        },
        {
          "internalType": "address",
          "name": "addr",
          "type": "address"
        }
      ],
      "name": "isSlotAuthorized",
      "outputs": [
        {
          "internalType": "bool",
          "name": "",
          "type": "bool"
        }
      ],
      "stateMutability": "view",
      "type": "function"
    },
    {
      "inputs": [
        {
          "internalType": "address",
          "name": "",
          "type": "address"
        }
      ],
      "name": "kolWhiteList",
      "outputs": [
        {
          "internalType": "bool",
          "name": "",
          "type": "bool"
        }
      ],
      "stateMutability": "view",
      "type": "function"
    },
    {
      "inputs": [
        {
          "internalType": "uint256",
          "name": "",
          "type": "uint256"
        }
      ],
      "name": "level2Price",
      "outputs": [
        {
          "internalType": "uint256",
          "name": "",
          "type": "uint256"
        }
      ],
      "stateMutability": "view",
      "type": "function"
    },
    {
      "inputs": [
        {
          "internalType": "uint256",
          "name": "tokenId",
          "type": "uint256"
        },
        {
          "internalType": "uint256",
          "name": "targetTokenId",
          "type": "uint256"
        }
      ],
      "name": "linkTo",
      "outputs": [],
      "stateMutability": "nonpayable",
      "type": "function"
    },
    {
      "inputs": [
        {
          "internalType": "uint256[]",
          "name": "levels",
          "type": "uint256[]"
        },
        {
          "internalType": "uint256[]",
          "name": "prices",
          "type": "uint256[]"
        }
      ],
      "name": "manageLevelPrices",
      "outputs": [],
      "stateMutability": "nonpayable",
      "type": "function"
    },
    {
      "inputs": [
        {
          "internalType": "string",
          "name": "imageUri",
          "type": "string"
        },
        {
          "internalType": "uint256",
          "name": "targetLevel",
          "type": "uint256"
        }
      ],
      "name": "mint",
      "outputs": [],
      "stateMutability": "nonpayable",
      "type": "function"
    },
    {
      "inputs": [],
      "name": "name",
      "outputs": [
        {
          "internalType": "string",
          "name": "",
          "type": "string"
        }
      ],
      "stateMutability": "view",
      "type": "function"
    },
    {
      "inputs": [],
      "name": "owner",
      "outputs": [
        {
          "internalType": "address",
          "name": "",
          "type": "address"
        }
      ],
      "stateMutability": "view",
      "type": "function"
    },
    {
      "inputs": [
        {
          "internalType": "uint256",
          "name": "tokenId",
          "type": "uint256"
        }
      ],
      "name": "ownerOf",
      "outputs": [
        {
          "internalType": "address",
          "name": "",
          "type": "address"
        }
      ],
      "stateMutability": "view",
      "type": "function"
    },
    {
      "inputs": [
        {
          "internalType": "address[]",
          "name": "kolAddrs",
          "type": "address[]"
        }
      ],
      "name": "removeFromKolWhiteList",
      "outputs": [],
      "stateMutability": "nonpayable",
      "type": "function"
    },
    {
      "inputs": [],
      "name": "renounceOwnership",
      "outputs": [],
      "stateMutability": "nonpayable",
      "type": "function"
    },
    {
      "inputs": [
        {
          "internalType": "uint256",
          "name": "tokenId",
          "type": "uint256"
        }
      ],
      "name": "revokeAllAuthorizations",
      "outputs": [],
      "stateMutability": "nonpayable",
      "type": "function"
    },
    {
      "inputs": [
        {
          "internalType": "uint256",
          "name": "tokenId",
          "type": "uint256"
        },
        {
          "internalType": "address",
          "name": "slotManagerAddr",
          "type": "address"
        }
      ],
      "name": "revokeAuthorization",
      "outputs": [],
      "stateMutability": "nonpayable",
      "type": "function"
    },
    {
      "inputs": [
        {
          "internalType": "address",
          "name": "from",
          "type": "address"
        },
        {
          "internalType": "address",
          "name": "to",
          "type": "address"
        },
        {
          "internalType": "uint256",
          "name": "tokenId",
          "type": "uint256"
        }
      ],
      "name": "safeTransferFrom",
      "outputs": [],
      "stateMutability": "nonpayable",
      "type": "function"
    },
    {
      "inputs": [
        {
          "internalType": "address",
          "name": "from",
          "type": "address"
        },
        {
          "internalType": "address",
          "name": "to",
          "type": "address"
        },
        {
          "internalType": "uint256",
          "name": "tokenId",
          "type": "uint256"
        },
        {
          "internalType": "bytes",
          "name": "data",
          "type": "bytes"
        }
      ],
      "name": "safeTransferFrom",
      "outputs": [],
      "stateMutability": "nonpayable",
      "type": "function"
    },
    {
      "inputs": [
        {
          "internalType": "address",
          "name": "operator",
          "type": "address"
        },
        {
          "internalType": "bool",
          "name": "approved",
          "type": "bool"
        }
      ],
      "name": "setApprovalForAll",
      "outputs": [],
      "stateMutability": "nonpayable",
      "type": "function"
    },
    {
      "inputs": [
        {
          "internalType": "uint256",
          "name": "tokenId",
          "type": "uint256"
        },
        {
          "internalType": "string",
          "name": "value",
          "type": "string"
        }
      ],
      "name": "setSlotUri",
      "outputs": [],
      "stateMutability": "nonpayable",
      "type": "function"
    },
    {
      "inputs": [
        {
          "internalType": "bytes4",
          "name": "interfaceId",
          "type": "bytes4"
        }
      ],
      "name": "supportsInterface",
      "outputs": [
        {
          "internalType": "bool",
          "name": "",
          "type": "bool"
        }
      ],
      "stateMutability": "view",
      "type": "function"
    },
    {
      "inputs": [],
      "name": "symbol",
      "outputs": [
        {
          "internalType": "string",
          "name": "",
          "type": "string"
        }
      ],
      "stateMutability": "view",
      "type": "function"
    },
    {
      "inputs": [
        {
          "internalType": "uint256",
          "name": "",
          "type": "uint256"
        }
      ],
      "name": "token2Level",
      "outputs": [
        {
          "internalType": "uint256",
          "name": "",
          "type": "uint256"
        }
      ],
      "stateMutability": "view",
      "type": "function"
    },
    {
      "inputs": [
        {
          "internalType": "uint256",
          "name": "",
          "type": "uint256"
        }
      ],
      "name": "token2LinkTargetToken",
      "outputs": [
        {
          "internalType": "uint256",
          "name": "",
          "type": "uint256"
        }
      ],
      "stateMutability": "view",
      "type": "function"
    },
    {
      "inputs": [
        {
          "internalType": "uint256",
          "name": "index",
          "type": "uint256"
        }
      ],
      "name": "tokenByIndex",
      "outputs": [
        {
          "internalType": "uint256",
          "name": "",
          "type": "uint256"
        }
      ],
      "stateMutability": "view",
      "type": "function"
    },
    {
      "inputs": [
        {
          "internalType": "uint256",
          "name": "",
          "type": "uint256"
        }
      ],
      "name": "tokenId2AuthorizedAddress",
      "outputs": [
        {
          "internalType": "address",
          "name": "",
          "type": "address"
        }
      ],
      "stateMutability": "view",
      "type": "function"
    },
    {
      "inputs": [
        {
          "internalType": "uint256",
          "name": "",
          "type": "uint256"
        }
      ],
      "name": "tokenId2Hyperlink",
      "outputs": [
        {
          "internalType": "string",
          "name": "",
          "type": "string"
        }
      ],
      "stateMutability": "view",
      "type": "function"
    },
    {
      "inputs": [
        {
          "internalType": "uint256",
          "name": "",
          "type": "uint256"
        }
      ],
      "name": "tokenId2ImageUri",
      "outputs": [
        {
          "internalType": "string",
          "name": "",
          "type": "string"
        }
      ],
      "stateMutability": "view",
      "type": "function"
    },
    {
      "inputs": [
        {
          "internalType": "address",
          "name": "owner",
          "type": "address"
        },
        {
          "internalType": "uint256",
          "name": "index",
          "type": "uint256"
        }
      ],
      "name": "tokenOfOwnerByIndex",
      "outputs": [
        {
          "internalType": "uint256",
          "name": "",
          "type": "uint256"
        }
      ],
      "stateMutability": "view",
      "type": "function"
    },
    {
      "inputs": [
        {
          "internalType": "uint256",
          "name": "_tokenId",
          "type": "uint256"
        }
      ],
      "name": "tokenURI",
      "outputs": [
        {
          "internalType": "string",
          "name": "",
          "type": "string"
        }
      ],
      "stateMutability": "view",
      "type": "function"
    },
    {
      "inputs": [],
      "name": "totalSupply",
      "outputs": [
        {
          "internalType": "uint256",
          "name": "",
          "type": "uint256"
        }
      ],
      "stateMutability": "view",
      "type": "function"
    },
    {
      "inputs": [
        {
          "internalType": "address",
          "name": "from",
          "type": "address"
        },
        {
          "internalType": "address",
          "name": "to",
          "type": "address"
        },
        {
          "internalType": "uint256",
          "name": "tokenId",
          "type": "uint256"
        }
      ],
      "name": "transferFrom",
      "outputs": [],
      "stateMutability": "nonpayable",
      "type": "function"
    },
    {
      "inputs": [
        {
          "internalType": "address",
          "name": "newOwner",
          "type": "address"
        }
      ],
      "name": "transferOwnership",
      "outputs": [],
      "stateMutability": "nonpayable",
      "type": "function"
    },
    {
      "inputs": [
        {
          "internalType": "address",
          "name": "_ad3Address",
          "type": "address"
        }
      ],
      "name": "updateAd3Address",
      "outputs": [],
      "stateMutability": "nonpayable",
      "type": "function"
    },
    {
      "inputs": [
        {
          "internalType": "uint256",
          "name": "tokenId",
          "type": "uint256"
        },
        {
          "internalType": "uint256",
          "name": "targetLevel",
          "type": "uint256"
        }
      ],
      "name": "upgradeTo",
      "outputs": [],
      "stateMutability": "nonpayable",
      "type": "function"
    },
    {
      "inputs": [],
      "name": "withdrawAllAd3",
      "outputs": [],
      "stateMutability": "nonpayable",
      "type": "function"
    }
  ],
  "bytecode": "0x608060405234801561001057600080fd5b50615dd880620000216000396000f3fe608060405234801561001057600080fd5b50600436106102535760003560e01c80636352211e11610146578063b88d4fde116100c3578063d0ade91b11610087578063d0ade91b1461073c578063d65cabaa14610758578063e985e9c514610774578063f2fde38b146107a4578063f4fa43e5146107c0578063fef16a25146107dc57610253565b8063b88d4fde1461069c578063c3612ef7146106b8578063c4d66de8146106d4578063c87b56dd146106f0578063cfc3ac921461072057610253565b806395d89b411161010a57806395d89b411461060c578063982424691461062a578063a22cb46514610634578063a9f4a85c14610650578063b69134a11461066c57610253565b80636352211e1461056857806370a0823114610598578063715018a6146105c8578063764df015146105d25780638da5cb5b146105ee57610253565b806323b872dd116101d45780633b849925116101985780633b849925146104b457806342842e0e146104e45780634f6ccce714610500578063543e41c91461053057806362ee7ba51461054c57610253565b806323b872dd146103ec5780632710a3b6146104085780632a4d2f80146104385780632f745c5914610454578063388b1d011461048457610253565b8063086a55431161021b578063086a554314610322578063095ea7b31461035257806318160ddd1461036e5780631ba8b6a31461038c57806321d68f82146103bc57610253565b806301ffc9a714610258578063056b01ce1461028857806306fdde03146102a45780630754b2cc146102c2578063081812fc146102f2575b600080fd5b610272600480360381019061026d91906141aa565b61080c565b60405161027f9190614bc2565b60405180910390f35b6102a2600480360381019061029d9190614204565b610886565b005b6102ac6108e4565b6040516102b99190614bf8565b60405180910390f35b6102dc60048036038101906102d791906142be565b610976565b6040516102e99190614bf8565b60405180910390f35b61030c60048036038101906103079190614264565b610a1c565b6040516103199190614afb565b60405180910390f35b61033c60048036038101906103379190613eec565b610a62565b6040516103499190614bc2565b60405180910390f35b61036c6004803603810190610367919061406f565b610a83565b005b610376610b9b565b6040516103839190614f7a565b60405180910390f35b6103a660048036038101906103a19190614264565b610ba8565b6040516103b39190614f7a565b60405180910390f35b6103d660048036038101906103d191906142be565b610bc1565b6040516103e39190614bc2565b60405180910390f35b61040660048036038101906104019190613f59565b610c2d565b005b610422600480360381019061041d9190614264565b610c8d565b60405161042f9190614bf8565b60405180910390f35b610452600480360381019061044d91906140af565b610d2d565b005b61046e6004803603810190610469919061406f565b610ddb565b60405161047b9190614f7a565b60405180910390f35b61049e60048036038101906104999190614264565b610e80565b6040516104ab9190614f7a565b60405180910390f35b6104ce60048036038101906104c99190614264565b610e99565b6040516104db9190614f7a565b60405180910390f35b6104fe60048036038101906104f99190613f59565b610eb2565b005b61051a60048036038101906105159190614264565b610ed2565b6040516105279190614f7a565b60405180910390f35b61054a60048036038101906105459190614264565b610f43565b005b6105666004803603810190610561919061435e565b61100e565b005b610582600480360381019061057d9190614264565b6110e8565b60405161058f9190614afb565b60405180910390f35b6105b260048036038101906105ad9190613eec565b61116f565b6040516105bf9190614f7a565b60405180910390f35b6105d0611227565b005b6105ec60048036038101906105e791906140fc565b61123b565b005b6105f66112fe565b6040516106039190614afb565b60405180910390f35b610614611328565b6040516106219190614bf8565b60405180910390f35b6106326113ba565b005b61064e6004803603810190610649919061402f565b61152b565b005b61066a60048036038101906106659190613eec565b611541565b005b61068660048036038101906106819190614264565b61158d565b6040516106939190614afb565b60405180910390f35b6106b660048036038101906106b19190613fac565b6115c0565b005b6106d260048036038101906106cd91906142be565b611622565b005b6106ee60048036038101906106e99190613eec565b611774565b005b61070a60048036038101906107059190614264565b611968565b6040516107179190614bf8565b60405180910390f35b61073a600480360381019061073591906142be565b611a3b565b005b610756600480360381019061075191906142fe565b611bee565b005b610772600480360381019061076d919061435e565b611d49565b005b61078e60048036038101906107899190613f19565b611dcf565b60405161079b9190614bc2565b60405180910390f35b6107be60048036038101906107b99190613eec565b611e63565b005b6107da60048036038101906107d591906140af565b611ee7565b005b6107f660048036038101906107f19190614264565b611f95565b6040516108039190614bf8565b60405180910390f35b60007faeb317f9000000000000000000000000000000000000000000000000000000007bffffffffffffffffffffffffffffffffffffffffffffffffffffffff1916827bffffffffffffffffffffffffffffffffffffffffffffffffffffffff1916148061087f575061087e82612035565b5b9050919050565b60006001610892610b9b565b61089c91906150b7565b90506108a833826120af565b838360fc600084815260200190815260200160002091906108ca929190613b7e565b50600082146108de576108dd81836120cd565b5b50505050565b6060606580546108f3906152a1565b80601f016020809104026020016040519081016040528092919081815260200182805461091f906152a1565b801561096c5780601f106109415761010080835404028352916020019161096c565b820191906000526020600020905b81548152906001019060200180831161094f57829003601f168201915b5050505050905090565b606060fd60008481526020019081526020016000208054610996906152a1565b80601f01602080910402602001604051908101604052809291908181526020018280546109c2906152a1565b8015610a0f5780601f106109e457610100808354040283529160200191610a0f565b820191906000526020600020905b8154815290600101906020018083116109f257829003601f168201915b5050505050905092915050565b6000610a278261241f565b6069600083815260200190815260200160002060009054906101000a900473ffffffffffffffffffffffffffffffffffffffff169050919050565b6101036020528060005260406000206000915054906101000a900460ff1681565b6000610a8e826110e8565b90508073ffffffffffffffffffffffffffffffffffffffff168373ffffffffffffffffffffffffffffffffffffffff161415610aff576040517f08c379a0000000000000000000000000000000000000000000000000000000008152600401610af690614e5a565b60405180910390fd5b8073ffffffffffffffffffffffffffffffffffffffff16610b1e61246a565b73ffffffffffffffffffffffffffffffffffffffff161480610b4d5750610b4c81610b4761246a565b611dcf565b5b610b8c576040517f08c379a0000000000000000000000000000000000000000000000000000000008152600401610b8390614eda565b60405180910390fd5b610b968383612472565b505050565b6000609980549050905090565b6101006020528060005260406000206000915090505481565b60008173ffffffffffffffffffffffffffffffffffffffff1660fb600085815260200190815260200160002060009054906101000a900473ffffffffffffffffffffffffffffffffffffffff1673ffffffffffffffffffffffffffffffffffffffff1614905092915050565b610c3e610c3861246a565b8261252b565b610c7d576040517f08c379a0000000000000000000000000000000000000000000000000000000008152600401610c7490614c3a565b60405180910390fd5b610c888383836125c0565b505050565b60fc6020528060005260406000206000915090508054610cac906152a1565b80601f0160208091040260200160405190810160405280929190818152602001828054610cd8906152a1565b8015610d255780601f10610cfa57610100808354040283529160200191610d25565b820191906000526020600020905b815481529060010190602001808311610d0857829003601f168201915b505050505081565b610d356128ba565b60005b82829050811015610dd65760016101036000858585818110610d5d57610d5c615409565b5b9050602002016020810190610d729190613eec565b73ffffffffffffffffffffffffffffffffffffffff1673ffffffffffffffffffffffffffffffffffffffff16815260200190815260200160002060006101000a81548160ff0219169083151502179055508080610dce90615304565b915050610d38565b505050565b6000610de68361116f565b8210610e27576040517f08c379a0000000000000000000000000000000000000000000000000000000008152600401610e1e90614c7a565b60405180910390fd5b609760008473ffffffffffffffffffffffffffffffffffffffff1673ffffffffffffffffffffffffffffffffffffffff168152602001908152602001600020600083815260200190815260200160002054905092915050565b6101026020528060005260406000206000915090505481565b6101016020528060005260406000206000915090505481565b610ecd838383604051806020016040528060008152506115c0565b505050565b6000610edc610b9b565b8210610f1d576040517f08c379a0000000000000000000000000000000000000000000000000000000008152600401610f1490614efa565b60405180910390fd5b60998281548110610f3157610f30615409565b5b90600052602060002001549050919050565b80610f4d816110e8565b73ffffffffffffffffffffffffffffffffffffffff163273ffffffffffffffffffffffffffffffffffffffff161480610fc05750610f8a816110e8565b73ffffffffffffffffffffffffffffffffffffffff16610fa861246a565b73ffffffffffffffffffffffffffffffffffffffff16145b610fff576040517f08c379a0000000000000000000000000000000000000000000000000000000008152600401610ff690614e1a565b60405180910390fd5b61100a826000611622565b5050565b81611018816110e8565b73ffffffffffffffffffffffffffffffffffffffff163273ffffffffffffffffffffffffffffffffffffffff16148061108b5750611055816110e8565b73ffffffffffffffffffffffffffffffffffffffff1661107361246a565b73ffffffffffffffffffffffffffffffffffffffff16145b6110ca576040517f08c379a00000000000000000000000000000000000000000000000000000000081526004016110c190614e1a565b60405180910390fd5b81610102600085815260200190815260200160002081905550505050565b6000806110f483612938565b9050600073ffffffffffffffffffffffffffffffffffffffff168173ffffffffffffffffffffffffffffffffffffffff161415611166576040517f08c379a000000000000000000000000000000000000000000000000000000000815260040161115d90614e3a565b60405180910390fd5b80915050919050565b60008073ffffffffffffffffffffffffffffffffffffffff168273ffffffffffffffffffffffffffffffffffffffff1614156111e0576040517f08c379a00000000000000000000000000000000000000000000000000000000081526004016111d790614d9a565b60405180910390fd5b606860008373ffffffffffffffffffffffffffffffffffffffff1673ffffffffffffffffffffffffffffffffffffffff168152602001908152602001600020549050919050565b61122f6128ba565b6112396000612975565b565b6112436128ba565b81819050848490501461128b576040517f08c379a000000000000000000000000000000000000000000000000000000000815260040161128290614e7a565b60405180910390fd5b60005b848490508110156112f7578282828181106112ac576112ab615409565b5b9050602002013561010160008787858181106112cb576112ca615409565b5b9050602002013581526020019081526020016000208190555080806112ef90615304565b91505061128e565b5050505050565b600060c960009054906101000a900473ffffffffffffffffffffffffffffffffffffffff16905090565b606060668054611337906152a1565b80601f0160208091040260200160405190810160405280929190818152602001828054611363906152a1565b80156113b05780601f10611385576101008083540402835291602001916113b0565b820191906000526020600020905b81548152906001019060200180831161139357829003601f168201915b5050505050905090565b6113c26128ba565b600060ff60009054906101000a900473ffffffffffffffffffffffffffffffffffffffff1673ffffffffffffffffffffffffffffffffffffffff166370a08231306040518263ffffffff1660e01b815260040161141f9190614afb565b60206040518083038186803b15801561143757600080fd5b505afa15801561144b573d6000803e3d6000fd5b505050506040513d601f19601f8201168201806040525081019061146f9190614291565b905060ff60009054906101000a900473ffffffffffffffffffffffffffffffffffffffff1673ffffffffffffffffffffffffffffffffffffffff1663a9059cbb6114b76112fe565b836040518363ffffffff1660e01b81526004016114d5929190614b99565b602060405180830381600087803b1580156114ef57600080fd5b505af1158015611503573d6000803e3d6000fd5b505050506040513d601f19601f82011682018060405250810190611527919061417d565b5050565b61153d61153661246a565b8383612a3b565b5050565b6115496128ba565b8060ff60006101000a81548173ffffffffffffffffffffffffffffffffffffffff021916908373ffffffffffffffffffffffffffffffffffffffff16021790555050565b60fb6020528060005260406000206000915054906101000a900473ffffffffffffffffffffffffffffffffffffffff1681565b6115d16115cb61246a565b8361252b565b611610576040517f08c379a000000000000000000000000000000000000000000000000000000000815260040161160790614c3a565b60405180910390fd5b61161c84848484612ba8565b50505050565b8161162c816110e8565b73ffffffffffffffffffffffffffffffffffffffff163273ffffffffffffffffffffffffffffffffffffffff16148061169f5750611669816110e8565b73ffffffffffffffffffffffffffffffffffffffff1661168761246a565b73ffffffffffffffffffffffffffffffffffffffff16145b6116de576040517f08c379a00000000000000000000000000000000000000000000000000000000081526004016116d590614e1a565b60405180910390fd5b600060fb600085815260200190815260200160002060009054906101000a900473ffffffffffffffffffffffffffffffffffffffff16905060fd600085815260200190815260200160002060006117359190613c04565b7fb5941f6e357083b6bcaa8e6b7ae8cc1fe09249dd08844a1b6d621170d58c69e48482604051611766929190614f95565b60405180910390a150505050565b60008060019054906101000a900460ff161590508080156117a55750600160008054906101000a900460ff1660ff16105b806117d257506117b430612c04565b1580156117d15750600160008054906101000a900460ff1660ff16145b5b611811576040517f08c379a000000000000000000000000000000000000000000000000000000000815260040161180890614dba565b60405180910390fd5b60016000806101000a81548160ff021916908360ff160217905550801561184e576001600060016101000a81548160ff0219169083151502179055505b6118c26040518060400160405280601881526020017f48797065726c696e6b204e465420436f6c6c656374696f6e00000000000000008152506040518060400160405280600481526020017f484e465400000000000000000000000000000000000000000000000000000000815250612c27565b6118ca612c84565b8160ff60006101000a81548173ffffffffffffffffffffffffffffffffffffffff021916908373ffffffffffffffffffffffffffffffffffffffff16021790555080156119645760008060016101000a81548160ff0219169083151502179055507f7f26b83ff96e1f2b6a682f133852f6798a09c465da95921460cefb3847402498600160405161195b9190614bdd565b60405180910390a15b5050565b606061197382612cdd565b6119b2576040517f08c379a00000000000000000000000000000000000000000000000000000000081526004016119a990614c5a565b60405180910390fd5b611a156119be83612d1e565b6040516020016119ce9190614ad9565b60405160208183030381529060405260fc6000858152602001908152602001600020604051602001611a01929190614a46565b604051602081830303815290604052612df6565b604051602001611a259190614ab7565b6040516020818303038152906040529050919050565b81611a45816110e8565b73ffffffffffffffffffffffffffffffffffffffff163273ffffffffffffffffffffffffffffffffffffffff161480611ab85750611a82816110e8565b73ffffffffffffffffffffffffffffffffffffffff16611aa061246a565b73ffffffffffffffffffffffffffffffffffffffff16145b611af7576040517f08c379a0000000000000000000000000000000000000000000000000000000008152600401611aee90614e1a565b60405180910390fd5b8173ffffffffffffffffffffffffffffffffffffffff1660fb600085815260200190815260200160002060009054906101000a900473ffffffffffffffffffffffffffffffffffffffff1673ffffffffffffffffffffffffffffffffffffffff1614611be9578160fb600085815260200190815260200160002060006101000a81548173ffffffffffffffffffffffffffffffffffffffff021916908373ffffffffffffffffffffffffffffffffffffffff1602179055507fb6aac9d4aca74cc3c9b6f10668821ed9e7c5736feeb673bbbbd8b295ba2c59368383604051611be0929190614f95565b60405180910390a15b505050565b82611bf8816110e8565b73ffffffffffffffffffffffffffffffffffffffff16611c1661246a565b73ffffffffffffffffffffffffffffffffffffffff161480611c9d5750611c3b61246a565b73ffffffffffffffffffffffffffffffffffffffff1660fb600083815260200190815260200160002060009054906101000a900473ffffffffffffffffffffffffffffffffffffffff1673ffffffffffffffffffffffffffffffffffffffff16145b611cdc576040517f08c379a0000000000000000000000000000000000000000000000000000000008152600401611cd390614c1a565b60405180910390fd5b828260fd60008781526020019081526020016000209190611cfe929190613b7e565b507f3861e85a43f9ffebd047ed00860b7c5e4248d52895f611df7877c826ce5d229084611d2961246a565b8585604051611d3b9493929190614fbe565b60405180910390a150505050565b600073ffffffffffffffffffffffffffffffffffffffff16611d6a836110e8565b73ffffffffffffffffffffffffffffffffffffffff161415611dc1576040517f08c379a0000000000000000000000000000000000000000000000000000000008152600401611db890614f5a565b60405180910390fd5b611dcb82826120cd565b5050565b6000606a60008473ffffffffffffffffffffffffffffffffffffffff1673ffffffffffffffffffffffffffffffffffffffff16815260200190815260200160002060008373ffffffffffffffffffffffffffffffffffffffff1673ffffffffffffffffffffffffffffffffffffffff16815260200190815260200160002060009054906101000a900460ff16905092915050565b611e6b6128ba565b600073ffffffffffffffffffffffffffffffffffffffff168173ffffffffffffffffffffffffffffffffffffffff161415611edb576040517f08c379a0000000000000000000000000000000000000000000000000000000008152600401611ed290614cfa565b60405180910390fd5b611ee481612975565b50565b611eef6128ba565b60005b82829050811015611f905760006101036000858585818110611f1757611f16615409565b5b9050602002016020810190611f2c9190613eec565b73ffffffffffffffffffffffffffffffffffffffff1673ffffffffffffffffffffffffffffffffffffffff16815260200190815260200160002060006101000a81548160ff0219169083151502179055508080611f8890615304565b915050611ef2565b505050565b60fd6020528060005260406000206000915090508054611fb4906152a1565b80601f0160208091040260200160405190810160405280929190818152602001828054611fe0906152a1565b801561202d5780601f106120025761010080835404028352916020019161202d565b820191906000526020600020905b81548152906001019060200180831161201057829003601f168201915b505050505081565b60007f780e9d63000000000000000000000000000000000000000000000000000000007bffffffffffffffffffffffffffffffffffffffffffffffffffffffff1916827bffffffffffffffffffffffffffffffffffffffffffffffffffffffff191614806120a857506120a782612f7b565b5b9050919050565b6120c982826040518060200160405280600081525061305d565b5050565b60006101006000848152602001908152602001600020549050808211612128576040517f08c379a000000000000000000000000000000000000000000000000000000000815260040161211f90614eba565b60405180910390fd5b6000610101600083815260200190815260200160002054905060006101016000858152602001908152602001600020549050600081141561219e576040517f08c379a000000000000000000000000000000000000000000000000000000000815260040161219590614cba565b60405180910390fd5b8181116121e0576040517f08c379a00000000000000000000000000000000000000000000000000000000081526004016121d790614e9a565b60405180910390fd5b600060ff60009054906101000a900473ffffffffffffffffffffffffffffffffffffffff1673ffffffffffffffffffffffffffffffffffffffff166370a08231336040518263ffffffff1660e01b815260040161223d9190614afb565b60206040518083038186803b15801561225557600080fd5b505afa158015612269573d6000803e3d6000fd5b505050506040513d601f19601f8201168201806040525081019061228d9190614291565b90506000838361229d9190615198565b905060018614806122ff57506001151561010360003373ffffffffffffffffffffffffffffffffffffffff1673ffffffffffffffffffffffffffffffffffffffff16815260200190815260200160002060009054906101000a900460ff161515145b1561230957600090505b80821161234b576040517f08c379a000000000000000000000000000000000000000000000000000000000815260040161234290614cda565b60405180910390fd5b60ff60009054906101000a900473ffffffffffffffffffffffffffffffffffffffff1673ffffffffffffffffffffffffffffffffffffffff166323b872dd3330846040518463ffffffff1660e01b81526004016123aa93929190614b16565b602060405180830381600087803b1580156123c457600080fd5b505af11580156123d8573d6000803e3d6000fd5b505050506040513d601f19601f820116820180604052508101906123fc919061417d565b508561010060008981526020019081526020016000208190555050505050505050565b61242881612cdd565b612467576040517f08c379a000000000000000000000000000000000000000000000000000000000815260040161245e90614e3a565b60405180910390fd5b50565b600033905090565b816069600083815260200190815260200160002060006101000a81548173ffffffffffffffffffffffffffffffffffffffff021916908373ffffffffffffffffffffffffffffffffffffffff160217905550808273ffffffffffffffffffffffffffffffffffffffff166124e5836110e8565b73ffffffffffffffffffffffffffffffffffffffff167f8c5be1e5ebec7d5bd14f71427d1e84f3dd0314c0f7b2291e5b200ac8c7c3b92560405160405180910390a45050565b600080612537836110e8565b90508073ffffffffffffffffffffffffffffffffffffffff168473ffffffffffffffffffffffffffffffffffffffff16148061257957506125788185611dcf565b5b806125b757508373ffffffffffffffffffffffffffffffffffffffff1661259f84610a1c565b73ffffffffffffffffffffffffffffffffffffffff16145b91505092915050565b8273ffffffffffffffffffffffffffffffffffffffff166125e0826110e8565b73ffffffffffffffffffffffffffffffffffffffff1614612636576040517f08c379a000000000000000000000000000000000000000000000000000000000815260040161262d90614d1a565b60405180910390fd5b600073ffffffffffffffffffffffffffffffffffffffff168273ffffffffffffffffffffffffffffffffffffffff1614156126a6576040517f08c379a000000000000000000000000000000000000000000000000000000000815260040161269d90614d5a565b60405180910390fd5b6126b383838360016130b8565b8273ffffffffffffffffffffffffffffffffffffffff166126d3826110e8565b73ffffffffffffffffffffffffffffffffffffffff1614612729576040517f08c379a000000000000000000000000000000000000000000000000000000000815260040161272090614d1a565b60405180910390fd5b6069600082815260200190815260200160002060006101000a81549073ffffffffffffffffffffffffffffffffffffffff02191690556001606860008573ffffffffffffffffffffffffffffffffffffffff1673ffffffffffffffffffffffffffffffffffffffff168152602001908152602001600020600082825403925050819055506001606860008473ffffffffffffffffffffffffffffffffffffffff1673ffffffffffffffffffffffffffffffffffffffff16815260200190815260200160002060008282540192505081905550816067600083815260200190815260200160002060006101000a81548173ffffffffffffffffffffffffffffffffffffffff021916908373ffffffffffffffffffffffffffffffffffffffff160217905550808273ffffffffffffffffffffffffffffffffffffffff168473ffffffffffffffffffffffffffffffffffffffff167fddf252ad1be2c89b69c2b068fc378daa952ba7f163c4a11628f55a4df523b3ef60405160405180910390a46128b58383836001613218565b505050565b6128c261246a565b73ffffffffffffffffffffffffffffffffffffffff166128e06112fe565b73ffffffffffffffffffffffffffffffffffffffff1614612936576040517f08c379a000000000000000000000000000000000000000000000000000000000815260040161292d90614dfa565b60405180910390fd5b565b60006067600083815260200190815260200160002060009054906101000a900473ffffffffffffffffffffffffffffffffffffffff169050919050565b600060c960009054906101000a900473ffffffffffffffffffffffffffffffffffffffff1690508160c960006101000a81548173ffffffffffffffffffffffffffffffffffffffff021916908373ffffffffffffffffffffffffffffffffffffffff1602179055508173ffffffffffffffffffffffffffffffffffffffff168173ffffffffffffffffffffffffffffffffffffffff167f8be0079c531659141344cd1fd0a4f28419497f9722a3daafe3b4186f6b6457e060405160405180910390a35050565b8173ffffffffffffffffffffffffffffffffffffffff168373ffffffffffffffffffffffffffffffffffffffff161415612aaa576040517f08c379a0000000000000000000000000000000000000000000000000000000008152600401612aa190614d7a565b60405180910390fd5b80606a60008573ffffffffffffffffffffffffffffffffffffffff1673ffffffffffffffffffffffffffffffffffffffff16815260200190815260200160002060008473ffffffffffffffffffffffffffffffffffffffff1673ffffffffffffffffffffffffffffffffffffffff16815260200190815260200160002060006101000a81548160ff0219169083151502179055508173ffffffffffffffffffffffffffffffffffffffff168373ffffffffffffffffffffffffffffffffffffffff167f17307eab39ab6107e8899845ad3d59bd9653f200f220920489ca2b5937696c3183604051612b9b9190614bc2565b60405180910390a3505050565b612bb38484846125c0565b612bbf8484848461321e565b612bfe576040517f08c379a0000000000000000000000000000000000000000000000000000000008152600401612bf590614c9a565b60405180910390fd5b50505050565b6000808273ffffffffffffffffffffffffffffffffffffffff163b119050919050565b600060019054906101000a900460ff16612c76576040517f08c379a0000000000000000000000000000000000000000000000000000000008152600401612c6d90614f1a565b60405180910390fd5b612c8082826133b5565b5050565b600060019054906101000a900460ff16612cd3576040517f08c379a0000000000000000000000000000000000000000000000000000000008152600401612cca90614f1a565b60405180910390fd5b612cdb613436565b565b60008073ffffffffffffffffffffffffffffffffffffffff16612cff83612938565b73ffffffffffffffffffffffffffffffffffffffff1614159050919050565b606060006001612d2d84613497565b01905060008167ffffffffffffffff811115612d4c57612d4b615438565b5b6040519080825280601f01601f191660200182016040528015612d7e5781602001600182028036833780820191505090505b509050600082602001820190505b600115612deb578080600190039150507f3031323334353637383961626364656600000000000000000000000000000000600a86061a8153600a8581612dd557612dd461537c565b5b0494506000851415612de657612deb565b612d8c565b819350505050919050565b6060600082511415612e1957604051806020016040528060008152509050612f76565b6000604051806060016040528060408152602001615d636040913990506000600360028551612e4891906150b7565b612e52919061510d565b6004612e5e919061513e565b90506000602082612e6f91906150b7565b67ffffffffffffffff811115612e8857612e87615438565b5b6040519080825280601f01601f191660200182016040528015612eba5781602001600182028036833780820191505090505b509050818152600183018586518101602084015b81831015612f35576003830192508251603f8160121c1685015160f81b8252600182019150603f81600c1c1685015160f81b8252600182019150603f8160061c1685015160f81b8252600182019150603f811685015160f81b825260018201915050612ece565b600389510660018114612f4f5760028114612f5f57612f6a565b613d3d60f01b6002830352612f6a565b603d60f81b60018303525b50505050508093505050505b919050565b60007f80ac58cd000000000000000000000000000000000000000000000000000000007bffffffffffffffffffffffffffffffffffffffffffffffffffffffff1916827bffffffffffffffffffffffffffffffffffffffffffffffffffffffff1916148061304657507f5b5e139f000000000000000000000000000000000000000000000000000000007bffffffffffffffffffffffffffffffffffffffffffffffffffffffff1916827bffffffffffffffffffffffffffffffffffffffffffffffffffffffff1916145b806130565750613055826135ea565b5b9050919050565b6130678383613654565b613074600084848461321e565b6130b3576040517f08c379a00000000000000000000000000000000000000000000000000000000081526004016130aa90614c9a565b60405180910390fd5b505050565b6130c484848484613872565b6001811115613108576040517f08c379a00000000000000000000000000000000000000000000000000000000081526004016130ff90614f3a565b60405180910390fd5b6000829050600073ffffffffffffffffffffffffffffffffffffffff168573ffffffffffffffffffffffffffffffffffffffff1614156131505761314b81613878565b61318f565b8373ffffffffffffffffffffffffffffffffffffffff168573ffffffffffffffffffffffffffffffffffffffff161461318e5761318d85826138c1565b5b5b600073ffffffffffffffffffffffffffffffffffffffff168473ffffffffffffffffffffffffffffffffffffffff1614156131d2576131cd81613a2e565b613211565b8473ffffffffffffffffffffffffffffffffffffffff168473ffffffffffffffffffffffffffffffffffffffff16146132105761320f8482613aff565b5b5b5050505050565b50505050565b600061323f8473ffffffffffffffffffffffffffffffffffffffff16612c04565b156133a8578373ffffffffffffffffffffffffffffffffffffffff1663150b7a0261326861246a565b8786866040518563ffffffff1660e01b815260040161328a9493929190614b4d565b602060405180830381600087803b1580156132a457600080fd5b505af19250505080156132d557506040513d601f19601f820116820180604052508101906132d291906141d7565b60015b613358573d8060008114613305576040519150601f19603f3d011682016040523d82523d6000602084013e61330a565b606091505b50600081511415613350576040517f08c379a000000000000000000000000000000000000000000000000000000000815260040161334790614c9a565b60405180910390fd5b805181602001fd5b63150b7a0260e01b7bffffffffffffffffffffffffffffffffffffffffffffffffffffffff1916817bffffffffffffffffffffffffffffffffffffffffffffffffffffffff1916149150506133ad565b600190505b949350505050565b600060019054906101000a900460ff16613404576040517f08c379a00000000000000000000000000000000000000000000000000000000081526004016133fb90614f1a565b60405180910390fd5b816065908051906020019061341a929190613c44565b508060669080519060200190613431929190613c44565b505050565b600060019054906101000a900460ff16613485576040517f08c379a000000000000000000000000000000000000000000000000000000000815260040161347c90614f1a565b60405180910390fd5b61349561349061246a565b612975565b565b600080600090507a184f03e93ff9f4daa797ed6e38ed64bf6a1f01000000000000000083106134f5577a184f03e93ff9f4daa797ed6e38ed64bf6a1f01000000000000000083816134eb576134ea61537c565b5b0492506040810190505b6d04ee2d6d415b85acef81000000008310613532576d04ee2d6d415b85acef810000000083816135285761352761537c565b5b0492506020810190505b662386f26fc10000831061356157662386f26fc1000083816135575761355661537c565b5b0492506010810190505b6305f5e100831061358a576305f5e10083816135805761357f61537c565b5b0492506008810190505b61271083106135af5761271083816135a5576135a461537c565b5b0492506004810190505b606483106135d257606483816135c8576135c761537c565b5b0492506002810190505b600a83106135e1576001810190505b80915050919050565b60007f01ffc9a7000000000000000000000000000000000000000000000000000000007bffffffffffffffffffffffffffffffffffffffffffffffffffffffff1916827bffffffffffffffffffffffffffffffffffffffffffffffffffffffff1916149050919050565b600073ffffffffffffffffffffffffffffffffffffffff168273ffffffffffffffffffffffffffffffffffffffff1614156136c4576040517f08c379a00000000000000000000000000000000000000000000000000000000081526004016136bb90614dda565b60405180910390fd5b6136cd81612cdd565b1561370d576040517f08c379a000000000000000000000000000000000000000000000000000000000815260040161370490614d3a565b60405180910390fd5b61371b6000838360016130b8565b61372481612cdd565b15613764576040517f08c379a000000000000000000000000000000000000000000000000000000000815260040161375b90614d3a565b60405180910390fd5b6001606860008473ffffffffffffffffffffffffffffffffffffffff1673ffffffffffffffffffffffffffffffffffffffff16815260200190815260200160002060008282540192505081905550816067600083815260200190815260200160002060006101000a81548173ffffffffffffffffffffffffffffffffffffffff021916908373ffffffffffffffffffffffffffffffffffffffff160217905550808273ffffffffffffffffffffffffffffffffffffffff16600073ffffffffffffffffffffffffffffffffffffffff167fddf252ad1be2c89b69c2b068fc378daa952ba7f163c4a11628f55a4df523b3ef60405160405180910390a461386e600083836001613218565b5050565b50505050565b609980549050609a600083815260200190815260200160002081905550609981908060018154018082558091505060019003906000526020600020016000909190919091505550565b600060016138ce8461116f565b6138d89190615198565b90506000609860008481526020019081526020016000205490508181146139bd576000609760008673ffffffffffffffffffffffffffffffffffffffff1673ffffffffffffffffffffffffffffffffffffffff168152602001908152602001600020600084815260200190815260200160002054905080609760008773ffffffffffffffffffffffffffffffffffffffff1673ffffffffffffffffffffffffffffffffffffffff168152602001908152602001600020600084815260200190815260200160002081905550816098600083815260200190815260200160002081905550505b6098600084815260200190815260200160002060009055609760008573ffffffffffffffffffffffffffffffffffffffff1673ffffffffffffffffffffffffffffffffffffffff16815260200190815260200160002060008381526020019081526020016000206000905550505050565b60006001609980549050613a429190615198565b90506000609a6000848152602001908152602001600020549050600060998381548110613a7257613a71615409565b5b906000526020600020015490508060998381548110613a9457613a93615409565b5b906000526020600020018190555081609a600083815260200190815260200160002081905550609a6000858152602001908152602001600020600090556099805480613ae357613ae26153da565b5b6001900381819060005260206000200160009055905550505050565b6000613b0a8361116f565b905081609760008573ffffffffffffffffffffffffffffffffffffffff1673ffffffffffffffffffffffffffffffffffffffff168152602001908152602001600020600083815260200190815260200160002081905550806098600084815260200190815260200160002081905550505050565b828054613b8a906152a1565b90600052602060002090601f016020900481019282613bac5760008555613bf3565b82601f10613bc557803560ff1916838001178555613bf3565b82800160010185558215613bf3579182015b82811115613bf2578235825591602001919060010190613bd7565b5b509050613c009190613cca565b5090565b508054613c10906152a1565b6000825580601f10613c225750613c41565b601f016020900490600052602060002090810190613c409190613cca565b5b50565b828054613c50906152a1565b90600052602060002090601f016020900481019282613c725760008555613cb9565b82601f10613c8b57805160ff1916838001178555613cb9565b82800160010185558215613cb9579182015b82811115613cb8578251825591602001919060010190613c9d565b5b509050613cc69190613cca565b5090565b5b80821115613ce3576000816000905550600101613ccb565b5090565b6000613cfa613cf584615023565b614ffe565b905082815260208101848484011115613d1657613d15615476565b5b613d2184828561525f565b509392505050565b600081359050613d3881615d06565b92915050565b60008083601f840112613d5457613d5361546c565b5b8235905067ffffffffffffffff811115613d7157613d70615467565b5b602083019150836020820283011115613d8d57613d8c615471565b5b9250929050565b60008083601f840112613daa57613da961546c565b5b8235905067ffffffffffffffff811115613dc757613dc6615467565b5b602083019150836020820283011115613de357613de2615471565b5b9250929050565b600081359050613df981615d1d565b92915050565b600081519050613e0e81615d1d565b92915050565b600081359050613e2381615d34565b92915050565b600081519050613e3881615d34565b92915050565b600082601f830112613e5357613e5261546c565b5b8135613e63848260208601613ce7565b91505092915050565b60008083601f840112613e8257613e8161546c565b5b8235905067ffffffffffffffff811115613e9f57613e9e615467565b5b602083019150836001820283011115613ebb57613eba615471565b5b9250929050565b600081359050613ed181615d4b565b92915050565b600081519050613ee681615d4b565b92915050565b600060208284031215613f0257613f01615480565b5b6000613f1084828501613d29565b91505092915050565b60008060408385031215613f3057613f2f615480565b5b6000613f3e85828601613d29565b9250506020613f4f85828601613d29565b9150509250929050565b600080600060608486031215613f7257613f71615480565b5b6000613f8086828701613d29565b9350506020613f9186828701613d29565b9250506040613fa286828701613ec2565b9150509250925092565b60008060008060808587031215613fc657613fc5615480565b5b6000613fd487828801613d29565b9450506020613fe587828801613d29565b9350506040613ff687828801613ec2565b925050606085013567ffffffffffffffff8111156140175761401661547b565b5b61402387828801613e3e565b91505092959194509250565b6000806040838503121561404657614045615480565b5b600061405485828601613d29565b925050602061406585828601613dea565b9150509250929050565b6000806040838503121561408657614085615480565b5b600061409485828601613d29565b92505060206140a585828601613ec2565b9150509250929050565b600080602083850312156140c6576140c5615480565b5b600083013567ffffffffffffffff8111156140e4576140e361547b565b5b6140f085828601613d3e565b92509250509250929050565b6000806000806040858703121561411657614115615480565b5b600085013567ffffffffffffffff8111156141345761413361547b565b5b61414087828801613d94565b9450945050602085013567ffffffffffffffff8111156141635761416261547b565b5b61416f87828801613d94565b925092505092959194509250565b60006020828403121561419357614192615480565b5b60006141a184828501613dff565b91505092915050565b6000602082840312156141c0576141bf615480565b5b60006141ce84828501613e14565b91505092915050565b6000602082840312156141ed576141ec615480565b5b60006141fb84828501613e29565b91505092915050565b60008060006040848603121561421d5761421c615480565b5b600084013567ffffffffffffffff81111561423b5761423a61547b565b5b61424786828701613e6c565b9350935050602061425a86828701613ec2565b9150509250925092565b60006020828403121561427a57614279615480565b5b600061428884828501613ec2565b91505092915050565b6000602082840312156142a7576142a6615480565b5b60006142b584828501613ed7565b91505092915050565b600080604083850312156142d5576142d4615480565b5b60006142e385828601613ec2565b92505060206142f485828601613d29565b9150509250929050565b60008060006040848603121561431757614316615480565b5b600061432586828701613ec2565b935050602084013567ffffffffffffffff8111156143465761434561547b565b5b61435286828701613e6c565b92509250509250925092565b6000806040838503121561437557614374615480565b5b600061438385828601613ec2565b925050602061439485828601613ec2565b9150509250929050565b6143a7816151cc565b82525050565b6143b6816151de565b82525050565b60006143c782615069565b6143d1818561507f565b93506143e181856020860161526e565b6143ea81615485565b840191505092915050565b600061440082615069565b61440a8185615090565b935061441a81856020860161526e565b80840191505092915050565b61442f8161524d565b82525050565b6000614441838561509b565b935061444e83858461525f565b61445783615485565b840190509392505050565b600061446d82615074565b614477818561509b565b935061448781856020860161526e565b61449081615485565b840191505092915050565b60006144a682615074565b6144b081856150ac565b93506144c081856020860161526e565b80840191505092915050565b600081546144d9816152a1565b6144e381866150ac565b945060018216600081146144fe576001811461450f57614542565b60ff19831686528186019350614542565b61451885615054565b60005b8381101561453a5781548189015260018201915060208101905061451b565b838801955050505b50505092915050565b6000614558601c8361509b565b915061456382615496565b602082019050919050565b600061457b602d8361509b565b9150614586826154bf565b604082019050919050565b600061459e6009836150ac565b91506145a98261550e565b600982019050919050565b60006145c1601f8361509b565b91506145cc82615537565b602082019050919050565b60006145e4602b8361509b565b91506145ef82615560565b604082019050919050565b600061460760328361509b565b9150614612826155af565b604082019050919050565b600061462a60188361509b565b9150614635826155fe565b602082019050919050565b600061464d60168361509b565b915061465882615627565b602082019050919050565b600061467060268361509b565b915061467b82615650565b604082019050919050565b60006146936002836150ac565b915061469e8261569f565b600282019050919050565b60006146b660258361509b565b91506146c1826156c8565b604082019050919050565b60006146d9601c8361509b565b91506146e482615717565b602082019050919050565b60006146fc6047836150ac565b915061470782615740565b604782019050919050565b600061471f6001836150ac565b915061472a826157b5565b600182019050919050565b600061474260248361509b565b915061474d826157de565b604082019050919050565b600061476560198361509b565b91506147708261582d565b602082019050919050565b600061478860298361509b565b915061479382615856565b604082019050919050565b60006147ab6001836150ac565b91506147b6826158a5565b600182019050919050565b60006147ce602e8361509b565b91506147d9826158ce565b604082019050919050565b60006147f16009836150ac565b91506147fc8261591d565b600982019050919050565b600061481460208361509b565b915061481f82615946565b602082019050919050565b60006148376001836150ac565b91506148428261596f565b600182019050919050565b600061485a60208361509b565b915061486582615998565b602082019050919050565b600061487d60198361509b565b9150614888826159c1565b602082019050919050565b60006148a060188361509b565b91506148ab826159ea565b602082019050919050565b60006148c360218361509b565b91506148ce82615a13565b604082019050919050565b60006148e6601d836150ac565b91506148f182615a62565b601d82019050919050565b600061490960248361509b565b915061491482615a8b565b604082019050919050565b600061492c602b8361509b565b915061493782615ada565b604082019050919050565b600061494f60218361509b565b915061495a82615b29565b604082019050919050565b6000614972603d8361509b565b915061497d82615b78565b604082019050919050565b6000614995601b836150ac565b91506149a082615bc7565b601b82019050919050565b60006149b8602c8361509b565b91506149c382615bf0565b604082019050919050565b60006149db602b8361509b565b91506149e682615c3f565b604082019050919050565b60006149fe60358361509b565b9150614a0982615c8e565b604082019050919050565b6000614a2160138361509b565b9150614a2c82615cdd565b602082019050919050565b614a4081615236565b82525050565b6000614a5182614591565b9150614a5d82856143f5565b9150614a6882614686565b9150614a73826146ef565b9150614a7e82614712565b9150614a89826147e4565b9150614a9582846144cc565b9150614aa08261479e565b9150614aab8261482a565b91508190509392505050565b6000614ac2826148d9565b9150614ace828461449b565b915081905092915050565b6000614ae482614988565b9150614af0828461449b565b915081905092915050565b6000602082019050614b10600083018461439e565b92915050565b6000606082019050614b2b600083018661439e565b614b38602083018561439e565b614b456040830184614a37565b949350505050565b6000608082019050614b62600083018761439e565b614b6f602083018661439e565b614b7c6040830185614a37565b8181036060830152614b8e81846143bc565b905095945050505050565b6000604082019050614bae600083018561439e565b614bbb6020830184614a37565b9392505050565b6000602082019050614bd760008301846143ad565b92915050565b6000602082019050614bf26000830184614426565b92915050565b60006020820190508181036000830152614c128184614462565b905092915050565b60006020820190508181036000830152614c338161454b565b9050919050565b60006020820190508181036000830152614c538161456e565b9050919050565b60006020820190508181036000830152614c73816145b4565b9050919050565b60006020820190508181036000830152614c93816145d7565b9050919050565b60006020820190508181036000830152614cb3816145fa565b9050919050565b60006020820190508181036000830152614cd38161461d565b9050919050565b60006020820190508181036000830152614cf381614640565b9050919050565b60006020820190508181036000830152614d1381614663565b9050919050565b60006020820190508181036000830152614d33816146a9565b9050919050565b60006020820190508181036000830152614d53816146cc565b9050919050565b60006020820190508181036000830152614d7381614735565b9050919050565b60006020820190508181036000830152614d9381614758565b9050919050565b60006020820190508181036000830152614db38161477b565b9050919050565b60006020820190508181036000830152614dd3816147c1565b9050919050565b60006020820190508181036000830152614df381614807565b9050919050565b60006020820190508181036000830152614e138161484d565b9050919050565b60006020820190508181036000830152614e3381614870565b9050919050565b60006020820190508181036000830152614e5381614893565b9050919050565b60006020820190508181036000830152614e73816148b6565b9050919050565b60006020820190508181036000830152614e93816148fc565b9050919050565b60006020820190508181036000830152614eb38161491f565b9050919050565b60006020820190508181036000830152614ed381614942565b9050919050565b60006020820190508181036000830152614ef381614965565b9050919050565b60006020820190508181036000830152614f13816149ab565b9050919050565b60006020820190508181036000830152614f33816149ce565b9050919050565b60006020820190508181036000830152614f53816149f1565b9050919050565b60006020820190508181036000830152614f7381614a14565b9050919050565b6000602082019050614f8f6000830184614a37565b92915050565b6000604082019050614faa6000830185614a37565b614fb7602083018461439e565b9392505050565b6000606082019050614fd36000830187614a37565b614fe0602083018661439e565b8181036040830152614ff3818486614435565b905095945050505050565b6000615008615019565b905061501482826152d3565b919050565b6000604051905090565b600067ffffffffffffffff82111561503e5761503d615438565b5b61504782615485565b9050602081019050919050565b60008190508160005260206000209050919050565b600081519050919050565b600081519050919050565b600082825260208201905092915050565b600081905092915050565b600082825260208201905092915050565b600081905092915050565b60006150c282615236565b91506150cd83615236565b9250827fffffffffffffffffffffffffffffffffffffffffffffffffffffffffffffffff038211156151025761510161534d565b5b828201905092915050565b600061511882615236565b915061512383615236565b9250826151335761513261537c565b5b828204905092915050565b600061514982615236565b915061515483615236565b9250817fffffffffffffffffffffffffffffffffffffffffffffffffffffffffffffffff048311821515161561518d5761518c61534d565b5b828202905092915050565b60006151a382615236565b91506151ae83615236565b9250828210156151c1576151c061534d565b5b828203905092915050565b60006151d782615216565b9050919050565b60008115159050919050565b60007fffffffff0000000000000000000000000000000000000000000000000000000082169050919050565b600073ffffffffffffffffffffffffffffffffffffffff82169050919050565b6000819050919050565b600060ff82169050919050565b600061525882615240565b9050919050565b82818337600083830152505050565b60005b8381101561528c578082015181840152602081019050615271565b8381111561529b576000848401525b50505050565b600060028204905060018216806152b957607f821691505b602082108114156152cd576152cc6153ab565b5b50919050565b6152dc82615485565b810181811067ffffffffffffffff821117156152fb576152fa615438565b5b80604052505050565b600061530f82615236565b91507fffffffffffffffffffffffffffffffffffffffffffffffffffffffffffffffff8214156153425761534161534d565b5b600182019050919050565b7f4e487b7100000000000000000000000000000000000000000000000000000000600052601160045260246000fd5b7f4e487b7100000000000000000000000000000000000000000000000000000000600052601260045260246000fd5b7f4e487b7100000000000000000000000000000000000000000000000000000000600052602260045260246000fd5b7f4e487b7100000000000000000000000000000000000000000000000000000000600052603160045260246000fd5b7f4e487b7100000000000000000000000000000000000000000000000000000000600052603260045260246000fd5b7f4e487b7100000000000000000000000000000000000000000000000000000000600052604160045260246000fd5b600080fd5b600080fd5b600080fd5b600080fd5b600080fd5b600080fd5b6000601f19601f8301169050919050565b7f616464726573732073686f756c6420626520617574686f72697a656400000000600082015250565b7f4552433732313a2063616c6c6572206973206e6f7420746f6b656e206f776e6560008201527f72206f7220617070726f76656400000000000000000000000000000000000000602082015250565b7f7b226e616d65223a220000000000000000000000000000000000000000000000600082015250565b7f55524920717565727920666f72206e6f6e6578697374656e7420746f6b656e00600082015250565b7f455243373231456e756d657261626c653a206f776e657220696e646578206f7560008201527f74206f6620626f756e6473000000000000000000000000000000000000000000602082015250565b7f4552433732313a207472616e7366657220746f206e6f6e20455243373231526560008201527f63656976657220696d706c656d656e7465720000000000000000000000000000602082015250565b7f7461726765744c6576656c2073686f756c642065786973740000000000000000600082015250565b7f73686f756c64206861766520656e6f7567682061643300000000000000000000600082015250565b7f4f776e61626c653a206e6577206f776e657220697320746865207a65726f206160008201527f6464726573730000000000000000000000000000000000000000000000000000602082015250565b7f222c000000000000000000000000000000000000000000000000000000000000600082015250565b7f4552433732313a207472616e736665722066726f6d20696e636f72726563742060008201527f6f776e6572000000000000000000000000000000000000000000000000000000602082015250565b7f4552433732313a20746f6b656e20616c7265616479206d696e74656400000000600082015250565b7f226465736372697074696f6e223a2248797065726c696e6b204e465420636f6c60008201527f6c656374696f6e2063726561746564207769746820506172616d6920466f756e60208201527f646174696f6e2200000000000000000000000000000000000000000000000000604082015250565b7f2c00000000000000000000000000000000000000000000000000000000000000600082015250565b7f4552433732313a207472616e7366657220746f20746865207a65726f2061646460008201527f7265737300000000000000000000000000000000000000000000000000000000602082015250565b7f4552433732313a20617070726f766520746f2063616c6c657200000000000000600082015250565b7f4552433732313a2061646472657373207a65726f206973206e6f74206120766160008201527f6c6964206f776e65720000000000000000000000000000000000000000000000602082015250565b7f2200000000000000000000000000000000000000000000000000000000000000600082015250565b7f496e697469616c697a61626c653a20636f6e747261637420697320616c72656160008201527f647920696e697469616c697a6564000000000000000000000000000000000000602082015250565b7f22696d616765223a220000000000000000000000000000000000000000000000600082015250565b7f4552433732313a206d696e7420746f20746865207a65726f2061646472657373600082015250565b7f7d00000000000000000000000000000000000000000000000000000000000000600082015250565b7f4f776e61626c653a2063616c6c6572206973206e6f7420746865206f776e6572600082015250565b7f73686f756c642062652074686520746f6b656e206f776e657200000000000000600082015250565b7f4552433732313a20696e76616c696420746f6b656e2049440000000000000000600082015250565b7f4552433732313a20617070726f76616c20746f2063757272656e74206f776e6560008201527f7200000000000000000000000000000000000000000000000000000000000000602082015250565b7f646174613a6170706c69636174696f6e2f6a736f6e3b6261736536342c000000600082015250565b7f6c6576656c732e73697a652073686f756c6420657120746f207072696365732e60008201527f73697a6500000000000000000000000000000000000000000000000000000000602082015250565b7f7461726765744c6576656c50726963652073686f756c6420472e542e2066726f60008201527f6d4c6576656c5072696365000000000000000000000000000000000000000000602082015250565b7f7461726765744c6576656c2073686f756c6420472e542e2066726f6d4c65766560008201527f6c00000000000000000000000000000000000000000000000000000000000000602082015250565b7f4552433732313a20617070726f76652063616c6c6572206973206e6f7420746f60008201527f6b656e206f776e6572206f7220617070726f76656420666f7220616c6c000000602082015250565b7f48797065726c696e6b204e465420436f6c6c656374696f6e2023200000000000600082015250565b7f455243373231456e756d657261626c653a20676c6f62616c20696e646578206f60008201527f7574206f6620626f756e64730000000000000000000000000000000000000000602082015250565b7f496e697469616c697a61626c653a20636f6e7472616374206973206e6f74206960008201527f6e697469616c697a696e67000000000000000000000000000000000000000000602082015250565b7f455243373231456e756d657261626c653a20636f6e736563757469766520747260008201527f616e7366657273206e6f7420737570706f727465640000000000000000000000602082015250565b7f546f6b656e2073686f756c642065786973747300000000000000000000000000600082015250565b615d0f816151cc565b8114615d1a57600080fd5b50565b615d26816151de565b8114615d3157600080fd5b50565b615d3d816151ea565b8114615d4857600080fd5b50565b615d5481615236565b8114615d5f57600080fd5b5056fe4142434445464748494a4b4c4d4e4f505152535455565758595a6162636465666768696a6b6c6d6e6f707172737475767778797a303132333435363738392b2fa2646970667358221220371bb53939d291da84a0bec9a6b3a1f3204e0ae415aab6cd14b9e655bc3a018664736f6c63430008050033",
  "linkReferences": {},
  "deployedLinkReferences": {}
}