{
  "_format": "hh-sol-artifact-1",
  "contractName": "HNFTGovernance",
  "sourceName": "contracts/HNFTGovernance.sol",
  "abi": [
    {
      "anonymous": false,
      "inputs": [
        {
          "indexed": true,
          "internalType": "uint256",
          "name": "nftId",
          "type": "uint256"
        },
        {
          "indexed": true,
          "internalType": "address",
          "name": "erc20Address",
          "type": "address"
        }
      ],
      "name": "Governance",
      "type": "event"
    },
    {
      "inputs": [
        {
          "internalType": "address",
          "name": "hnftAddress",
          "type": "address"
        },
        {
          "internalType": "uint256",
          "name": "nftId",
          "type": "uint256"
        }
      ],
      "name": "getGovernanceToken",
      "outputs": [
        {
          "internalType": "address",
          "name": "",
          "type": "address"
        }
      ],
      "stateMutability": "view",
      "type": "function"
    },
    {
      "inputs": [
        {
          "internalType": "address",
          "name": "hnftAddress",
          "type": "address"
        },
        {
          "internalType": "uint256",
          "name": "nftId",
          "type": "uint256"
        },
        {
          "internalType": "address",
          "name": "erc20Address",
          "type": "address"
        }
      ],
      "name": "governWith",
      "outputs": [],
      "stateMutability": "nonpayable",
      "type": "function"
    },
    {
      "inputs": [
        {
          "internalType": "address",
          "name": "",
          "type": "address"
        },
        {
          "internalType": "uint256",
          "name": "",
          "type": "uint256"
        }
      ],
      "name": "hnft2tokenId2GovernanceToken",
      "outputs": [
        {
          "internalType": "address",
          "name": "",
          "type": "address"
        }
      ],
      "stateMutability": "view",
      "type": "function"
    }
  ],
  "bytecode": "0x608060405234801561001057600080fd5b50610710806100206000396000f3fe608060405234801561001057600080fd5b50600436106100415760003560e01c806364eea6b714610046578063d96917f014610062578063ec4156f914610092575b600080fd5b610060600480360381019061005b91906104db565b6100c2565b005b61007c6004803603810190610077919061049b565b610373565b6040516100899190610592565b60405180910390f35b6100ac60048036038101906100a7919061049b565b6103b5565b6040516100b99190610592565b60405180910390f35b60008390503373ffffffffffffffffffffffffffffffffffffffff168173ffffffffffffffffffffffffffffffffffffffff16636352211e856040518263ffffffff1660e01b815260040161011791906105ed565b60206040518083038186803b15801561012f57600080fd5b505afa158015610143573d6000803e3d6000fd5b505050506040513d601f19601f82011682018060405250810190610167919061046e565b73ffffffffffffffffffffffffffffffffffffffff16146101bd576040517f08c379a00000000000000000000000000000000000000000000000000000000081526004016101b4906105ad565b60405180910390fd5b600073ffffffffffffffffffffffffffffffffffffffff166000808673ffffffffffffffffffffffffffffffffffffffff1673ffffffffffffffffffffffffffffffffffffffff168152602001908152602001600020600085815260200190815260200160002060009054906101000a900473ffffffffffffffffffffffffffffffffffffffff1673ffffffffffffffffffffffffffffffffffffffff161461029b576040517f08c379a0000000000000000000000000000000000000000000000000000000008152600401610292906105cd565b60405180910390fd5b816000808673ffffffffffffffffffffffffffffffffffffffff1673ffffffffffffffffffffffffffffffffffffffff168152602001908152602001600020600085815260200190815260200160002060006101000a81548173ffffffffffffffffffffffffffffffffffffffff021916908373ffffffffffffffffffffffffffffffffffffffff1602179055508173ffffffffffffffffffffffffffffffffffffffff16837fa39bc13b23bd744d072b78bff33452dbfbbc907de9abecdd014ad84f7762f6b260405160405180910390a350505050565b60006020528160005260406000206020528060005260406000206000915091509054906101000a900473ffffffffffffffffffffffffffffffffffffffff1681565b60008060008473ffffffffffffffffffffffffffffffffffffffff1673ffffffffffffffffffffffffffffffffffffffff168152602001908152602001600020600083815260200190815260200160002060009054906101000a900473ffffffffffffffffffffffffffffffffffffffff16905092915050565b60008135905061043e816106ac565b92915050565b600081519050610453816106ac565b92915050565b600081359050610468816106c3565b92915050565b60006020828403121561048457610483610655565b5b600061049284828501610444565b91505092915050565b600080604083850312156104b2576104b1610655565b5b60006104c08582860161042f565b92505060206104d185828601610459565b9150509250929050565b6000806000606084860312156104f4576104f3610655565b5b60006105028682870161042f565b935050602061051386828701610459565b92505060406105248682870161042f565b9150509250925092565b61053781610619565b82525050565b600061054a601f83610608565b91506105558261065a565b602082019050919050565b600061056d601783610608565b915061057882610683565b602082019050919050565b61058c8161064b565b82525050565b60006020820190506105a7600083018461052e565b92915050565b600060208201905081810360008301526105c68161053d565b9050919050565b600060208201905081810360008301526105e681610560565b9050919050565b60006020820190506106026000830184610583565b92915050565b600082825260208201905092915050565b60006106248261062b565b9050919050565b600073ffffffffffffffffffffffffffffffffffffffff82169050919050565b6000819050919050565b600080fd5b7f4f6e6c7920746865204e4654206f776e65722063616e20676f7665726e656400600082015250565b7f4e465420686173206265636f6d6520676f7665726e6564000000000000000000600082015250565b6106b581610619565b81146106c057600080fd5b50565b6106cc8161064b565b81146106d757600080fd5b5056fea264697066735822122037571180a0789037b7b6383f74650cd42e12b88acb5ef0488f36cd34b6d94d1a64736f6c63430008050033",
  "linkReferences": {},
  "deployedLinkReferences": {}
}