{
  "_format": "hh-sol-artifact-1",
  "contractName": "HNFTGovernance",
  "sourceName": "contracts/influencemining/HNFTGovernance.sol",
  "abi": [
    {
      "anonymous": false,
      "inputs": [
        {
          "indexed": true,
          "internalType": "uint256",
          "name": "nftId",
          "type": "uint256"
        },
        {
          "indexed": true,
          "internalType": "address",
          "name": "erc20Address",
          "type": "address"
        }
      ],
      "name": "Governance",
      "type": "event"
    },
    {
      "inputs": [
        {
          "internalType": "address",
          "name": "hnftAddress",
          "type": "address"
        },
        {
          "internalType": "uint256",
          "name": "nftId",
          "type": "uint256"
        }
      ],
      "name": "getGovernanceToken",
      "outputs": [
        {
          "internalType": "address",
          "name": "",
          "type": "address"
        }
      ],
      "stateMutability": "view",
      "type": "function"
    },
    {
      "inputs": [
        {
          "internalType": "address",
          "name": "",
          "type": "address"
        },
        {
          "internalType": "uint256",
          "name": "",
          "type": "uint256"
        }
      ],
      "name": "hnft2tokenId2GovernanceToken",
      "outputs": [
        {
          "internalType": "address",
          "name": "",
          "type": "address"
        }
      ],
      "stateMutability": "view",
      "type": "function"
    },
    {
      "inputs": [
        {
          "internalType": "address",
          "name": "hnftAddress",
          "type": "address"
        },
        {
          "internalType": "uint256",
          "name": "nftId",
          "type": "uint256"
        },
        {
          "internalType": "string",
          "name": "name",
          "type": "string"
        },
        {
          "internalType": "string",
          "name": "symbol",
          "type": "string"
        }
      ],
      "name": "issueGovernanceToken",
      "outputs": [],
      "stateMutability": "nonpayable",
      "type": "function"
    }
  ],
  "bytecode": "0x608060405234801561001057600080fd5b50611951806100206000396000f3fe608060405234801561001057600080fd5b50600436106100415760003560e01c8063c62fd2b714610046578063d96917f01461005b578063ec4156f9146100c2575b600080fd5b61005961005436600461053b565b610103565b005b610099610069366004610510565b600060208181529281526040808220909352908152205473ffffffffffffffffffffffffffffffffffffffff1681565b60405173ffffffffffffffffffffffffffffffffffffffff909116815260200160405180910390f35b6100996100d0366004610510565b73ffffffffffffffffffffffffffffffffffffffff91821660009081526020818152604080832093835292905220541690565b6040517f6352211e000000000000000000000000000000000000000000000000000000008152600481018490528490339073ffffffffffffffffffffffffffffffffffffffff831690636352211e9060240160206040518083038186803b15801561016d57600080fd5b505afa158015610181573d6000803e3d6000fd5b505050506040513d601f19601f820116820180604052508101906101a591906104ed565b73ffffffffffffffffffffffffffffffffffffffff161461024d576040517f08c379a000000000000000000000000000000000000000000000000000000000815260206004820152602d60248201527f4f6e6c7920746865204e4654206f776e65722063616e20697373756520676f7660448201527f65726e616e636520746f6b656e0000000000000000000000000000000000000060648201526084015b60405180910390fd5b73ffffffffffffffffffffffffffffffffffffffff85811660009081526020818152604080832088845290915290205416156102e5576040517f08c379a000000000000000000000000000000000000000000000000000000000815260206004820181905260248201527f4e465420616c72656164792068617320676f7665726e616e636520746f6b656e6044820152606401610244565b600083836040516102f59061043b565b610300929190610621565b604051809103906000f08015801561031c573d6000803e3d6000fd5b506040517f40c10f19000000000000000000000000000000000000000000000000000000008152336004820152670de0b6b3a7640000602482015290915073ffffffffffffffffffffffffffffffffffffffff8216906340c10f1990604401600060405180830381600087803b15801561039557600080fd5b505af11580156103a9573d6000803e3d6000fd5b50505073ffffffffffffffffffffffffffffffffffffffff8088166000908152602081815260408083208a845290915280822080549386167fffffffffffffffffffffffff0000000000000000000000000000000000000000909416841790555184935088917fa39bc13b23bd744d072b78bff33452dbfbbc907de9abecdd014ad84f7762f6b291a350505050505050565b6112a1806106a483390190565b600082601f830112610458578081fd5b813567ffffffffffffffff808211156104735761047361064f565b604051601f83017fffffffffffffffffffffffffffffffffffffffffffffffffffffffffffffffe0908116603f011681019082821181831017156104b9576104b961064f565b816040528381528660208588010111156104d1578485fd5b8360208701602083013792830160200193909352509392505050565b6000602082840312156104fe578081fd5b81516105098161067e565b9392505050565b60008060408385031215610522578081fd5b823561052d8161067e565b946020939093013593505050565b60008060008060808587031215610550578182fd5b843561055b8161067e565b935060208501359250604085013567ffffffffffffffff8082111561057e578384fd5b61058a88838901610448565b9350606087013591508082111561059f578283fd5b506105ac87828801610448565b91505092959194509250565b60008151808452815b818110156105dd576020818501810151868301820152016105c1565b818111156105ee5782602083870101525b50601f017fffffffffffffffffffffffffffffffffffffffffffffffffffffffffffffffe0169290920160200192915050565b60408152600061063460408301856105b8565b828103602084015261064681856105b8565b95945050505050565b7f4e487b7100000000000000000000000000000000000000000000000000000000600052604160045260246000fd5b73ffffffffffffffffffffffffffffffffffffffff811681146106a057600080fd5b5056fe60806040523480156200001157600080fd5b50604051620012a1380380620012a1833981016040819052620000349162000237565b8151829082906200004d906003906020850190620000de565b50805162000063906004906020840190620000de565b505050620000806200007a6200008860201b60201c565b6200008c565b5050620002f1565b3390565b600580546001600160a01b038381166001600160a01b0319831681179093556040519116919082907f8be0079c531659141344cd1fd0a4f28419497f9722a3daafe3b4186f6b6457e090600090a35050565b828054620000ec906200029e565b90600052602060002090601f0160209004810192826200011057600085556200015b565b82601f106200012b57805160ff19168380011785556200015b565b828001600101855582156200015b579182015b828111156200015b5782518255916020019190600101906200013e565b50620001699291506200016d565b5090565b5b808211156200016957600081556001016200016e565b600082601f83011262000195578081fd5b81516001600160401b0380821115620001b257620001b2620002db565b604051601f8301601f19908116603f01168101908282118183101715620001dd57620001dd620002db565b81604052838152602092508683858801011115620001f9578485fd5b8491505b838210156200021c5785820183015181830184015290820190620001fd565b838211156200022d57848385830101525b9695505050505050565b600080604083850312156200024a578182fd5b82516001600160401b038082111562000261578384fd5b6200026f8683870162000184565b9350602085015191508082111562000285578283fd5b50620002948582860162000184565b9150509250929050565b600181811c90821680620002b357607f821691505b60208210811415620002d557634e487b7160e01b600052602260045260246000fd5b50919050565b634e487b7160e01b600052604160045260246000fd5b610fa080620003016000396000f3fe608060405234801561001057600080fd5b50600436106100f55760003560e01c806370a0823111610097578063a457c2d711610066578063a457c2d714610205578063a9059cbb14610218578063dd62ed3e1461022b578063f2fde38b1461027157600080fd5b806370a0823114610197578063715018a6146101cd5780638da5cb5b146101d557806395d89b41146101fd57600080fd5b806323b872dd116100d357806323b872dd1461014d578063313ce56714610160578063395093511461016f57806340c10f191461018257600080fd5b806306fdde03146100fa578063095ea7b31461011857806318160ddd1461013b575b600080fd5b610102610284565b60405161010f9190610e91565b60405180910390f35b61012b610126366004610e68565b610316565b604051901515815260200161010f565b6002545b60405190815260200161010f565b61012b61015b366004610e2d565b61032e565b6040516012815260200161010f565b61012b61017d366004610e68565b610352565b610195610190366004610e68565b61039e565b005b61013f6101a5366004610dda565b73ffffffffffffffffffffffffffffffffffffffff1660009081526020819052604090205490565b610195610432565b60055460405173ffffffffffffffffffffffffffffffffffffffff909116815260200161010f565b6101026104bf565b61012b610213366004610e68565b6104ce565b61012b610226366004610e68565b61059f565b61013f610239366004610dfb565b73ffffffffffffffffffffffffffffffffffffffff918216600090815260016020908152604080832093909416825291909152205490565b61019561027f366004610dda565b6105ad565b60606003805461029390610f3f565b80601f01602080910402602001604051908101604052809291908181526020018280546102bf90610f3f565b801561030c5780601f106102e15761010080835404028352916020019161030c565b820191906000526020600020905b8154815290600101906020018083116102ef57829003601f168201915b5050505050905090565b6000336103248185856106dd565b5060019392505050565b60003361033c858285610890565b610347858585610967565b506001949350505050565b33600081815260016020908152604080832073ffffffffffffffffffffffffffffffffffffffff871684529091528120549091906103249082908690610399908790610f02565b6106dd565b60055473ffffffffffffffffffffffffffffffffffffffff163314610424576040517f08c379a000000000000000000000000000000000000000000000000000000000815260206004820181905260248201527f4f776e61626c653a2063616c6c6572206973206e6f7420746865206f776e657260448201526064015b60405180910390fd5b61042e8282610c1a565b5050565b60055473ffffffffffffffffffffffffffffffffffffffff1633146104b3576040517f08c379a000000000000000000000000000000000000000000000000000000000815260206004820181905260248201527f4f776e61626c653a2063616c6c6572206973206e6f7420746865206f776e6572604482015260640161041b565b6104bd6000610d3a565b565b60606004805461029390610f3f565b33600081815260016020908152604080832073ffffffffffffffffffffffffffffffffffffffff8716845290915281205490919083811015610592576040517f08c379a000000000000000000000000000000000000000000000000000000000815260206004820152602560248201527f45524332303a2064656372656173656420616c6c6f77616e63652062656c6f7760448201527f207a65726f000000000000000000000000000000000000000000000000000000606482015260840161041b565b61034782868684036106dd565b600033610324818585610967565b60055473ffffffffffffffffffffffffffffffffffffffff16331461062e576040517f08c379a000000000000000000000000000000000000000000000000000000000815260206004820181905260248201527f4f776e61626c653a2063616c6c6572206973206e6f7420746865206f776e6572604482015260640161041b565b73ffffffffffffffffffffffffffffffffffffffff81166106d1576040517f08c379a000000000000000000000000000000000000000000000000000000000815260206004820152602660248201527f4f776e61626c653a206e6577206f776e657220697320746865207a65726f206160448201527f6464726573730000000000000000000000000000000000000000000000000000606482015260840161041b565b6106da81610d3a565b50565b73ffffffffffffffffffffffffffffffffffffffff831661077f576040517f08c379a0000000000000000000000000000000000000000000000000000000008152602060048201526024808201527f45524332303a20617070726f76652066726f6d20746865207a65726f2061646460448201527f7265737300000000000000000000000000000000000000000000000000000000606482015260840161041b565b73ffffffffffffffffffffffffffffffffffffffff8216610822576040517f08c379a000000000000000000000000000000000000000000000000000000000815260206004820152602260248201527f45524332303a20617070726f766520746f20746865207a65726f20616464726560448201527f7373000000000000000000000000000000000000000000000000000000000000606482015260840161041b565b73ffffffffffffffffffffffffffffffffffffffff83811660008181526001602090815260408083209487168084529482529182902085905590518481527f8c5be1e5ebec7d5bd14f71427d1e84f3dd0314c0f7b2291e5b200ac8c7c3b925910160405180910390a3505050565b73ffffffffffffffffffffffffffffffffffffffff8381166000908152600160209081526040808320938616835292905220547fffffffffffffffffffffffffffffffffffffffffffffffffffffffffffffffff81146109615781811015610954576040517f08c379a000000000000000000000000000000000000000000000000000000000815260206004820152601d60248201527f45524332303a20696e73756666696369656e7420616c6c6f77616e6365000000604482015260640161041b565b61096184848484036106dd565b50505050565b73ffffffffffffffffffffffffffffffffffffffff8316610a0a576040517f08c379a000000000000000000000000000000000000000000000000000000000815260206004820152602560248201527f45524332303a207472616e736665722066726f6d20746865207a65726f20616460448201527f6472657373000000000000000000000000000000000000000000000000000000606482015260840161041b565b73ffffffffffffffffffffffffffffffffffffffff8216610aad576040517f08c379a000000000000000000000000000000000000000000000000000000000815260206004820152602360248201527f45524332303a207472616e7366657220746f20746865207a65726f206164647260448201527f6573730000000000000000000000000000000000000000000000000000000000606482015260840161041b565b73ffffffffffffffffffffffffffffffffffffffff831660009081526020819052604090205481811015610b63576040517f08c379a000000000000000000000000000000000000000000000000000000000815260206004820152602660248201527f45524332303a207472616e7366657220616d6f756e742065786365656473206260448201527f616c616e63650000000000000000000000000000000000000000000000000000606482015260840161041b565b73ffffffffffffffffffffffffffffffffffffffff808516600090815260208190526040808220858503905591851681529081208054849290610ba7908490610f02565b925050819055508273ffffffffffffffffffffffffffffffffffffffff168473ffffffffffffffffffffffffffffffffffffffff167fddf252ad1be2c89b69c2b068fc378daa952ba7f163c4a11628f55a4df523b3ef84604051610c0d91815260200190565b60405180910390a3610961565b73ffffffffffffffffffffffffffffffffffffffff8216610c97576040517f08c379a000000000000000000000000000000000000000000000000000000000815260206004820152601f60248201527f45524332303a206d696e7420746f20746865207a65726f206164647265737300604482015260640161041b565b8060026000828254610ca99190610f02565b909155505073ffffffffffffffffffffffffffffffffffffffff821660009081526020819052604081208054839290610ce3908490610f02565b909155505060405181815273ffffffffffffffffffffffffffffffffffffffff8316906000907fddf252ad1be2c89b69c2b068fc378daa952ba7f163c4a11628f55a4df523b3ef9060200160405180910390a35050565b6005805473ffffffffffffffffffffffffffffffffffffffff8381167fffffffffffffffffffffffff0000000000000000000000000000000000000000831681179093556040519116919082907f8be0079c531659141344cd1fd0a4f28419497f9722a3daafe3b4186f6b6457e090600090a35050565b803573ffffffffffffffffffffffffffffffffffffffff81168114610dd557600080fd5b919050565b600060208284031215610deb578081fd5b610df482610db1565b9392505050565b60008060408385031215610e0d578081fd5b610e1683610db1565b9150610e2460208401610db1565b90509250929050565b600080600060608486031215610e41578081fd5b610e4a84610db1565b9250610e5860208501610db1565b9150604084013590509250925092565b60008060408385031215610e7a578182fd5b610e8383610db1565b946020939093013593505050565b6000602080835283518082850152825b81811015610ebd57858101830151858201604001528201610ea1565b81811115610ece5783604083870101525b50601f017fffffffffffffffffffffffffffffffffffffffffffffffffffffffffffffffe016929092016040019392505050565b60008219821115610f3a577f4e487b710000000000000000000000000000000000000000000000000000000081526011600452602481fd5b500190565b600181811c90821680610f5357607f821691505b60208210811415610f8d577f4e487b7100000000000000000000000000000000000000000000000000000000600052602260045260246000fd5b5091905056fea164736f6c6343000804000aa164736f6c6343000804000a",
  "linkReferences": {},
  "deployedLinkReferences": {}
}