{
  "_format": "hh-sol-artifact-1",
  "contractName": "EIP5489ForInfluenceMining",
  "sourceName": "contracts/EIP5489ForInfluenceMining.sol",
  "abi": [
    {
      "anonymous": false,
      "inputs": [
        {
          "indexed": true,
          "internalType": "address",
          "name": "owner",
          "type": "address"
        },
        {
          "indexed": true,
          "internalType": "address",
          "name": "approved",
          "type": "address"
        },
        {
          "indexed": true,
          "internalType": "uint256",
          "name": "tokenId",
          "type": "uint256"
        }
      ],
      "name": "Approval",
      "type": "event"
    },
    {
      "anonymous": false,
      "inputs": [
        {
          "indexed": true,
          "internalType": "address",
          "name": "owner",
          "type": "address"
        },
        {
          "indexed": true,
          "internalType": "address",
          "name": "operator",
          "type": "address"
        },
        {
          "indexed": false,
          "internalType": "bool",
          "name": "approved",
          "type": "bool"
        }
      ],
      "name": "ApprovalForAll",
      "type": "event"
    },
    {
      "anonymous": false,
      "inputs": [
        {
          "indexed": false,
          "internalType": "uint8",
          "name": "version",
          "type": "uint8"
        }
      ],
      "name": "Initialized",
      "type": "event"
    },
    {
      "anonymous": false,
      "inputs": [
        {
          "indexed": true,
          "internalType": "address",
          "name": "previousOwner",
          "type": "address"
        },
        {
          "indexed": true,
          "internalType": "address",
          "name": "newOwner",
          "type": "address"
        }
      ],
      "name": "OwnershipTransferred",
      "type": "event"
    },
    {
      "anonymous": false,
      "inputs": [
        {
          "indexed": false,
          "internalType": "uint256",
          "name": "tokenId",
          "type": "uint256"
        },
        {
          "indexed": false,
          "internalType": "address",
          "name": "slotManagerAddr",
          "type": "address"
        }
      ],
      "name": "SlotAuthorizationCreated",
      "type": "event"
    },
    {
      "anonymous": false,
      "inputs": [
        {
          "indexed": false,
          "internalType": "uint256",
          "name": "tokenId",
          "type": "uint256"
        },
        {
          "indexed": false,
          "internalType": "address",
          "name": "slotManagerAddr",
          "type": "address"
        }
      ],
      "name": "SlotAuthorizationRevoked",
      "type": "event"
    },
    {
      "anonymous": false,
      "inputs": [
        {
          "indexed": false,
          "internalType": "uint256",
          "name": "tokenId",
          "type": "uint256"
        },
        {
          "indexed": false,
          "internalType": "address",
          "name": "slotManagerAddr",
          "type": "address"
        },
        {
          "indexed": false,
          "internalType": "string",
          "name": "uri",
          "type": "string"
        }
      ],
      "name": "SlotUriUpdated",
      "type": "event"
    },
    {
      "anonymous": false,
      "inputs": [
        {
          "indexed": true,
          "internalType": "address",
          "name": "from",
          "type": "address"
        },
        {
          "indexed": true,
          "internalType": "address",
          "name": "to",
          "type": "address"
        },
        {
          "indexed": true,
          "internalType": "uint256",
          "name": "tokenId",
          "type": "uint256"
        }
      ],
      "name": "Transfer",
      "type": "event"
    },
    {
      "inputs": [
        {
          "internalType": "address[]",
          "name": "kolAddrs",
          "type": "address[]"
        }
      ],
      "name": "addToKolWhiteList",
      "outputs": [],
      "stateMutability": "nonpayable",
      "type": "function"
    },
    {
      "inputs": [
        {
          "internalType": "address",
          "name": "to",
          "type": "address"
        },
        {
          "internalType": "uint256",
          "name": "tokenId",
          "type": "uint256"
        }
      ],
      "name": "approve",
      "outputs": [],
      "stateMutability": "nonpayable",
      "type": "function"
    },
    {
      "inputs": [
        {
          "internalType": "uint256",
          "name": "tokenId",
          "type": "uint256"
        },
        {
          "internalType": "address",
          "name": "slotManagerAddr",
          "type": "address"
        }
      ],
      "name": "authorizeSlotTo",
      "outputs": [],
      "stateMutability": "nonpayable",
      "type": "function"
    },
    {
      "inputs": [
        {
          "internalType": "address",
          "name": "owner",
          "type": "address"
        }
      ],
      "name": "balanceOf",
      "outputs": [
        {
          "internalType": "uint256",
          "name": "",
          "type": "uint256"
        }
      ],
      "stateMutability": "view",
      "type": "function"
    },
    {
      "inputs": [
        {
          "internalType": "uint256",
          "name": "tokenId",
          "type": "uint256"
        }
      ],
      "name": "getApproved",
      "outputs": [
        {
          "internalType": "address",
          "name": "",
          "type": "address"
        }
      ],
      "stateMutability": "view",
      "type": "function"
    },
    {
      "inputs": [
        {
          "internalType": "uint256",
          "name": "tokenId",
          "type": "uint256"
        },
        {
          "internalType": "address",
          "name": "slotManagerAddr",
          "type": "address"
        }
      ],
      "name": "getSlotUri",
      "outputs": [
        {
          "internalType": "string",
          "name": "",
          "type": "string"
        }
      ],
      "stateMutability": "view",
      "type": "function"
    },
    {
      "inputs": [
        {
          "internalType": "address",
          "name": "_ad3Address",
          "type": "address"
        }
      ],
      "name": "initialize",
      "outputs": [],
      "stateMutability": "nonpayable",
      "type": "function"
    },
    {
      "inputs": [
        {
          "internalType": "address",
          "name": "owner",
          "type": "address"
        },
        {
          "internalType": "address",
          "name": "operator",
          "type": "address"
        }
      ],
      "name": "isApprovedForAll",
      "outputs": [
        {
          "internalType": "bool",
          "name": "",
          "type": "bool"
        }
      ],
      "stateMutability": "view",
      "type": "function"
    },
    {
      "inputs": [
        {
          "internalType": "uint256",
          "name": "tokenId",
          "type": "uint256"
        },
        {
          "internalType": "address",
          "name": "addr",
          "type": "address"
        }
      ],
      "name": "isSlotManager",
      "outputs": [
        {
          "internalType": "bool",
          "name": "",
          "type": "bool"
        }
      ],
      "stateMutability": "view",
      "type": "function"
    },
    {
      "inputs": [
        {
          "internalType": "address",
          "name": "",
          "type": "address"
        }
      ],
      "name": "kolWhiteList",
      "outputs": [
        {
          "internalType": "bool",
          "name": "",
          "type": "bool"
        }
      ],
      "stateMutability": "view",
      "type": "function"
    },
    {
      "inputs": [
        {
          "internalType": "uint256",
          "name": "",
          "type": "uint256"
        }
      ],
      "name": "level2Price",
      "outputs": [
        {
          "internalType": "uint256",
          "name": "",
          "type": "uint256"
        }
      ],
      "stateMutability": "view",
      "type": "function"
    },
    {
      "inputs": [
        {
          "internalType": "uint256",
          "name": "tokenId",
          "type": "uint256"
        },
        {
          "internalType": "uint256",
          "name": "targetTokenId",
          "type": "uint256"
        }
      ],
      "name": "linkTo",
      "outputs": [],
      "stateMutability": "nonpayable",
      "type": "function"
    },
    {
      "inputs": [
        {
          "internalType": "uint256[]",
          "name": "levels",
          "type": "uint256[]"
        },
        {
          "internalType": "uint256[]",
          "name": "prices",
          "type": "uint256[]"
        }
      ],
      "name": "manageLevelPrices",
      "outputs": [],
      "stateMutability": "nonpayable",
      "type": "function"
    },
    {
      "inputs": [
        {
          "internalType": "string",
          "name": "imageUri",
          "type": "string"
        },
        {
          "internalType": "uint256",
          "name": "targetLevel",
          "type": "uint256"
        }
      ],
      "name": "mint",
      "outputs": [],
      "stateMutability": "nonpayable",
      "type": "function"
    },
    {
      "inputs": [],
      "name": "name",
      "outputs": [
        {
          "internalType": "string",
          "name": "",
          "type": "string"
        }
      ],
      "stateMutability": "view",
      "type": "function"
    },
    {
      "inputs": [],
      "name": "owner",
      "outputs": [
        {
          "internalType": "address",
          "name": "",
          "type": "address"
        }
      ],
      "stateMutability": "view",
      "type": "function"
    },
    {
      "inputs": [
        {
          "internalType": "uint256",
          "name": "tokenId",
          "type": "uint256"
        }
      ],
      "name": "ownerOf",
      "outputs": [
        {
          "internalType": "address",
          "name": "",
          "type": "address"
        }
      ],
      "stateMutability": "view",
      "type": "function"
    },
    {
      "inputs": [
        {
          "internalType": "address[]",
          "name": "kolAddrs",
          "type": "address[]"
        }
      ],
      "name": "removeFromKolWhiteList",
      "outputs": [],
      "stateMutability": "nonpayable",
      "type": "function"
    },
    {
      "inputs": [],
      "name": "renounceOwnership",
      "outputs": [],
      "stateMutability": "nonpayable",
      "type": "function"
    },
    {
      "inputs": [
        {
          "internalType": "uint256",
          "name": "tokenId",
          "type": "uint256"
        }
      ],
      "name": "revokeAllAuthorizations",
      "outputs": [],
      "stateMutability": "nonpayable",
      "type": "function"
    },
    {
      "inputs": [
        {
          "internalType": "uint256",
          "name": "tokenId",
          "type": "uint256"
        },
        {
          "internalType": "address",
          "name": "slotManagerAddr",
          "type": "address"
        }
      ],
      "name": "revokeAuthorization",
      "outputs": [],
      "stateMutability": "nonpayable",
      "type": "function"
    },
    {
      "inputs": [
        {
          "internalType": "address",
          "name": "from",
          "type": "address"
        },
        {
          "internalType": "address",
          "name": "to",
          "type": "address"
        },
        {
          "internalType": "uint256",
          "name": "tokenId",
          "type": "uint256"
        }
      ],
      "name": "safeTransferFrom",
      "outputs": [],
      "stateMutability": "nonpayable",
      "type": "function"
    },
    {
      "inputs": [
        {
          "internalType": "address",
          "name": "from",
          "type": "address"
        },
        {
          "internalType": "address",
          "name": "to",
          "type": "address"
        },
        {
          "internalType": "uint256",
          "name": "tokenId",
          "type": "uint256"
        },
        {
          "internalType": "bytes",
          "name": "data",
          "type": "bytes"
        }
      ],
      "name": "safeTransferFrom",
      "outputs": [],
      "stateMutability": "nonpayable",
      "type": "function"
    },
    {
      "inputs": [
        {
          "internalType": "address",
          "name": "operator",
          "type": "address"
        },
        {
          "internalType": "bool",
          "name": "approved",
          "type": "bool"
        }
      ],
      "name": "setApprovalForAll",
      "outputs": [],
      "stateMutability": "nonpayable",
      "type": "function"
    },
    {
      "inputs": [
        {
          "internalType": "uint256",
          "name": "tokenId",
          "type": "uint256"
        },
        {
          "internalType": "string",
          "name": "value",
          "type": "string"
        }
      ],
      "name": "setSlotUri",
      "outputs": [],
      "stateMutability": "nonpayable",
      "type": "function"
    },
    {
      "inputs": [
        {
          "internalType": "bytes4",
          "name": "interfaceId",
          "type": "bytes4"
        }
      ],
      "name": "supportsInterface",
      "outputs": [
        {
          "internalType": "bool",
          "name": "",
          "type": "bool"
        }
      ],
      "stateMutability": "view",
      "type": "function"
    },
    {
      "inputs": [],
      "name": "symbol",
      "outputs": [
        {
          "internalType": "string",
          "name": "",
          "type": "string"
        }
      ],
      "stateMutability": "view",
      "type": "function"
    },
    {
      "inputs": [
        {
          "internalType": "uint256",
          "name": "",
          "type": "uint256"
        }
      ],
      "name": "token2Level",
      "outputs": [
        {
          "internalType": "uint256",
          "name": "",
          "type": "uint256"
        }
      ],
      "stateMutability": "view",
      "type": "function"
    },
    {
      "inputs": [
        {
          "internalType": "uint256",
          "name": "",
          "type": "uint256"
        }
      ],
      "name": "token2LinkTargetToken",
      "outputs": [
        {
          "internalType": "uint256",
          "name": "",
          "type": "uint256"
        }
      ],
      "stateMutability": "view",
      "type": "function"
    },
    {
      "inputs": [
        {
          "internalType": "uint256",
          "name": "index",
          "type": "uint256"
        }
      ],
      "name": "tokenByIndex",
      "outputs": [
        {
          "internalType": "uint256",
          "name": "",
          "type": "uint256"
        }
      ],
      "stateMutability": "view",
      "type": "function"
    },
    {
      "inputs": [
        {
          "internalType": "uint256",
          "name": "",
          "type": "uint256"
        }
      ],
      "name": "tokenId2AuthorizedAddress",
      "outputs": [
        {
          "internalType": "address",
          "name": "",
          "type": "address"
        }
      ],
      "stateMutability": "view",
      "type": "function"
    },
    {
      "inputs": [
        {
          "internalType": "uint256",
          "name": "",
          "type": "uint256"
        }
      ],
      "name": "tokenId2Hyperlink",
      "outputs": [
        {
          "internalType": "string",
          "name": "",
          "type": "string"
        }
      ],
      "stateMutability": "view",
      "type": "function"
    },
    {
      "inputs": [
        {
          "internalType": "uint256",
          "name": "",
          "type": "uint256"
        }
      ],
      "name": "tokenId2ImageUri",
      "outputs": [
        {
          "internalType": "string",
          "name": "",
          "type": "string"
        }
      ],
      "stateMutability": "view",
      "type": "function"
    },
    {
      "inputs": [
        {
          "internalType": "address",
          "name": "owner",
          "type": "address"
        },
        {
          "internalType": "uint256",
          "name": "index",
          "type": "uint256"
        }
      ],
      "name": "tokenOfOwnerByIndex",
      "outputs": [
        {
          "internalType": "uint256",
          "name": "",
          "type": "uint256"
        }
      ],
      "stateMutability": "view",
      "type": "function"
    },
    {
      "inputs": [
        {
          "internalType": "uint256",
          "name": "_tokenId",
          "type": "uint256"
        }
      ],
      "name": "tokenURI",
      "outputs": [
        {
          "internalType": "string",
          "name": "",
          "type": "string"
        }
      ],
      "stateMutability": "view",
      "type": "function"
    },
    {
      "inputs": [],
      "name": "totalSupply",
      "outputs": [
        {
          "internalType": "uint256",
          "name": "",
          "type": "uint256"
        }
      ],
      "stateMutability": "view",
      "type": "function"
    },
    {
      "inputs": [
        {
          "internalType": "address",
          "name": "from",
          "type": "address"
        },
        {
          "internalType": "address",
          "name": "to",
          "type": "address"
        },
        {
          "internalType": "uint256",
          "name": "tokenId",
          "type": "uint256"
        }
      ],
      "name": "transferFrom",
      "outputs": [],
      "stateMutability": "nonpayable",
      "type": "function"
    },
    {
      "inputs": [
        {
          "internalType": "address",
          "name": "newOwner",
          "type": "address"
        }
      ],
      "name": "transferOwnership",
      "outputs": [],
      "stateMutability": "nonpayable",
      "type": "function"
    },
    {
      "inputs": [
        {
          "internalType": "address",
          "name": "_ad3Address",
          "type": "address"
        }
      ],
      "name": "updateAd3Address",
      "outputs": [],
      "stateMutability": "nonpayable",
      "type": "function"
    },
    {
      "inputs": [
        {
          "internalType": "uint256",
          "name": "tokenId",
          "type": "uint256"
        },
        {
          "internalType": "uint256",
          "name": "targetLevel",
          "type": "uint256"
        }
      ],
      "name": "upgradeTo",
      "outputs": [],
      "stateMutability": "nonpayable",
      "type": "function"
    },
    {
      "inputs": [],
      "name": "withdrawAllAd3",
      "outputs": [],
      "stateMutability": "nonpayable",
      "type": "function"
    }
  ],
  "bytecode": "0x608060405234801561001057600080fd5b50615f3180620000216000396000f3fe608060405234801561001057600080fd5b50600436106102535760003560e01c806370a0823111610146578063c3612ef7116100c3578063d0ade91b11610087578063d0ade91b1461073c578063d65cabaa14610758578063e985e9c514610774578063f2fde38b146107a4578063f4fa43e5146107c0578063fef16a25146107dc57610253565b8063c3612ef714610688578063c4d66de8146106a4578063c87b56dd146106c0578063cf367f84146106f0578063cfc3ac921461072057610253565b8063982424691161010a57806398242469146105fa578063a22cb46514610604578063a9f4a85c14610620578063b69134a11461063c578063b88d4fde1461066c57610253565b806370a0823114610568578063715018a614610598578063764df015146105a25780638da5cb5b146105be57806395d89b41146105dc57610253565b80632710a3b6116101d457806342842e0e1161019857806342842e0e146104b45780634f6ccce7146104d0578063543e41c91461050057806362ee7ba51461051c5780636352211e1461053857610253565b80632710a3b6146103d85780632a4d2f80146104085780632f745c5914610424578063388b1d01146104545780633b8499251461048457610253565b8063086a55431161021b578063086a554314610322578063095ea7b31461035257806318160ddd1461036e5780631ba8b6a31461038c57806323b872dd146103bc57610253565b806301ffc9a714610258578063056b01ce1461028857806306fdde03146102a45780630754b2cc146102c2578063081812fc146102f2575b600080fd5b610272600480360381019061026d91906142dd565b61080c565b60405161027f9190614cf5565b60405180910390f35b6102a2600480360381019061029d9190614337565b610886565b005b6102ac6108e4565b6040516102b99190614d2b565b60405180910390f35b6102dc60048036038101906102d791906143f1565b610976565b6040516102e99190614d2b565b60405180910390f35b61030c60048036038101906103079190614397565b610a1c565b6040516103199190614c2e565b60405180910390f35b61033c6004803603810190610337919061401f565b610a62565b6040516103499190614cf5565b60405180910390f35b61036c600480360381019061036791906141a2565b610a83565b005b610376610b9b565b60405161038391906150ad565b60405180910390f35b6103a660048036038101906103a19190614397565b610ba8565b6040516103b391906150ad565b60405180910390f35b6103d660048036038101906103d1919061408c565b610bc1565b005b6103f260048036038101906103ed9190614397565b610c21565b6040516103ff9190614d2b565b60405180910390f35b610422600480360381019061041d91906141e2565b610cc1565b005b61043e600480360381019061043991906141a2565b610d6f565b60405161044b91906150ad565b60405180910390f35b61046e60048036038101906104699190614397565b610e14565b60405161047b91906150ad565b60405180910390f35b61049e60048036038101906104999190614397565b610e2d565b6040516104ab91906150ad565b60405180910390f35b6104ce60048036038101906104c9919061408c565b610e46565b005b6104ea60048036038101906104e59190614397565b610e66565b6040516104f791906150ad565b60405180910390f35b61051a60048036038101906105159190614397565b610ed7565b005b61053660048036038101906105319190614491565b610fa2565b005b610552600480360381019061054d9190614397565b61107c565b60405161055f9190614c2e565b60405180910390f35b610582600480360381019061057d919061401f565b611103565b60405161058f91906150ad565b60405180910390f35b6105a06111bb565b005b6105bc60048036038101906105b7919061422f565b6111cf565b005b6105c6611292565b6040516105d39190614c2e565b60405180910390f35b6105e46112bc565b6040516105f19190614d2b565b60405180910390f35b61060261134e565b005b61061e60048036038101906106199190614162565b6114bf565b005b61063a6004803603810190610635919061401f565b6114d5565b005b61065660048036038101906106519190614397565b611521565b6040516106639190614c2e565b60405180910390f35b610686600480360381019061068191906140df565b611554565b005b6106a2600480360381019061069d91906143f1565b6115b6565b005b6106be60048036038101906106b9919061401f565b61177f565b005b6106da60048036038101906106d59190614397565b611973565b6040516106e79190614d2b565b60405180910390f35b61070a600480360381019061070591906143f1565b611a46565b6040516107179190614cf5565b60405180910390f35b61073a600480360381019061073591906143f1565b611ab2565b005b61075660048036038101906107519190614431565b611cdc565b005b610772600480360381019061076d9190614491565b611e7c565b005b61078e6004803603810190610789919061404c565b611f02565b60405161079b9190614cf5565b60405180910390f35b6107be60048036038101906107b9919061401f565b611f96565b005b6107da60048036038101906107d591906141e2565b61201a565b005b6107f660048036038101906107f19190614397565b6120c8565b6040516108039190614d2b565b60405180910390f35b60007f8f65987b000000000000000000000000000000000000000000000000000000007bffffffffffffffffffffffffffffffffffffffffffffffffffffffff1916827bffffffffffffffffffffffffffffffffffffffffffffffffffffffff1916148061087f575061087e82612168565b5b9050919050565b60006001610892610b9b565b61089c91906151ea565b90506108a833826121e2565b838360fc600084815260200190815260200160002091906108ca929190613cb1565b50600082146108de576108dd8183612200565b5b50505050565b6060606580546108f3906153d4565b80601f016020809104026020016040519081016040528092919081815260200182805461091f906153d4565b801561096c5780601f106109415761010080835404028352916020019161096c565b820191906000526020600020905b81548152906001019060200180831161094f57829003601f168201915b5050505050905090565b606060fd60008481526020019081526020016000208054610996906153d4565b80601f01602080910402602001604051908101604052809291908181526020018280546109c2906153d4565b8015610a0f5780601f106109e457610100808354040283529160200191610a0f565b820191906000526020600020905b8154815290600101906020018083116109f257829003601f168201915b5050505050905092915050565b6000610a2782612552565b6069600083815260200190815260200160002060009054906101000a900473ffffffffffffffffffffffffffffffffffffffff169050919050565b6101036020528060005260406000206000915054906101000a900460ff1681565b6000610a8e8261107c565b90508073ffffffffffffffffffffffffffffffffffffffff168373ffffffffffffffffffffffffffffffffffffffff161415610aff576040517f08c379a0000000000000000000000000000000000000000000000000000000008152600401610af690614f8d565b60405180910390fd5b8073ffffffffffffffffffffffffffffffffffffffff16610b1e61259d565b73ffffffffffffffffffffffffffffffffffffffff161480610b4d5750610b4c81610b4761259d565b611f02565b5b610b8c576040517f08c379a0000000000000000000000000000000000000000000000000000000008152600401610b839061500d565b60405180910390fd5b610b9683836125a5565b505050565b6000609980549050905090565b6101006020528060005260406000206000915090505481565b610bd2610bcc61259d565b8261265e565b610c11576040517f08c379a0000000000000000000000000000000000000000000000000000000008152600401610c0890614d4d565b60405180910390fd5b610c1c8383836126f3565b505050565b60fc6020528060005260406000206000915090508054610c40906153d4565b80601f0160208091040260200160405190810160405280929190818152602001828054610c6c906153d4565b8015610cb95780601f10610c8e57610100808354040283529160200191610cb9565b820191906000526020600020905b815481529060010190602001808311610c9c57829003601f168201915b505050505081565b610cc96129ed565b60005b82829050811015610d6a5760016101036000858585818110610cf157610cf061553c565b5b9050602002016020810190610d06919061401f565b73ffffffffffffffffffffffffffffffffffffffff1673ffffffffffffffffffffffffffffffffffffffff16815260200190815260200160002060006101000a81548160ff0219169083151502179055508080610d6290615437565b915050610ccc565b505050565b6000610d7a83611103565b8210610dbb576040517f08c379a0000000000000000000000000000000000000000000000000000000008152600401610db290614d8d565b60405180910390fd5b609760008473ffffffffffffffffffffffffffffffffffffffff1673ffffffffffffffffffffffffffffffffffffffff168152602001908152602001600020600083815260200190815260200160002054905092915050565b6101026020528060005260406000206000915090505481565b6101016020528060005260406000206000915090505481565b610e6183838360405180602001604052806000815250611554565b505050565b6000610e70610b9b565b8210610eb1576040517f08c379a0000000000000000000000000000000000000000000000000000000008152600401610ea89061502d565b60405180910390fd5b60998281548110610ec557610ec461553c565b5b90600052602060002001549050919050565b80610ee18161107c565b73ffffffffffffffffffffffffffffffffffffffff163273ffffffffffffffffffffffffffffffffffffffff161480610f545750610f1e8161107c565b73ffffffffffffffffffffffffffffffffffffffff16610f3c61259d565b73ffffffffffffffffffffffffffffffffffffffff16145b610f93576040517f08c379a0000000000000000000000000000000000000000000000000000000008152600401610f8a90614f4d565b60405180910390fd5b610f9e8260006115b6565b5050565b81610fac8161107c565b73ffffffffffffffffffffffffffffffffffffffff163273ffffffffffffffffffffffffffffffffffffffff16148061101f5750610fe98161107c565b73ffffffffffffffffffffffffffffffffffffffff1661100761259d565b73ffffffffffffffffffffffffffffffffffffffff16145b61105e576040517f08c379a000000000000000000000000000000000000000000000000000000000815260040161105590614f4d565b60405180910390fd5b81610102600085815260200190815260200160002081905550505050565b60008061108883612a6b565b9050600073ffffffffffffffffffffffffffffffffffffffff168173ffffffffffffffffffffffffffffffffffffffff1614156110fa576040517f08c379a00000000000000000000000000000000000000000000000000000000081526004016110f190614f6d565b60405180910390fd5b80915050919050565b60008073ffffffffffffffffffffffffffffffffffffffff168273ffffffffffffffffffffffffffffffffffffffff161415611174576040517f08c379a000000000000000000000000000000000000000000000000000000000815260040161116b90614ecd565b60405180910390fd5b606860008373ffffffffffffffffffffffffffffffffffffffff1673ffffffffffffffffffffffffffffffffffffffff168152602001908152602001600020549050919050565b6111c36129ed565b6111cd6000612aa8565b565b6111d76129ed565b81819050848490501461121f576040517f08c379a000000000000000000000000000000000000000000000000000000000815260040161121690614fad565b60405180910390fd5b60005b8484905081101561128b578282828181106112405761123f61553c565b5b90506020020135610101600087878581811061125f5761125e61553c565b5b90506020020135815260200190815260200160002081905550808061128390615437565b915050611222565b5050505050565b600060c960009054906101000a900473ffffffffffffffffffffffffffffffffffffffff16905090565b6060606680546112cb906153d4565b80601f01602080910402602001604051908101604052809291908181526020018280546112f7906153d4565b80156113445780601f1061131957610100808354040283529160200191611344565b820191906000526020600020905b81548152906001019060200180831161132757829003601f168201915b5050505050905090565b6113566129ed565b600060ff60009054906101000a900473ffffffffffffffffffffffffffffffffffffffff1673ffffffffffffffffffffffffffffffffffffffff166370a08231306040518263ffffffff1660e01b81526004016113b39190614c2e565b60206040518083038186803b1580156113cb57600080fd5b505afa1580156113df573d6000803e3d6000fd5b505050506040513d601f19601f8201168201806040525081019061140391906143c4565b905060ff60009054906101000a900473ffffffffffffffffffffffffffffffffffffffff1673ffffffffffffffffffffffffffffffffffffffff1663a9059cbb61144b611292565b836040518363ffffffff1660e01b8152600401611469929190614ccc565b602060405180830381600087803b15801561148357600080fd5b505af1158015611497573d6000803e3d6000fd5b505050506040513d601f19601f820116820180604052508101906114bb91906142b0565b5050565b6114d16114ca61259d565b8383612b6e565b5050565b6114dd6129ed565b8060ff60006101000a81548173ffffffffffffffffffffffffffffffffffffffff021916908373ffffffffffffffffffffffffffffffffffffffff16021790555050565b60fb6020528060005260406000206000915054906101000a900473ffffffffffffffffffffffffffffffffffffffff1681565b61156561155f61259d565b8361265e565b6115a4576040517f08c379a000000000000000000000000000000000000000000000000000000000815260040161159b90614d4d565b60405180910390fd5b6115b084848484612cdb565b50505050565b816115c08161107c565b73ffffffffffffffffffffffffffffffffffffffff166115de61259d565b73ffffffffffffffffffffffffffffffffffffffff161480611665575061160361259d565b73ffffffffffffffffffffffffffffffffffffffff1660fb600083815260200190815260200160002060009054906101000a900473ffffffffffffffffffffffffffffffffffffffff1673ffffffffffffffffffffffffffffffffffffffff16145b806116aa575061167361259d565b73ffffffffffffffffffffffffffffffffffffffff1661169282610a1c565b73ffffffffffffffffffffffffffffffffffffffff16145b6116e9576040517f08c379a00000000000000000000000000000000000000000000000000000000081526004016116e090614e6d565b60405180910390fd5b600060fb600085815260200190815260200160002060009054906101000a900473ffffffffffffffffffffffffffffffffffffffff16905060fd600085815260200190815260200160002060006117409190613d37565b7fb5941f6e357083b6bcaa8e6b7ae8cc1fe09249dd08844a1b6d621170d58c69e484826040516117719291906150c8565b60405180910390a150505050565b60008060019054906101000a900460ff161590508080156117b05750600160008054906101000a900460ff1660ff16105b806117dd57506117bf30612d37565b1580156117dc5750600160008054906101000a900460ff1660ff16145b5b61181c576040517f08c379a000000000000000000000000000000000000000000000000000000000815260040161181390614eed565b60405180910390fd5b60016000806101000a81548160ff021916908360ff1602179055508015611859576001600060016101000a81548160ff0219169083151502179055505b6118cd6040518060400160405280601881526020017f48797065726c696e6b204e465420436f6c6c656374696f6e00000000000000008152506040518060400160405280600481526020017f484e465400000000000000000000000000000000000000000000000000000000815250612d5a565b6118d5612db7565b8160ff60006101000a81548173ffffffffffffffffffffffffffffffffffffffff021916908373ffffffffffffffffffffffffffffffffffffffff160217905550801561196f5760008060016101000a81548160ff0219169083151502179055507f7f26b83ff96e1f2b6a682f133852f6798a09c465da95921460cefb384740249860016040516119669190614d10565b60405180910390a15b5050565b606061197e82612e10565b6119bd576040517f08c379a00000000000000000000000000000000000000000000000000000000081526004016119b490614d6d565b60405180910390fd5b611a206119c983612e51565b6040516020016119d99190614c0c565b60405160208183030381529060405260fc6000858152602001908152602001600020604051602001611a0c929190614b79565b604051602081830303815290604052612f29565b604051602001611a309190614bea565b6040516020818303038152906040529050919050565b60008173ffffffffffffffffffffffffffffffffffffffff1660fb600085815260200190815260200160002060009054906101000a900473ffffffffffffffffffffffffffffffffffffffff1673ffffffffffffffffffffffffffffffffffffffff1614905092915050565b81611abc8161107c565b73ffffffffffffffffffffffffffffffffffffffff16611ada61259d565b73ffffffffffffffffffffffffffffffffffffffff161480611b615750611aff61259d565b73ffffffffffffffffffffffffffffffffffffffff1660fb600083815260200190815260200160002060009054906101000a900473ffffffffffffffffffffffffffffffffffffffff1673ffffffffffffffffffffffffffffffffffffffff16145b80611ba65750611b6f61259d565b73ffffffffffffffffffffffffffffffffffffffff16611b8e82610a1c565b73ffffffffffffffffffffffffffffffffffffffff16145b611be5576040517f08c379a0000000000000000000000000000000000000000000000000000000008152600401611bdc90614e6d565b60405180910390fd5b8173ffffffffffffffffffffffffffffffffffffffff1660fb600085815260200190815260200160002060009054906101000a900473ffffffffffffffffffffffffffffffffffffffff1673ffffffffffffffffffffffffffffffffffffffff1614611cd7578160fb600085815260200190815260200160002060006101000a81548173ffffffffffffffffffffffffffffffffffffffff021916908373ffffffffffffffffffffffffffffffffffffffff1602179055507fb6aac9d4aca74cc3c9b6f10668821ed9e7c5736feeb673bbbbd8b295ba2c59368383604051611cce9291906150c8565b60405180910390a15b505050565b82611ce68161107c565b73ffffffffffffffffffffffffffffffffffffffff16611d0461259d565b73ffffffffffffffffffffffffffffffffffffffff161480611d8b5750611d2961259d565b73ffffffffffffffffffffffffffffffffffffffff1660fb600083815260200190815260200160002060009054906101000a900473ffffffffffffffffffffffffffffffffffffffff1673ffffffffffffffffffffffffffffffffffffffff16145b80611dd05750611d9961259d565b73ffffffffffffffffffffffffffffffffffffffff16611db882610a1c565b73ffffffffffffffffffffffffffffffffffffffff16145b611e0f576040517f08c379a0000000000000000000000000000000000000000000000000000000008152600401611e0690614e6d565b60405180910390fd5b828260fd60008781526020019081526020016000209190611e31929190613cb1565b507f3861e85a43f9ffebd047ed00860b7c5e4248d52895f611df7877c826ce5d229084611e5c61259d565b8585604051611e6e94939291906150f1565b60405180910390a150505050565b600073ffffffffffffffffffffffffffffffffffffffff16611e9d8361107c565b73ffffffffffffffffffffffffffffffffffffffff161415611ef4576040517f08c379a0000000000000000000000000000000000000000000000000000000008152600401611eeb9061508d565b60405180910390fd5b611efe8282612200565b5050565b6000606a60008473ffffffffffffffffffffffffffffffffffffffff1673ffffffffffffffffffffffffffffffffffffffff16815260200190815260200160002060008373ffffffffffffffffffffffffffffffffffffffff1673ffffffffffffffffffffffffffffffffffffffff16815260200190815260200160002060009054906101000a900460ff16905092915050565b611f9e6129ed565b600073ffffffffffffffffffffffffffffffffffffffff168173ffffffffffffffffffffffffffffffffffffffff16141561200e576040517f08c379a000000000000000000000000000000000000000000000000000000000815260040161200590614e0d565b60405180910390fd5b61201781612aa8565b50565b6120226129ed565b60005b828290508110156120c3576000610103600085858581811061204a5761204961553c565b5b905060200201602081019061205f919061401f565b73ffffffffffffffffffffffffffffffffffffffff1673ffffffffffffffffffffffffffffffffffffffff16815260200190815260200160002060006101000a81548160ff02191690831515021790555080806120bb90615437565b915050612025565b505050565b60fd60205280600052604060002060009150905080546120e7906153d4565b80601f0160208091040260200160405190810160405280929190818152602001828054612113906153d4565b80156121605780601f1061213557610100808354040283529160200191612160565b820191906000526020600020905b81548152906001019060200180831161214357829003601f168201915b505050505081565b60007f780e9d63000000000000000000000000000000000000000000000000000000007bffffffffffffffffffffffffffffffffffffffffffffffffffffffff1916827bffffffffffffffffffffffffffffffffffffffffffffffffffffffff191614806121db57506121da826130ae565b5b9050919050565b6121fc828260405180602001604052806000815250613190565b5050565b6000610100600084815260200190815260200160002054905080821161225b576040517f08c379a000000000000000000000000000000000000000000000000000000000815260040161225290614fed565b60405180910390fd5b600061010160008381526020019081526020016000205490506000610101600085815260200190815260200160002054905060008114156122d1576040517f08c379a00000000000000000000000000000000000000000000000000000000081526004016122c890614dcd565b60405180910390fd5b818111612313576040517f08c379a000000000000000000000000000000000000000000000000000000000815260040161230a90614fcd565b60405180910390fd5b600060ff60009054906101000a900473ffffffffffffffffffffffffffffffffffffffff1673ffffffffffffffffffffffffffffffffffffffff166370a08231336040518263ffffffff1660e01b81526004016123709190614c2e565b60206040518083038186803b15801561238857600080fd5b505afa15801561239c573d6000803e3d6000fd5b505050506040513d601f19601f820116820180604052508101906123c091906143c4565b9050600083836123d091906152cb565b9050600186148061243257506001151561010360003373ffffffffffffffffffffffffffffffffffffffff1673ffffffffffffffffffffffffffffffffffffffff16815260200190815260200160002060009054906101000a900460ff161515145b1561243c57600090505b80821161247e576040517f08c379a000000000000000000000000000000000000000000000000000000000815260040161247590614ded565b60405180910390fd5b60ff60009054906101000a900473ffffffffffffffffffffffffffffffffffffffff1673ffffffffffffffffffffffffffffffffffffffff166323b872dd3330846040518463ffffffff1660e01b81526004016124dd93929190614c49565b602060405180830381600087803b1580156124f757600080fd5b505af115801561250b573d6000803e3d6000fd5b505050506040513d601f19601f8201168201806040525081019061252f91906142b0565b508561010060008981526020019081526020016000208190555050505050505050565b61255b81612e10565b61259a576040517f08c379a000000000000000000000000000000000000000000000000000000000815260040161259190614f6d565b60405180910390fd5b50565b600033905090565b816069600083815260200190815260200160002060006101000a81548173ffffffffffffffffffffffffffffffffffffffff021916908373ffffffffffffffffffffffffffffffffffffffff160217905550808273ffffffffffffffffffffffffffffffffffffffff166126188361107c565b73ffffffffffffffffffffffffffffffffffffffff167f8c5be1e5ebec7d5bd14f71427d1e84f3dd0314c0f7b2291e5b200ac8c7c3b92560405160405180910390a45050565b60008061266a8361107c565b90508073ffffffffffffffffffffffffffffffffffffffff168473ffffffffffffffffffffffffffffffffffffffff1614806126ac57506126ab8185611f02565b5b806126ea57508373ffffffffffffffffffffffffffffffffffffffff166126d284610a1c565b73ffffffffffffffffffffffffffffffffffffffff16145b91505092915050565b8273ffffffffffffffffffffffffffffffffffffffff166127138261107c565b73ffffffffffffffffffffffffffffffffffffffff1614612769576040517f08c379a000000000000000000000000000000000000000000000000000000000815260040161276090614e2d565b60405180910390fd5b600073ffffffffffffffffffffffffffffffffffffffff168273ffffffffffffffffffffffffffffffffffffffff1614156127d9576040517f08c379a00000000000000000000000000000000000000000000000000000000081526004016127d090614e8d565b60405180910390fd5b6127e683838360016131eb565b8273ffffffffffffffffffffffffffffffffffffffff166128068261107c565b73ffffffffffffffffffffffffffffffffffffffff161461285c576040517f08c379a000000000000000000000000000000000000000000000000000000000815260040161285390614e2d565b60405180910390fd5b6069600082815260200190815260200160002060006101000a81549073ffffffffffffffffffffffffffffffffffffffff02191690556001606860008573ffffffffffffffffffffffffffffffffffffffff1673ffffffffffffffffffffffffffffffffffffffff168152602001908152602001600020600082825403925050819055506001606860008473ffffffffffffffffffffffffffffffffffffffff1673ffffffffffffffffffffffffffffffffffffffff16815260200190815260200160002060008282540192505081905550816067600083815260200190815260200160002060006101000a81548173ffffffffffffffffffffffffffffffffffffffff021916908373ffffffffffffffffffffffffffffffffffffffff160217905550808273ffffffffffffffffffffffffffffffffffffffff168473ffffffffffffffffffffffffffffffffffffffff167fddf252ad1be2c89b69c2b068fc378daa952ba7f163c4a11628f55a4df523b3ef60405160405180910390a46129e8838383600161334b565b505050565b6129f561259d565b73ffffffffffffffffffffffffffffffffffffffff16612a13611292565b73ffffffffffffffffffffffffffffffffffffffff1614612a69576040517f08c379a0000000000000000000000000000000000000000000000000000000008152600401612a6090614f2d565b60405180910390fd5b565b60006067600083815260200190815260200160002060009054906101000a900473ffffffffffffffffffffffffffffffffffffffff169050919050565b600060c960009054906101000a900473ffffffffffffffffffffffffffffffffffffffff1690508160c960006101000a81548173ffffffffffffffffffffffffffffffffffffffff021916908373ffffffffffffffffffffffffffffffffffffffff1602179055508173ffffffffffffffffffffffffffffffffffffffff168173ffffffffffffffffffffffffffffffffffffffff167f8be0079c531659141344cd1fd0a4f28419497f9722a3daafe3b4186f6b6457e060405160405180910390a35050565b8173ffffffffffffffffffffffffffffffffffffffff168373ffffffffffffffffffffffffffffffffffffffff161415612bdd576040517f08c379a0000000000000000000000000000000000000000000000000000000008152600401612bd490614ead565b60405180910390fd5b80606a60008573ffffffffffffffffffffffffffffffffffffffff1673ffffffffffffffffffffffffffffffffffffffff16815260200190815260200160002060008473ffffffffffffffffffffffffffffffffffffffff1673ffffffffffffffffffffffffffffffffffffffff16815260200190815260200160002060006101000a81548160ff0219169083151502179055508173ffffffffffffffffffffffffffffffffffffffff168373ffffffffffffffffffffffffffffffffffffffff167f17307eab39ab6107e8899845ad3d59bd9653f200f220920489ca2b5937696c3183604051612cce9190614cf5565b60405180910390a3505050565b612ce68484846126f3565b612cf284848484613351565b612d31576040517f08c379a0000000000000000000000000000000000000000000000000000000008152600401612d2890614dad565b60405180910390fd5b50505050565b6000808273ffffffffffffffffffffffffffffffffffffffff163b119050919050565b600060019054906101000a900460ff16612da9576040517f08c379a0000000000000000000000000000000000000000000000000000000008152600401612da09061504d565b60405180910390fd5b612db382826134e8565b5050565b600060019054906101000a900460ff16612e06576040517f08c379a0000000000000000000000000000000000000000000000000000000008152600401612dfd9061504d565b60405180910390fd5b612e0e613569565b565b60008073ffffffffffffffffffffffffffffffffffffffff16612e3283612a6b565b73ffffffffffffffffffffffffffffffffffffffff1614159050919050565b606060006001612e60846135ca565b01905060008167ffffffffffffffff811115612e7f57612e7e61556b565b5b6040519080825280601f01601f191660200182016040528015612eb15781602001600182028036833780820191505090505b509050600082602001820190505b600115612f1e578080600190039150507f3031323334353637383961626364656600000000000000000000000000000000600a86061a8153600a8581612f0857612f076154af565b5b0494506000851415612f1957612f1e565b612ebf565b819350505050919050565b6060600082511415612f4c576040518060200160405280600081525090506130a9565b6000604051806060016040528060408152602001615ebc6040913990506000600360028551612f7b91906151ea565b612f859190615240565b6004612f919190615271565b90506000602082612fa291906151ea565b67ffffffffffffffff811115612fbb57612fba61556b565b5b6040519080825280601f01601f191660200182016040528015612fed5781602001600182028036833780820191505090505b509050818152600183018586518101602084015b81831015613068576003830192508251603f8160121c1685015160f81b8252600182019150603f81600c1c1685015160f81b8252600182019150603f8160061c1685015160f81b8252600182019150603f811685015160f81b825260018201915050613001565b60038951066001811461308257600281146130925761309d565b613d3d60f01b600283035261309d565b603d60f81b60018303525b50505050508093505050505b919050565b60007f80ac58cd000000000000000000000000000000000000000000000000000000007bffffffffffffffffffffffffffffffffffffffffffffffffffffffff1916827bffffffffffffffffffffffffffffffffffffffffffffffffffffffff1916148061317957507f5b5e139f000000000000000000000000000000000000000000000000000000007bffffffffffffffffffffffffffffffffffffffffffffffffffffffff1916827bffffffffffffffffffffffffffffffffffffffffffffffffffffffff1916145b8061318957506131888261371d565b5b9050919050565b61319a8383613787565b6131a76000848484613351565b6131e6576040517f08c379a00000000000000000000000000000000000000000000000000000000081526004016131dd90614dad565b60405180910390fd5b505050565b6131f7848484846139a5565b600181111561323b576040517f08c379a00000000000000000000000000000000000000000000000000000000081526004016132329061506d565b60405180910390fd5b6000829050600073ffffffffffffffffffffffffffffffffffffffff168573ffffffffffffffffffffffffffffffffffffffff1614156132835761327e816139ab565b6132c2565b8373ffffffffffffffffffffffffffffffffffffffff168573ffffffffffffffffffffffffffffffffffffffff16146132c1576132c085826139f4565b5b5b600073ffffffffffffffffffffffffffffffffffffffff168473ffffffffffffffffffffffffffffffffffffffff1614156133055761330081613b61565b613344565b8473ffffffffffffffffffffffffffffffffffffffff168473ffffffffffffffffffffffffffffffffffffffff1614613343576133428482613c32565b5b5b5050505050565b50505050565b60006133728473ffffffffffffffffffffffffffffffffffffffff16612d37565b156134db578373ffffffffffffffffffffffffffffffffffffffff1663150b7a0261339b61259d565b8786866040518563ffffffff1660e01b81526004016133bd9493929190614c80565b602060405180830381600087803b1580156133d757600080fd5b505af192505050801561340857506040513d601f19601f82011682018060405250810190613405919061430a565b60015b61348b573d8060008114613438576040519150601f19603f3d011682016040523d82523d6000602084013e61343d565b606091505b50600081511415613483576040517f08c379a000000000000000000000000000000000000000000000000000000000815260040161347a90614dad565b60405180910390fd5b805181602001fd5b63150b7a0260e01b7bffffffffffffffffffffffffffffffffffffffffffffffffffffffff1916817bffffffffffffffffffffffffffffffffffffffffffffffffffffffff1916149150506134e0565b600190505b949350505050565b600060019054906101000a900460ff16613537576040517f08c379a000000000000000000000000000000000000000000000000000000000815260040161352e9061504d565b60405180910390fd5b816065908051906020019061354d929190613d77565b508060669080519060200190613564929190613d77565b505050565b600060019054906101000a900460ff166135b8576040517f08c379a00000000000000000000000000000000000000000000000000000000081526004016135af9061504d565b60405180910390fd5b6135c86135c361259d565b612aa8565b565b600080600090507a184f03e93ff9f4daa797ed6e38ed64bf6a1f0100000000000000008310613628577a184f03e93ff9f4daa797ed6e38ed64bf6a1f010000000000000000838161361e5761361d6154af565b5b0492506040810190505b6d04ee2d6d415b85acef81000000008310613665576d04ee2d6d415b85acef8100000000838161365b5761365a6154af565b5b0492506020810190505b662386f26fc10000831061369457662386f26fc10000838161368a576136896154af565b5b0492506010810190505b6305f5e10083106136bd576305f5e10083816136b3576136b26154af565b5b0492506008810190505b61271083106136e25761271083816136d8576136d76154af565b5b0492506004810190505b6064831061370557606483816136fb576136fa6154af565b5b0492506002810190505b600a8310613714576001810190505b80915050919050565b60007f01ffc9a7000000000000000000000000000000000000000000000000000000007bffffffffffffffffffffffffffffffffffffffffffffffffffffffff1916827bffffffffffffffffffffffffffffffffffffffffffffffffffffffff1916149050919050565b600073ffffffffffffffffffffffffffffffffffffffff168273ffffffffffffffffffffffffffffffffffffffff1614156137f7576040517f08c379a00000000000000000000000000000000000000000000000000000000081526004016137ee90614f0d565b60405180910390fd5b61380081612e10565b15613840576040517f08c379a000000000000000000000000000000000000000000000000000000000815260040161383790614e4d565b60405180910390fd5b61384e6000838360016131eb565b61385781612e10565b15613897576040517f08c379a000000000000000000000000000000000000000000000000000000000815260040161388e90614e4d565b60405180910390fd5b6001606860008473ffffffffffffffffffffffffffffffffffffffff1673ffffffffffffffffffffffffffffffffffffffff16815260200190815260200160002060008282540192505081905550816067600083815260200190815260200160002060006101000a81548173ffffffffffffffffffffffffffffffffffffffff021916908373ffffffffffffffffffffffffffffffffffffffff160217905550808273ffffffffffffffffffffffffffffffffffffffff16600073ffffffffffffffffffffffffffffffffffffffff167fddf252ad1be2c89b69c2b068fc378daa952ba7f163c4a11628f55a4df523b3ef60405160405180910390a46139a160008383600161334b565b5050565b50505050565b609980549050609a600083815260200190815260200160002081905550609981908060018154018082558091505060019003906000526020600020016000909190919091505550565b60006001613a0184611103565b613a0b91906152cb565b9050600060986000848152602001908152602001600020549050818114613af0576000609760008673ffffffffffffffffffffffffffffffffffffffff1673ffffffffffffffffffffffffffffffffffffffff168152602001908152602001600020600084815260200190815260200160002054905080609760008773ffffffffffffffffffffffffffffffffffffffff1673ffffffffffffffffffffffffffffffffffffffff168152602001908152602001600020600084815260200190815260200160002081905550816098600083815260200190815260200160002081905550505b6098600084815260200190815260200160002060009055609760008573ffffffffffffffffffffffffffffffffffffffff1673ffffffffffffffffffffffffffffffffffffffff16815260200190815260200160002060008381526020019081526020016000206000905550505050565b60006001609980549050613b7591906152cb565b90506000609a6000848152602001908152602001600020549050600060998381548110613ba557613ba461553c565b5b906000526020600020015490508060998381548110613bc757613bc661553c565b5b906000526020600020018190555081609a600083815260200190815260200160002081905550609a6000858152602001908152602001600020600090556099805480613c1657613c1561550d565b5b6001900381819060005260206000200160009055905550505050565b6000613c3d83611103565b905081609760008573ffffffffffffffffffffffffffffffffffffffff1673ffffffffffffffffffffffffffffffffffffffff168152602001908152602001600020600083815260200190815260200160002081905550806098600084815260200190815260200160002081905550505050565b828054613cbd906153d4565b90600052602060002090601f016020900481019282613cdf5760008555613d26565b82601f10613cf857803560ff1916838001178555613d26565b82800160010185558215613d26579182015b82811115613d25578235825591602001919060010190613d0a565b5b509050613d339190613dfd565b5090565b508054613d43906153d4565b6000825580601f10613d555750613d74565b601f016020900490600052602060002090810190613d739190613dfd565b5b50565b828054613d83906153d4565b90600052602060002090601f016020900481019282613da55760008555613dec565b82601f10613dbe57805160ff1916838001178555613dec565b82800160010185558215613dec579182015b82811115613deb578251825591602001919060010190613dd0565b5b509050613df99190613dfd565b5090565b5b80821115613e16576000816000905550600101613dfe565b5090565b6000613e2d613e2884615156565b615131565b905082815260208101848484011115613e4957613e486155a9565b5b613e54848285615392565b509392505050565b600081359050613e6b81615e5f565b92915050565b60008083601f840112613e8757613e8661559f565b5b8235905067ffffffffffffffff811115613ea457613ea361559a565b5b602083019150836020820283011115613ec057613ebf6155a4565b5b9250929050565b60008083601f840112613edd57613edc61559f565b5b8235905067ffffffffffffffff811115613efa57613ef961559a565b5b602083019150836020820283011115613f1657613f156155a4565b5b9250929050565b600081359050613f2c81615e76565b92915050565b600081519050613f4181615e76565b92915050565b600081359050613f5681615e8d565b92915050565b600081519050613f6b81615e8d565b92915050565b600082601f830112613f8657613f8561559f565b5b8135613f96848260208601613e1a565b91505092915050565b60008083601f840112613fb557613fb461559f565b5b8235905067ffffffffffffffff811115613fd257613fd161559a565b5b602083019150836001820283011115613fee57613fed6155a4565b5b9250929050565b60008135905061400481615ea4565b92915050565b60008151905061401981615ea4565b92915050565b600060208284031215614035576140346155b3565b5b600061404384828501613e5c565b91505092915050565b60008060408385031215614063576140626155b3565b5b600061407185828601613e5c565b925050602061408285828601613e5c565b9150509250929050565b6000806000606084860312156140a5576140a46155b3565b5b60006140b386828701613e5c565b93505060206140c486828701613e5c565b92505060406140d586828701613ff5565b9150509250925092565b600080600080608085870312156140f9576140f86155b3565b5b600061410787828801613e5c565b945050602061411887828801613e5c565b935050604061412987828801613ff5565b925050606085013567ffffffffffffffff81111561414a576141496155ae565b5b61415687828801613f71565b91505092959194509250565b60008060408385031215614179576141786155b3565b5b600061418785828601613e5c565b925050602061419885828601613f1d565b9150509250929050565b600080604083850312156141b9576141b86155b3565b5b60006141c785828601613e5c565b92505060206141d885828601613ff5565b9150509250929050565b600080602083850312156141f9576141f86155b3565b5b600083013567ffffffffffffffff811115614217576142166155ae565b5b61422385828601613e71565b92509250509250929050565b60008060008060408587031215614249576142486155b3565b5b600085013567ffffffffffffffff811115614267576142666155ae565b5b61427387828801613ec7565b9450945050602085013567ffffffffffffffff811115614296576142956155ae565b5b6142a287828801613ec7565b925092505092959194509250565b6000602082840312156142c6576142c56155b3565b5b60006142d484828501613f32565b91505092915050565b6000602082840312156142f3576142f26155b3565b5b600061430184828501613f47565b91505092915050565b6000602082840312156143205761431f6155b3565b5b600061432e84828501613f5c565b91505092915050565b6000806000604084860312156143505761434f6155b3565b5b600084013567ffffffffffffffff81111561436e5761436d6155ae565b5b61437a86828701613f9f565b9350935050602061438d86828701613ff5565b9150509250925092565b6000602082840312156143ad576143ac6155b3565b5b60006143bb84828501613ff5565b91505092915050565b6000602082840312156143da576143d96155b3565b5b60006143e88482850161400a565b91505092915050565b60008060408385031215614408576144076155b3565b5b600061441685828601613ff5565b925050602061442785828601613e5c565b9150509250929050565b60008060006040848603121561444a576144496155b3565b5b600061445886828701613ff5565b935050602084013567ffffffffffffffff811115614479576144786155ae565b5b61448586828701613f9f565b92509250509250925092565b600080604083850312156144a8576144a76155b3565b5b60006144b685828601613ff5565b92505060206144c785828601613ff5565b9150509250929050565b6144da816152ff565b82525050565b6144e981615311565b82525050565b60006144fa8261519c565b61450481856151b2565b93506145148185602086016153a1565b61451d816155b8565b840191505092915050565b60006145338261519c565b61453d81856151c3565b935061454d8185602086016153a1565b80840191505092915050565b61456281615380565b82525050565b600061457483856151ce565b9350614581838584615392565b61458a836155b8565b840190509392505050565b60006145a0826151a7565b6145aa81856151ce565b93506145ba8185602086016153a1565b6145c3816155b8565b840191505092915050565b60006145d9826151a7565b6145e381856151df565b93506145f38185602086016153a1565b80840191505092915050565b6000815461460c816153d4565b61461681866151df565b94506001821660008114614631576001811461464257614675565b60ff19831686528186019350614675565b61464b85615187565b60005b8381101561466d5781548189015260018201915060208101905061464e565b838801955050505b50505092915050565b600061468b602d836151ce565b9150614696826155c9565b604082019050919050565b60006146ae6009836151df565b91506146b982615618565b600982019050919050565b60006146d1601f836151ce565b91506146dc82615641565b602082019050919050565b60006146f4602b836151ce565b91506146ff8261566a565b604082019050919050565b60006147176032836151ce565b9150614722826156b9565b604082019050919050565b600061473a6018836151ce565b915061474582615708565b602082019050919050565b600061475d6016836151ce565b915061476882615731565b602082019050919050565b60006147806026836151ce565b915061478b8261575a565b604082019050919050565b60006147a36002836151df565b91506147ae826157a9565b600282019050919050565b60006147c66025836151ce565b91506147d1826157d2565b604082019050919050565b60006147e9601c836151ce565b91506147f482615821565b602082019050919050565b600061480c6028836151ce565b91506148178261584a565b604082019050919050565b600061482f6047836151df565b915061483a82615899565b604782019050919050565b60006148526001836151df565b915061485d8261590e565b600182019050919050565b60006148756024836151ce565b915061488082615937565b604082019050919050565b60006148986019836151ce565b91506148a382615986565b602082019050919050565b60006148bb6029836151ce565b91506148c6826159af565b604082019050919050565b60006148de6001836151df565b91506148e9826159fe565b600182019050919050565b6000614901602e836151ce565b915061490c82615a27565b604082019050919050565b60006149246009836151df565b915061492f82615a76565b600982019050919050565b60006149476020836151ce565b915061495282615a9f565b602082019050919050565b600061496a6001836151df565b915061497582615ac8565b600182019050919050565b600061498d6020836151ce565b915061499882615af1565b602082019050919050565b60006149b06019836151ce565b91506149bb82615b1a565b602082019050919050565b60006149d36018836151ce565b91506149de82615b43565b602082019050919050565b60006149f66021836151ce565b9150614a0182615b6c565b604082019050919050565b6000614a19601d836151df565b9150614a2482615bbb565b601d82019050919050565b6000614a3c6024836151ce565b9150614a4782615be4565b604082019050919050565b6000614a5f602b836151ce565b9150614a6a82615c33565b604082019050919050565b6000614a826021836151ce565b9150614a8d82615c82565b604082019050919050565b6000614aa5603d836151ce565b9150614ab082615cd1565b604082019050919050565b6000614ac8601b836151df565b9150614ad382615d20565b601b82019050919050565b6000614aeb602c836151ce565b9150614af682615d49565b604082019050919050565b6000614b0e602b836151ce565b9150614b1982615d98565b604082019050919050565b6000614b316035836151ce565b9150614b3c82615de7565b604082019050919050565b6000614b546013836151ce565b9150614b5f82615e36565b602082019050919050565b614b7381615369565b82525050565b6000614b84826146a1565b9150614b908285614528565b9150614b9b82614796565b9150614ba682614822565b9150614bb182614845565b9150614bbc82614917565b9150614bc882846145ff565b9150614bd3826148d1565b9150614bde8261495d565b91508190509392505050565b6000614bf582614a0c565b9150614c0182846145ce565b915081905092915050565b6000614c1782614abb565b9150614c2382846145ce565b915081905092915050565b6000602082019050614c4360008301846144d1565b92915050565b6000606082019050614c5e60008301866144d1565b614c6b60208301856144d1565b614c786040830184614b6a565b949350505050565b6000608082019050614c9560008301876144d1565b614ca260208301866144d1565b614caf6040830185614b6a565b8181036060830152614cc181846144ef565b905095945050505050565b6000604082019050614ce160008301856144d1565b614cee6020830184614b6a565b9392505050565b6000602082019050614d0a60008301846144e0565b92915050565b6000602082019050614d256000830184614559565b92915050565b60006020820190508181036000830152614d458184614595565b905092915050565b60006020820190508181036000830152614d668161467e565b9050919050565b60006020820190508181036000830152614d86816146c4565b9050919050565b60006020820190508181036000830152614da6816146e7565b9050919050565b60006020820190508181036000830152614dc68161470a565b9050919050565b60006020820190508181036000830152614de68161472d565b9050919050565b60006020820190508181036000830152614e0681614750565b9050919050565b60006020820190508181036000830152614e2681614773565b9050919050565b60006020820190508181036000830152614e46816147b9565b9050919050565b60006020820190508181036000830152614e66816147dc565b9050919050565b60006020820190508181036000830152614e86816147ff565b9050919050565b60006020820190508181036000830152614ea681614868565b9050919050565b60006020820190508181036000830152614ec68161488b565b9050919050565b60006020820190508181036000830152614ee6816148ae565b9050919050565b60006020820190508181036000830152614f06816148f4565b9050919050565b60006020820190508181036000830152614f268161493a565b9050919050565b60006020820190508181036000830152614f4681614980565b9050919050565b60006020820190508181036000830152614f66816149a3565b9050919050565b60006020820190508181036000830152614f86816149c6565b9050919050565b60006020820190508181036000830152614fa6816149e9565b9050919050565b60006020820190508181036000830152614fc681614a2f565b9050919050565b60006020820190508181036000830152614fe681614a52565b9050919050565b6000602082019050818103600083015261500681614a75565b9050919050565b6000602082019050818103600083015261502681614a98565b9050919050565b6000602082019050818103600083015261504681614ade565b9050919050565b6000602082019050818103600083015261506681614b01565b9050919050565b6000602082019050818103600083015261508681614b24565b9050919050565b600060208201905081810360008301526150a681614b47565b9050919050565b60006020820190506150c26000830184614b6a565b92915050565b60006040820190506150dd6000830185614b6a565b6150ea60208301846144d1565b9392505050565b60006060820190506151066000830187614b6a565b61511360208301866144d1565b8181036040830152615126818486614568565b905095945050505050565b600061513b61514c565b90506151478282615406565b919050565b6000604051905090565b600067ffffffffffffffff8211156151715761517061556b565b5b61517a826155b8565b9050602081019050919050565b60008190508160005260206000209050919050565b600081519050919050565b600081519050919050565b600082825260208201905092915050565b600081905092915050565b600082825260208201905092915050565b600081905092915050565b60006151f582615369565b915061520083615369565b9250827fffffffffffffffffffffffffffffffffffffffffffffffffffffffffffffffff0382111561523557615234615480565b5b828201905092915050565b600061524b82615369565b915061525683615369565b925082615266576152656154af565b5b828204905092915050565b600061527c82615369565b915061528783615369565b9250817fffffffffffffffffffffffffffffffffffffffffffffffffffffffffffffffff04831182151516156152c0576152bf615480565b5b828202905092915050565b60006152d682615369565b91506152e183615369565b9250828210156152f4576152f3615480565b5b828203905092915050565b600061530a82615349565b9050919050565b60008115159050919050565b60007fffffffff0000000000000000000000000000000000000000000000000000000082169050919050565b600073ffffffffffffffffffffffffffffffffffffffff82169050919050565b6000819050919050565b600060ff82169050919050565b600061538b82615373565b9050919050565b82818337600083830152505050565b60005b838110156153bf5780820151818401526020810190506153a4565b838111156153ce576000848401525b50505050565b600060028204905060018216806153ec57607f821691505b60208210811415615400576153ff6154de565b5b50919050565b61540f826155b8565b810181811067ffffffffffffffff8211171561542e5761542d61556b565b5b80604052505050565b600061544282615369565b91507fffffffffffffffffffffffffffffffffffffffffffffffffffffffffffffffff82141561547557615474615480565b5b600182019050919050565b7f4e487b7100000000000000000000000000000000000000000000000000000000600052601160045260246000fd5b7f4e487b7100000000000000000000000000000000000000000000000000000000600052601260045260246000fd5b7f4e487b7100000000000000000000000000000000000000000000000000000000600052602260045260246000fd5b7f4e487b7100000000000000000000000000000000000000000000000000000000600052603160045260246000fd5b7f4e487b7100000000000000000000000000000000000000000000000000000000600052603260045260246000fd5b7f4e487b7100000000000000000000000000000000000000000000000000000000600052604160045260246000fd5b600080fd5b600080fd5b600080fd5b600080fd5b600080fd5b600080fd5b6000601f19601f8301169050919050565b7f4552433732313a2063616c6c6572206973206e6f7420746f6b656e206f776e6560008201527f72206f7220617070726f76656400000000000000000000000000000000000000602082015250565b7f7b226e616d65223a220000000000000000000000000000000000000000000000600082015250565b7f55524920717565727920666f72206e6f6e6578697374656e7420746f6b656e00600082015250565b7f455243373231456e756d657261626c653a206f776e657220696e646578206f7560008201527f74206f6620626f756e6473000000000000000000000000000000000000000000602082015250565b7f4552433732313a207472616e7366657220746f206e6f6e20455243373231526560008201527f63656976657220696d706c656d656e7465720000000000000000000000000000602082015250565b7f7461726765744c6576656c2073686f756c642065786973740000000000000000600082015250565b7f73686f756c64206861766520656e6f7567682061643300000000000000000000600082015250565b7f4f776e61626c653a206e6577206f776e657220697320746865207a65726f206160008201527f6464726573730000000000000000000000000000000000000000000000000000602082015250565b7f222c000000000000000000000000000000000000000000000000000000000000600082015250565b7f4552433732313a207472616e736665722066726f6d20696e636f72726563742060008201527f6f776e6572000000000000000000000000000000000000000000000000000000602082015250565b7f4552433732313a20746f6b656e20616c7265616479206d696e74656400000000600082015250565b7f616464726573732073686f756c6420626520617574686f72697a6564206f722060008201527f617070726f76652e000000000000000000000000000000000000000000000000602082015250565b7f226465736372697074696f6e223a2248797065726c696e6b204e465420636f6c60008201527f6c656374696f6e2063726561746564207769746820506172616d6920466f756e60208201527f646174696f6e2200000000000000000000000000000000000000000000000000604082015250565b7f2c00000000000000000000000000000000000000000000000000000000000000600082015250565b7f4552433732313a207472616e7366657220746f20746865207a65726f2061646460008201527f7265737300000000000000000000000000000000000000000000000000000000602082015250565b7f4552433732313a20617070726f766520746f2063616c6c657200000000000000600082015250565b7f4552433732313a2061646472657373207a65726f206973206e6f74206120766160008201527f6c6964206f776e65720000000000000000000000000000000000000000000000602082015250565b7f2200000000000000000000000000000000000000000000000000000000000000600082015250565b7f496e697469616c697a61626c653a20636f6e747261637420697320616c72656160008201527f647920696e697469616c697a6564000000000000000000000000000000000000602082015250565b7f22696d616765223a220000000000000000000000000000000000000000000000600082015250565b7f4552433732313a206d696e7420746f20746865207a65726f2061646472657373600082015250565b7f7d00000000000000000000000000000000000000000000000000000000000000600082015250565b7f4f776e61626c653a2063616c6c6572206973206e6f7420746865206f776e6572600082015250565b7f73686f756c642062652074686520746f6b656e206f776e657200000000000000600082015250565b7f4552433732313a20696e76616c696420746f6b656e2049440000000000000000600082015250565b7f4552433732313a20617070726f76616c20746f2063757272656e74206f776e6560008201527f7200000000000000000000000000000000000000000000000000000000000000602082015250565b7f646174613a6170706c69636174696f6e2f6a736f6e3b6261736536342c000000600082015250565b7f6c6576656c732e73697a652073686f756c6420657120746f207072696365732e60008201527f73697a6500000000000000000000000000000000000000000000000000000000602082015250565b7f7461726765744c6576656c50726963652073686f756c6420472e542e2066726f60008201527f6d4c6576656c5072696365000000000000000000000000000000000000000000602082015250565b7f7461726765744c6576656c2073686f756c6420472e542e2066726f6d4c65766560008201527f6c00000000000000000000000000000000000000000000000000000000000000602082015250565b7f4552433732313a20617070726f76652063616c6c6572206973206e6f7420746f60008201527f6b656e206f776e6572206f7220617070726f76656420666f7220616c6c000000602082015250565b7f48797065726c696e6b204e465420436f6c6c656374696f6e2023200000000000600082015250565b7f455243373231456e756d657261626c653a20676c6f62616c20696e646578206f60008201527f7574206f6620626f756e64730000000000000000000000000000000000000000602082015250565b7f496e697469616c697a61626c653a20636f6e7472616374206973206e6f74206960008201527f6e697469616c697a696e67000000000000000000000000000000000000000000602082015250565b7f455243373231456e756d657261626c653a20636f6e736563757469766520747260008201527f616e7366657273206e6f7420737570706f727465640000000000000000000000602082015250565b7f546f6b656e2073686f756c642065786973747300000000000000000000000000600082015250565b615e68816152ff565b8114615e7357600080fd5b50565b615e7f81615311565b8114615e8a57600080fd5b50565b615e968161531d565b8114615ea157600080fd5b50565b615ead81615369565b8114615eb857600080fd5b5056fe4142434445464748494a4b4c4d4e4f505152535455565758595a6162636465666768696a6b6c6d6e6f707172737475767778797a303132333435363738392b2fa264697066735822122049f3fba969c3bcbe412b4cb74d29dd16f2c44279c2ddf0f2cc772d2d1a81892364736f6c63430008050033",
  "linkReferences": {},
  "deployedLinkReferences": {}
}