{
  "_format": "hh-sol-artifact-1",
  "contractName": "ERC721WContract",
  "sourceName": "contracts/ERC721WContract.sol",
  "abi": [
    {
      "inputs": [
        {
          "internalType": "string",
          "name": "name",
          "type": "string"
        },
        {
          "internalType": "string",
          "name": "symbol",
          "type": "string"
        },
        {
          "internalType": "address",
          "name": "_wrappedContract",
          "type": "address"
        },
        {
          "internalType": "address",
          "name": "_creator",
          "type": "address"
        }
      ],
      "stateMutability": "nonpayable",
      "type": "constructor"
    },
    {
      "anonymous": false,
      "inputs": [
        {
          "indexed": true,
          "internalType": "address",
          "name": "owner",
          "type": "address"
        },
        {
          "indexed": true,
          "internalType": "address",
          "name": "approved",
          "type": "address"
        },
        {
          "indexed": true,
          "internalType": "uint256",
          "name": "tokenId",
          "type": "uint256"
        }
      ],
      "name": "Approval",
      "type": "event"
    },
    {
      "anonymous": false,
      "inputs": [
        {
          "indexed": true,
          "internalType": "address",
          "name": "owner",
          "type": "address"
        },
        {
          "indexed": true,
          "internalType": "address",
          "name": "operator",
          "type": "address"
        },
        {
          "indexed": false,
          "internalType": "bool",
          "name": "approved",
          "type": "bool"
        }
      ],
      "name": "ApprovalForAll",
      "type": "event"
    },
    {
      "anonymous": false,
      "inputs": [
        {
          "indexed": true,
          "internalType": "address",
          "name": "previousOwner",
          "type": "address"
        },
        {
          "indexed": true,
          "internalType": "address",
          "name": "newOwner",
          "type": "address"
        }
      ],
      "name": "OwnershipTransferred",
      "type": "event"
    },
    {
      "anonymous": false,
      "inputs": [
        {
          "indexed": false,
          "internalType": "uint256",
          "name": "tokenId",
          "type": "uint256"
        },
        {
          "indexed": false,
          "internalType": "address",
          "name": "slotManagerAddr",
          "type": "address"
        }
      ],
      "name": "SlotAuthorizationCreated",
      "type": "event"
    },
    {
      "anonymous": false,
      "inputs": [
        {
          "indexed": false,
          "internalType": "uint256",
          "name": "tokenId",
          "type": "uint256"
        },
        {
          "indexed": false,
          "internalType": "address",
          "name": "slotManagerAddr",
          "type": "address"
        }
      ],
      "name": "SlotAuthorizationRevoked",
      "type": "event"
    },
    {
      "anonymous": false,
      "inputs": [
        {
          "indexed": false,
          "internalType": "uint256",
          "name": "tokenId",
          "type": "uint256"
        },
        {
          "indexed": false,
          "internalType": "address",
          "name": "slotManagerAddr",
          "type": "address"
        },
        {
          "indexed": false,
          "internalType": "string",
          "name": "uri",
          "type": "string"
        }
      ],
      "name": "SlotUriUpdated",
      "type": "event"
    },
    {
      "anonymous": false,
      "inputs": [
        {
          "indexed": true,
          "internalType": "uint256",
          "name": "tokenId",
          "type": "uint256"
        }
      ],
      "name": "TokenUnwrapped",
      "type": "event"
    },
    {
      "anonymous": false,
      "inputs": [
        {
          "indexed": true,
          "internalType": "uint256",
          "name": "tokenId",
          "type": "uint256"
        }
      ],
      "name": "TokenWrapped",
      "type": "event"
    },
    {
      "anonymous": false,
      "inputs": [
        {
          "indexed": true,
          "internalType": "address",
          "name": "from",
          "type": "address"
        },
        {
          "indexed": true,
          "internalType": "address",
          "name": "to",
          "type": "address"
        },
        {
          "indexed": true,
          "internalType": "uint256",
          "name": "tokenId",
          "type": "uint256"
        }
      ],
      "name": "Transfer",
      "type": "event"
    },
    {
      "inputs": [
        {
          "internalType": "address",
          "name": "to",
          "type": "address"
        },
        {
          "internalType": "uint256",
          "name": "tokenId",
          "type": "uint256"
        }
      ],
      "name": "approve",
      "outputs": [],
      "stateMutability": "nonpayable",
      "type": "function"
    },
    {
      "inputs": [
        {
          "internalType": "uint256",
          "name": "tokenId",
          "type": "uint256"
        },
        {
          "internalType": "address",
          "name": "slotManagerAddr",
          "type": "address"
        }
      ],
      "name": "authorizeSlotTo",
      "outputs": [],
      "stateMutability": "nonpayable",
      "type": "function"
    },
    {
      "inputs": [
        {
          "internalType": "uint256",
          "name": "tokenId",
          "type": "uint256"
        },
        {
          "internalType": "address",
          "name": "slotManagerAddr",
          "type": "address"
        },
        {
          "internalType": "string",
          "name": "value",
          "type": "string"
        }
      ],
      "name": "authorizeSlotToWithValue",
      "outputs": [],
      "stateMutability": "nonpayable",
      "type": "function"
    },
    {
      "inputs": [
        {
          "internalType": "address",
          "name": "owner",
          "type": "address"
        }
      ],
      "name": "balanceOf",
      "outputs": [
        {
          "internalType": "uint256",
          "name": "",
          "type": "uint256"
        }
      ],
      "stateMutability": "view",
      "type": "function"
    },
    {
      "inputs": [
        {
          "internalType": "uint256",
          "name": "tokenId",
          "type": "uint256"
        }
      ],
      "name": "getApproved",
      "outputs": [
        {
          "internalType": "address",
          "name": "",
          "type": "address"
        }
      ],
      "stateMutability": "view",
      "type": "function"
    },
    {
      "inputs": [],
      "name": "getCreator",
      "outputs": [
        {
          "internalType": "address",
          "name": "",
          "type": "address"
        }
      ],
      "stateMutability": "view",
      "type": "function"
    },
    {
      "inputs": [
        {
          "internalType": "uint256",
          "name": "tokenId",
          "type": "uint256"
        }
      ],
      "name": "getSlotManagers",
      "outputs": [
        {
          "internalType": "address[]",
          "name": "",
          "type": "address[]"
        }
      ],
      "stateMutability": "view",
      "type": "function"
    },
    {
      "inputs": [
        {
          "internalType": "uint256",
          "name": "tokenId",
          "type": "uint256"
        },
        {
          "internalType": "address",
          "name": "slotManagerAddr",
          "type": "address"
        }
      ],
      "name": "getSlotUri",
      "outputs": [
        {
          "internalType": "string",
          "name": "",
          "type": "string"
        }
      ],
      "stateMutability": "view",
      "type": "function"
    },
    {
      "inputs": [],
      "name": "getWrappedContract",
      "outputs": [
        {
          "internalType": "address",
          "name": "",
          "type": "address"
        }
      ],
      "stateMutability": "view",
      "type": "function"
    },
    {
      "inputs": [
        {
          "internalType": "address",
          "name": "owner",
          "type": "address"
        },
        {
          "internalType": "address",
          "name": "operator",
          "type": "address"
        }
      ],
      "name": "isApprovedForAll",
      "outputs": [
        {
          "internalType": "bool",
          "name": "",
          "type": "bool"
        }
      ],
      "stateMutability": "view",
      "type": "function"
    },
    {
      "inputs": [
        {
          "internalType": "uint256",
          "name": "tokenId",
          "type": "uint256"
        },
        {
          "internalType": "address",
          "name": "addr",
          "type": "address"
        }
      ],
      "name": "isSlotManager",
      "outputs": [
        {
          "internalType": "bool",
          "name": "",
          "type": "bool"
        }
      ],
      "stateMutability": "view",
      "type": "function"
    },
    {
      "inputs": [],
      "name": "name",
      "outputs": [
        {
          "internalType": "string",
          "name": "",
          "type": "string"
        }
      ],
      "stateMutability": "view",
      "type": "function"
    },
    {
      "inputs": [
        {
          "internalType": "address",
          "name": "",
          "type": "address"
        },
        {
          "internalType": "address",
          "name": "",
          "type": "address"
        },
        {
          "internalType": "uint256",
          "name": "",
          "type": "uint256"
        },
        {
          "internalType": "bytes",
          "name": "",
          "type": "bytes"
        }
      ],
      "name": "onERC721Received",
      "outputs": [
        {
          "internalType": "bytes4",
          "name": "",
          "type": "bytes4"
        }
      ],
      "stateMutability": "nonpayable",
      "type": "function"
    },
    {
      "inputs": [],
      "name": "owner",
      "outputs": [
        {
          "internalType": "address",
          "name": "",
          "type": "address"
        }
      ],
      "stateMutability": "view",
      "type": "function"
    },
    {
      "inputs": [
        {
          "internalType": "uint256",
          "name": "tokenId",
          "type": "uint256"
        }
      ],
      "name": "ownerOf",
      "outputs": [
        {
          "internalType": "address",
          "name": "",
          "type": "address"
        }
      ],
      "stateMutability": "view",
      "type": "function"
    },
    {
      "inputs": [],
      "name": "renounceOwnership",
      "outputs": [],
      "stateMutability": "nonpayable",
      "type": "function"
    },
    {
      "inputs": [
        {
          "internalType": "uint256",
          "name": "tokenId",
          "type": "uint256"
        }
      ],
      "name": "revokeAllAuthorizations",
      "outputs": [],
      "stateMutability": "nonpayable",
      "type": "function"
    },
    {
      "inputs": [
        {
          "internalType": "uint256",
          "name": "tokenId",
          "type": "uint256"
        },
        {
          "internalType": "address",
          "name": "slotManagerAddr",
          "type": "address"
        }
      ],
      "name": "revokeAuthorization",
      "outputs": [],
      "stateMutability": "nonpayable",
      "type": "function"
    },
    {
      "inputs": [
        {
          "internalType": "address",
          "name": "from",
          "type": "address"
        },
        {
          "internalType": "address",
          "name": "to",
          "type": "address"
        },
        {
          "internalType": "uint256",
          "name": "tokenId",
          "type": "uint256"
        }
      ],
      "name": "safeTransferFrom",
      "outputs": [],
      "stateMutability": "nonpayable",
      "type": "function"
    },
    {
      "inputs": [
        {
          "internalType": "address",
          "name": "from",
          "type": "address"
        },
        {
          "internalType": "address",
          "name": "to",
          "type": "address"
        },
        {
          "internalType": "uint256",
          "name": "tokenId",
          "type": "uint256"
        },
        {
          "internalType": "bytes",
          "name": "_data",
          "type": "bytes"
        }
      ],
      "name": "safeTransferFrom",
      "outputs": [],
      "stateMutability": "nonpayable",
      "type": "function"
    },
    {
      "inputs": [
        {
          "internalType": "address",
          "name": "operator",
          "type": "address"
        },
        {
          "internalType": "bool",
          "name": "approved",
          "type": "bool"
        }
      ],
      "name": "setApprovalForAll",
      "outputs": [],
      "stateMutability": "nonpayable",
      "type": "function"
    },
    {
      "inputs": [
        {
          "internalType": "uint256",
          "name": "tokenId",
          "type": "uint256"
        },
        {
          "internalType": "string",
          "name": "value",
          "type": "string"
        }
      ],
      "name": "setSlotUri",
      "outputs": [],
      "stateMutability": "nonpayable",
      "type": "function"
    },
    {
      "inputs": [
        {
          "internalType": "bytes4",
          "name": "interfaceId",
          "type": "bytes4"
        }
      ],
      "name": "supportsInterface",
      "outputs": [
        {
          "internalType": "bool",
          "name": "",
          "type": "bool"
        }
      ],
      "stateMutability": "view",
      "type": "function"
    },
    {
      "inputs": [],
      "name": "symbol",
      "outputs": [
        {
          "internalType": "string",
          "name": "",
          "type": "string"
        }
      ],
      "stateMutability": "view",
      "type": "function"
    },
    {
      "inputs": [
        {
          "internalType": "uint256",
          "name": "index",
          "type": "uint256"
        }
      ],
      "name": "tokenByIndex",
      "outputs": [
        {
          "internalType": "uint256",
          "name": "",
          "type": "uint256"
        }
      ],
      "stateMutability": "view",
      "type": "function"
    },
    {
      "inputs": [
        {
          "internalType": "address",
          "name": "owner",
          "type": "address"
        },
        {
          "internalType": "uint256",
          "name": "index",
          "type": "uint256"
        }
      ],
      "name": "tokenOfOwnerByIndex",
      "outputs": [
        {
          "internalType": "uint256",
          "name": "",
          "type": "uint256"
        }
      ],
      "stateMutability": "view",
      "type": "function"
    },
    {
      "inputs": [
        {
          "internalType": "uint256",
          "name": "tokenId",
          "type": "uint256"
        }
      ],
      "name": "tokenURI",
      "outputs": [
        {
          "internalType": "string",
          "name": "",
          "type": "string"
        }
      ],
      "stateMutability": "view",
      "type": "function"
    },
    {
      "inputs": [],
      "name": "totalSupply",
      "outputs": [
        {
          "internalType": "uint256",
          "name": "",
          "type": "uint256"
        }
      ],
      "stateMutability": "view",
      "type": "function"
    },
    {
      "inputs": [
        {
          "internalType": "address",
          "name": "from",
          "type": "address"
        },
        {
          "internalType": "address",
          "name": "to",
          "type": "address"
        },
        {
          "internalType": "uint256",
          "name": "tokenId",
          "type": "uint256"
        }
      ],
      "name": "transferFrom",
      "outputs": [],
      "stateMutability": "nonpayable",
      "type": "function"
    },
    {
      "inputs": [
        {
          "internalType": "address",
          "name": "newOwner",
          "type": "address"
        }
      ],
      "name": "transferOwnership",
      "outputs": [],
      "stateMutability": "nonpayable",
      "type": "function"
    },
    {
      "inputs": [
        {
          "internalType": "uint256",
          "name": "tokenId",
          "type": "uint256"
        }
      ],
      "name": "unwrap",
      "outputs": [],
      "stateMutability": "nonpayable",
      "type": "function"
    },
    {
      "inputs": [
        {
          "internalType": "uint256",
          "name": "tokenId",
          "type": "uint256"
        }
      ],
      "name": "wrap",
      "outputs": [],
      "stateMutability": "nonpayable",
      "type": "function"
    }
  ],
  "bytecode": "0x60806040523480156200001157600080fd5b5060405162003e7f38038062003e7f833981016040819052620000349162000448565b8351849084906200004d906000906020850190620002a9565b50805162000063906001906020840190620002a9565b505050620000806200007a6200025360201b60201c565b62000257565b6040516301ffc9a760e01b81526380ac58cd60e01b60048201526001600160a01b038316906301ffc9a79060240160206040518083038186803b158015620000c757600080fd5b505afa158015620000dc573d6000803e3d6000fd5b505050506040513d601f19601f820116820180604052508101906200010291906200041f565b6200013e5760405162461bcd60e51b81526020600482015260076024820152664945524337323160c81b60448201526064015b60405180910390fd5b6040516301ffc9a760e01b8152635b5e139f60e01b60048201526001600160a01b038316906301ffc9a79060240160206040518083038186803b1580156200018557600080fd5b505afa1580156200019a573d6000803e3d6000fd5b505050506040513d601f19601f82011682018060405250810190620001c091906200041f565b6200020e5760405162461bcd60e51b815260206004820152601b60248201527f6e6f7420737570706f727420494552433732314d657461646174610000000000604482015260640162000135565b600b80546001600160a01b038085166001600160a01b031992831617909255600c805492841692909116919091179055620002498162000257565b5050505062000527565b3390565b600a80546001600160a01b038381166001600160a01b0319831681179093556040519116919082907f8be0079c531659141344cd1fd0a4f28419497f9722a3daafe3b4186f6b6457e090600090a35050565b828054620002b790620004d4565b90600052602060002090601f016020900481019282620002db576000855562000326565b82601f10620002f657805160ff191683800117855562000326565b8280016001018555821562000326579182015b828111156200032657825182559160200191906001019062000309565b506200033492915062000338565b5090565b5b8082111562000334576000815560010162000339565b80516001600160a01b03811681146200036757600080fd5b919050565b600082601f8301126200037d578081fd5b81516001600160401b03808211156200039a576200039a62000511565b604051601f8301601f19908116603f01168101908282118183101715620003c557620003c562000511565b81604052838152602092508683858801011115620003e1578485fd5b8491505b83821015620004045785820183015181830184015290820190620003e5565b838211156200041557848385830101525b9695505050505050565b60006020828403121562000431578081fd5b8151801515811462000441578182fd5b9392505050565b600080600080608085870312156200045e578283fd5b84516001600160401b038082111562000475578485fd5b62000483888389016200036c565b9550602087015191508082111562000499578485fd5b50620004a8878288016200036c565b935050620004b9604086016200034f565b9150620004c9606086016200034f565b905092959194509250565b600181811c90821680620004e957607f821691505b602082108114156200050b57634e487b7160e01b600052602260045260246000fd5b50919050565b634e487b7160e01b600052604160045260246000fd5b61394880620005376000396000f3fe608060405234801561001057600080fd5b50600436106101f05760003560e01c806370a082311161010f578063c87b56dd116100a2578063de0e9a3e11610071578063de0e9a3e1461048f578063e985e9c5146104a2578063ea598cb0146104eb578063f2fde38b146104fe57600080fd5b8063c87b56dd14610443578063cf367f8414610456578063cfc3ac9214610469578063d0ade91b1461047c57600080fd5b806395d89b41116100de57806395d89b4114610402578063a22cb4651461040a578063b88d4fde1461041d578063c3612ef71461043057600080fd5b806370a08231146103a9578063715018a6146103bc578063715dbaf2146103c45780638da5cb5b146103e457600080fd5b806323b872dd11610187578063543e41c911610156578063543e41c91461035257806358047913146103655780635e91d077146103835780636352211e1461039657600080fd5b806323b872dd146103065780632f745c591461031957806342842e0e1461032c5780634f6ccce71461033f57600080fd5b8063095ea7b3116101c3578063095ea7b31461027d5780630ee2cb1014610292578063150b7a02146102b057806318160ddd146102f457600080fd5b806301ffc9a7146101f557806306fdde031461021d5780630754b2cc14610232578063081812fc14610245575b600080fd5b610208610203366004613418565b610511565b60405190151581526020015b60405180910390f35b610225610651565b6040516102149190613690565b6102256102403660046134db565b6106e3565b6102586102533660046134c3565b6107a7565b60405173ffffffffffffffffffffffffffffffffffffffff9091168152602001610214565b61029061028b3660046133ed565b610886565b005b600c5473ffffffffffffffffffffffffffffffffffffffff16610258565b6102c36102be366004613315565b610a13565b6040517fffffffff000000000000000000000000000000000000000000000000000000009091168152602001610214565b6008545b604051908152602001610214565b6102906103143660046132d5565b610a3d565b6102f86103273660046133ed565b610ade565b61029061033a3660046132d5565b610bad565b6102f861034d3660046134c3565b610bc8565b6102906103603660046134c3565b610cad565b600b5473ffffffffffffffffffffffffffffffffffffffff16610258565b6102906103913660046134ff565b610f24565b6102586103a43660046134c3565b61104b565b6102f86103b7366004613265565b6110fd565b6102906111cb565b6103d76103d23660046134c3565b611258565b6040516102149190613636565b600a5473ffffffffffffffffffffffffffffffffffffffff16610258565b610225611272565b6102906104183660046133bc565b611281565b61029061042b366004613315565b61128c565b61029061043e3660046134db565b611334565b6102256104513660046134c3565b61146e565b6102086104643660046134db565b611533565b6102906104773660046134db565b611552565b61029061048a366004613559565b6115fa565b61029061049d3660046134c3565b61171e565b6102086104b036600461329d565b73ffffffffffffffffffffffffffffffffffffffff918216600090815260056020908152604080832093909416825291909152205460ff1690565b6102906104f93660046134c3565b6118c7565b61029061050c366004613265565b611c61565b60007fffffffff0000000000000000000000000000000000000000000000000000000082167f8f65987b0000000000000000000000000000000000000000000000000000000014806105a457507fffffffff0000000000000000000000000000000000000000000000000000000082167f80ac58cd00000000000000000000000000000000000000000000000000000000145b806105f057507fffffffff0000000000000000000000000000000000000000000000000000000082167f150b7a0200000000000000000000000000000000000000000000000000000000145b8061063c57507fffffffff0000000000000000000000000000000000000000000000000000000082167f780e9d6300000000000000000000000000000000000000000000000000000000145b8061064b575061064b82611d91565b92915050565b60606000805461066090613839565b80601f016020809104026020016040519081016040528092919081815260200182805461068c90613839565b80156106d95780601f106106ae576101008083540402835291602001916106d9565b820191906000526020600020905b8154815290600101906020018083116106bc57829003601f168201915b5050505050905090565b6000828152600e6020908152604080832073ffffffffffffffffffffffffffffffffffffffff85168452909152902080546060919061072190613839565b80601f016020809104026020016040519081016040528092919081815260200182805461074d90613839565b801561079a5780601f1061076f5761010080835404028352916020019161079a565b820191906000526020600020905b81548152906001019060200180831161077d57829003601f168201915b5050505050905092915050565b60008181526002602052604081205473ffffffffffffffffffffffffffffffffffffffff1661085d576040517f08c379a000000000000000000000000000000000000000000000000000000000815260206004820152602c60248201527f4552433732313a20617070726f76656420717565727920666f72206e6f6e657860448201527f697374656e7420746f6b656e000000000000000000000000000000000000000060648201526084015b60405180910390fd5b5060009081526004602052604090205473ffffffffffffffffffffffffffffffffffffffff1690565b60006108918261104b565b90508073ffffffffffffffffffffffffffffffffffffffff168373ffffffffffffffffffffffffffffffffffffffff16141561094f576040517f08c379a000000000000000000000000000000000000000000000000000000000815260206004820152602160248201527f4552433732313a20617070726f76616c20746f2063757272656e74206f776e6560448201527f72000000000000000000000000000000000000000000000000000000000000006064820152608401610854565b3373ffffffffffffffffffffffffffffffffffffffff82161480610978575061097881336104b0565b610a04576040517f08c379a000000000000000000000000000000000000000000000000000000000815260206004820152603860248201527f4552433732313a20617070726f76652063616c6c6572206973206e6f74206f7760448201527f6e6572206e6f7220617070726f76656420666f7220616c6c00000000000000006064820152608401610854565b610a0e8383611de7565b505050565b7f150b7a02000000000000000000000000000000000000000000000000000000005b949350505050565b610a473382611e87565b610ad3576040517f08c379a000000000000000000000000000000000000000000000000000000000815260206004820152603160248201527f4552433732313a207472616e736665722063616c6c6572206973206e6f74206f60448201527f776e6572206e6f7220617070726f7665640000000000000000000000000000006064820152608401610854565b610a0e838383611ff3565b6000610ae9836110fd565b8210610b77576040517f08c379a000000000000000000000000000000000000000000000000000000000815260206004820152602b60248201527f455243373231456e756d657261626c653a206f776e657220696e646578206f7560448201527f74206f6620626f756e64730000000000000000000000000000000000000000006064820152608401610854565b5073ffffffffffffffffffffffffffffffffffffffff919091166000908152600660209081526040808320938352929052205490565b610a0e8383836040518060200160405280600081525061128c565b6000610bd360085490565b8210610c61576040517f08c379a000000000000000000000000000000000000000000000000000000000815260206004820152602c60248201527f455243373231456e756d657261626c653a20676c6f62616c20696e646578206f60448201527f7574206f6620626f756e647300000000000000000000000000000000000000006064820152608401610854565b60088281548110610c9b577f4e487b7100000000000000000000000000000000000000000000000000000000600052603260045260246000fd5b90600052602060002001549050919050565b80610cb78161104b565b73ffffffffffffffffffffffffffffffffffffffff163373ffffffffffffffffffffffffffffffffffffffff1614610d4b576040517f08c379a000000000000000000000000000000000000000000000000000000000815260206004820152601960248201527f73686f756c642062652074686520746f6b656e206f776e6572000000000000006044820152606401610854565b6000828152600d60205260408120600190610d6590612265565b610d6f91906137c1565b90505b8015610e45576000838152600d60205260408120610d90908361226f565b6000858152600d60205260409020909150610dab908261227b565b506000848152600e6020908152604080832073ffffffffffffffffffffffffffffffffffffffff851684529091528120610de49161312d565b6040805185815273ffffffffffffffffffffffffffffffffffffffff831660208201527fb5941f6e357083b6bcaa8e6b7ae8cc1fe09249dd08844a1b6d621170d58c69e4910160405180910390a15080610e3d81613804565b915050610d72565b506000828152600d60205260408120610e5d90612265565b1115610f20576000828152600d60205260408120610e7b908261226f565b6000848152600d60205260409020909150610e96908261227b565b506000838152600e6020908152604080832073ffffffffffffffffffffffffffffffffffffffff851684529091528120610ecf9161312d565b6040805184815273ffffffffffffffffffffffffffffffffffffffff831660208201527fb5941f6e357083b6bcaa8e6b7ae8cc1fe09249dd08844a1b6d621170d58c69e491015b60405180910390a1505b5050565b83610f2e8161104b565b73ffffffffffffffffffffffffffffffffffffffff163373ffffffffffffffffffffffffffffffffffffffff1614610fc2576040517f08c379a000000000000000000000000000000000000000000000000000000000815260206004820152601960248201527f73686f756c642062652074686520746f6b656e206f776e6572000000000000006044820152606401610854565b610fcc858561229d565b6000858152600e6020908152604080832073ffffffffffffffffffffffffffffffffffffffff881684529091529020611006908484613167565b507f3861e85a43f9ffebd047ed00860b7c5e4248d52895f611df7877c826ce5d22908585858560405161103c94939291906136a3565b60405180910390a15050505050565b60008181526002602052604081205473ffffffffffffffffffffffffffffffffffffffff168061064b576040517f08c379a000000000000000000000000000000000000000000000000000000000815260206004820152602960248201527f4552433732313a206f776e657220717565727920666f72206e6f6e657869737460448201527f656e7420746f6b656e00000000000000000000000000000000000000000000006064820152608401610854565b600073ffffffffffffffffffffffffffffffffffffffff82166111a2576040517f08c379a000000000000000000000000000000000000000000000000000000000815260206004820152602a60248201527f4552433732313a2062616c616e636520717565727920666f7220746865207a6560448201527f726f2061646472657373000000000000000000000000000000000000000000006064820152608401610854565b5073ffffffffffffffffffffffffffffffffffffffff1660009081526003602052604090205490565b600a5473ffffffffffffffffffffffffffffffffffffffff16331461124c576040517f08c379a000000000000000000000000000000000000000000000000000000000815260206004820181905260248201527f4f776e61626c653a2063616c6c6572206973206e6f7420746865206f776e65726044820152606401610854565b6112566000612387565b565b6000818152600d6020526040902060609061064b906123fe565b60606001805461066090613839565b610f2033838361240b565b6112963383611e87565b611322576040517f08c379a000000000000000000000000000000000000000000000000000000000815260206004820152603160248201527f4552433732313a207472616e736665722063616c6c6572206973206e6f74206f60448201527f776e6572206e6f7220617070726f7665640000000000000000000000000000006064820152608401610854565b61132e84848484612539565b50505050565b8161133e8161104b565b73ffffffffffffffffffffffffffffffffffffffff163373ffffffffffffffffffffffffffffffffffffffff16146113d2576040517f08c379a000000000000000000000000000000000000000000000000000000000815260206004820152601960248201527f73686f756c642062652074686520746f6b656e206f776e6572000000000000006044820152606401610854565b6000838152600d602052604090206113ea908361227b565b506000838152600e6020908152604080832073ffffffffffffffffffffffffffffffffffffffff8616845290915281206114239161312d565b6040805184815273ffffffffffffffffffffffffffffffffffffffff841660208201527fb5941f6e357083b6bcaa8e6b7ae8cc1fe09249dd08844a1b6d621170d58c69e49101610f16565b600b546040517fc87b56dd0000000000000000000000000000000000000000000000000000000081526004810183905260609173ffffffffffffffffffffffffffffffffffffffff169063c87b56dd9060240160006040518083038186803b1580156114d957600080fd5b505afa1580156114ed573d6000803e3d6000fd5b505050506040513d6000823e601f3d9081017fffffffffffffffffffffffffffffffffffffffffffffffffffffffffffffffe016820160405261064b9190810190613450565b6000828152600d6020526040812061154b90836125dc565b9392505050565b8161155c8161104b565b73ffffffffffffffffffffffffffffffffffffffff163373ffffffffffffffffffffffffffffffffffffffff16146115f0576040517f08c379a000000000000000000000000000000000000000000000000000000000815260206004820152601960248201527f73686f756c642062652074686520746f6b656e206f776e6572000000000000006044820152606401610854565b610a0e838361229d565b826116048161104b565b73ffffffffffffffffffffffffffffffffffffffff163373ffffffffffffffffffffffffffffffffffffffff1614806116505750611650336000838152600d60205260409020906125dc565b6116b6576040517f08c379a000000000000000000000000000000000000000000000000000000000815260206004820152601c60248201527f616464726573732073686f756c6420626520617574686f72697a6564000000006044820152606401610854565b6000848152600e6020908152604080832033845290915290206116da908484613167565b507f3861e85a43f9ffebd047ed00860b7c5e4248d52895f611df7877c826ce5d22908433858560405161171094939291906136a3565b60405180910390a150505050565b806117288161104b565b73ffffffffffffffffffffffffffffffffffffffff163373ffffffffffffffffffffffffffffffffffffffff16146117bc576040517f08c379a000000000000000000000000000000000000000000000000000000000815260206004820152601960248201527f73686f756c642062652074686520746f6b656e206f776e6572000000000000006044820152606401610854565b600b5473ffffffffffffffffffffffffffffffffffffffff166342842e0e30336040517fffffffff0000000000000000000000000000000000000000000000000000000060e085901b16815273ffffffffffffffffffffffffffffffffffffffff92831660048201529116602482015260448101859052606401600060405180830381600087803b15801561185057600080fd5b505af1158015611864573d6000803e3d6000fd5b5050506000838152600d6020526040902061187f9150612265565b1561188d5761188d82610cad565b611898333084610bad565b60405182907ff8e2f293d64778cfbd2b86729cb73ee6e080d780d9334368c8ab78474fc8212090600090a25050565b33600b546040517f6352211e0000000000000000000000000000000000000000000000000000000081526004810184905273ffffffffffffffffffffffffffffffffffffffff9283169290911690636352211e9060240160206040518083038186803b15801561193657600080fd5b505afa15801561194a573d6000803e3d6000fd5b505050506040513d601f19601f8201168201806040525081019061196e9190613281565b73ffffffffffffffffffffffffffffffffffffffff16146119eb576040517f08c379a000000000000000000000000000000000000000000000000000000000815260206004820152601260248201527f73686f756c64206f776e20746f6b656e496400000000000000000000000000006044820152606401610854565b600b546040517f081812fc00000000000000000000000000000000000000000000000000000000815260048101839052309173ffffffffffffffffffffffffffffffffffffffff169063081812fc9060240160206040518083038186803b158015611a5557600080fd5b505afa158015611a69573d6000803e3d6000fd5b505050506040513d601f19601f82011682018060405250810190611a8d9190613281565b73ffffffffffffffffffffffffffffffffffffffff1614611b0a576040517f08c379a000000000000000000000000000000000000000000000000000000000815260206004820152601c60248201527f73686f756c6420617070726f766520746f6b656e4964206669727374000000006044820152606401610854565b600b5473ffffffffffffffffffffffffffffffffffffffff166342842e0e336040517fffffffff0000000000000000000000000000000000000000000000000000000060e084901b16815273ffffffffffffffffffffffffffffffffffffffff909116600482015230602482015260448101849052606401600060405180830381600087803b158015611b9c57600080fd5b505af1158015611bb0573d6000803e3d6000fd5b50505060008281526002602052604090205473ffffffffffffffffffffffffffffffffffffffff161580159150611c04575030611bec8261104b565b73ffffffffffffffffffffffffffffffffffffffff16145b15611c2957611c2430338360405180602001604052806000815250612539565b611c33565b611c33338261260b565b60405181907fbbd8046f2003b15c5e4858368dad2435a58ae1e6b8e64b8edab81490292e339590600090a250565b600a5473ffffffffffffffffffffffffffffffffffffffff163314611ce2576040517f08c379a000000000000000000000000000000000000000000000000000000000815260206004820181905260248201527f4f776e61626c653a2063616c6c6572206973206e6f7420746865206f776e65726044820152606401610854565b73ffffffffffffffffffffffffffffffffffffffff8116611d85576040517f08c379a000000000000000000000000000000000000000000000000000000000815260206004820152602660248201527f4f776e61626c653a206e6577206f776e657220697320746865207a65726f206160448201527f64647265737300000000000000000000000000000000000000000000000000006064820152608401610854565b611d8e81612387565b50565b60007fffffffff0000000000000000000000000000000000000000000000000000000082167f780e9d6300000000000000000000000000000000000000000000000000000000148061064b575061064b82612625565b600081815260046020526040902080547fffffffffffffffffffffffff00000000000000000000000000000000000000001673ffffffffffffffffffffffffffffffffffffffff84169081179091558190611e418261104b565b73ffffffffffffffffffffffffffffffffffffffff167f8c5be1e5ebec7d5bd14f71427d1e84f3dd0314c0f7b2291e5b200ac8c7c3b92560405160405180910390a45050565b60008181526002602052604081205473ffffffffffffffffffffffffffffffffffffffff16611f38576040517f08c379a000000000000000000000000000000000000000000000000000000000815260206004820152602c60248201527f4552433732313a206f70657261746f7220717565727920666f72206e6f6e657860448201527f697374656e7420746f6b656e00000000000000000000000000000000000000006064820152608401610854565b6000611f438361104b565b90508073ffffffffffffffffffffffffffffffffffffffff168473ffffffffffffffffffffffffffffffffffffffff161480611fb257508373ffffffffffffffffffffffffffffffffffffffff16611f9a846107a7565b73ffffffffffffffffffffffffffffffffffffffff16145b80610a35575073ffffffffffffffffffffffffffffffffffffffff80821660009081526005602090815260408083209388168352929052205460ff16610a35565b8273ffffffffffffffffffffffffffffffffffffffff166120138261104b565b73ffffffffffffffffffffffffffffffffffffffff16146120b6576040517f08c379a000000000000000000000000000000000000000000000000000000000815260206004820152602560248201527f4552433732313a207472616e736665722066726f6d20696e636f72726563742060448201527f6f776e65720000000000000000000000000000000000000000000000000000006064820152608401610854565b73ffffffffffffffffffffffffffffffffffffffff8216612158576040517f08c379a0000000000000000000000000000000000000000000000000000000008152602060048201526024808201527f4552433732313a207472616e7366657220746f20746865207a65726f2061646460448201527f72657373000000000000000000000000000000000000000000000000000000006064820152608401610854565b612163838383612708565b61216e600082611de7565b73ffffffffffffffffffffffffffffffffffffffff831660009081526003602052604081208054600192906121a49084906137c1565b909155505073ffffffffffffffffffffffffffffffffffffffff821660009081526003602052604081208054600192906121df9084906137a9565b909155505060008181526002602052604080822080547fffffffffffffffffffffffff00000000000000000000000000000000000000001673ffffffffffffffffffffffffffffffffffffffff86811691821790925591518493918716917fddf252ad1be2c89b69c2b068fc378daa952ba7f163c4a11628f55a4df523b3ef91a4505050565b600061064b825490565b600061154b838361280e565b600061154b8373ffffffffffffffffffffffffffffffffffffffff841661285f565b6000828152600d602052604090206122b590826125dc565b1561231c576040517f08c379a000000000000000000000000000000000000000000000000000000000815260206004820152601a60248201527f6164647265737320616c726561647920617574686f72697a65640000000000006044820152606401610854565b6000828152600d6020526040902061233490826129c7565b506040805183815273ffffffffffffffffffffffffffffffffffffffff831660208201527fb6aac9d4aca74cc3c9b6f10668821ed9e7c5736feeb673bbbbd8b295ba2c5936910160405180910390a15050565b600a805473ffffffffffffffffffffffffffffffffffffffff8381167fffffffffffffffffffffffff0000000000000000000000000000000000000000831681179093556040519116919082907f8be0079c531659141344cd1fd0a4f28419497f9722a3daafe3b4186f6b6457e090600090a35050565b6060600061154b836129e9565b8173ffffffffffffffffffffffffffffffffffffffff168373ffffffffffffffffffffffffffffffffffffffff1614156124a1576040517f08c379a000000000000000000000000000000000000000000000000000000000815260206004820152601960248201527f4552433732313a20617070726f766520746f2063616c6c6572000000000000006044820152606401610854565b73ffffffffffffffffffffffffffffffffffffffff83811660008181526005602090815260408083209487168084529482529182902080547fffffffffffffffffffffffffffffffffffffffffffffffffffffffffffffff001686151590811790915591519182527f17307eab39ab6107e8899845ad3d59bd9653f200f220920489ca2b5937696c31910160405180910390a3505050565b612544848484611ff3565b61255084848484612a45565b61132e576040517f08c379a000000000000000000000000000000000000000000000000000000000815260206004820152603260248201527f4552433732313a207472616e7366657220746f206e6f6e20455243373231526560448201527f63656976657220696d706c656d656e74657200000000000000000000000000006064820152608401610854565b73ffffffffffffffffffffffffffffffffffffffff81166000908152600183016020526040812054151561154b565b610f20828260405180602001604052806000815250612c41565b60007fffffffff0000000000000000000000000000000000000000000000000000000082167f80ac58cd0000000000000000000000000000000000000000000000000000000014806126b857507fffffffff0000000000000000000000000000000000000000000000000000000082167f5b5e139f00000000000000000000000000000000000000000000000000000000145b8061064b57507f01ffc9a7000000000000000000000000000000000000000000000000000000007fffffffff0000000000000000000000000000000000000000000000000000000083161461064b565b73ffffffffffffffffffffffffffffffffffffffff83166127705761276b81600880546000838152600960205260408120829055600182018355919091527ff3f7a9fe364faab93b216da50a3214154f22a0a2b415b23a84c8169e8b636ee30155565b6127ad565b8173ffffffffffffffffffffffffffffffffffffffff168373ffffffffffffffffffffffffffffffffffffffff16146127ad576127ad8382612ce4565b73ffffffffffffffffffffffffffffffffffffffff82166127d157610a0e81612d9b565b8273ffffffffffffffffffffffffffffffffffffffff168273ffffffffffffffffffffffffffffffffffffffff1614610a0e57610a0e8282612ebf565b600082600001828154811061284c577f4e487b7100000000000000000000000000000000000000000000000000000000600052603260045260246000fd5b9060005260206000200154905092915050565b600081815260018301602052604081205480156129bd5760006128836001836137c1565b8554909150600090612897906001906137c1565b905081811461294a5760008660000182815481106128de577f4e487b7100000000000000000000000000000000000000000000000000000000600052603260045260246000fd5b9060005260206000200154905080876000018481548110612928577f4e487b7100000000000000000000000000000000000000000000000000000000600052603260045260246000fd5b6000918252602080832090910192909255918252600188019052604090208390555b8554869080612982577f4e487b7100000000000000000000000000000000000000000000000000000000600052603160045260246000fd5b60019003818190600052602060002001600090559055856001016000868152602001908152602001600020600090556001935050505061064b565b600091505061064b565b600061154b8373ffffffffffffffffffffffffffffffffffffffff8416612f10565b606081600001805480602002602001604051908101604052809291908181526020018280548015612a3957602002820191906000526020600020905b815481526020019060010190808311612a25575b50505050509050919050565b600073ffffffffffffffffffffffffffffffffffffffff84163b15612c39576040517f150b7a0200000000000000000000000000000000000000000000000000000000815273ffffffffffffffffffffffffffffffffffffffff85169063150b7a0290612abc9033908990889088906004016135ed565b602060405180830381600087803b158015612ad657600080fd5b505af1925050508015612b24575060408051601f3d9081017fffffffffffffffffffffffffffffffffffffffffffffffffffffffffffffffe0168201909252612b2191810190613434565b60015b612bee573d808015612b52576040519150601f19603f3d011682016040523d82523d6000602084013e612b57565b606091505b508051612be6576040517f08c379a000000000000000000000000000000000000000000000000000000000815260206004820152603260248201527f4552433732313a207472616e7366657220746f206e6f6e20455243373231526560448201527f63656976657220696d706c656d656e74657200000000000000000000000000006064820152608401610854565b805181602001fd5b7fffffffff00000000000000000000000000000000000000000000000000000000167f150b7a0200000000000000000000000000000000000000000000000000000000149050610a35565b506001610a35565b612c4b8383612f5f565b612c586000848484612a45565b610a0e576040517f08c379a000000000000000000000000000000000000000000000000000000000815260206004820152603260248201527f4552433732313a207472616e7366657220746f206e6f6e20455243373231526560448201527f63656976657220696d706c656d656e74657200000000000000000000000000006064820152608401610854565b60006001612cf1846110fd565b612cfb91906137c1565b600083815260076020526040902054909150808214612d5b5773ffffffffffffffffffffffffffffffffffffffff841660009081526006602090815260408083208584528252808320548484528184208190558352600790915290208190555b50600091825260076020908152604080842084905573ffffffffffffffffffffffffffffffffffffffff9094168352600681528383209183525290812055565b600854600090612dad906001906137c1565b60008381526009602052604081205460088054939450909284908110612dfc577f4e487b7100000000000000000000000000000000000000000000000000000000600052603260045260246000fd5b906000526020600020015490508060088381548110612e44577f4e487b7100000000000000000000000000000000000000000000000000000000600052603260045260246000fd5b6000918252602080832090910192909255828152600990915260408082208490558582528120556008805480612ea3577f4e487b7100000000000000000000000000000000000000000000000000000000600052603160045260246000fd5b6001900381819060005260206000200160009055905550505050565b6000612eca836110fd565b73ffffffffffffffffffffffffffffffffffffffff9093166000908152600660209081526040808320868452825280832085905593825260079052919091209190915550565b6000818152600183016020526040812054612f575750815460018181018455600084815260208082209093018490558454848252828601909352604090209190915561064b565b50600061064b565b73ffffffffffffffffffffffffffffffffffffffff8216612fdc576040517f08c379a000000000000000000000000000000000000000000000000000000000815260206004820181905260248201527f4552433732313a206d696e7420746f20746865207a65726f20616464726573736044820152606401610854565b60008181526002602052604090205473ffffffffffffffffffffffffffffffffffffffff1615613068576040517f08c379a000000000000000000000000000000000000000000000000000000000815260206004820152601c60248201527f4552433732313a20746f6b656e20616c7265616479206d696e746564000000006044820152606401610854565b61307460008383612708565b73ffffffffffffffffffffffffffffffffffffffff821660009081526003602052604081208054600192906130aa9084906137a9565b909155505060008181526002602052604080822080547fffffffffffffffffffffffff00000000000000000000000000000000000000001673ffffffffffffffffffffffffffffffffffffffff861690811790915590518392907fddf252ad1be2c89b69c2b068fc378daa952ba7f163c4a11628f55a4df523b3ef908290a45050565b50805461313990613839565b6000825580601f10613149575050565b601f016020900490600052602060002090810190611d8e9190613209565b82805461317390613839565b90600052602060002090601f01602090048101928261319557600085556131f9565b82601f106131cc578280017fffffffffffffffffffffffffffffffffffffffffffffffffffffffffffffff008235161785556131f9565b828001600101855582156131f9579182015b828111156131f95782358255916020019190600101906131de565b50613205929150613209565b5090565b5b80821115613205576000815560010161320a565b60008083601f84011261322f578182fd5b50813567ffffffffffffffff811115613246578182fd5b60208301915083602082850101111561325e57600080fd5b9250929050565b600060208284031215613276578081fd5b813561154b816138eb565b600060208284031215613292578081fd5b815161154b816138eb565b600080604083850312156132af578081fd5b82356132ba816138eb565b915060208301356132ca816138eb565b809150509250929050565b6000806000606084860312156132e9578081fd5b83356132f4816138eb565b92506020840135613304816138eb565b929592945050506040919091013590565b6000806000806080858703121561332a578081fd5b8435613335816138eb565b93506020850135613345816138eb565b925060408501359150606085013567ffffffffffffffff811115613367578182fd5b8501601f81018713613377578182fd5b803561338a61338582613763565b613714565b81815288602083850101111561339e578384fd5b81602084016020830137908101602001929092525092959194509250565b600080604083850312156133ce578182fd5b82356133d9816138eb565b9150602083013580151581146132ca578182fd5b600080604083850312156133ff578182fd5b823561340a816138eb565b946020939093013593505050565b600060208284031215613429578081fd5b813561154b8161390d565b600060208284031215613445578081fd5b815161154b8161390d565b600060208284031215613461578081fd5b815167ffffffffffffffff811115613477578182fd5b8201601f81018413613487578182fd5b805161349561338582613763565b8181528560208385010111156134a9578384fd5b6134ba8260208301602086016137d8565b95945050505050565b6000602082840312156134d4578081fd5b5035919050565b600080604083850312156134ed578182fd5b8235915060208301356132ca816138eb565b60008060008060608587031215613514578384fd5b843593506020850135613526816138eb565b9250604085013567ffffffffffffffff811115613541578283fd5b61354d8782880161321e565b95989497509550505050565b60008060006040848603121561356d578081fd5b83359250602084013567ffffffffffffffff81111561358a578182fd5b6135968682870161321e565b9497909650939450505050565b600081518084526135bb8160208601602086016137d8565b601f017fffffffffffffffffffffffffffffffffffffffffffffffffffffffffffffffe0169290920160200192915050565b600073ffffffffffffffffffffffffffffffffffffffff80871683528086166020840152508360408301526080606083015261362c60808301846135a3565b9695505050505050565b6020808252825182820181905260009190848201906040850190845b8181101561368457835173ffffffffffffffffffffffffffffffffffffffff1683529284019291840191600101613652565b50909695505050505050565b60208152600061154b60208301846135a3565b84815273ffffffffffffffffffffffffffffffffffffffff8416602082015260606040820152816060820152818360808301376000818301608090810191909152601f9092017fffffffffffffffffffffffffffffffffffffffffffffffffffffffffffffffe01601019392505050565b604051601f82017fffffffffffffffffffffffffffffffffffffffffffffffffffffffffffffffe016810167ffffffffffffffff8111828210171561375b5761375b6138bc565b604052919050565b600067ffffffffffffffff82111561377d5761377d6138bc565b50601f017fffffffffffffffffffffffffffffffffffffffffffffffffffffffffffffffe01660200190565b600082198211156137bc576137bc61388d565b500190565b6000828210156137d3576137d361388d565b500390565b60005b838110156137f35781810151838201526020016137db565b8381111561132e5750506000910152565b6000816138135761381361388d565b507fffffffffffffffffffffffffffffffffffffffffffffffffffffffffffffffff0190565b600181811c9082168061384d57607f821691505b60208210811415613887577f4e487b7100000000000000000000000000000000000000000000000000000000600052602260045260246000fd5b50919050565b7f4e487b7100000000000000000000000000000000000000000000000000000000600052601160045260246000fd5b7f4e487b7100000000000000000000000000000000000000000000000000000000600052604160045260246000fd5b73ffffffffffffffffffffffffffffffffffffffff81168114611d8e57600080fd5b7fffffffff0000000000000000000000000000000000000000000000000000000081168114611d8e57600080fdfea164736f6c6343000804000a",
  "linkReferences": {},
  "deployedLinkReferences": {}
}