{
  "_format": "hh-sol-artifact-1",
  "contractName": "ERC721WRegistry",
  "sourceName": "contracts/ERC721WRegistry.sol",
  "abi": [
    {
      "inputs": [
        {
          "internalType": "address",
          "name": "wrapped",
          "type": "address"
        },
        {
          "internalType": "string",
          "name": "defaultUrl",
          "type": "string"
        }
      ],
      "name": "createERC721wContract",
      "outputs": [],
      "stateMutability": "nonpayable",
      "type": "function"
    },
    {
      "inputs": [
        {
          "internalType": "address",
          "name": "wrapped",
          "type": "address"
        }
      ],
      "name": "getERC721wAddressFor",
      "outputs": [
        {
          "internalType": "address",
          "name": "",
          "type": "address"
        }
      ],
      "stateMutability": "view",
      "type": "function"
    },
    {
      "inputs": [],
      "name": "getWrappedContracts",
      "outputs": [
        {
          "internalType": "address[]",
          "name": "",
          "type": "address[]"
        }
      ],
      "stateMutability": "view",
      "type": "function"
    }
  ],
  "bytecode": "0x608060405234801561001057600080fd5b506167e5806100206000396000f3fe60806040523480156200001157600080fd5b5060043610620000465760003560e01c806343c9ac60146200004b578063b181da3d1462000081578063bc92380414620000a1575b600080fd5b620000696004803603810190620000639190620009c8565b620000c3565b60405162000078919062000d0d565b60405180910390f35b6200009f6004803603810190620000999190620009fa565b620001fd565b005b620000ab62000724565b604051620000ba919062000d2a565b60405180910390f35b60008073ffffffffffffffffffffffffffffffffffffffff16600260008473ffffffffffffffffffffffffffffffffffffffff1673ffffffffffffffffffffffffffffffffffffffff16815260200190815260200160002060009054906101000a900473ffffffffffffffffffffffffffffffffffffffff1673ffffffffffffffffffffffffffffffffffffffff16141562000196576040517f08c379a00000000000000000000000000000000000000000000000000000000081526004016200018d9062000e01565b60405180910390fd5b600260008373ffffffffffffffffffffffffffffffffffffffff1673ffffffffffffffffffffffffffffffffffffffff16815260200190815260200160002060009054906101000a900473ffffffffffffffffffffffffffffffffffffffff169050919050565b600073ffffffffffffffffffffffffffffffffffffffff16600260008573ffffffffffffffffffffffffffffffffffffffff1673ffffffffffffffffffffffffffffffffffffffff16815260200190815260200160002060009054906101000a900473ffffffffffffffffffffffffffffffffffffffff1673ffffffffffffffffffffffffffffffffffffffff1614620002ce576040517f08c379a0000000000000000000000000000000000000000000000000000000008152600401620002c59062000ddf565b60405180910390fd5b8273ffffffffffffffffffffffffffffffffffffffff166301ffc9a77f80ac58cd000000000000000000000000000000000000000000000000000000006040518263ffffffff1660e01b815260040162000329919062000d4e565b60206040518083038186803b1580156200034257600080fd5b505afa15801562000357573d6000803e3d6000fd5b505050506040513d601f19601f820116820180604052508101906200037d919062000a64565b620003bf576040517f08c379a0000000000000000000000000000000000000000000000000000000008152600401620003b69062000e45565b60405180910390fd5b8273ffffffffffffffffffffffffffffffffffffffff166301ffc9a77f5b5e139f000000000000000000000000000000000000000000000000000000006040518263ffffffff1660e01b81526004016200041a919062000d4e565b60206040518083038186803b1580156200043357600080fd5b505afa15801562000448573d6000803e3d6000fd5b505050506040513d601f19601f820116820180604052508101906200046e919062000a64565b620004b0576040517f08c379a0000000000000000000000000000000000000000000000000000000008152600401620004a79062000e23565b60405180910390fd5b600083905060006200057e6040518060400160405280600881526020017f57726170706564200000000000000000000000000000000000000000000000008152508373ffffffffffffffffffffffffffffffffffffffff166306fdde036040518163ffffffff1660e01b815260040160006040518083038186803b1580156200053857600080fd5b505afa1580156200054d573d6000803e3d6000fd5b505050506040513d6000823e3d601f19601f8201168201806040525081019062000578919062000a96565b62000737565b620006456040518060400160405280600181526020017f57000000000000000000000000000000000000000000000000000000000000008152508473ffffffffffffffffffffffffffffffffffffffff166395d89b416040518163ffffffff1660e01b815260040160006040518083038186803b158015620005ff57600080fd5b505afa15801562000614573d6000803e3d6000fd5b505050506040513d6000823e3d601f19601f820116820180604052508101906200063f919062000a96565b62000737565b863387876040516200065790620008af565b620006689695949392919062000d6b565b604051809103906000f08015801562000685573d6000803e3d6000fd5b5090506200069e8560006200076590919063ffffffff16565b5080600260008773ffffffffffffffffffffffffffffffffffffffff1673ffffffffffffffffffffffffffffffffffffffff16815260200190815260200160002060006101000a81548173ffffffffffffffffffffffffffffffffffffffff021916908373ffffffffffffffffffffffffffffffffffffffff1602179055505050505050565b606062000732600062000797565b905090565b606082826040516020016200074e92919062000ce5565b604051602081830303815290604052905092915050565b60006200078f836000018373ffffffffffffffffffffffffffffffffffffffff1660001b620007ba565b905092915050565b60606000620007a9836000016200082e565b905060608190508092505050919050565b6000620007c883836200088c565b6200082357826000018290806001815401808255809150506001900390600052602060002001600090919091909150558260000180549050836001016000848152602001908152602001600020819055506001905062000828565b600090505b92915050565b6060816000018054806020026020016040519081016040528092919081815260200182805480156200088057602002820191906000526020600020905b8154815260200190600101908083116200086b575b50505050509050919050565b600080836001016000848152602001908152602001600020541415905092915050565b615661806200114f83390190565b6000620008d4620008ce8462000e90565b62000e67565b905082815260208101848484011115620008f357620008f262001056565b5b6200090084828562000fac565b509392505050565b60008135905062000919816200111a565b92915050565b600081519050620009308162001134565b92915050565b60008083601f8401126200094f576200094e6200104c565b5b8235905067ffffffffffffffff8111156200096f576200096e62001047565b5b6020830191508360018202830111156200098e576200098d62001051565b5b9250929050565b600082601f830112620009ad57620009ac6200104c565b5b8151620009bf848260208601620008bd565b91505092915050565b600060208284031215620009e157620009e062001060565b5b6000620009f18482850162000908565b91505092915050565b60008060006040848603121562000a165762000a1562001060565b5b600062000a268682870162000908565b935050602084013567ffffffffffffffff81111562000a4a5762000a496200105b565b5b62000a588682870162000936565b92509250509250925092565b60006020828403121562000a7d5762000a7c62001060565b5b600062000a8d848285016200091f565b91505092915050565b60006020828403121562000aaf5762000aae62001060565b5b600082015167ffffffffffffffff81111562000ad05762000acf6200105b565b5b62000ade8482850162000995565b91505092915050565b600062000af5838362000b01565b60208301905092915050565b62000b0c8162000f31565b82525050565b62000b1d8162000f31565b82525050565b600062000b308262000ed6565b62000b3c818562000f04565b935062000b498362000ec6565b8060005b8381101562000b8057815162000b64888262000ae7565b975062000b718362000ef7565b92505060018101905062000b4d565b5085935050505092915050565b62000b988162000f51565b82525050565b600062000bab8262000ee1565b62000bb7818562000f15565b935062000bc981856020860162000fac565b80840191505092915050565b600062000be3838562000f20565b935062000bf283858462000f9d565b62000bfd8362001065565b840190509392505050565b600062000c158262000eec565b62000c21818562000f20565b935062000c3381856020860162000fac565b62000c3e8162001065565b840191505092915050565b600062000c5860168362000f20565b915062000c658262001076565b602082019050919050565b600062000c7f601f8362000f20565b915062000c8c826200109f565b602082019050919050565b600062000ca6601b8362000f20565b915062000cb382620010c8565b602082019050919050565b600062000ccd60138362000f20565b915062000cda82620010f1565b602082019050919050565b600062000cf3828562000b9e565b915062000d01828462000b9e565b91508190509392505050565b600060208201905062000d24600083018462000b12565b92915050565b6000602082019050818103600083015262000d46818462000b23565b905092915050565b600060208201905062000d65600083018462000b8d565b92915050565b600060a082019050818103600083015262000d87818962000c08565b9050818103602083015262000d9d818862000c08565b905062000dae604083018762000b12565b62000dbd606083018662000b12565b818103608083015262000dd281848662000bd5565b9050979650505050505050565b6000602082019050818103600083015262000dfa8162000c49565b9050919050565b6000602082019050818103600083015262000e1c8162000c70565b9050919050565b6000602082019050818103600083015262000e3e8162000c97565b9050919050565b6000602082019050818103600083015262000e608162000cbe565b9050919050565b600062000e7362000e86565b905062000e81828262000fe2565b919050565b6000604051905090565b600067ffffffffffffffff82111562000eae5762000ead62001018565b5b62000eb98262001065565b9050602081019050919050565b6000819050602082019050919050565b600081519050919050565b600081519050919050565b600081519050919050565b6000602082019050919050565b600082825260208201905092915050565b600081905092915050565b600082825260208201905092915050565b600062000f3e8262000f7d565b9050919050565b60008115159050919050565b60007fffffffff0000000000000000000000000000000000000000000000000000000082169050919050565b600073ffffffffffffffffffffffffffffffffffffffff82169050919050565b82818337600083830152505050565b60005b8381101562000fcc57808201518184015260208101905062000faf565b8381111562000fdc576000848401525b50505050565b62000fed8262001065565b810181811067ffffffffffffffff821117156200100f576200100e62001018565b5b80604052505050565b7f4e487b7100000000000000000000000000000000000000000000000000000000600052604160045260246000fd5b600080fd5b600080fd5b600080fd5b600080fd5b600080fd5b600080fd5b6000601f19601f8301169050919050565b7f6572633732317720616464726573732065786973747300000000000000000000600082015250565b7f70726f76696465642061646472657373206973206e6f74207772617070656400600082015250565b7f6e6f7420737570706f727420494552433732314d657461646174610000000000600082015250565b7f6e6f7420737570706f7274204945524337323100000000000000000000000000600082015250565b620011258162000f31565b81146200113157600080fd5b50565b6200113f8162000f45565b81146200114b57600080fd5b5056fe60806040523480156200001157600080fd5b506040516200566138038062005661833981810160405281019062000037919062000582565b8484816000908051906020019062000051929190620003f4565b5080600190805190602001906200006a929190620003f4565b5050506200008d620000816200032660201b60201c565b6200032e60201b60201c565b8273ffffffffffffffffffffffffffffffffffffffff166301ffc9a77f80ac58cd000000000000000000000000000000000000000000000000000000006040518263ffffffff1660e01b8152600401620000e89190620006c6565b60206040518083038186803b1580156200010157600080fd5b505afa15801562000116573d6000803e3d6000fd5b505050506040513d601f19601f820116820180604052508101906200013c919062000550565b6200017e576040517f08c379a00000000000000000000000000000000000000000000000000000000081526004016200017590620006e3565b60405180910390fd5b8273ffffffffffffffffffffffffffffffffffffffff166301ffc9a77f5b5e139f000000000000000000000000000000000000000000000000000000006040518263ffffffff1660e01b8152600401620001d99190620006c6565b60206040518083038186803b158015620001f257600080fd5b505afa15801562000207573d6000803e3d6000fd5b505050506040513d601f19601f820116820180604052508101906200022d919062000550565b6200026f576040517f08c379a0000000000000000000000000000000000000000000000000000000008152600401620002669062000705565b60405180910390fd5b82600b60006101000a81548173ffffffffffffffffffffffffffffffffffffffff021916908373ffffffffffffffffffffffffffffffffffffffff16021790555081600c60006101000a81548173ffffffffffffffffffffffffffffffffffffffff021916908373ffffffffffffffffffffffffffffffffffffffff160217905550806010908051906020019062000309929190620003f4565b506200031b826200032e60201b60201c565b5050505050620009ae565b600033905090565b6000600a60009054906101000a900473ffffffffffffffffffffffffffffffffffffffff16905081600a60006101000a81548173ffffffffffffffffffffffffffffffffffffffff021916908373ffffffffffffffffffffffffffffffffffffffff1602179055508173ffffffffffffffffffffffffffffffffffffffff168173ffffffffffffffffffffffffffffffffffffffff167f8be0079c531659141344cd1fd0a4f28419497f9722a3daafe3b4186f6b6457e060405160405180910390a35050565b828054620004029062000839565b90600052602060002090601f01602090048101928262000426576000855562000472565b82601f106200044157805160ff191683800117855562000472565b8280016001018555821562000472579182015b828111156200047157825182559160200191906001019062000454565b5b50905062000481919062000485565b5090565b5b80821115620004a057600081600090555060010162000486565b5090565b6000620004bb620004b58462000750565b62000727565b905082815260208101848484011115620004da57620004d962000908565b5b620004e784828562000803565b509392505050565b60008151905062000500816200097a565b92915050565b600081519050620005178162000994565b92915050565b600082601f83011262000535576200053462000903565b5b815162000547848260208601620004a4565b91505092915050565b60006020828403121562000569576200056862000912565b5b6000620005798482850162000506565b91505092915050565b600080600080600060a08688031215620005a157620005a062000912565b5b600086015167ffffffffffffffff811115620005c257620005c16200090d565b5b620005d0888289016200051d565b955050602086015167ffffffffffffffff811115620005f457620005f36200090d565b5b62000602888289016200051d565b94505060406200061588828901620004ef565b93505060606200062888828901620004ef565b925050608086015167ffffffffffffffff8111156200064c576200064b6200090d565b5b6200065a888289016200051d565b9150509295509295909350565b6200067281620007b7565b82525050565b60006200068760078362000786565b9150620006948262000928565b602082019050919050565b6000620006ae601b8362000786565b9150620006bb8262000951565b602082019050919050565b6000602082019050620006dd600083018462000667565b92915050565b60006020820190508181036000830152620006fe8162000678565b9050919050565b6000602082019050818103600083015262000720816200069f565b9050919050565b60006200073362000746565b90506200074182826200086f565b919050565b6000604051905090565b600067ffffffffffffffff8211156200076e576200076d620008d4565b5b620007798262000917565b9050602081019050919050565b600082825260208201905092915050565b6000620007a482620007e3565b9050919050565b60008115159050919050565b60007fffffffff0000000000000000000000000000000000000000000000000000000082169050919050565b600073ffffffffffffffffffffffffffffffffffffffff82169050919050565b60005b838110156200082357808201518184015260208101905062000806565b8381111562000833576000848401525b50505050565b600060028204905060018216806200085257607f821691505b60208210811415620008695762000868620008a5565b5b50919050565b6200087a8262000917565b810181811067ffffffffffffffff821117156200089c576200089b620008d4565b5b80604052505050565b7f4e487b7100000000000000000000000000000000000000000000000000000000600052602260045260246000fd5b7f4e487b7100000000000000000000000000000000000000000000000000000000600052604160045260246000fd5b600080fd5b600080fd5b600080fd5b600080fd5b6000601f19601f8301169050919050565b7f4945524337323100000000000000000000000000000000000000000000000000600082015250565b7f6e6f7420737570706f727420494552433732314d657461646174610000000000600082015250565b620009858162000797565b81146200099157600080fd5b50565b6200099f81620007ab565b8114620009ab57600080fd5b50565b614ca380620009be6000396000f3fe608060405234801561001057600080fd5b50600436106102115760003560e01c80636352211e11610125578063b88d4fde116100ad578063de0e9a3e1161007c578063de0e9a3e14610636578063e985e9c514610652578063ea598cb014610682578063ee8baaf31461069e578063f2fde38b146106ce57610211565b8063b88d4fde146105b0578063c87b56dd146105cc578063cc9d4c71146105fc578063d40cc03e1461061857610211565b806395d89b41116100f457806395d89b411461050e5780639d1939db1461052c578063a22cb46514610548578063a446d25f14610564578063b3744a4a1461058057610211565b80636352211e1461048657806370a08231146104b6578063715018a6146104e65780638da5cb5b146104f057610211565b80631d87b5d4116101a85780632f745c59116101775780632f745c59146103d057806334d1c6411461040057806342842e0e1461041c5780634f6ccce714610438578063580479131461046857610211565b80631d87b5d41461034c57806320d154da1461037c57806323b872dd146103985780632a850667146103b457610211565b80630e611d38116101e45780630e611d38146102b05780630ee2cb10146102e0578063150b7a02146102fe57806318160ddd1461032e57610211565b806301ffc9a71461021657806306fdde0314610246578063081812fc14610264578063095ea7b314610294575b600080fd5b610230600480360381019061022b91906139d2565b6106ea565b60405161023d919061406b565b60405180910390f35b61024e610834565b60405161025b91906140c5565b60405180910390f35b61027e60048036038101906102799190613ac2565b6108c6565b60405161028b9190613fab565b60405180910390f35b6102ae60048036038101906102a99190613992565b61090c565b005b6102ca60048036038101906102c59190613aef565b610a24565b6040516102d791906140c5565b60405180910390f35b6102e8610b07565b6040516102f59190613fab565b60405180910390f35b610318600480360381019061031391906138cf565b610b31565b6040516103259190614086565b60405180910390f35b610336610b45565b6040516103439190614367565b60405180910390f35b61036660048036038101906103619190613ac2565b610b52565b60405161037391906140c5565b60405180910390f35b61039660048036038101906103919190613aef565b610c9b565b005b6103b260048036038101906103ad919061387c565b610de4565b005b6103ce60048036038101906103c99190613aef565b610e44565b005b6103ea60048036038101906103e59190613992565b610f96565b6040516103f79190614367565b60405180910390f35b61041a60048036038101906104159190613b2f565b61103b565b005b6104366004803603810190610431919061387c565b61110a565b005b610452600480360381019061044d9190613ac2565b61112a565b60405161045f9190614367565b60405180910390f35b61047061119b565b60405161047d9190613fab565b60405180910390f35b6104a0600480360381019061049b9190613ac2565b6111c5565b6040516104ad9190613fab565b60405180910390f35b6104d060048036038101906104cb91906137e2565b611277565b6040516104dd9190614367565b60405180910390f35b6104ee61132f565b005b6104f8611343565b6040516105059190613fab565b60405180910390f35b61051661136d565b60405161052391906140c5565b60405180910390f35b61054660048036038101906105419190613b2f565b6113ff565b005b610562600480360381019061055d9190613952565b611530565b005b61057e60048036038101906105799190613ac2565b611546565b005b61059a60048036038101906105959190613ac2565b611816565b6040516105a79190614049565b60405180910390f35b6105ca60048036038101906105c591906138cf565b61183a565b005b6105e660048036038101906105e19190613ac2565b61189c565b6040516105f391906140c5565b60405180910390f35b61061660048036038101906106119190613a2c565b611955565b005b610620611973565b60405161062d91906140c5565b60405180910390f35b610650600480360381019061064b9190613ac2565b611a05565b005b61066c6004803603810190610667919061383c565b611b8a565b604051610679919061406b565b60405180910390f35b61069c60048036038101906106979190613ac2565b611c1e565b005b6106b860048036038101906106b39190613aef565b612001565b6040516106c5919061406b565b60405180910390f35b6106e860048036038101906106e391906137e2565b612030565b005b60007f80ac58cd000000000000000000000000000000000000000000000000000000007bffffffffffffffffffffffffffffffffffffffffffffffffffffffff1916827bffffffffffffffffffffffffffffffffffffffffffffffffffffffff191614806107b557507f150b7a02000000000000000000000000000000000000000000000000000000007bffffffffffffffffffffffffffffffffffffffffffffffffffffffff1916827bffffffffffffffffffffffffffffffffffffffffffffffffffffffff1916145b8061081d57507f780e9d63000000000000000000000000000000000000000000000000000000007bffffffffffffffffffffffffffffffffffffffffffffffffffffffff1916827bffffffffffffffffffffffffffffffffffffffffffffffffffffffff1916145b8061082d575061082c826120b4565b5b9050919050565b606060008054610843906145e4565b80601f016020809104026020016040519081016040528092919081815260200182805461086f906145e4565b80156108bc5780601f10610891576101008083540402835291602001916108bc565b820191906000526020600020905b81548152906001019060200180831161089f57829003601f168201915b5050505050905090565b60006108d18261212e565b6004600083815260200190815260200160002060009054906101000a900473ffffffffffffffffffffffffffffffffffffffff169050919050565b6000610917826111c5565b90508073ffffffffffffffffffffffffffffffffffffffff168373ffffffffffffffffffffffffffffffffffffffff161415610988576040517f08c379a000000000000000000000000000000000000000000000000000000000815260040161097f90614307565b60405180910390fd5b8073ffffffffffffffffffffffffffffffffffffffff166109a7612179565b73ffffffffffffffffffffffffffffffffffffffff1614806109d657506109d5816109d0612179565b611b8a565b5b610a15576040517f08c379a0000000000000000000000000000000000000000000000000000000008152600401610a0c90614267565b60405180910390fd5b610a1f8383612181565b505050565b6060600e600084815260200190815260200160002060008373ffffffffffffffffffffffffffffffffffffffff1673ffffffffffffffffffffffffffffffffffffffff1681526020019081526020016000208054610a81906145e4565b80601f0160208091040260200160405190810160405280929190818152602001828054610aad906145e4565b8015610afa5780601f10610acf57610100808354040283529160200191610afa565b820191906000526020600020905b815481529060010190602001808311610add57829003601f168201915b5050505050905092915050565b6000600c60009054906101000a900473ffffffffffffffffffffffffffffffffffffffff16905090565b600063150b7a0260e01b9050949350505050565b6000600880549050905090565b60606000600f60008481526020019081526020016000208054610b74906145e4565b80601f0160208091040260200160405190810160405280929190818152602001828054610ba0906145e4565b8015610bed5780601f10610bc257610100808354040283529160200191610bed565b820191906000526020600020905b815481529060010190602001808311610bd057829003601f168201915b50505050509050600081511115610c075780915050610c96565b60108054610c14906145e4565b80601f0160208091040260200160405190810160405280929190818152602001828054610c40906145e4565b8015610c8d5780601f10610c6257610100808354040283529160200191610c8d565b820191906000526020600020905b815481529060010190602001808311610c7057829003601f168201915b50505050509150505b919050565b81610ca5816111c5565b73ffffffffffffffffffffffffffffffffffffffff16610cc3612179565b73ffffffffffffffffffffffffffffffffffffffff1614610d19576040517f08c379a0000000000000000000000000000000000000000000000000000000008152600401610d10906142c7565b60405180910390fd5b610d3e82600d600086815260200190815260200160002061223a90919063ffffffff16565b50600e600084815260200190815260200160002060008373ffffffffffffffffffffffffffffffffffffffff1673ffffffffffffffffffffffffffffffffffffffff1681526020019081526020016000206000610d9b919061354b565b8173ffffffffffffffffffffffffffffffffffffffff16837f1c8c99eaf5bb030b04c4b98b84ee23a66d28a7e7c92ae562912a24fe94ffed0660405160405180910390a3505050565b610df5610def612179565b8261226a565b610e34576040517f08c379a0000000000000000000000000000000000000000000000000000000008152600401610e2b90614347565b60405180910390fd5b610e3f8383836122ff565b505050565b81610e4e816111c5565b73ffffffffffffffffffffffffffffffffffffffff16610e6c612179565b73ffffffffffffffffffffffffffffffffffffffff1614610ec2576040517f08c379a0000000000000000000000000000000000000000000000000000000008152600401610eb9906142c7565b60405180910390fd5b610ee782600d600086815260200190815260200160002061256690919063ffffffff16565b15610f27576040517f08c379a0000000000000000000000000000000000000000000000000000000008152600401610f1e90614247565b60405180910390fd5b610f4c82600d600086815260200190815260200160002061259690919063ffffffff16565b508173ffffffffffffffffffffffffffffffffffffffff16837fd82e6111cdbffbcb00b2f39bbb6eea58cf9c1e794db4ea5ced77ab57fbc9c99f60405160405180910390a3505050565b6000610fa183611277565b8210610fe2576040517f08c379a0000000000000000000000000000000000000000000000000000000008152600401610fd990614107565b60405180910390fd5b600660008473ffffffffffffffffffffffffffffffffffffffff1673ffffffffffffffffffffffffffffffffffffffff168152602001908152602001600020600083815260200190815260200160002054905092915050565b82611068611047612179565b600d600084815260200190815260200160002061256690919063ffffffff16565b6110a7576040517f08c379a000000000000000000000000000000000000000000000000000000000815260040161109e906140e7565b60405180910390fd5b8282600f600087815260200190815260200160002091906110c992919061358b565b50837f481628a90050b562b14dc484f70ab184ca753a2a8df09991f0460742d21c79ed84846040516110fc9291906140a1565b60405180910390a250505050565b6111258383836040518060200160405280600081525061183a565b505050565b6000611134610b45565b8210611175576040517f08c379a000000000000000000000000000000000000000000000000000000000815260040161116c90614327565b60405180910390fd5b60088281548110611189576111886146d4565b5b90600052602060002001549050919050565b6000600b60009054906101000a900473ffffffffffffffffffffffffffffffffffffffff16905090565b6000806002600084815260200190815260200160002060009054906101000a900473ffffffffffffffffffffffffffffffffffffffff169050600073ffffffffffffffffffffffffffffffffffffffff168173ffffffffffffffffffffffffffffffffffffffff16141561126e576040517f08c379a0000000000000000000000000000000000000000000000000000000008152600401611265906142e7565b60405180910390fd5b80915050919050565b60008073ffffffffffffffffffffffffffffffffffffffff168273ffffffffffffffffffffffffffffffffffffffff1614156112e8576040517f08c379a00000000000000000000000000000000000000000000000000000000081526004016112df90614227565b60405180910390fd5b600360008373ffffffffffffffffffffffffffffffffffffffff1673ffffffffffffffffffffffffffffffffffffffff168152602001908152602001600020549050919050565b6113376125c6565b6113416000612644565b565b6000600a60009054906101000a900473ffffffffffffffffffffffffffffffffffffffff16905090565b60606001805461137c906145e4565b80601f01602080910402602001604051908101604052809291908181526020018280546113a8906145e4565b80156113f55780601f106113ca576101008083540402835291602001916113f5565b820191906000526020600020905b8154815290600101906020018083116113d857829003601f168201915b5050505050905090565b8261142c61140b612179565b600d600084815260200190815260200160002061256690919063ffffffff16565b61146b576040517f08c379a0000000000000000000000000000000000000000000000000000000008152600401611462906140e7565b60405180910390fd5b8282600e6000878152602001908152602001600020600061148a612179565b73ffffffffffffffffffffffffffffffffffffffff1673ffffffffffffffffffffffffffffffffffffffff16815260200190815260200160002091906114d192919061358b565b506114da612179565b73ffffffffffffffffffffffffffffffffffffffff16847f4fec343d8f41990a558fae573e3fa68959a1106fc16c0b9191ec6f2a8037ed5885856040516115229291906140a1565b60405180910390a350505050565b61154261153b612179565b838361270a565b5050565b80611550816111c5565b73ffffffffffffffffffffffffffffffffffffffff1661156e612179565b73ffffffffffffffffffffffffffffffffffffffff16146115c4576040517f08c379a00000000000000000000000000000000000000000000000000000000081526004016115bb906142c7565b60405180910390fd5b600060016115e3600d6000868152602001908152602001600020612877565b6115ed91906144d0565b90505b60008111156116fc57600061162082600d600087815260200190815260200160002061288c90919063ffffffff16565b905061164781600d600087815260200190815260200160002061223a90919063ffffffff16565b50600e600085815260200190815260200160002060008273ffffffffffffffffffffffffffffffffffffffff1673ffffffffffffffffffffffffffffffffffffffff16815260200190815260200160002060006116a4919061354b565b8073ffffffffffffffffffffffffffffffffffffffff16847f1c8c99eaf5bb030b04c4b98b84ee23a66d28a7e7c92ae562912a24fe94ffed0660405160405180910390a35080806116f4906145ba565b9150506115f0565b50600061171a600d6000858152602001908152602001600020612877565b11156118125760006117486000600d600086815260200190815260200160002061288c90919063ffffffff16565b905061176f81600d600086815260200190815260200160002061223a90919063ffffffff16565b50600e600084815260200190815260200160002060008273ffffffffffffffffffffffffffffffffffffffff1673ffffffffffffffffffffffffffffffffffffffff16815260200190815260200160002060006117cc919061354b565b8073ffffffffffffffffffffffffffffffffffffffff16837f1c8c99eaf5bb030b04c4b98b84ee23a66d28a7e7c92ae562912a24fe94ffed0660405160405180910390a3505b5050565b6060611833600d60008481526020019081526020016000206128a6565b9050919050565b61184b611845612179565b8361226a565b61188a576040517f08c379a000000000000000000000000000000000000000000000000000000000815260040161188190614347565b60405180910390fd5b611896848484846128c7565b50505050565b6060600b60009054906101000a900473ffffffffffffffffffffffffffffffffffffffff1673ffffffffffffffffffffffffffffffffffffffff1663c87b56dd836040518263ffffffff1660e01b81526004016118f99190614367565b60006040518083038186803b15801561191157600080fd5b505afa158015611925573d6000803e3d6000fd5b505050506040513d6000823e3d601f19601f8201168201806040525081019061194e9190613a79565b9050919050565b61195d6125c6565b81816010919061196e92919061358b565b505050565b606060108054611982906145e4565b80601f01602080910402602001604051908101604052809291908181526020018280546119ae906145e4565b80156119fb5780601f106119d0576101008083540402835291602001916119fb565b820191906000526020600020905b8154815290600101906020018083116119de57829003601f168201915b5050505050905090565b80611a0f816111c5565b73ffffffffffffffffffffffffffffffffffffffff16611a2d612179565b73ffffffffffffffffffffffffffffffffffffffff1614611a83576040517f08c379a0000000000000000000000000000000000000000000000000000000008152600401611a7a906142c7565b60405180910390fd5b600b60009054906101000a900473ffffffffffffffffffffffffffffffffffffffff1673ffffffffffffffffffffffffffffffffffffffff166342842e0e30611aca612179565b856040518463ffffffff1660e01b8152600401611ae993929190613fc6565b600060405180830381600087803b158015611b0357600080fd5b505af1158015611b17573d6000803e3d6000fd5b505050506000611b38600d6000858152602001908152602001600020612877565b14611b4757611b4682611546565b5b611b59611b52612179565b308461110a565b817ff8e2f293d64778cfbd2b86729cb73ee6e080d780d9334368c8ab78474fc8212060405160405180910390a25050565b6000600560008473ffffffffffffffffffffffffffffffffffffffff1673ffffffffffffffffffffffffffffffffffffffff16815260200190815260200160002060008373ffffffffffffffffffffffffffffffffffffffff1673ffffffffffffffffffffffffffffffffffffffff16815260200190815260200160002060009054906101000a900460ff16905092915050565b611c26612179565b73ffffffffffffffffffffffffffffffffffffffff16600b60009054906101000a900473ffffffffffffffffffffffffffffffffffffffff1673ffffffffffffffffffffffffffffffffffffffff16636352211e836040518263ffffffff1660e01b8152600401611c979190614367565b60206040518083038186803b158015611caf57600080fd5b505afa158015611cc3573d6000803e3d6000fd5b505050506040513d601f19601f82011682018060405250810190611ce7919061380f565b73ffffffffffffffffffffffffffffffffffffffff1614611d3d576040517f08c379a0000000000000000000000000000000000000000000000000000000008152600401611d3490614207565b60405180910390fd5b3073ffffffffffffffffffffffffffffffffffffffff16600b60009054906101000a900473ffffffffffffffffffffffffffffffffffffffff1673ffffffffffffffffffffffffffffffffffffffff1663081812fc836040518263ffffffff1660e01b8152600401611daf9190614367565b60206040518083038186803b158015611dc757600080fd5b505afa158015611ddb573d6000803e3d6000fd5b505050506040513d601f19601f82011682018060405250810190611dff919061380f565b73ffffffffffffffffffffffffffffffffffffffff1614611e55576040517f08c379a0000000000000000000000000000000000000000000000000000000008152600401611e4c90614147565b60405180910390fd5b600b60009054906101000a900473ffffffffffffffffffffffffffffffffffffffff1673ffffffffffffffffffffffffffffffffffffffff166342842e0e611e9b612179565b30846040518463ffffffff1660e01b8152600401611ebb93929190613fc6565b600060405180830381600087803b158015611ed557600080fd5b505af1158015611ee9573d6000803e3d6000fd5b50505050611ef681612923565b8015611f3557503073ffffffffffffffffffffffffffffffffffffffff16611f1d826111c5565b73ffffffffffffffffffffffffffffffffffffffff16145b15611f6157611f5c30611f46612179565b83604051806020016040528060008152506128c7565b611f73565b611f72611f6c612179565b8261298f565b5b611f9f611f7e612179565b600d600084815260200190815260200160002061256690919063ffffffff16565b611fd157611fcf611fae612179565b600d600084815260200190815260200160002061259690919063ffffffff16565b505b807fbbd8046f2003b15c5e4858368dad2435a58ae1e6b8e64b8edab81490292e339560405160405180910390a250565b600061202882600d600086815260200190815260200160002061256690919063ffffffff16565b905092915050565b6120386125c6565b600073ffffffffffffffffffffffffffffffffffffffff168173ffffffffffffffffffffffffffffffffffffffff1614156120a8576040517f08c379a000000000000000000000000000000000000000000000000000000000815260040161209f90614167565b60405180910390fd5b6120b181612644565b50565b60007f780e9d63000000000000000000000000000000000000000000000000000000007bffffffffffffffffffffffffffffffffffffffffffffffffffffffff1916827bffffffffffffffffffffffffffffffffffffffffffffffffffffffff191614806121275750612126826129ad565b5b9050919050565b61213781612923565b612176576040517f08c379a000000000000000000000000000000000000000000000000000000000815260040161216d906142e7565b60405180910390fd5b50565b600033905090565b816004600083815260200190815260200160002060006101000a81548173ffffffffffffffffffffffffffffffffffffffff021916908373ffffffffffffffffffffffffffffffffffffffff160217905550808273ffffffffffffffffffffffffffffffffffffffff166121f4836111c5565b73ffffffffffffffffffffffffffffffffffffffff167f8c5be1e5ebec7d5bd14f71427d1e84f3dd0314c0f7b2291e5b200ac8c7c3b92560405160405180910390a45050565b6000612262836000018373ffffffffffffffffffffffffffffffffffffffff1660001b612a8f565b905092915050565b600080612276836111c5565b90508073ffffffffffffffffffffffffffffffffffffffff168473ffffffffffffffffffffffffffffffffffffffff1614806122b857506122b78185611b8a565b5b806122f657508373ffffffffffffffffffffffffffffffffffffffff166122de846108c6565b73ffffffffffffffffffffffffffffffffffffffff16145b91505092915050565b8273ffffffffffffffffffffffffffffffffffffffff1661231f826111c5565b73ffffffffffffffffffffffffffffffffffffffff1614612375576040517f08c379a000000000000000000000000000000000000000000000000000000000815260040161236c90614187565b60405180910390fd5b600073ffffffffffffffffffffffffffffffffffffffff168273ffffffffffffffffffffffffffffffffffffffff1614156123e5576040517f08c379a00000000000000000000000000000000000000000000000000000000081526004016123dc906141c7565b60405180910390fd5b6123f0838383612ba3565b6123fb600082612181565b6001600360008573ffffffffffffffffffffffffffffffffffffffff1673ffffffffffffffffffffffffffffffffffffffff168152602001908152602001600020600082825461244b91906144d0565b925050819055506001600360008473ffffffffffffffffffffffffffffffffffffffff1673ffffffffffffffffffffffffffffffffffffffff16815260200190815260200160002060008282546124a2919061447a565b92505081905550816002600083815260200190815260200160002060006101000a81548173ffffffffffffffffffffffffffffffffffffffff021916908373ffffffffffffffffffffffffffffffffffffffff160217905550808273ffffffffffffffffffffffffffffffffffffffff168473ffffffffffffffffffffffffffffffffffffffff167fddf252ad1be2c89b69c2b068fc378daa952ba7f163c4a11628f55a4df523b3ef60405160405180910390a4612561838383612cb7565b505050565b600061258e836000018373ffffffffffffffffffffffffffffffffffffffff1660001b612cbc565b905092915050565b60006125be836000018373ffffffffffffffffffffffffffffffffffffffff1660001b612cdf565b905092915050565b6125ce612179565b73ffffffffffffffffffffffffffffffffffffffff166125ec611343565b73ffffffffffffffffffffffffffffffffffffffff1614612642576040517f08c379a0000000000000000000000000000000000000000000000000000000008152600401612639906142a7565b60405180910390fd5b565b6000600a60009054906101000a900473ffffffffffffffffffffffffffffffffffffffff16905081600a60006101000a81548173ffffffffffffffffffffffffffffffffffffffff021916908373ffffffffffffffffffffffffffffffffffffffff1602179055508173ffffffffffffffffffffffffffffffffffffffff168173ffffffffffffffffffffffffffffffffffffffff167f8be0079c531659141344cd1fd0a4f28419497f9722a3daafe3b4186f6b6457e060405160405180910390a35050565b8173ffffffffffffffffffffffffffffffffffffffff168373ffffffffffffffffffffffffffffffffffffffff161415612779576040517f08c379a0000000000000000000000000000000000000000000000000000000008152600401612770906141e7565b60405180910390fd5b80600560008573ffffffffffffffffffffffffffffffffffffffff1673ffffffffffffffffffffffffffffffffffffffff16815260200190815260200160002060008473ffffffffffffffffffffffffffffffffffffffff1673ffffffffffffffffffffffffffffffffffffffff16815260200190815260200160002060006101000a81548160ff0219169083151502179055508173ffffffffffffffffffffffffffffffffffffffff168373ffffffffffffffffffffffffffffffffffffffff167f17307eab39ab6107e8899845ad3d59bd9653f200f220920489ca2b5937696c318360405161286a919061406b565b60405180910390a3505050565b600061288582600001612d4f565b9050919050565b600061289b8360000183612d60565b60001c905092915050565b606060006128b683600001612d8b565b905060608190508092505050919050565b6128d28484846122ff565b6128de84848484612de7565b61291d576040517f08c379a000000000000000000000000000000000000000000000000000000000815260040161291490614127565b60405180910390fd5b50505050565b60008073ffffffffffffffffffffffffffffffffffffffff166002600084815260200190815260200160002060009054906101000a900473ffffffffffffffffffffffffffffffffffffffff1673ffffffffffffffffffffffffffffffffffffffff1614159050919050565b6129a9828260405180602001604052806000815250612f7e565b5050565b60007f80ac58cd000000000000000000000000000000000000000000000000000000007bffffffffffffffffffffffffffffffffffffffffffffffffffffffff1916827bffffffffffffffffffffffffffffffffffffffffffffffffffffffff19161480612a7857507f5b5e139f000000000000000000000000000000000000000000000000000000007bffffffffffffffffffffffffffffffffffffffffffffffffffffffff1916827bffffffffffffffffffffffffffffffffffffffffffffffffffffffff1916145b80612a885750612a8782612fd9565b5b9050919050565b60008083600101600084815260200190815260200160002054905060008114612b97576000600182612ac191906144d0565b9050600060018660000180549050612ad991906144d0565b9050818114612b48576000866000018281548110612afa57612af96146d4565b5b9060005260206000200154905080876000018481548110612b1e57612b1d6146d4565b5b90600052602060002001819055508387600101600083815260200190815260200160002081905550505b85600001805480612b5c57612b5b6146a5565b5b600190038181906000526020600020016000905590558560010160008681526020019081526020016000206000905560019350505050612b9d565b60009150505b92915050565b612bae838383613043565b600073ffffffffffffffffffffffffffffffffffffffff168373ffffffffffffffffffffffffffffffffffffffff161415612bf157612bec81613048565b612c30565b8173ffffffffffffffffffffffffffffffffffffffff168373ffffffffffffffffffffffffffffffffffffffff1614612c2f57612c2e8382613091565b5b5b600073ffffffffffffffffffffffffffffffffffffffff168273ffffffffffffffffffffffffffffffffffffffff161415612c7357612c6e816131fe565b612cb2565b8273ffffffffffffffffffffffffffffffffffffffff168273ffffffffffffffffffffffffffffffffffffffff1614612cb157612cb082826132cf565b5b5b505050565b505050565b600080836001016000848152602001908152602001600020541415905092915050565b6000612ceb8383612cbc565b612d44578260000182908060018154018082558091505060019003906000526020600020016000909190919091505582600001805490508360010160008481526020019081526020016000208190555060019050612d49565b600090505b92915050565b600081600001805490509050919050565b6000826000018281548110612d7857612d776146d4565b5b9060005260206000200154905092915050565b606081600001805480602002602001604051908101604052809291908181526020018280548015612ddb57602002820191906000526020600020905b815481526020019060010190808311612dc7575b50505050509050919050565b6000612e088473ffffffffffffffffffffffffffffffffffffffff1661334e565b15612f71578373ffffffffffffffffffffffffffffffffffffffff1663150b7a02612e31612179565b8786866040518563ffffffff1660e01b8152600401612e539493929190613ffd565b602060405180830381600087803b158015612e6d57600080fd5b505af1925050508015612e9e57506040513d601f19601f82011682018060405250810190612e9b91906139ff565b60015b612f21573d8060008114612ece576040519150601f19603f3d011682016040523d82523d6000602084013e612ed3565b606091505b50600081511415612f19576040517f08c379a0000000000000000000000000000000000000000000000000000000008152600401612f1090614127565b60405180910390fd5b805181602001fd5b63150b7a0260e01b7bffffffffffffffffffffffffffffffffffffffffffffffffffffffff1916817bffffffffffffffffffffffffffffffffffffffffffffffffffffffff191614915050612f76565b600190505b949350505050565b612f888383613371565b612f956000848484612de7565b612fd4576040517f08c379a0000000000000000000000000000000000000000000000000000000008152600401612fcb90614127565b60405180910390fd5b505050565b60007f01ffc9a7000000000000000000000000000000000000000000000000000000007bffffffffffffffffffffffffffffffffffffffffffffffffffffffff1916827bffffffffffffffffffffffffffffffffffffffffffffffffffffffff1916149050919050565b505050565b6008805490506009600083815260200190815260200160002081905550600881908060018154018082558091505060019003906000526020600020016000909190919091505550565b6000600161309e84611277565b6130a891906144d0565b905060006007600084815260200190815260200160002054905081811461318d576000600660008673ffffffffffffffffffffffffffffffffffffffff1673ffffffffffffffffffffffffffffffffffffffff168152602001908152602001600020600084815260200190815260200160002054905080600660008773ffffffffffffffffffffffffffffffffffffffff1673ffffffffffffffffffffffffffffffffffffffff168152602001908152602001600020600084815260200190815260200160002081905550816007600083815260200190815260200160002081905550505b6007600084815260200190815260200160002060009055600660008573ffffffffffffffffffffffffffffffffffffffff1673ffffffffffffffffffffffffffffffffffffffff16815260200190815260200160002060008381526020019081526020016000206000905550505050565b6000600160088054905061321291906144d0565b9050600060096000848152602001908152602001600020549050600060088381548110613242576132416146d4565b5b906000526020600020015490508060088381548110613264576132636146d4565b5b9060005260206000200181905550816009600083815260200190815260200160002081905550600960008581526020019081526020016000206000905560088054806132b3576132b26146a5565b5b6001900381819060005260206000200160009055905550505050565b60006132da83611277565b905081600660008573ffffffffffffffffffffffffffffffffffffffff1673ffffffffffffffffffffffffffffffffffffffff168152602001908152602001600020600083815260200190815260200160002081905550806007600084815260200190815260200160002081905550505050565b6000808273ffffffffffffffffffffffffffffffffffffffff163b119050919050565b600073ffffffffffffffffffffffffffffffffffffffff168273ffffffffffffffffffffffffffffffffffffffff1614156133e1576040517f08c379a00000000000000000000000000000000000000000000000000000000081526004016133d890614287565b60405180910390fd5b6133ea81612923565b1561342a576040517f08c379a0000000000000000000000000000000000000000000000000000000008152600401613421906141a7565b60405180910390fd5b61343660008383612ba3565b6001600360008473ffffffffffffffffffffffffffffffffffffffff1673ffffffffffffffffffffffffffffffffffffffff1681526020019081526020016000206000828254613486919061447a565b92505081905550816002600083815260200190815260200160002060006101000a81548173ffffffffffffffffffffffffffffffffffffffff021916908373ffffffffffffffffffffffffffffffffffffffff160217905550808273ffffffffffffffffffffffffffffffffffffffff16600073ffffffffffffffffffffffffffffffffffffffff167fddf252ad1be2c89b69c2b068fc378daa952ba7f163c4a11628f55a4df523b3ef60405160405180910390a461354760008383612cb7565b5050565b508054613557906145e4565b6000825580601f106135695750613588565b601f0160209004906000526020600020908101906135879190613611565b5b50565b828054613597906145e4565b90600052602060002090601f0160209004810192826135b95760008555613600565b82601f106135d257803560ff1916838001178555613600565b82800160010185558215613600579182015b828111156135ff5782358255916020019190600101906135e4565b5b50905061360d9190613611565b5090565b5b8082111561362a576000816000905550600101613612565b5090565b600061364161363c846143a7565b614382565b90508281526020810184848401111561365d5761365c614741565b5b613668848285614578565b509392505050565b600061368361367e846143d8565b614382565b90508281526020810184848401111561369f5761369e614741565b5b6136aa848285614587565b509392505050565b6000813590506136c181614c11565b92915050565b6000815190506136d681614c11565b92915050565b6000813590506136eb81614c28565b92915050565b60008135905061370081614c3f565b92915050565b60008151905061371581614c3f565b92915050565b600082601f8301126137305761372f614737565b5b813561374084826020860161362e565b91505092915050565b60008083601f84011261375f5761375e614737565b5b8235905067ffffffffffffffff81111561377c5761377b614732565b5b6020830191508360018202830111156137985761379761473c565b5b9250929050565b600082601f8301126137b4576137b3614737565b5b81516137c4848260208601613670565b91505092915050565b6000813590506137dc81614c56565b92915050565b6000602082840312156137f8576137f761474b565b5b6000613806848285016136b2565b91505092915050565b6000602082840312156138255761382461474b565b5b6000613833848285016136c7565b91505092915050565b600080604083850312156138535761385261474b565b5b6000613861858286016136b2565b9250506020613872858286016136b2565b9150509250929050565b6000806000606084860312156138955761389461474b565b5b60006138a3868287016136b2565b93505060206138b4868287016136b2565b92505060406138c5868287016137cd565b9150509250925092565b600080600080608085870312156138e9576138e861474b565b5b60006138f7878288016136b2565b9450506020613908878288016136b2565b9350506040613919878288016137cd565b925050606085013567ffffffffffffffff81111561393a57613939614746565b5b6139468782880161371b565b91505092959194509250565b600080604083850312156139695761396861474b565b5b6000613977858286016136b2565b9250506020613988858286016136dc565b9150509250929050565b600080604083850312156139a9576139a861474b565b5b60006139b7858286016136b2565b92505060206139c8858286016137cd565b9150509250929050565b6000602082840312156139e8576139e761474b565b5b60006139f6848285016136f1565b91505092915050565b600060208284031215613a1557613a1461474b565b5b6000613a2384828501613706565b91505092915050565b60008060208385031215613a4357613a4261474b565b5b600083013567ffffffffffffffff811115613a6157613a60614746565b5b613a6d85828601613749565b92509250509250929050565b600060208284031215613a8f57613a8e61474b565b5b600082015167ffffffffffffffff811115613aad57613aac614746565b5b613ab98482850161379f565b91505092915050565b600060208284031215613ad857613ad761474b565b5b6000613ae6848285016137cd565b91505092915050565b60008060408385031215613b0657613b0561474b565b5b6000613b14858286016137cd565b9250506020613b25858286016136b2565b9150509250929050565b600080600060408486031215613b4857613b4761474b565b5b6000613b56868287016137cd565b935050602084013567ffffffffffffffff811115613b7757613b76614746565b5b613b8386828701613749565b92509250509250925092565b6000613b9b8383613ba7565b60208301905092915050565b613bb081614504565b82525050565b613bbf81614504565b82525050565b6000613bd082614419565b613bda8185614447565b9350613be583614409565b8060005b83811015613c16578151613bfd8882613b8f565b9750613c088361443a565b925050600181019050613be9565b5085935050505092915050565b613c2c81614516565b82525050565b613c3b81614522565b82525050565b6000613c4c82614424565b613c568185614458565b9350613c66818560208601614587565b613c6f81614750565b840191505092915050565b6000613c868385614469565b9350613c93838584614578565b613c9c83614750565b840190509392505050565b6000613cb28261442f565b613cbc8185614469565b9350613ccc818560208601614587565b613cd581614750565b840191505092915050565b6000613ced601c83614469565b9150613cf882614761565b602082019050919050565b6000613d10602b83614469565b9150613d1b8261478a565b604082019050919050565b6000613d33603283614469565b9150613d3e826147d9565b604082019050919050565b6000613d56601c83614469565b9150613d6182614828565b602082019050919050565b6000613d79602683614469565b9150613d8482614851565b604082019050919050565b6000613d9c602583614469565b9150613da7826148a0565b604082019050919050565b6000613dbf601c83614469565b9150613dca826148ef565b602082019050919050565b6000613de2602483614469565b9150613ded82614918565b604082019050919050565b6000613e05601983614469565b9150613e1082614967565b602082019050919050565b6000613e28601283614469565b9150613e3382614990565b602082019050919050565b6000613e4b602983614469565b9150613e56826149b9565b604082019050919050565b6000613e6e601a83614469565b9150613e7982614a08565b602082019050919050565b6000613e91603e83614469565b9150613e9c82614a31565b604082019050919050565b6000613eb4602083614469565b9150613ebf82614a80565b602082019050919050565b6000613ed7602083614469565b9150613ee282614aa9565b602082019050919050565b6000613efa601983614469565b9150613f0582614ad2565b602082019050919050565b6000613f1d601883614469565b9150613f2882614afb565b602082019050919050565b6000613f40602183614469565b9150613f4b82614b24565b604082019050919050565b6000613f63602c83614469565b9150613f6e82614b73565b604082019050919050565b6000613f86602e83614469565b9150613f9182614bc2565b604082019050919050565b613fa58161456e565b82525050565b6000602082019050613fc06000830184613bb6565b92915050565b6000606082019050613fdb6000830186613bb6565b613fe86020830185613bb6565b613ff56040830184613f9c565b949350505050565b60006080820190506140126000830187613bb6565b61401f6020830186613bb6565b61402c6040830185613f9c565b818103606083015261403e8184613c41565b905095945050505050565b600060208201905081810360008301526140638184613bc5565b905092915050565b60006020820190506140806000830184613c23565b92915050565b600060208201905061409b6000830184613c32565b92915050565b600060208201905081810360008301526140bc818486613c7a565b90509392505050565b600060208201905081810360008301526140df8184613ca7565b905092915050565b6000602082019050818103600083015261410081613ce0565b9050919050565b6000602082019050818103600083015261412081613d03565b9050919050565b6000602082019050818103600083015261414081613d26565b9050919050565b6000602082019050818103600083015261416081613d49565b9050919050565b6000602082019050818103600083015261418081613d6c565b9050919050565b600060208201905081810360008301526141a081613d8f565b9050919050565b600060208201905081810360008301526141c081613db2565b9050919050565b600060208201905081810360008301526141e081613dd5565b9050919050565b6000602082019050818103600083015261420081613df8565b9050919050565b6000602082019050818103600083015261422081613e1b565b9050919050565b6000602082019050818103600083015261424081613e3e565b9050919050565b6000602082019050818103600083015261426081613e61565b9050919050565b6000602082019050818103600083015261428081613e84565b9050919050565b600060208201905081810360008301526142a081613ea7565b9050919050565b600060208201905081810360008301526142c081613eca565b9050919050565b600060208201905081810360008301526142e081613eed565b9050919050565b6000602082019050818103600083015261430081613f10565b9050919050565b6000602082019050818103600083015261432081613f33565b9050919050565b6000602082019050818103600083015261434081613f56565b9050919050565b6000602082019050818103600083015261436081613f79565b9050919050565b600060208201905061437c6000830184613f9c565b92915050565b600061438c61439d565b90506143988282614616565b919050565b6000604051905090565b600067ffffffffffffffff8211156143c2576143c1614703565b5b6143cb82614750565b9050602081019050919050565b600067ffffffffffffffff8211156143f3576143f2614703565b5b6143fc82614750565b9050602081019050919050565b6000819050602082019050919050565b600081519050919050565b600081519050919050565b600081519050919050565b6000602082019050919050565b600082825260208201905092915050565b600082825260208201905092915050565b600082825260208201905092915050565b60006144858261456e565b91506144908361456e565b9250827fffffffffffffffffffffffffffffffffffffffffffffffffffffffffffffffff038211156144c5576144c4614647565b5b828201905092915050565b60006144db8261456e565b91506144e68361456e565b9250828210156144f9576144f8614647565b5b828203905092915050565b600061450f8261454e565b9050919050565b60008115159050919050565b60007fffffffff0000000000000000000000000000000000000000000000000000000082169050919050565b600073ffffffffffffffffffffffffffffffffffffffff82169050919050565b6000819050919050565b82818337600083830152505050565b60005b838110156145a557808201518184015260208101905061458a565b838111156145b4576000848401525b50505050565b60006145c58261456e565b915060008214156145d9576145d8614647565b5b600182039050919050565b600060028204905060018216806145fc57607f821691505b602082108114156146105761460f614676565b5b50919050565b61461f82614750565b810181811067ffffffffffffffff8211171561463e5761463d614703565b5b80604052505050565b7f4e487b7100000000000000000000000000000000000000000000000000000000600052601160045260246000fd5b7f4e487b7100000000000000000000000000000000000000000000000000000000600052602260045260246000fd5b7f4e487b7100000000000000000000000000000000000000000000000000000000600052603160045260246000fd5b7f4e487b7100000000000000000000000000000000000000000000000000000000600052603260045260246000fd5b7f4e487b7100000000000000000000000000000000000000000000000000000000600052604160045260246000fd5b600080fd5b600080fd5b600080fd5b600080fd5b600080fd5b600080fd5b6000601f19601f8301169050919050565b7f616464726573732073686f756c6420626520617574686f72697a656400000000600082015250565b7f455243373231456e756d657261626c653a206f776e657220696e646578206f7560008201527f74206f6620626f756e6473000000000000000000000000000000000000000000602082015250565b7f4552433732313a207472616e7366657220746f206e6f6e20455243373231526560008201527f63656976657220696d706c656d656e7465720000000000000000000000000000602082015250565b7f73686f756c6420617070726f766520746f6b656e496420666972737400000000600082015250565b7f4f776e61626c653a206e6577206f776e657220697320746865207a65726f206160008201527f6464726573730000000000000000000000000000000000000000000000000000602082015250565b7f4552433732313a207472616e736665722066726f6d20696e636f72726563742060008201527f6f776e6572000000000000000000000000000000000000000000000000000000602082015250565b7f4552433732313a20746f6b656e20616c7265616479206d696e74656400000000600082015250565b7f4552433732313a207472616e7366657220746f20746865207a65726f2061646460008201527f7265737300000000000000000000000000000000000000000000000000000000602082015250565b7f4552433732313a20617070726f766520746f2063616c6c657200000000000000600082015250565b7f73686f756c64206f776e20746f6b656e49640000000000000000000000000000600082015250565b7f4552433732313a2061646472657373207a65726f206973206e6f74206120766160008201527f6c6964206f776e65720000000000000000000000000000000000000000000000602082015250565b7f6164647265737320616c726561647920617574686f72697a6564000000000000600082015250565b7f4552433732313a20617070726f76652063616c6c6572206973206e6f7420746f60008201527f6b656e206f776e6572206e6f7220617070726f76656420666f7220616c6c0000602082015250565b7f4552433732313a206d696e7420746f20746865207a65726f2061646472657373600082015250565b7f4f776e61626c653a2063616c6c6572206973206e6f7420746865206f776e6572600082015250565b7f73686f756c642062652074686520746f6b656e206f776e657200000000000000600082015250565b7f4552433732313a20696e76616c696420746f6b656e2049440000000000000000600082015250565b7f4552433732313a20617070726f76616c20746f2063757272656e74206f776e6560008201527f7200000000000000000000000000000000000000000000000000000000000000602082015250565b7f455243373231456e756d657261626c653a20676c6f62616c20696e646578206f60008201527f7574206f6620626f756e64730000000000000000000000000000000000000000602082015250565b7f4552433732313a2063616c6c6572206973206e6f7420746f6b656e206f776e6560008201527f72206e6f7220617070726f766564000000000000000000000000000000000000602082015250565b614c1a81614504565b8114614c2557600080fd5b50565b614c3181614516565b8114614c3c57600080fd5b50565b614c4881614522565b8114614c5357600080fd5b50565b614c5f8161456e565b8114614c6a57600080fd5b5056fea264697066735822122097a3ac6e68e712c084e4a3173eb1d52c9d9ae9c31bab35f9e820b139dda6cdd864736f6c63430008050033a2646970667358221220175ab827fb71c7879d7b30091e0142c936bc56669c5b92ac2708cf399dd8a66864736f6c63430008050033",
  "linkReferences": {},
  "deployedLinkReferences": {}
}