{
  "_format": "hh-sol-artifact-1",
  "contractName": "ERC721WRegistry",
  "sourceName": "contracts/ERC721WRegistry.sol",
  "abi": [
    {
      "inputs": [
        {
          "internalType": "address",
          "name": "wrapped",
          "type": "address"
        }
      ],
      "name": "createERC721wContract",
      "outputs": [],
      "stateMutability": "nonpayable",
      "type": "function"
    },
    {
      "inputs": [
        {
          "internalType": "address",
          "name": "wrapped",
          "type": "address"
        }
      ],
      "name": "getERC721wAddressFor",
      "outputs": [
        {
          "internalType": "address",
          "name": "",
          "type": "address"
        }
      ],
      "stateMutability": "view",
      "type": "function"
    },
    {
      "inputs": [],
      "name": "getWrappedContracts",
      "outputs": [
        {
          "internalType": "address[]",
          "name": "",
          "type": "address[]"
        }
      ],
      "stateMutability": "view",
      "type": "function"
    }
  ],
  "bytecode": "0x608060405234801561001057600080fd5b506146f5806100206000396000f3fe60806040523480156200001157600080fd5b5060043610620000465760003560e01c806343c9ac60146200004b5780634788717a146200008c578063bc92380414620000a5575b600080fd5b620000626200005c366004620007ab565b620000be565b60405173ffffffffffffffffffffffffffffffffffffffff90911681526020015b60405180910390f35b620000a36200009d366004620007ab565b62000180565b005b620000af62000671565b60405162000083919062000955565b73ffffffffffffffffffffffffffffffffffffffff81811660009081526002602052604081205490911662000154576040517f08c379a000000000000000000000000000000000000000000000000000000000815260206004820152601f60248201527f70726f76696465642061646472657373206973206e6f7420777261707065640060448201526064015b60405180910390fd5b5073ffffffffffffffffffffffffffffffffffffffff9081166000908152600260205260409020541690565b73ffffffffffffffffffffffffffffffffffffffff818116600090815260026020526040902054161562000211576040517f08c379a000000000000000000000000000000000000000000000000000000000815260206004820152601660248201527f657263373231772061646472657373206578697374730000000000000000000060448201526064016200014b565b6040517f01ffc9a70000000000000000000000000000000000000000000000000000000081527f80ac58cd00000000000000000000000000000000000000000000000000000000600482015273ffffffffffffffffffffffffffffffffffffffff8216906301ffc9a79060240160206040518083038186803b1580156200029757600080fd5b505afa158015620002ac573d6000803e3d6000fd5b505050506040513d601f19601f82011682018060405250810190620002d29190620007e1565b6200033a576040517f08c379a000000000000000000000000000000000000000000000000000000000815260206004820152601360248201527f6e6f7420737570706f727420494552433732310000000000000000000000000060448201526064016200014b565b6040517f01ffc9a70000000000000000000000000000000000000000000000000000000081527f5b5e139f00000000000000000000000000000000000000000000000000000000600482015273ffffffffffffffffffffffffffffffffffffffff8216906301ffc9a79060240160206040518083038186803b158015620003c057600080fd5b505afa158015620003d5573d6000803e3d6000fd5b505050506040513d601f19601f82011682018060405250810190620003fb9190620007e1565b62000463576040517f08c379a000000000000000000000000000000000000000000000000000000000815260206004820152601b60248201527f6e6f7420737570706f727420494552433732314d65746164617461000000000060448201526064016200014b565b600081905060006200054e6040518060400160405280600881526020017f57726170706564200000000000000000000000000000000000000000000000008152508373ffffffffffffffffffffffffffffffffffffffff166306fdde036040518163ffffffff1660e01b815260040160006040518083038186803b158015620004eb57600080fd5b505afa15801562000500573d6000803e3d6000fd5b505050506040513d6000823e601f3d9081017fffffffffffffffffffffffffffffffffffffffffffffffffffffffffffffffe016820160405262000548919081019062000803565b62000684565b620005cf6040518060400160405280600181526020017f57000000000000000000000000000000000000000000000000000000000000008152508473ffffffffffffffffffffffffffffffffffffffff166395d89b416040518163ffffffff1660e01b815260040160006040518083038186803b158015620004eb57600080fd5b8433604051620005df906200079d565b620005ee9493929190620009b1565b604051809103906000f0801580156200060b573d6000803e3d6000fd5b5090506200061b600084620006b3565b5073ffffffffffffffffffffffffffffffffffffffff928316600090815260026020526040902080547fffffffffffffffffffffffff000000000000000000000000000000000000000016919093161790915550565b60606200067f6000620006de565b905090565b606082826040516020016200069b92919062000922565b60405160208183030381529060405290505b92915050565b6000620006d78373ffffffffffffffffffffffffffffffffffffffff8416620006ed565b9392505050565b60606000620006d7836200073f565b60008181526001830160205260408120546200073657508154600181810184556000848152602080822090930184905584548482528286019093526040902091909155620006ad565b506000620006ad565b6060816000018054806020026020016040519081016040528092919081815260200182805480156200079157602002820191906000526020600020905b8154815260200190600101908083116200077c575b50505050509050919050565b613c7a8062000a6f83390190565b600060208284031215620007bd578081fd5b813573ffffffffffffffffffffffffffffffffffffffff81168114620006d7578182fd5b600060208284031215620007f3578081fd5b81518015158114620006d7578182fd5b60006020828403121562000815578081fd5b815167ffffffffffffffff808211156200082d578283fd5b818401915084601f83011262000841578283fd5b81518181111562000856576200085662000a3f565b604051601f82017fffffffffffffffffffffffffffffffffffffffffffffffffffffffffffffffe0908116603f011681019083821181831017156200089f576200089f62000a3f565b81604052828152876020848701011115620008b8578586fd5b620008cb83602083016020880162000a0c565b979650505050505050565b60008151808452620008f081602086016020860162000a0c565b601f017fffffffffffffffffffffffffffffffffffffffffffffffffffffffffffffffe0169290920160200192915050565b600083516200093681846020880162000a0c565b8351908301906200094c81836020880162000a0c565b01949350505050565b6020808252825182820181905260009190848201906040850190845b81811015620009a557835173ffffffffffffffffffffffffffffffffffffffff168352928401929184019160010162000971565b50909695505050505050565b608081526000620009c66080830187620008d6565b8281036020840152620009da8187620008d6565b91505073ffffffffffffffffffffffffffffffffffffffff808516604084015280841660608401525095945050505050565b60005b8381101562000a2957818101518382015260200162000a0f565b8381111562000a39576000848401525b50505050565b7f4e487b7100000000000000000000000000000000000000000000000000000000600052604160045260246000fdfe60806040523480156200001157600080fd5b5060405162003c7a38038062003c7a833981016040819052620000349162000448565b8351849084906200004d906000906020850190620002a9565b50805162000063906001906020840190620002a9565b505050620000806200007a6200025360201b60201c565b62000257565b6040516301ffc9a760e01b81526380ac58cd60e01b60048201526001600160a01b038316906301ffc9a79060240160206040518083038186803b158015620000c757600080fd5b505afa158015620000dc573d6000803e3d6000fd5b505050506040513d601f19601f820116820180604052508101906200010291906200041f565b6200013e5760405162461bcd60e51b81526020600482015260076024820152664945524337323160c81b60448201526064015b60405180910390fd5b6040516301ffc9a760e01b8152635b5e139f60e01b60048201526001600160a01b038316906301ffc9a79060240160206040518083038186803b1580156200018557600080fd5b505afa1580156200019a573d6000803e3d6000fd5b505050506040513d601f19601f82011682018060405250810190620001c091906200041f565b6200020e5760405162461bcd60e51b815260206004820152601b60248201527f6e6f7420737570706f727420494552433732314d657461646174610000000000604482015260640162000135565b600b80546001600160a01b038085166001600160a01b031992831617909255600c805492841692909116919091179055620002498162000257565b5050505062000527565b3390565b600a80546001600160a01b038381166001600160a01b0319831681179093556040519116919082907f8be0079c531659141344cd1fd0a4f28419497f9722a3daafe3b4186f6b6457e090600090a35050565b828054620002b790620004d4565b90600052602060002090601f016020900481019282620002db576000855562000326565b82601f10620002f657805160ff191683800117855562000326565b8280016001018555821562000326579182015b828111156200032657825182559160200191906001019062000309565b506200033492915062000338565b5090565b5b8082111562000334576000815560010162000339565b80516001600160a01b03811681146200036757600080fd5b919050565b600082601f8301126200037d578081fd5b81516001600160401b03808211156200039a576200039a62000511565b604051601f8301601f19908116603f01168101908282118183101715620003c557620003c562000511565b81604052838152602092508683858801011115620003e1578485fd5b8491505b83821015620004045785820183015181830184015290820190620003e5565b838211156200041557848385830101525b9695505050505050565b60006020828403121562000431578081fd5b8151801515811462000441578182fd5b9392505050565b600080600080608085870312156200045e578283fd5b84516001600160401b038082111562000475578485fd5b62000483888389016200036c565b9550602087015191508082111562000499578485fd5b50620004a8878288016200036c565b935050620004b9604086016200034f565b9150620004c9606086016200034f565b905092959194509250565b600181811c90821680620004e957607f821691505b602082108114156200050b57634e487b7160e01b600052602260045260246000fd5b50919050565b634e487b7160e01b600052604160045260246000fd5b61374380620005376000396000f3fe608060405234801561001057600080fd5b50600436106101e55760003560e01c806370a082311161010f578063c87b56dd116100a2578063de0e9a3e11610071578063de0e9a3e14610471578063e985e9c514610484578063ea598cb0146104cd578063f2fde38b146104e057600080fd5b8063c87b56dd14610425578063cf367f8414610438578063cfc3ac921461044b578063d0ade91b1461045e57600080fd5b806395d89b41116100de57806395d89b41146103e4578063a22cb465146103ec578063b88d4fde146103ff578063c3612ef71461041257600080fd5b806370a082311461038b578063715018a61461039e578063715dbaf2146103a65780638da5cb5b146103c657600080fd5b806318160ddd116101875780634f6ccce7116101565780634f6ccce714610334578063543e41c914610347578063580479131461035a5780636352211e1461037857600080fd5b806318160ddd146102e957806323b872dd146102fb5780632f745c591461030e57806342842e0e1461032157600080fd5b8063081812fc116101c3578063081812fc1461023a578063095ea7b3146102725780630ee2cb1014610287578063150b7a02146102a557600080fd5b806301ffc9a7146101ea57806306fdde03146102125780630754b2cc14610227575b600080fd5b6101fd6101f8366004613240565b6104f3565b60405190151581526020015b60405180910390f35b61021a6105e7565b604051610209919061348b565b61021a610235366004613303565b610679565b61024d6102483660046132eb565b61073d565b60405173ffffffffffffffffffffffffffffffffffffffff9091168152602001610209565b610285610280366004613215565b61081c565b005b600c5473ffffffffffffffffffffffffffffffffffffffff1661024d565b6102b86102b336600461313d565b6109a9565b6040517fffffffff000000000000000000000000000000000000000000000000000000009091168152602001610209565b6008545b604051908152602001610209565b6102856103093660046130fd565b6109d3565b6102ed61031c366004613215565b610a74565b61028561032f3660046130fd565b610b43565b6102ed6103423660046132eb565b610b5e565b6102856103553660046132eb565b610c43565b600b5473ffffffffffffffffffffffffffffffffffffffff1661024d565b61024d6103863660046132eb565b610eba565b6102ed61039936600461308d565b610f6c565b61028561103a565b6103b96103b43660046132eb565b6110c7565b6040516102099190613431565b600a5473ffffffffffffffffffffffffffffffffffffffff1661024d565b61021a6110e1565b6102856103fa3660046131e4565b6110f0565b61028561040d36600461313d565b6110fb565b610285610420366004613303565b6111a3565b61021a6104333660046132eb565b6112dd565b6101fd610446366004613303565b6113a2565b610285610459366004613303565b6113c1565b61028561046c366004613327565b6114e8565b61028561047f3660046132eb565b61160c565b6101fd6104923660046130c5565b73ffffffffffffffffffffffffffffffffffffffff918216600090815260056020908152604080832093909416825291909152205460ff1690565b6102856104db3660046132eb565b6117b5565b6102856104ee36600461308d565b611b4f565b60007fffffffff0000000000000000000000000000000000000000000000000000000082167f80ac58cd00000000000000000000000000000000000000000000000000000000148061058657507fffffffff0000000000000000000000000000000000000000000000000000000082167f150b7a0200000000000000000000000000000000000000000000000000000000145b806105d257507fffffffff0000000000000000000000000000000000000000000000000000000082167f780e9d6300000000000000000000000000000000000000000000000000000000145b806105e157506105e182611c7f565b92915050565b6060600080546105f690613634565b80601f016020809104026020016040519081016040528092919081815260200182805461062290613634565b801561066f5780601f106106445761010080835404028352916020019161066f565b820191906000526020600020905b81548152906001019060200180831161065257829003601f168201915b5050505050905090565b6000828152600e6020908152604080832073ffffffffffffffffffffffffffffffffffffffff8516845290915290208054606091906106b790613634565b80601f01602080910402602001604051908101604052809291908181526020018280546106e390613634565b80156107305780601f1061070557610100808354040283529160200191610730565b820191906000526020600020905b81548152906001019060200180831161071357829003601f168201915b5050505050905092915050565b60008181526002602052604081205473ffffffffffffffffffffffffffffffffffffffff166107f3576040517f08c379a000000000000000000000000000000000000000000000000000000000815260206004820152602c60248201527f4552433732313a20617070726f76656420717565727920666f72206e6f6e657860448201527f697374656e7420746f6b656e000000000000000000000000000000000000000060648201526084015b60405180910390fd5b5060009081526004602052604090205473ffffffffffffffffffffffffffffffffffffffff1690565b600061082782610eba565b90508073ffffffffffffffffffffffffffffffffffffffff168373ffffffffffffffffffffffffffffffffffffffff1614156108e5576040517f08c379a000000000000000000000000000000000000000000000000000000000815260206004820152602160248201527f4552433732313a20617070726f76616c20746f2063757272656e74206f776e6560448201527f720000000000000000000000000000000000000000000000000000000000000060648201526084016107ea565b3373ffffffffffffffffffffffffffffffffffffffff8216148061090e575061090e8133610492565b61099a576040517f08c379a000000000000000000000000000000000000000000000000000000000815260206004820152603860248201527f4552433732313a20617070726f76652063616c6c6572206973206e6f74206f7760448201527f6e6572206e6f7220617070726f76656420666f7220616c6c000000000000000060648201526084016107ea565b6109a48383611cd5565b505050565b7f150b7a02000000000000000000000000000000000000000000000000000000005b949350505050565b6109dd3382611d75565b610a69576040517f08c379a000000000000000000000000000000000000000000000000000000000815260206004820152603160248201527f4552433732313a207472616e736665722063616c6c6572206973206e6f74206f60448201527f776e6572206e6f7220617070726f76656400000000000000000000000000000060648201526084016107ea565b6109a4838383611ee1565b6000610a7f83610f6c565b8210610b0d576040517f08c379a000000000000000000000000000000000000000000000000000000000815260206004820152602b60248201527f455243373231456e756d657261626c653a206f776e657220696e646578206f7560448201527f74206f6620626f756e647300000000000000000000000000000000000000000060648201526084016107ea565b5073ffffffffffffffffffffffffffffffffffffffff919091166000908152600660209081526040808320938352929052205490565b6109a4838383604051806020016040528060008152506110fb565b6000610b6960085490565b8210610bf7576040517f08c379a000000000000000000000000000000000000000000000000000000000815260206004820152602c60248201527f455243373231456e756d657261626c653a20676c6f62616c20696e646578206f60448201527f7574206f6620626f756e6473000000000000000000000000000000000000000060648201526084016107ea565b60088281548110610c31577f4e487b7100000000000000000000000000000000000000000000000000000000600052603260045260246000fd5b90600052602060002001549050919050565b80610c4d81610eba565b73ffffffffffffffffffffffffffffffffffffffff163373ffffffffffffffffffffffffffffffffffffffff1614610ce1576040517f08c379a000000000000000000000000000000000000000000000000000000000815260206004820152601960248201527f73686f756c642062652074686520746f6b656e206f776e65720000000000000060448201526064016107ea565b6000828152600d60205260408120600190610cfb90612153565b610d0591906135bc565b90505b8015610ddb576000838152600d60205260408120610d26908361215d565b6000858152600d60205260409020909150610d419082612169565b506000848152600e6020908152604080832073ffffffffffffffffffffffffffffffffffffffff851684529091528120610d7a91612f9c565b6040805185815273ffffffffffffffffffffffffffffffffffffffff831660208201527fb5941f6e357083b6bcaa8e6b7ae8cc1fe09249dd08844a1b6d621170d58c69e4910160405180910390a15080610dd3816135ff565b915050610d08565b506000828152600d60205260408120610df390612153565b1115610eb6576000828152600d60205260408120610e11908261215d565b6000848152600d60205260409020909150610e2c9082612169565b506000838152600e6020908152604080832073ffffffffffffffffffffffffffffffffffffffff851684529091528120610e6591612f9c565b6040805184815273ffffffffffffffffffffffffffffffffffffffff831660208201527fb5941f6e357083b6bcaa8e6b7ae8cc1fe09249dd08844a1b6d621170d58c69e491015b60405180910390a1505b5050565b60008181526002602052604081205473ffffffffffffffffffffffffffffffffffffffff16806105e1576040517f08c379a000000000000000000000000000000000000000000000000000000000815260206004820152602960248201527f4552433732313a206f776e657220717565727920666f72206e6f6e657869737460448201527f656e7420746f6b656e000000000000000000000000000000000000000000000060648201526084016107ea565b600073ffffffffffffffffffffffffffffffffffffffff8216611011576040517f08c379a000000000000000000000000000000000000000000000000000000000815260206004820152602a60248201527f4552433732313a2062616c616e636520717565727920666f7220746865207a6560448201527f726f20616464726573730000000000000000000000000000000000000000000060648201526084016107ea565b5073ffffffffffffffffffffffffffffffffffffffff1660009081526003602052604090205490565b600a5473ffffffffffffffffffffffffffffffffffffffff1633146110bb576040517f08c379a000000000000000000000000000000000000000000000000000000000815260206004820181905260248201527f4f776e61626c653a2063616c6c6572206973206e6f7420746865206f776e657260448201526064016107ea565b6110c5600061218b565b565b6000818152600d602052604090206060906105e190612202565b6060600180546105f690613634565b610eb633838361220f565b6111053383611d75565b611191576040517f08c379a000000000000000000000000000000000000000000000000000000000815260206004820152603160248201527f4552433732313a207472616e736665722063616c6c6572206973206e6f74206f60448201527f776e6572206e6f7220617070726f76656400000000000000000000000000000060648201526084016107ea565b61119d8484848461233d565b50505050565b816111ad81610eba565b73ffffffffffffffffffffffffffffffffffffffff163373ffffffffffffffffffffffffffffffffffffffff1614611241576040517f08c379a000000000000000000000000000000000000000000000000000000000815260206004820152601960248201527f73686f756c642062652074686520746f6b656e206f776e65720000000000000060448201526064016107ea565b6000838152600d602052604090206112599083612169565b506000838152600e6020908152604080832073ffffffffffffffffffffffffffffffffffffffff86168452909152812061129291612f9c565b6040805184815273ffffffffffffffffffffffffffffffffffffffff841660208201527fb5941f6e357083b6bcaa8e6b7ae8cc1fe09249dd08844a1b6d621170d58c69e49101610eac565b600b546040517fc87b56dd0000000000000000000000000000000000000000000000000000000081526004810183905260609173ffffffffffffffffffffffffffffffffffffffff169063c87b56dd9060240160006040518083038186803b15801561134857600080fd5b505afa15801561135c573d6000803e3d6000fd5b505050506040513d6000823e601f3d9081017fffffffffffffffffffffffffffffffffffffffffffffffffffffffffffffffe01682016040526105e19190810190613278565b6000828152600d602052604081206113ba90836123e0565b9392505050565b816113cb81610eba565b73ffffffffffffffffffffffffffffffffffffffff163373ffffffffffffffffffffffffffffffffffffffff161461145f576040517f08c379a000000000000000000000000000000000000000000000000000000000815260206004820152601960248201527f73686f756c642062652074686520746f6b656e206f776e65720000000000000060448201526064016107ea565b6000838152600d6020526040902061147790836123e0565b156114de576040517f08c379a000000000000000000000000000000000000000000000000000000000815260206004820152601a60248201527f6164647265737320616c726561647920617574686f72697a656400000000000060448201526064016107ea565b6109a4838361240f565b826114f281610eba565b73ffffffffffffffffffffffffffffffffffffffff163373ffffffffffffffffffffffffffffffffffffffff16148061153e575061153e336000838152600d60205260409020906123e0565b6115a4576040517f08c379a000000000000000000000000000000000000000000000000000000000815260206004820152601c60248201527f616464726573732073686f756c6420626520617574686f72697a65640000000060448201526064016107ea565b6000848152600e6020908152604080832033845290915290206115c8908484612fd6565b507f3861e85a43f9ffebd047ed00860b7c5e4248d52895f611df7877c826ce5d2290843385856040516115fe949392919061349e565b60405180910390a150505050565b8061161681610eba565b73ffffffffffffffffffffffffffffffffffffffff163373ffffffffffffffffffffffffffffffffffffffff16146116aa576040517f08c379a000000000000000000000000000000000000000000000000000000000815260206004820152601960248201527f73686f756c642062652074686520746f6b656e206f776e65720000000000000060448201526064016107ea565b600b5473ffffffffffffffffffffffffffffffffffffffff166342842e0e30336040517fffffffff0000000000000000000000000000000000000000000000000000000060e085901b16815273ffffffffffffffffffffffffffffffffffffffff92831660048201529116602482015260448101859052606401600060405180830381600087803b15801561173e57600080fd5b505af1158015611752573d6000803e3d6000fd5b5050506000838152600d6020526040902061176d9150612153565b1561177b5761177b82610c43565b611786333084610b43565b60405182907ff8e2f293d64778cfbd2b86729cb73ee6e080d780d9334368c8ab78474fc8212090600090a25050565b33600b546040517f6352211e0000000000000000000000000000000000000000000000000000000081526004810184905273ffffffffffffffffffffffffffffffffffffffff9283169290911690636352211e9060240160206040518083038186803b15801561182457600080fd5b505afa158015611838573d6000803e3d6000fd5b505050506040513d601f19601f8201168201806040525081019061185c91906130a9565b73ffffffffffffffffffffffffffffffffffffffff16146118d9576040517f08c379a000000000000000000000000000000000000000000000000000000000815260206004820152601260248201527f73686f756c64206f776e20746f6b656e4964000000000000000000000000000060448201526064016107ea565b600b546040517f081812fc00000000000000000000000000000000000000000000000000000000815260048101839052309173ffffffffffffffffffffffffffffffffffffffff169063081812fc9060240160206040518083038186803b15801561194357600080fd5b505afa158015611957573d6000803e3d6000fd5b505050506040513d601f19601f8201168201806040525081019061197b91906130a9565b73ffffffffffffffffffffffffffffffffffffffff16146119f8576040517f08c379a000000000000000000000000000000000000000000000000000000000815260206004820152601c60248201527f73686f756c6420617070726f766520746f6b656e49642066697273740000000060448201526064016107ea565b600b5473ffffffffffffffffffffffffffffffffffffffff166342842e0e336040517fffffffff0000000000000000000000000000000000000000000000000000000060e084901b16815273ffffffffffffffffffffffffffffffffffffffff909116600482015230602482015260448101849052606401600060405180830381600087803b158015611a8a57600080fd5b505af1158015611a9e573d6000803e3d6000fd5b50505060008281526002602052604090205473ffffffffffffffffffffffffffffffffffffffff161580159150611af2575030611ada82610eba565b73ffffffffffffffffffffffffffffffffffffffff16145b15611b1757611b123033836040518060200160405280600081525061233d565b611b21565b611b21338261247a565b60405181907fbbd8046f2003b15c5e4858368dad2435a58ae1e6b8e64b8edab81490292e339590600090a250565b600a5473ffffffffffffffffffffffffffffffffffffffff163314611bd0576040517f08c379a000000000000000000000000000000000000000000000000000000000815260206004820181905260248201527f4f776e61626c653a2063616c6c6572206973206e6f7420746865206f776e657260448201526064016107ea565b73ffffffffffffffffffffffffffffffffffffffff8116611c73576040517f08c379a000000000000000000000000000000000000000000000000000000000815260206004820152602660248201527f4f776e61626c653a206e6577206f776e657220697320746865207a65726f206160448201527f646472657373000000000000000000000000000000000000000000000000000060648201526084016107ea565b611c7c8161218b565b50565b60007fffffffff0000000000000000000000000000000000000000000000000000000082167f780e9d630000000000000000000000000000000000000000000000000000000014806105e157506105e182612494565b600081815260046020526040902080547fffffffffffffffffffffffff00000000000000000000000000000000000000001673ffffffffffffffffffffffffffffffffffffffff84169081179091558190611d2f82610eba565b73ffffffffffffffffffffffffffffffffffffffff167f8c5be1e5ebec7d5bd14f71427d1e84f3dd0314c0f7b2291e5b200ac8c7c3b92560405160405180910390a45050565b60008181526002602052604081205473ffffffffffffffffffffffffffffffffffffffff16611e26576040517f08c379a000000000000000000000000000000000000000000000000000000000815260206004820152602c60248201527f4552433732313a206f70657261746f7220717565727920666f72206e6f6e657860448201527f697374656e7420746f6b656e000000000000000000000000000000000000000060648201526084016107ea565b6000611e3183610eba565b90508073ffffffffffffffffffffffffffffffffffffffff168473ffffffffffffffffffffffffffffffffffffffff161480611ea057508373ffffffffffffffffffffffffffffffffffffffff16611e888461073d565b73ffffffffffffffffffffffffffffffffffffffff16145b806109cb575073ffffffffffffffffffffffffffffffffffffffff80821660009081526005602090815260408083209388168352929052205460ff166109cb565b8273ffffffffffffffffffffffffffffffffffffffff16611f0182610eba565b73ffffffffffffffffffffffffffffffffffffffff1614611fa4576040517f08c379a000000000000000000000000000000000000000000000000000000000815260206004820152602560248201527f4552433732313a207472616e736665722066726f6d20696e636f72726563742060448201527f6f776e657200000000000000000000000000000000000000000000000000000060648201526084016107ea565b73ffffffffffffffffffffffffffffffffffffffff8216612046576040517f08c379a0000000000000000000000000000000000000000000000000000000008152602060048201526024808201527f4552433732313a207472616e7366657220746f20746865207a65726f2061646460448201527f726573730000000000000000000000000000000000000000000000000000000060648201526084016107ea565b612051838383612577565b61205c600082611cd5565b73ffffffffffffffffffffffffffffffffffffffff831660009081526003602052604081208054600192906120929084906135bc565b909155505073ffffffffffffffffffffffffffffffffffffffff821660009081526003602052604081208054600192906120cd9084906135a4565b909155505060008181526002602052604080822080547fffffffffffffffffffffffff00000000000000000000000000000000000000001673ffffffffffffffffffffffffffffffffffffffff86811691821790925591518493918716917fddf252ad1be2c89b69c2b068fc378daa952ba7f163c4a11628f55a4df523b3ef91a4505050565b60006105e1825490565b60006113ba838361267d565b60006113ba8373ffffffffffffffffffffffffffffffffffffffff84166126ce565b600a805473ffffffffffffffffffffffffffffffffffffffff8381167fffffffffffffffffffffffff0000000000000000000000000000000000000000831681179093556040519116919082907f8be0079c531659141344cd1fd0a4f28419497f9722a3daafe3b4186f6b6457e090600090a35050565b606060006113ba83612836565b8173ffffffffffffffffffffffffffffffffffffffff168373ffffffffffffffffffffffffffffffffffffffff1614156122a5576040517f08c379a000000000000000000000000000000000000000000000000000000000815260206004820152601960248201527f4552433732313a20617070726f766520746f2063616c6c65720000000000000060448201526064016107ea565b73ffffffffffffffffffffffffffffffffffffffff83811660008181526005602090815260408083209487168084529482529182902080547fffffffffffffffffffffffffffffffffffffffffffffffffffffffffffffff001686151590811790915591519182527f17307eab39ab6107e8899845ad3d59bd9653f200f220920489ca2b5937696c31910160405180910390a3505050565b612348848484611ee1565b61235484848484612892565b61119d576040517f08c379a000000000000000000000000000000000000000000000000000000000815260206004820152603260248201527f4552433732313a207472616e7366657220746f206e6f6e20455243373231526560448201527f63656976657220696d706c656d656e746572000000000000000000000000000060648201526084016107ea565b73ffffffffffffffffffffffffffffffffffffffff8116600090815260018301602052604081205415156113ba565b6000828152600d602052604090206124279082612a8e565b506040805183815273ffffffffffffffffffffffffffffffffffffffff831660208201527fb6aac9d4aca74cc3c9b6f10668821ed9e7c5736feeb673bbbbd8b295ba2c5936910160405180910390a15050565b610eb6828260405180602001604052806000815250612ab0565b60007fffffffff0000000000000000000000000000000000000000000000000000000082167f80ac58cd00000000000000000000000000000000000000000000000000000000148061252757507fffffffff0000000000000000000000000000000000000000000000000000000082167f5b5e139f00000000000000000000000000000000000000000000000000000000145b806105e157507f01ffc9a7000000000000000000000000000000000000000000000000000000007fffffffff000000000000000000000000000000000000000000000000000000008316146105e1565b73ffffffffffffffffffffffffffffffffffffffff83166125df576125da81600880546000838152600960205260408120829055600182018355919091527ff3f7a9fe364faab93b216da50a3214154f22a0a2b415b23a84c8169e8b636ee30155565b61261c565b8173ffffffffffffffffffffffffffffffffffffffff168373ffffffffffffffffffffffffffffffffffffffff161461261c5761261c8382612b53565b73ffffffffffffffffffffffffffffffffffffffff8216612640576109a481612c0a565b8273ffffffffffffffffffffffffffffffffffffffff168273ffffffffffffffffffffffffffffffffffffffff16146109a4576109a48282612d2e565b60008260000182815481106126bb577f4e487b7100000000000000000000000000000000000000000000000000000000600052603260045260246000fd5b9060005260206000200154905092915050565b6000818152600183016020526040812054801561282c5760006126f26001836135bc565b8554909150600090612706906001906135bc565b90508181146127b957600086600001828154811061274d577f4e487b7100000000000000000000000000000000000000000000000000000000600052603260045260246000fd5b9060005260206000200154905080876000018481548110612797577f4e487b7100000000000000000000000000000000000000000000000000000000600052603260045260246000fd5b6000918252602080832090910192909255918252600188019052604090208390555b85548690806127f1577f4e487b7100000000000000000000000000000000000000000000000000000000600052603160045260246000fd5b6001900381819060005260206000200160009055905585600101600086815260200190815260200160002060009055600193505050506105e1565b60009150506105e1565b60608160000180548060200260200160405190810160405280929190818152602001828054801561288657602002820191906000526020600020905b815481526020019060010190808311612872575b50505050509050919050565b600073ffffffffffffffffffffffffffffffffffffffff84163b15612a86576040517f150b7a0200000000000000000000000000000000000000000000000000000000815273ffffffffffffffffffffffffffffffffffffffff85169063150b7a02906129099033908990889088906004016133e8565b602060405180830381600087803b15801561292357600080fd5b505af1925050508015612971575060408051601f3d9081017fffffffffffffffffffffffffffffffffffffffffffffffffffffffffffffffe016820190925261296e9181019061325c565b60015b612a3b573d80801561299f576040519150601f19603f3d011682016040523d82523d6000602084013e6129a4565b606091505b508051612a33576040517f08c379a000000000000000000000000000000000000000000000000000000000815260206004820152603260248201527f4552433732313a207472616e7366657220746f206e6f6e20455243373231526560448201527f63656976657220696d706c656d656e746572000000000000000000000000000060648201526084016107ea565b805181602001fd5b7fffffffff00000000000000000000000000000000000000000000000000000000167f150b7a02000000000000000000000000000000000000000000000000000000001490506109cb565b5060016109cb565b60006113ba8373ffffffffffffffffffffffffffffffffffffffff8416612d7f565b612aba8383612dce565b612ac76000848484612892565b6109a4576040517f08c379a000000000000000000000000000000000000000000000000000000000815260206004820152603260248201527f4552433732313a207472616e7366657220746f206e6f6e20455243373231526560448201527f63656976657220696d706c656d656e746572000000000000000000000000000060648201526084016107ea565b60006001612b6084610f6c565b612b6a91906135bc565b600083815260076020526040902054909150808214612bca5773ffffffffffffffffffffffffffffffffffffffff841660009081526006602090815260408083208584528252808320548484528184208190558352600790915290208190555b50600091825260076020908152604080842084905573ffffffffffffffffffffffffffffffffffffffff9094168352600681528383209183525290812055565b600854600090612c1c906001906135bc565b60008381526009602052604081205460088054939450909284908110612c6b577f4e487b7100000000000000000000000000000000000000000000000000000000600052603260045260246000fd5b906000526020600020015490508060088381548110612cb3577f4e487b7100000000000000000000000000000000000000000000000000000000600052603260045260246000fd5b6000918252602080832090910192909255828152600990915260408082208490558582528120556008805480612d12577f4e487b7100000000000000000000000000000000000000000000000000000000600052603160045260246000fd5b6001900381819060005260206000200160009055905550505050565b6000612d3983610f6c565b73ffffffffffffffffffffffffffffffffffffffff9093166000908152600660209081526040808320868452825280832085905593825260079052919091209190915550565b6000818152600183016020526040812054612dc6575081546001818101845560008481526020808220909301849055845484825282860190935260409020919091556105e1565b5060006105e1565b73ffffffffffffffffffffffffffffffffffffffff8216612e4b576040517f08c379a000000000000000000000000000000000000000000000000000000000815260206004820181905260248201527f4552433732313a206d696e7420746f20746865207a65726f206164647265737360448201526064016107ea565b60008181526002602052604090205473ffffffffffffffffffffffffffffffffffffffff1615612ed7576040517f08c379a000000000000000000000000000000000000000000000000000000000815260206004820152601c60248201527f4552433732313a20746f6b656e20616c7265616479206d696e7465640000000060448201526064016107ea565b612ee360008383612577565b73ffffffffffffffffffffffffffffffffffffffff82166000908152600360205260408120805460019290612f199084906135a4565b909155505060008181526002602052604080822080547fffffffffffffffffffffffff00000000000000000000000000000000000000001673ffffffffffffffffffffffffffffffffffffffff861690811790915590518392907fddf252ad1be2c89b69c2b068fc378daa952ba7f163c4a11628f55a4df523b3ef908290a45050565b508054612fa890613634565b6000825580601f10612fb8575050565b601f016020900490600052602060002090810190611c7c9190613078565b828054612fe290613634565b90600052602060002090601f0160209004810192826130045760008555613068565b82601f1061303b578280017fffffffffffffffffffffffffffffffffffffffffffffffffffffffffffffff00823516178555613068565b82800160010185558215613068579182015b8281111561306857823582559160200191906001019061304d565b50613074929150613078565b5090565b5b808211156130745760008155600101613079565b60006020828403121561309e578081fd5b81356113ba816136e6565b6000602082840312156130ba578081fd5b81516113ba816136e6565b600080604083850312156130d7578081fd5b82356130e2816136e6565b915060208301356130f2816136e6565b809150509250929050565b600080600060608486031215613111578081fd5b833561311c816136e6565b9250602084013561312c816136e6565b929592945050506040919091013590565b60008060008060808587031215613152578081fd5b843561315d816136e6565b9350602085013561316d816136e6565b925060408501359150606085013567ffffffffffffffff81111561318f578182fd5b8501601f8101871361319f578182fd5b80356131b26131ad8261355e565b61350f565b8181528860208385010111156131c6578384fd5b81602084016020830137908101602001929092525092959194509250565b600080604083850312156131f6578182fd5b8235613201816136e6565b9150602083013580151581146130f2578182fd5b60008060408385031215613227578182fd5b8235613232816136e6565b946020939093013593505050565b600060208284031215613251578081fd5b81356113ba81613708565b60006020828403121561326d578081fd5b81516113ba81613708565b600060208284031215613289578081fd5b815167ffffffffffffffff81111561329f578182fd5b8201601f810184136132af578182fd5b80516132bd6131ad8261355e565b8181528560208385010111156132d1578384fd5b6132e28260208301602086016135d3565b95945050505050565b6000602082840312156132fc578081fd5b5035919050565b60008060408385031215613315578182fd5b8235915060208301356130f2816136e6565b60008060006040848603121561333b578283fd5b83359250602084013567ffffffffffffffff80821115613359578384fd5b818601915086601f83011261336c578384fd5b81358181111561337a578485fd5b87602082850101111561338b578485fd5b6020830194508093505050509250925092565b600081518084526133b68160208601602086016135d3565b601f017fffffffffffffffffffffffffffffffffffffffffffffffffffffffffffffffe0169290920160200192915050565b600073ffffffffffffffffffffffffffffffffffffffff808716835280861660208401525083604083015260806060830152613427608083018461339e565b9695505050505050565b6020808252825182820181905260009190848201906040850190845b8181101561347f57835173ffffffffffffffffffffffffffffffffffffffff168352928401929184019160010161344d565b50909695505050505050565b6020815260006113ba602083018461339e565b84815273ffffffffffffffffffffffffffffffffffffffff8416602082015260606040820152816060820152818360808301376000818301608090810191909152601f9092017fffffffffffffffffffffffffffffffffffffffffffffffffffffffffffffffe01601019392505050565b604051601f82017fffffffffffffffffffffffffffffffffffffffffffffffffffffffffffffffe016810167ffffffffffffffff81118282101715613556576135566136b7565b604052919050565b600067ffffffffffffffff821115613578576135786136b7565b50601f017fffffffffffffffffffffffffffffffffffffffffffffffffffffffffffffffe01660200190565b600082198211156135b7576135b7613688565b500190565b6000828210156135ce576135ce613688565b500390565b60005b838110156135ee5781810151838201526020016135d6565b8381111561119d5750506000910152565b60008161360e5761360e613688565b507fffffffffffffffffffffffffffffffffffffffffffffffffffffffffffffffff0190565b600181811c9082168061364857607f821691505b60208210811415613682577f4e487b7100000000000000000000000000000000000000000000000000000000600052602260045260246000fd5b50919050565b7f4e487b7100000000000000000000000000000000000000000000000000000000600052601160045260246000fd5b7f4e487b7100000000000000000000000000000000000000000000000000000000600052604160045260246000fd5b73ffffffffffffffffffffffffffffffffffffffff81168114611c7c57600080fd5b7fffffffff0000000000000000000000000000000000000000000000000000000081168114611c7c57600080fdfea164736f6c6343000804000aa164736f6c6343000804000a",
  "linkReferences": {},
  "deployedLinkReferences": {}
}