{
  "_format": "hh-sol-artifact-1",
  "contractName": "TestingERC721Contract",
  "sourceName": "contracts/TestingERC721Contract.sol",
  "abi": [
    {
      "inputs": [],
      "stateMutability": "nonpayable",
      "type": "constructor"
    },
    {
      "anonymous": false,
      "inputs": [
        {
          "indexed": true,
          "internalType": "address",
          "name": "owner",
          "type": "address"
        },
        {
          "indexed": true,
          "internalType": "address",
          "name": "approved",
          "type": "address"
        },
        {
          "indexed": true,
          "internalType": "uint256",
          "name": "tokenId",
          "type": "uint256"
        }
      ],
      "name": "Approval",
      "type": "event"
    },
    {
      "anonymous": false,
      "inputs": [
        {
          "indexed": true,
          "internalType": "address",
          "name": "owner",
          "type": "address"
        },
        {
          "indexed": true,
          "internalType": "address",
          "name": "operator",
          "type": "address"
        },
        {
          "indexed": false,
          "internalType": "bool",
          "name": "approved",
          "type": "bool"
        }
      ],
      "name": "ApprovalForAll",
      "type": "event"
    },
    {
      "anonymous": false,
      "inputs": [
        {
          "indexed": true,
          "internalType": "address",
          "name": "from",
          "type": "address"
        },
        {
          "indexed": true,
          "internalType": "address",
          "name": "to",
          "type": "address"
        },
        {
          "indexed": true,
          "internalType": "uint256",
          "name": "tokenId",
          "type": "uint256"
        }
      ],
      "name": "Transfer",
      "type": "event"
    },
    {
      "inputs": [
        {
          "internalType": "address",
          "name": "to",
          "type": "address"
        },
        {
          "internalType": "uint256",
          "name": "tokenId",
          "type": "uint256"
        }
      ],
      "name": "approve",
      "outputs": [],
      "stateMutability": "nonpayable",
      "type": "function"
    },
    {
      "inputs": [
        {
          "internalType": "address",
          "name": "owner",
          "type": "address"
        }
      ],
      "name": "balanceOf",
      "outputs": [
        {
          "internalType": "uint256",
          "name": "",
          "type": "uint256"
        }
      ],
      "stateMutability": "view",
      "type": "function"
    },
    {
      "inputs": [],
      "name": "contractURI",
      "outputs": [
        {
          "internalType": "string",
          "name": "",
          "type": "string"
        }
      ],
      "stateMutability": "view",
      "type": "function"
    },
    {
      "inputs": [
        {
          "internalType": "uint256",
          "name": "tokenId",
          "type": "uint256"
        }
      ],
      "name": "getApproved",
      "outputs": [
        {
          "internalType": "address",
          "name": "",
          "type": "address"
        }
      ],
      "stateMutability": "view",
      "type": "function"
    },
    {
      "inputs": [
        {
          "internalType": "address",
          "name": "owner",
          "type": "address"
        },
        {
          "internalType": "address",
          "name": "operator",
          "type": "address"
        }
      ],
      "name": "isApprovedForAll",
      "outputs": [
        {
          "internalType": "bool",
          "name": "",
          "type": "bool"
        }
      ],
      "stateMutability": "view",
      "type": "function"
    },
    {
      "inputs": [],
      "name": "mint",
      "outputs": [],
      "stateMutability": "nonpayable",
      "type": "function"
    },
    {
      "inputs": [],
      "name": "name",
      "outputs": [
        {
          "internalType": "string",
          "name": "",
          "type": "string"
        }
      ],
      "stateMutability": "view",
      "type": "function"
    },
    {
      "inputs": [
        {
          "internalType": "uint256",
          "name": "tokenId",
          "type": "uint256"
        }
      ],
      "name": "ownerOf",
      "outputs": [
        {
          "internalType": "address",
          "name": "",
          "type": "address"
        }
      ],
      "stateMutability": "view",
      "type": "function"
    },
    {
      "inputs": [
        {
          "internalType": "address",
          "name": "from",
          "type": "address"
        },
        {
          "internalType": "address",
          "name": "to",
          "type": "address"
        },
        {
          "internalType": "uint256",
          "name": "tokenId",
          "type": "uint256"
        }
      ],
      "name": "safeTransferFrom",
      "outputs": [],
      "stateMutability": "nonpayable",
      "type": "function"
    },
    {
      "inputs": [
        {
          "internalType": "address",
          "name": "from",
          "type": "address"
        },
        {
          "internalType": "address",
          "name": "to",
          "type": "address"
        },
        {
          "internalType": "uint256",
          "name": "tokenId",
          "type": "uint256"
        },
        {
          "internalType": "bytes",
          "name": "data",
          "type": "bytes"
        }
      ],
      "name": "safeTransferFrom",
      "outputs": [],
      "stateMutability": "nonpayable",
      "type": "function"
    },
    {
      "inputs": [
        {
          "internalType": "address",
          "name": "operator",
          "type": "address"
        },
        {
          "internalType": "bool",
          "name": "approved",
          "type": "bool"
        }
      ],
      "name": "setApprovalForAll",
      "outputs": [],
      "stateMutability": "nonpayable",
      "type": "function"
    },
    {
      "inputs": [
        {
          "internalType": "bytes4",
          "name": "interfaceId",
          "type": "bytes4"
        }
      ],
      "name": "supportsInterface",
      "outputs": [
        {
          "internalType": "bool",
          "name": "",
          "type": "bool"
        }
      ],
      "stateMutability": "view",
      "type": "function"
    },
    {
      "inputs": [],
      "name": "symbol",
      "outputs": [
        {
          "internalType": "string",
          "name": "",
          "type": "string"
        }
      ],
      "stateMutability": "view",
      "type": "function"
    },
    {
      "inputs": [
        {
          "internalType": "uint256",
          "name": "index",
          "type": "uint256"
        }
      ],
      "name": "tokenByIndex",
      "outputs": [
        {
          "internalType": "uint256",
          "name": "",
          "type": "uint256"
        }
      ],
      "stateMutability": "view",
      "type": "function"
    },
    {
      "inputs": [
        {
          "internalType": "address",
          "name": "owner",
          "type": "address"
        },
        {
          "internalType": "uint256",
          "name": "index",
          "type": "uint256"
        }
      ],
      "name": "tokenOfOwnerByIndex",
      "outputs": [
        {
          "internalType": "uint256",
          "name": "",
          "type": "uint256"
        }
      ],
      "stateMutability": "view",
      "type": "function"
    },
    {
      "inputs": [
        {
          "internalType": "uint256",
          "name": "tokenId",
          "type": "uint256"
        }
      ],
      "name": "tokenURI",
      "outputs": [
        {
          "internalType": "string",
          "name": "",
          "type": "string"
        }
      ],
      "stateMutability": "pure",
      "type": "function"
    },
    {
      "inputs": [],
      "name": "totalSupply",
      "outputs": [
        {
          "internalType": "uint256",
          "name": "",
          "type": "uint256"
        }
      ],
      "stateMutability": "view",
      "type": "function"
    },
    {
      "inputs": [
        {
          "internalType": "address",
          "name": "from",
          "type": "address"
        },
        {
          "internalType": "address",
          "name": "to",
          "type": "address"
        },
        {
          "internalType": "uint256",
          "name": "tokenId",
          "type": "uint256"
        }
      ],
      "name": "transferFrom",
      "outputs": [],
      "stateMutability": "nonpayable",
      "type": "function"
    }
  ],
  "bytecode": "0x60806040523480156200001157600080fd5b506040518060400160405280600881526020017f54657374204e46540000000000000000000000000000000000000000000000008152506040518060400160405280600381526020017f5453430000000000000000000000000000000000000000000000000000000000815250816000908051906020019062000096929190620000b8565b508060019080519060200190620000af929190620000b8565b505050620001cd565b828054620000c69062000168565b90600052602060002090601f016020900481019282620000ea576000855562000136565b82601f106200010557805160ff191683800117855562000136565b8280016001018555821562000136579182015b828111156200013557825182559160200191906001019062000118565b5b50905062000145919062000149565b5090565b5b80821115620001645760008160009055506001016200014a565b5090565b600060028204905060018216806200018157607f821691505b602082108114156200019857620001976200019e565b5b50919050565b7f4e487b7100000000000000000000000000000000000000000000000000000000600052602260045260246000fd5b612cfd80620001dd6000396000f3fe608060405234801561001057600080fd5b50600436106101165760003560e01c80634f6ccce7116100a2578063a22cb46511610071578063a22cb465146102f3578063b88d4fde1461030f578063c87b56dd1461032b578063e8a3d4851461035b578063e985e9c51461037957610116565b80634f6ccce7146102455780636352211e1461027557806370a08231146102a557806395d89b41146102d557610116565b80631249c58b116100e95780631249c58b146101b557806318160ddd146101bf57806323b872dd146101dd5780632f745c59146101f957806342842e0e1461022957610116565b806301ffc9a71461011b57806306fdde031461014b578063081812fc14610169578063095ea7b314610199575b600080fd5b61013560048036038101906101309190611f39565b6103a9565b60405161014291906122e2565b60405180910390f35b610153610423565b60405161016091906122fd565b60405180910390f35b610183600480360381019061017e9190611f93565b6104b5565b604051610190919061227b565b60405180910390f35b6101b360048036038101906101ae9190611ef9565b6104fb565b005b6101bd610613565b005b6101c7610632565b6040516101d491906124bf565b60405180910390f35b6101f760048036038101906101f29190611de3565b61063f565b005b610213600480360381019061020e9190611ef9565b61069f565b60405161022091906124bf565b60405180910390f35b610243600480360381019061023e9190611de3565b610744565b005b61025f600480360381019061025a9190611f93565b610764565b60405161026c91906124bf565b60405180910390f35b61028f600480360381019061028a9190611f93565b6107d5565b60405161029c919061227b565b60405180910390f35b6102bf60048036038101906102ba9190611d76565b610887565b6040516102cc91906124bf565b60405180910390f35b6102dd61093f565b6040516102ea91906122fd565b60405180910390f35b61030d60048036038101906103089190611eb9565b6109d1565b005b61032960048036038101906103249190611e36565b6109e7565b005b61034560048036038101906103409190611f93565b610a49565b60405161035291906122fd565b60405180910390f35b610363610ab1565b60405161037091906122fd565b60405180910390f35b610393600480360381019061038e9190611da3565b610aee565b6040516103a091906122e2565b60405180910390f35b60007f780e9d63000000000000000000000000000000000000000000000000000000007bffffffffffffffffffffffffffffffffffffffffffffffffffffffff1916827bffffffffffffffffffffffffffffffffffffffffffffffffffffffff1916148061041c575061041b82610b82565b5b9050919050565b606060008054610432906126e4565b80601f016020809104026020016040519081016040528092919081815260200182805461045e906126e4565b80156104ab5780601f10610480576101008083540402835291602001916104ab565b820191906000526020600020905b81548152906001019060200180831161048e57829003601f168201915b5050505050905090565b60006104c082610c64565b6004600083815260200190815260200160002060009054906101000a900473ffffffffffffffffffffffffffffffffffffffff169050919050565b6000610506826107d5565b90508073ffffffffffffffffffffffffffffffffffffffff168373ffffffffffffffffffffffffffffffffffffffff161415610577576040517f08c379a000000000000000000000000000000000000000000000000000000000815260040161056e9061245f565b60405180910390fd5b8073ffffffffffffffffffffffffffffffffffffffff16610596610caf565b73ffffffffffffffffffffffffffffffffffffffff1614806105c557506105c4816105bf610caf565b610aee565b5b610604576040517f08c379a00000000000000000000000000000000000000000000000000000000081526004016105fb906123ff565b60405180910390fd5b61060e8383610cb7565b505050565b610630336001610621610632565b61062b9190612573565b610d70565b565b6000600880549050905090565b61065061064a610caf565b82610d8e565b61068f576040517f08c379a00000000000000000000000000000000000000000000000000000000081526004016106869061249f565b60405180910390fd5b61069a838383610e23565b505050565b60006106aa83610887565b82106106eb576040517f08c379a00000000000000000000000000000000000000000000000000000000081526004016106e29061231f565b60405180910390fd5b600660008473ffffffffffffffffffffffffffffffffffffffff1673ffffffffffffffffffffffffffffffffffffffff168152602001908152602001600020600083815260200190815260200160002054905092915050565b61075f838383604051806020016040528060008152506109e7565b505050565b600061076e610632565b82106107af576040517f08c379a00000000000000000000000000000000000000000000000000000000081526004016107a69061247f565b60405180910390fd5b600882815481106107c3576107c261287d565b5b90600052602060002001549050919050565b6000806002600084815260200190815260200160002060009054906101000a900473ffffffffffffffffffffffffffffffffffffffff169050600073ffffffffffffffffffffffffffffffffffffffff168173ffffffffffffffffffffffffffffffffffffffff16141561087e576040517f08c379a00000000000000000000000000000000000000000000000000000000081526004016108759061243f565b60405180910390fd5b80915050919050565b60008073ffffffffffffffffffffffffffffffffffffffff168273ffffffffffffffffffffffffffffffffffffffff1614156108f8576040517f08c379a00000000000000000000000000000000000000000000000000000000081526004016108ef906123df565b60405180910390fd5b600360008373ffffffffffffffffffffffffffffffffffffffff1673ffffffffffffffffffffffffffffffffffffffff168152602001908152602001600020549050919050565b60606001805461094e906126e4565b80601f016020809104026020016040519081016040528092919081815260200182805461097a906126e4565b80156109c75780601f1061099c576101008083540402835291602001916109c7565b820191906000526020600020905b8154815290600101906020018083116109aa57829003601f168201915b5050505050905090565b6109e36109dc610caf565b838361108a565b5050565b6109f86109f2610caf565b83610d8e565b610a37576040517f08c379a0000000000000000000000000000000000000000000000000000000008152600401610a2e9061249f565b60405180910390fd5b610a43848484846111f7565b50505050565b60606040518060400160405280600781526020017f6261736555726c00000000000000000000000000000000000000000000000000815250610a8a83611253565b604051602001610a9b929190612257565b6040516020818303038152906040529050919050565b60606040518060400160405280600781526020017f74657374696e6700000000000000000000000000000000000000000000000000815250905090565b6000600560008473ffffffffffffffffffffffffffffffffffffffff1673ffffffffffffffffffffffffffffffffffffffff16815260200190815260200160002060008373ffffffffffffffffffffffffffffffffffffffff1673ffffffffffffffffffffffffffffffffffffffff16815260200190815260200160002060009054906101000a900460ff16905092915050565b60007f80ac58cd000000000000000000000000000000000000000000000000000000007bffffffffffffffffffffffffffffffffffffffffffffffffffffffff1916827bffffffffffffffffffffffffffffffffffffffffffffffffffffffff19161480610c4d57507f5b5e139f000000000000000000000000000000000000000000000000000000007bffffffffffffffffffffffffffffffffffffffffffffffffffffffff1916827bffffffffffffffffffffffffffffffffffffffffffffffffffffffff1916145b80610c5d5750610c5c826113b4565b5b9050919050565b610c6d8161141e565b610cac576040517f08c379a0000000000000000000000000000000000000000000000000000000008152600401610ca39061243f565b60405180910390fd5b50565b600033905090565b816004600083815260200190815260200160002060006101000a81548173ffffffffffffffffffffffffffffffffffffffff021916908373ffffffffffffffffffffffffffffffffffffffff160217905550808273ffffffffffffffffffffffffffffffffffffffff16610d2a836107d5565b73ffffffffffffffffffffffffffffffffffffffff167f8c5be1e5ebec7d5bd14f71427d1e84f3dd0314c0f7b2291e5b200ac8c7c3b92560405160405180910390a45050565b610d8a82826040518060200160405280600081525061148a565b5050565b600080610d9a836107d5565b90508073ffffffffffffffffffffffffffffffffffffffff168473ffffffffffffffffffffffffffffffffffffffff161480610ddc5750610ddb8185610aee565b5b80610e1a57508373ffffffffffffffffffffffffffffffffffffffff16610e02846104b5565b73ffffffffffffffffffffffffffffffffffffffff16145b91505092915050565b8273ffffffffffffffffffffffffffffffffffffffff16610e43826107d5565b73ffffffffffffffffffffffffffffffffffffffff1614610e99576040517f08c379a0000000000000000000000000000000000000000000000000000000008152600401610e909061235f565b60405180910390fd5b600073ffffffffffffffffffffffffffffffffffffffff168273ffffffffffffffffffffffffffffffffffffffff161415610f09576040517f08c379a0000000000000000000000000000000000000000000000000000000008152600401610f009061239f565b60405180910390fd5b610f148383836114e5565b610f1f600082610cb7565b6001600360008573ffffffffffffffffffffffffffffffffffffffff1673ffffffffffffffffffffffffffffffffffffffff1681526020019081526020016000206000828254610f6f91906125fa565b925050819055506001600360008473ffffffffffffffffffffffffffffffffffffffff1673ffffffffffffffffffffffffffffffffffffffff1681526020019081526020016000206000828254610fc69190612573565b92505081905550816002600083815260200190815260200160002060006101000a81548173ffffffffffffffffffffffffffffffffffffffff021916908373ffffffffffffffffffffffffffffffffffffffff160217905550808273ffffffffffffffffffffffffffffffffffffffff168473ffffffffffffffffffffffffffffffffffffffff167fddf252ad1be2c89b69c2b068fc378daa952ba7f163c4a11628f55a4df523b3ef60405160405180910390a46110858383836115f9565b505050565b8173ffffffffffffffffffffffffffffffffffffffff168373ffffffffffffffffffffffffffffffffffffffff1614156110f9576040517f08c379a00000000000000000000000000000000000000000000000000000000081526004016110f0906123bf565b60405180910390fd5b80600560008573ffffffffffffffffffffffffffffffffffffffff1673ffffffffffffffffffffffffffffffffffffffff16815260200190815260200160002060008473ffffffffffffffffffffffffffffffffffffffff1673ffffffffffffffffffffffffffffffffffffffff16815260200190815260200160002060006101000a81548160ff0219169083151502179055508173ffffffffffffffffffffffffffffffffffffffff168373ffffffffffffffffffffffffffffffffffffffff167f17307eab39ab6107e8899845ad3d59bd9653f200f220920489ca2b5937696c31836040516111ea91906122e2565b60405180910390a3505050565b611202848484610e23565b61120e848484846115fe565b61124d576040517f08c379a00000000000000000000000000000000000000000000000000000000081526004016112449061233f565b60405180910390fd5b50505050565b6060600082141561129b576040518060400160405280600181526020017f300000000000000000000000000000000000000000000000000000000000000081525090506113af565b600082905060005b600082146112cd5780806112b690612747565b915050600a826112c691906125c9565b91506112a3565b60008167ffffffffffffffff8111156112e9576112e86128ac565b5b6040519080825280601f01601f19166020018201604052801561131b5781602001600182028036833780820191505090505b5090505b600085146113a85760018261133491906125fa565b9150600a856113439190612790565b603061134f9190612573565b60f81b8183815181106113655761136461287d565b5b60200101907effffffffffffffffffffffffffffffffffffffffffffffffffffffffffffff1916908160001a905350600a856113a191906125c9565b945061131f565b8093505050505b919050565b60007f01ffc9a7000000000000000000000000000000000000000000000000000000007bffffffffffffffffffffffffffffffffffffffffffffffffffffffff1916827bffffffffffffffffffffffffffffffffffffffffffffffffffffffff1916149050919050565b60008073ffffffffffffffffffffffffffffffffffffffff166002600084815260200190815260200160002060009054906101000a900473ffffffffffffffffffffffffffffffffffffffff1673ffffffffffffffffffffffffffffffffffffffff1614159050919050565b6114948383611795565b6114a160008484846115fe565b6114e0576040517f08c379a00000000000000000000000000000000000000000000000000000000081526004016114d79061233f565b60405180910390fd5b505050565b6114f083838361196f565b600073ffffffffffffffffffffffffffffffffffffffff168373ffffffffffffffffffffffffffffffffffffffff1614156115335761152e81611974565b611572565b8173ffffffffffffffffffffffffffffffffffffffff168373ffffffffffffffffffffffffffffffffffffffff16146115715761157083826119bd565b5b5b600073ffffffffffffffffffffffffffffffffffffffff168273ffffffffffffffffffffffffffffffffffffffff1614156115b5576115b081611b2a565b6115f4565b8273ffffffffffffffffffffffffffffffffffffffff168273ffffffffffffffffffffffffffffffffffffffff16146115f3576115f28282611bfb565b5b5b505050565b505050565b600061161f8473ffffffffffffffffffffffffffffffffffffffff16611c7a565b15611788578373ffffffffffffffffffffffffffffffffffffffff1663150b7a02611648610caf565b8786866040518563ffffffff1660e01b815260040161166a9493929190612296565b602060405180830381600087803b15801561168457600080fd5b505af19250505080156116b557506040513d601f19601f820116820180604052508101906116b29190611f66565b60015b611738573d80600081146116e5576040519150601f19603f3d011682016040523d82523d6000602084013e6116ea565b606091505b50600081511415611730576040517f08c379a00000000000000000000000000000000000000000000000000000000081526004016117279061233f565b60405180910390fd5b805181602001fd5b63150b7a0260e01b7bffffffffffffffffffffffffffffffffffffffffffffffffffffffff1916817bffffffffffffffffffffffffffffffffffffffffffffffffffffffff19161491505061178d565b600190505b949350505050565b600073ffffffffffffffffffffffffffffffffffffffff168273ffffffffffffffffffffffffffffffffffffffff161415611805576040517f08c379a00000000000000000000000000000000000000000000000000000000081526004016117fc9061241f565b60405180910390fd5b61180e8161141e565b1561184e576040517f08c379a00000000000000000000000000000000000000000000000000000000081526004016118459061237f565b60405180910390fd5b61185a600083836114e5565b6001600360008473ffffffffffffffffffffffffffffffffffffffff1673ffffffffffffffffffffffffffffffffffffffff16815260200190815260200160002060008282546118aa9190612573565b92505081905550816002600083815260200190815260200160002060006101000a81548173ffffffffffffffffffffffffffffffffffffffff021916908373ffffffffffffffffffffffffffffffffffffffff160217905550808273ffffffffffffffffffffffffffffffffffffffff16600073ffffffffffffffffffffffffffffffffffffffff167fddf252ad1be2c89b69c2b068fc378daa952ba7f163c4a11628f55a4df523b3ef60405160405180910390a461196b600083836115f9565b5050565b505050565b6008805490506009600083815260200190815260200160002081905550600881908060018154018082558091505060019003906000526020600020016000909190919091505550565b600060016119ca84610887565b6119d491906125fa565b9050600060076000848152602001908152602001600020549050818114611ab9576000600660008673ffffffffffffffffffffffffffffffffffffffff1673ffffffffffffffffffffffffffffffffffffffff168152602001908152602001600020600084815260200190815260200160002054905080600660008773ffffffffffffffffffffffffffffffffffffffff1673ffffffffffffffffffffffffffffffffffffffff168152602001908152602001600020600084815260200190815260200160002081905550816007600083815260200190815260200160002081905550505b6007600084815260200190815260200160002060009055600660008573ffffffffffffffffffffffffffffffffffffffff1673ffffffffffffffffffffffffffffffffffffffff16815260200190815260200160002060008381526020019081526020016000206000905550505050565b60006001600880549050611b3e91906125fa565b9050600060096000848152602001908152602001600020549050600060088381548110611b6e57611b6d61287d565b5b906000526020600020015490508060088381548110611b9057611b8f61287d565b5b906000526020600020018190555081600960008381526020019081526020016000208190555060096000858152602001908152602001600020600090556008805480611bdf57611bde61284e565b5b6001900381819060005260206000200160009055905550505050565b6000611c0683610887565b905081600660008573ffffffffffffffffffffffffffffffffffffffff1673ffffffffffffffffffffffffffffffffffffffff168152602001908152602001600020600083815260200190815260200160002081905550806007600084815260200190815260200160002081905550505050565b6000808273ffffffffffffffffffffffffffffffffffffffff163b119050919050565b6000611cb0611cab846124ff565b6124da565b905082815260208101848484011115611ccc57611ccb6128e0565b5b611cd78482856126a2565b509392505050565b600081359050611cee81612c6b565b92915050565b600081359050611d0381612c82565b92915050565b600081359050611d1881612c99565b92915050565b600081519050611d2d81612c99565b92915050565b600082601f830112611d4857611d476128db565b5b8135611d58848260208601611c9d565b91505092915050565b600081359050611d7081612cb0565b92915050565b600060208284031215611d8c57611d8b6128ea565b5b6000611d9a84828501611cdf565b91505092915050565b60008060408385031215611dba57611db96128ea565b5b6000611dc885828601611cdf565b9250506020611dd985828601611cdf565b9150509250929050565b600080600060608486031215611dfc57611dfb6128ea565b5b6000611e0a86828701611cdf565b9350506020611e1b86828701611cdf565b9250506040611e2c86828701611d61565b9150509250925092565b60008060008060808587031215611e5057611e4f6128ea565b5b6000611e5e87828801611cdf565b9450506020611e6f87828801611cdf565b9350506040611e8087828801611d61565b925050606085013567ffffffffffffffff811115611ea157611ea06128e5565b5b611ead87828801611d33565b91505092959194509250565b60008060408385031215611ed057611ecf6128ea565b5b6000611ede85828601611cdf565b9250506020611eef85828601611cf4565b9150509250929050565b60008060408385031215611f1057611f0f6128ea565b5b6000611f1e85828601611cdf565b9250506020611f2f85828601611d61565b9150509250929050565b600060208284031215611f4f57611f4e6128ea565b5b6000611f5d84828501611d09565b91505092915050565b600060208284031215611f7c57611f7b6128ea565b5b6000611f8a84828501611d1e565b91505092915050565b600060208284031215611fa957611fa86128ea565b5b6000611fb784828501611d61565b91505092915050565b611fc98161262e565b82525050565b611fd881612640565b82525050565b6000611fe982612530565b611ff38185612546565b93506120038185602086016126b1565b61200c816128ef565b840191505092915050565b600061202282612530565b61202c8185612557565b935061203c8185602086016126b1565b80840191505092915050565b60006120538261253b565b61205d8185612562565b935061206d8185602086016126b1565b612076816128ef565b840191505092915050565b600061208e602b83612562565b915061209982612900565b604082019050919050565b60006120b1603283612562565b91506120bc8261294f565b604082019050919050565b60006120d4602583612562565b91506120df8261299e565b604082019050919050565b60006120f7601c83612562565b9150612102826129ed565b602082019050919050565b600061211a602483612562565b915061212582612a16565b604082019050919050565b600061213d601983612562565b915061214882612a65565b602082019050919050565b6000612160602983612562565b915061216b82612a8e565b604082019050919050565b6000612183603e83612562565b915061218e82612add565b604082019050919050565b60006121a6602083612562565b91506121b182612b2c565b602082019050919050565b60006121c9601883612562565b91506121d482612b55565b602082019050919050565b60006121ec602183612562565b91506121f782612b7e565b604082019050919050565b600061220f602c83612562565b915061221a82612bcd565b604082019050919050565b6000612232602e83612562565b915061223d82612c1c565b604082019050919050565b61225181612698565b82525050565b60006122638285612017565b915061226f8284612017565b91508190509392505050565b60006020820190506122906000830184611fc0565b92915050565b60006080820190506122ab6000830187611fc0565b6122b86020830186611fc0565b6122c56040830185612248565b81810360608301526122d78184611fde565b905095945050505050565b60006020820190506122f76000830184611fcf565b92915050565b600060208201905081810360008301526123178184612048565b905092915050565b6000602082019050818103600083015261233881612081565b9050919050565b60006020820190508181036000830152612358816120a4565b9050919050565b60006020820190508181036000830152612378816120c7565b9050919050565b60006020820190508181036000830152612398816120ea565b9050919050565b600060208201905081810360008301526123b88161210d565b9050919050565b600060208201905081810360008301526123d881612130565b9050919050565b600060208201905081810360008301526123f881612153565b9050919050565b6000602082019050818103600083015261241881612176565b9050919050565b6000602082019050818103600083015261243881612199565b9050919050565b60006020820190508181036000830152612458816121bc565b9050919050565b60006020820190508181036000830152612478816121df565b9050919050565b6000602082019050818103600083015261249881612202565b9050919050565b600060208201905081810360008301526124b881612225565b9050919050565b60006020820190506124d46000830184612248565b92915050565b60006124e46124f5565b90506124f08282612716565b919050565b6000604051905090565b600067ffffffffffffffff82111561251a576125196128ac565b5b612523826128ef565b9050602081019050919050565b600081519050919050565b600081519050919050565b600082825260208201905092915050565b600081905092915050565b600082825260208201905092915050565b600061257e82612698565b915061258983612698565b9250827fffffffffffffffffffffffffffffffffffffffffffffffffffffffffffffffff038211156125be576125bd6127c1565b5b828201905092915050565b60006125d482612698565b91506125df83612698565b9250826125ef576125ee6127f0565b5b828204905092915050565b600061260582612698565b915061261083612698565b925082821015612623576126226127c1565b5b828203905092915050565b600061263982612678565b9050919050565b60008115159050919050565b60007fffffffff0000000000000000000000000000000000000000000000000000000082169050919050565b600073ffffffffffffffffffffffffffffffffffffffff82169050919050565b6000819050919050565b82818337600083830152505050565b60005b838110156126cf5780820151818401526020810190506126b4565b838111156126de576000848401525b50505050565b600060028204905060018216806126fc57607f821691505b602082108114156127105761270f61281f565b5b50919050565b61271f826128ef565b810181811067ffffffffffffffff8211171561273e5761273d6128ac565b5b80604052505050565b600061275282612698565b91507fffffffffffffffffffffffffffffffffffffffffffffffffffffffffffffffff821415612785576127846127c1565b5b600182019050919050565b600061279b82612698565b91506127a683612698565b9250826127b6576127b56127f0565b5b828206905092915050565b7f4e487b7100000000000000000000000000000000000000000000000000000000600052601160045260246000fd5b7f4e487b7100000000000000000000000000000000000000000000000000000000600052601260045260246000fd5b7f4e487b7100000000000000000000000000000000000000000000000000000000600052602260045260246000fd5b7f4e487b7100000000000000000000000000000000000000000000000000000000600052603160045260246000fd5b7f4e487b7100000000000000000000000000000000000000000000000000000000600052603260045260246000fd5b7f4e487b7100000000000000000000000000000000000000000000000000000000600052604160045260246000fd5b600080fd5b600080fd5b600080fd5b600080fd5b6000601f19601f8301169050919050565b7f455243373231456e756d657261626c653a206f776e657220696e646578206f7560008201527f74206f6620626f756e6473000000000000000000000000000000000000000000602082015250565b7f4552433732313a207472616e7366657220746f206e6f6e20455243373231526560008201527f63656976657220696d706c656d656e7465720000000000000000000000000000602082015250565b7f4552433732313a207472616e736665722066726f6d20696e636f72726563742060008201527f6f776e6572000000000000000000000000000000000000000000000000000000602082015250565b7f4552433732313a20746f6b656e20616c7265616479206d696e74656400000000600082015250565b7f4552433732313a207472616e7366657220746f20746865207a65726f2061646460008201527f7265737300000000000000000000000000000000000000000000000000000000602082015250565b7f4552433732313a20617070726f766520746f2063616c6c657200000000000000600082015250565b7f4552433732313a2061646472657373207a65726f206973206e6f74206120766160008201527f6c6964206f776e65720000000000000000000000000000000000000000000000602082015250565b7f4552433732313a20617070726f76652063616c6c6572206973206e6f7420746f60008201527f6b656e206f776e6572206e6f7220617070726f76656420666f7220616c6c0000602082015250565b7f4552433732313a206d696e7420746f20746865207a65726f2061646472657373600082015250565b7f4552433732313a20696e76616c696420746f6b656e2049440000000000000000600082015250565b7f4552433732313a20617070726f76616c20746f2063757272656e74206f776e6560008201527f7200000000000000000000000000000000000000000000000000000000000000602082015250565b7f455243373231456e756d657261626c653a20676c6f62616c20696e646578206f60008201527f7574206f6620626f756e64730000000000000000000000000000000000000000602082015250565b7f4552433732313a2063616c6c6572206973206e6f7420746f6b656e206f776e6560008201527f72206e6f7220617070726f766564000000000000000000000000000000000000602082015250565b612c748161262e565b8114612c7f57600080fd5b50565b612c8b81612640565b8114612c9657600080fd5b50565b612ca28161264c565b8114612cad57600080fd5b50565b612cb981612698565b8114612cc457600080fd5b5056fea264697066735822122030cf2786cd237b7915c2042a7b6d534c84b53e7df5a012bccd3169b09cd22b2b64736f6c63430008050033",
  "linkReferences": {},
  "deployedLinkReferences": {}
}